:1000000000308A00B6290000FF00030E8301A10022
:100010007F08A0000A08A8008A01A00E0408A20018
:100020007708A3007808A4007908A5007A08A6003C
:100030007B08A700831383128C308400001C2228C5
:100040000C1845288C308400801C28288C184728E0
:100050008C308400001D2E280C1949288B1E322854
:100060000B194B28220884002308F7002408F80005
:100070002508F9002608FA002708FB0028088A004E
:10008000210E8300FF0E7F0E09008A1166288A1157
:100090006A288A1196288A1192280A108A100A1151
:1000A000820741347A343D3425344C34753420345D
:1000B00020345434753472346E3473343D34253402
:1000C0004C34643420340A340D3400340C100C10D9
:1000D0008A1132282B08003A03197828013A0319AB
:1000E0007F28033A03198428013A031989288D28A7
:1000F0008F018E01861086110130AB008E28861488
:1001000086110230AB008E28861486150330AB00B2
:100110008E2886108615AB018E28AB018C108C10B2
:100120008A1132280B110B118A113228160CB300D8
:10013000150CB200B30CB20CB30CB20C1F30B305EB
:1001400034083202F7003308FA003508031C350F73
:10015000FA027708B8007A08B900B91FBC28390834
:10016000FE3C031CBC28031DB9283808D33C031CE3
:10017000BC280130A900CD28B91BCC283908003C87
:100180000318CC28FF3A031DC92838082C3C031853
:10019000CC28FF30A900CD28A901FA012908A91B04
:1001A000FA03B6077A0803187A0FB7073308B500C1
:1001B0003208B4002A18E1282A143308B1003208A2
:1001C000B0000C110C118A113228C2010408C100C0
:1001D0004210831B42143B0EF038BD00BD07E23EC7
:1001E000BE00323EC0003B080F39BE07BE07C00745
:1001F000E93EBF00BF07BF073A0E0F39BF07C00770
:10020000BF0DC00DC009C00D3A080F39C007BD0DA4
:100210000730BC000A30C007BF03031C0B29BF070F
:10022000BE03031C0F29BE07BD03031C1329BD0712
:10023000BC03031C17293C3084008313073041059D
:100240004113840740300402031941170008F700E6
:10025000031D3229411B3229411A3A29C119322979
:1002600020303529C11541123030F70777080C1EB0
:1002700037299900840A411F22298A11362AC3018D
:100280000408C2004310831B4314BC1F4F29C2172C
:10029000421EC20ABB09BC09BB0A0319BC0A3C0EB8
:1002A000F038BE00BE07E23EBF00323EC1003C084F
:1002B0000F39BF07BF07C107E93EC000C007C0072D
:1002C0003B0E0F39C007C107C00DC10DC109C10DDB
:1002D0003B080F39C107BE0D0730BD000A30C1070A
:1002E000C003031C6F29C007BF03031C7329BF078A
:1002F000BE03031C7729BE07BD03031C7B293D30C9
:100300008400831307304205421384034205031D12
:100310009029421A840A421A90292030F700AD2908
:10032000840741300402031942170008F700031D37
:10033000A129421BA129421AB129C219A1292030A1
:10034000AC29C21FA9292D30F70084034213C21320
:10035000AD29C21542123030F70777080C1EAE29BE
:100360009900840A421F91298A114B2A8401831320
:100370001F3083050C3083169900A630980090300A
:100380008312980083161F129F121B0880399B004E
:1003900007309C008312A9012A10AA10AB01AD01FD
:1003A000AE01AF01B001B101B201B301B401B501B9
:1003B000B601B701B801B90183161F129F121B08BD
:1003C00080399B0083121F10941283160611861425
:1003D0000612013083129400003083169400010845
:1003E000C739083881009530831290000030F8003A
:1003F0000638920059308316920006309C0005089A
:100400000738E73985000630F700F70B052A0000AA
:100410001C0883120D13ED3083169D00051506147C
:10042000831297010430970083168C140C15C0308A
:1004300083128B0483161C16861086118312861075
:1004400086112A1C582A41300C1E242A99007A3021
:100450000C1E282A99003D300C1E2C2A99001030C1
:1004600084003108BB003008BA00E5280630BA0025
:100470003A084D20BA0AF70077080C1E3D2A990069
:100480000E303A02031D382A103084003708BC00B1
:100490003608BB003F2920300C1E4C2A99000A3038
:1004A0000C1E502A99000D300C1E542A99002A1057
:0404B000212A63009A
:04400E002A3FFC3F0A
:00000001FF
;PIC16F88
