:020000040800F2
:10000000201000203D0B0008A50B0008A90B0008DC
:10001000AD0B0008B10B0008B50B00080000000094
:10002000000000000000000000000000B90B000804
:10003000BD0B000800000000C10B0008C50B000844
:10004000C90B0008CD0B0008D10B00080000000010
:1000500000000000D50B0008B9080008DD0B0008FF
:10006000E10B000800000000E50B0008E90B0008A8
:10007000ED0B000800000000F10B0008F50B000874
:10008000F90B0008FD0B000800000000010C00083F
:10009000050C000800000000000000000000000047
:1000A000000000000000000000000000090C000833
:1000B0000D0C0008110C0008150C0008190C0008A4
:1000C00040B24109DFF89826012310F01F0013FA0F
:1000D00000F042F821007047002000E0401CC0B250
:1000E0007328FBDB7047002000E0401CC0B21128E1
:1000F000FBDB7047002000E0401CDFF868168842F8
:10010000FAD3704780B5FFF7F5FFFFF7F3FFFFF76E
:10011000F1FFFFF7EFFF01BDDFF84C065FF0FF31A5
:100120000160DFF8480601210160DFF8440600683D
:100130004007FAD5DFF83C0640F204710160DFF8B1
:10014000300600688007FAD5DFF82C064FF48B7173
:1001500001607047DFF82406A1210160DFF8200666
:1001600000210160DFF81C064FF6FF710160DFF827
:1001700018065FF0FF310160DFF810064FF47F4191
:100180000160DFF80C0600210160DFF808064FF679
:10019000FF710160DFF800065FF0FF310160DFF8FA
:1001A000FC054FF6FF710160DFF8F40500210160E6
:1001B000DFF8F0054FF6FF710160DFF8EC055FF046
:1001C000FF310160DFF8E40500210160DFF8E005A0
:1001D00000210160DFF8DC054FF6FF710160DFF8F8
:1001E000D8055FF0FF310160DFF8D0054FF6FF71F1
:1001F0000160DFF8CC0500210160DFF8C8054FF68B
:10020000FF710160DFF8C0055FF0FF310160DFF8CA
:10021000BC054FF6FF710160DFF8B405AA2101604B
:10022000DFF8B0054FF6FF710160DFF8AC055FF055
:10023000FF3101607047DFF83005006850F48070CE
:10024000DFF824150860DFF89405DFF894150160E5
:10025000DFF89005C7210160DFF88C0502210160FD
:10026000DFF8880502210160704780B5DFF880154E
:1002700080B20860FFF737FFDFF87805006830F0DC
:100280000400DFF87015086001BD10B5DFF86805DF
:10029000006830F04000DFF860150860FFF71CFFD1
:1002A000DFF85405006850F04000DFF84C15086096
:1002B000DFF84405006830F08000DFF83C15086086
:1002C000002409E0E4B2DFF83405205C80B2FFF7D7
:1002D000CCFFFFF708FF641CE4B2152CF2DB10BD65
:1002E00080B5DFF81415096851F08001DFF80825A2
:1002F0001160C0B280B2FFF7B8FFDFF8FC040068FD
:1003000030F08000DFF8F014086001BD80B5DFF840
:10031000E814096831F08001DFF8DC241160C0B214
:1003200050F0B00080B2FFF7A0FF01BD10B504008F
:100330000020DFF8C414096831F08001DFF8B82428
:10034000116014F00F010800C0B280B2FFF78DFFFA
:10035000E4B22009C0B2103080B2FFF786FF10BDB2
:1003600080B5C0B2FFF7D2FF0020FFF7DFFF01BD6D
:1003700038B5002407E00020FFF7B2FF6D1CEDB296
:10038000822DF8DB641CE4B2082C08DA2000C0B22D
:10039000FFF7BCFF0020FFF7C9FF0025EFE731BDE5
:1003A00010B5C0B2002810D0022834D01DD30428C4
:1003B00051D040D306286ED05DD3082800F0898044
:1003C00078D3092800F09480A0E0002406E0E4B28D
:1003D000DFF82C04205CFFF783FF641CE4B2062CDA
:1003E000F5DB0020FFF77CFF90E00020FFF778FFAF
:1003F0000020FFF775FF002406E0E4B2DFF80404F4
:10040000205CFFF76DFF641CE4B2032CF5DB0020D9
:10041000FFF766FF7AE0002406E0E4B2DFF8E803C5
:10042000205CFFF75DFF641CE4B2052CF5DB0020C7
:10043000FFF756FF6AE0002406E0E4B2DFF8CC03E1
:10044000205CFFF74DFF641CE4B2052CF5DB0020B7
:10045000FFF746FF5AE0002406E0E4B2DFF8B003FD
:10046000205CFFF73DFF641CE4B2062CF5DB0020A6
:10047000FFF736FF4AE0002406E0E4B2DFF8940319
:10048000205CFFF72DFF641CE4B2052CF5DB002097
:10049000FFF726FF3AE0002405E0E4B2DE48205CE6
:1004A000FFF71EFF641CE4B2052CF6DB0020FFF70B
:1004B00017FF2BE0002405E0E4B2D848205CFFF7EA
:1004C0000FFF641CE4B2052CF6DB0020FFF708FFE9
:1004D0001CE0002405E0E4B2D148205CFFF700FFF7
:1004E000641CE4B2052CF6DB0020FFF7F9FE0DE0FA
:1004F000002405E0E4B2CB48205CFFF7F1FE641C69
:10050000E4B2052CF6DB0020FFF7EAFE10BD2DE972
:10051000F8430400C9B201290BD0C0F01E810329A1
:100520001CD00BD305296AD036D3062900F0B3803E
:1005300013E12000C0B2FFF733FF0EE10A20B4FB45
:10054000F0F52800C0B2FFF72BFFADB20A2000FB88
:1005500015442000C0B2FFF723FFFEE06420B4FB87
:10056000F0F52800C0B2FFF71BFFADB2642000FB1E
:1005700015460A20B6FBF0F63000C0B2FFF710FFB8
:10058000ADB2642000FB15400A2101FB16042000D7
:10059000C0B2FFF705FFE0E04FF47A70B4FBF0F56E
:1005A0002800C0B2FFF7FCFEADB24FF47A7000FB3A
:1005B00015466420B6FBF0F63000C0B2FFF7F0FE3F
:1005C000ADB24FF47A7000FB1540642101FB1607B1
:1005D0000A20B7FBF0F73800C0B2FFF7E1FEADB27A
:1005E0004FF47A7000FB1540642101FB16000A21CC
:1005F00001FB17042000C0B2FFF7D2FEADE042F2CB
:100600001070B4FBF0F52800C0B2FFF7C9FEADB220
:1006100042F2107000FB15464FF47A70B6FBF0F60C
:100620003000C0B2FFF7BCFEADB242F2107000FB6A
:1006300015404FF47A7101FB16076420B7FBF0F701
:100640003800C0B2FFF7ACFEADB242F2107000FB52
:1006500015404FF47A7101FB1600642101FB170865
:100660000A20B8FBF0F84046C0B2FFF799FEADB2E1
:1006700042F2107000FB15404FF47A7101FB160036
:10068000642101FB17000A2101FB18042000C0B2FD
:10069000FFF786FE61E06448B4FBF0F52800C0B2C5
:1006A000FFF77EFEADB2604800FB154642F21070C7
:1006B000B6FBF0F63000C0B2FFF772FEADB25A489A
:1006C00000FB154042F2107101FB16074FF47A70DF
:1006D000B7FBF0F73800C0B2FFF762FEADB2524888
:1006E00000FB154042F2107101FB16004FF47A71C5
:1006F00001FB17086420B8FBF0F84046C0B2FFF7D2
:100700004FFEADB2484800FB154042F2107101FBAC
:1007100016004FF47A7101FB1700642101FB1809E0
:100720000A20B9FBF0F94846C0B2FFF739FEADB276
:100730003D4800FB154042F2107101FB16004FF4DA
:100740007A7101FB1700642101FB18000A2101FBEB
:1007500019042000C0B2FFF723FEBDE8F1830000BA
:1007600000E100E020A107001C0002400800024058
:1007700000000240040002400C00024004800A40D5
:1007800008800A400C800A4018800A4004000B4090
:1007900008000B400C000B4018000B4004800B407D
:1007A00008800B400C800B4018800B4004000C406C
:1007B00008000C400C000C4018000C4004800C4059
:1007C00008800C400C800C4018800C4004800E40C7
:1007D00008800E400C800E4018800E402C00024015
:1007E0000200000100000440100004400400044026
:1007F0000800044000800E4000800C4000000020F3
:10080000980B0008A00B0008580B0008600B0008AC
:10081000680B0008700B0008780B0008800B0008BC
:10082000880B0008900B0008A0860100DFF8340157
:10083000006850F42050DFF82C110860DFF8280120
:10084000006850F06000DFF820110860DFF81C013C
:10085000006850F47050DFF814110860DFF81001E0
:10086000006850F04000DFF808110860DFF804016C
:10087000DFF804110160DFF8040102210160DFF8F4
:1008800000012E210160DFF8FC0060210160DFF82B
:10089000F80040F201310160DFF8F0001021016042
:1008A0007047000080B5FFF737FCFFF753FCFFF7F8
:1008B000BDFFFFF7C0FC01BD0020354909680800F5
:1008C000C0B2742803D133480121017002E03148DD
:1008D0000221017030481021016070472F480068E4
:1008E00050F004002D490860704700002DE9F041E8
:1008F00000250026002400275FF00008FFF7D2FF44
:10090000FFF7ECFFFFF7C1FCFFF732FD0620FFF712
:10091000D7FB62B6FFF7F6FBFFF7F4FBFFF7F2FB3E
:10092000FFF7F0FBFFF7EEFBFFF7ECFB1C4800685E
:1009300040070AD5641C1B484FF6FF710160FFF7A2
:10094000E1FBFFF7DFFBFFF7DDFB1648002101604D
:100950000020FFF705FD02212000FFF7D8FDFFF77B
:10096000C9FBE3E708000B400C000B4018000B40EC
:100970001C00024028000240040000012400034043
:10098000280003402C00034030000340380003409F
:10099000000003401C0000204400034010E000E081
:1009A00000000B4000800B4025490968244A12686A
:1009B000D20700D5400822490968490705D52149D1
:1009C0000968C1F30321491C48431D490968090A04
:1009D00011F00301002903D002290CD001D30BE050
:1009E0000AE017490968C1F30311491CB0FBF1F093
:1009F0001549086000E0FFE770472DE9F041134812
:100A0000134901600E4804680D48002101600D483B
:100A100005680C48002101600E4806680D48002159
:100A200001600D4807680C48002101600B48D0F8B0
:100A300000800A4800210160FFF7B6FFBDE8F081A1
:100A40000C00024004000240180000201C0002407C
:100A5000100000080800024010000240140002408C
:100A600010B450F8041B81B102681218001D50F830
:100A7000043BDC0744BFA9F10104E31852F8044B1E
:100A800043F8044B091FF9D1EBE710BC704750F84D
:100A9000041B61B150F8042BD30744BFA9F1010333
:100AA0009A18002342F8043B091FFAD1EFE7704778
:100AB00010B5074979441831064C7C44163404E0DB
:100AC0000A68081D511888470146A142F8D110BD97
:100AD0000800000028000000B7FFFFFF040000002E
:100AE0001C0000200000000079FFFFFF1C00000038
:100AF0002C010000000000200000000000F009F8B8
:100B0000002801D0FFF7D4FF0020FFF7EFFE00F030
:100B100002F80120704700F001B80000074638468F
:100B200000F002F8FBE7000080B5C046C046024A6C
:100B300011001820ABBEFBE72600020001488047E9
:100B400001480047FB0900084D0B0008C046C0469D
:100B5000C046C046FFF7D2FF6273594F46000000FF
:100B6000226B497F36000000181C167F7F100000A2
:100B70004F4F4979310000003E7F49793000000035
:100B800061791D0703000000367F497F36000000B1
:100B9000064F497F3E0000003E7F41417F3E0000FE
:100BA000017F7F00FFF7FEBFFFF7FEBFFFF7FEBF2D
:100BB000FFF7FEBFFFF7FEBFFFF7FEBFFFF7FEBF69
:100BC000FFF7FEBFFFF7FEBFFFF7FEBFFFF7FEBF59
:100BD000FFF7FEBFFFF7FEBFFFF76EBEFFF7FEBFDA
:100BE000FFF7FEBFFFF7FEBFFFF7FEBFFFF7FEBF39
:100BF000FFF7FEBFFFF7FEBFFFF7FEBFFFF7FEBF29
:100C0000FFF7FEBFFFF7FEBFFFF7FEBFFFF7FEBF18
:100C1000FFF7FEBFFFF7FEBFFFF7FEBFAEE240B03B
:100C20001000A0A3A4A6C8812589012F26AD02E348
:080C3000AF00000000127A0081
:0400000508000B4D97
:00000001FF
