:080000001816040000000000C6
:040034003403000091
:0400A0005C030000FD
:100400003220EF00C3202000008041001040BA00DD
:100410000160EF0000000600737400006F700000C0
:1004200070650000640A00000D0000003220EF003B
:1004300023222000008041001040BA000160EF003C
:100440000000060065720000722000000D0A000026
:10045000000000003220EF006323200000804100F4
:100460001040BA000160EF00000006005047000095
:100470004120000065720000722000000D0A00009B
:10048000000000003220EF00E32420000080410043
:100490001040BA000160EF00000006005047000065
:1004A000413D000025750000200D00000A000000FD
:1004B0003220EF0043262000008041001040BA00A7
:1004C0000160EF00000006005047000041200000DE
:1004D0006F750000742000006F660000207200003D
:1004E000616E0000676500000D0A0000000000005A
:1004F0003220EF0043282000008041001040BA0065
:100500000160EF000000060065720000722000002C
:1005100070310000200D00000A0000003220EF00C2
:10052000A3292000008041001040BA000160EF00C4
:1005300000000600657200007220000070320000AA
:10054000200D00000A0000003220EF00032B2000E5
:10055000008041001040BA000160EF00000006007A
:1005600053500000533D000025750000200D000091
:100570000A0000003220EF00632C200000804100C0
:100580001040BA000160EF00000006005350000068
:10059000532000006F750000742000006F6600009B
:1005A00020720000616E0000676500000D0A000007
:1005B000000000003220EF00632E20000080410088
:1005C0001040BA000160EF000000060065720000F4
:1005D0007220000070330000200D00000A000000AF
:1005E0003220EF00C32F2000008041001040BA00ED
:1005F0000160EF00000006006176000065720000F7
:10060000206200007566000020730000697A000017
:10061000653D000025750000200D00000A00000067
:100620003220EF00C3312000008041001040BA00AA
:100630000160EF00000006006176000065720000B6
:100640002062000075660000206F000075740000D5
:10065000206F000066200000726100006E670000DD
:10066000650D00000A0000004200F8003600F800A6
:100670003200F800801F7800200020000C000900E4
:10068000B01F78000060FE0004E224000408880027
:100690008460A9008460A900A00120000C0009006A
:1006A0004F1078004F0078003200F9003600F90052
:1006B0004200F900004006004200F8003600F80051
:1006C0003200F800801F7800200020000C00090094
:1006D000B01F78003282BF00610060000000E000BF
:1006E0000A0032008D78EC008DD8BF000160EF0069
:1006F000EF02600024892100048342003682BF009B
:10070000004398006A0304000000000087C0A900AD
:10071000A00120000C0009004F1078004F00780065
:100720003200F9003600F9004200F90000400600EE
:10073000A4002000C411880004A82A0084118800A5
:10074000E4012000343A88004487A9004467A900E6
:100750004447A9004427A9004407A90044C7A900A9
:1007600044E7A900000006009560A80097C0A80013
:100770009460A8008200A90081E0A9004220EF0057
:1007800081E0A800000006000421EF0002A1EF00B4
:10079000040228002408880004E2240004088800D9
:1007A00061E2A90060C2A90014222000141388008D
:1007B00061E2A800E4C2A900E4E2A800E502A90001
:1007C000E522A900D342A900D262A900D202A90061
:1007D000D242A900D362A900D222A800D322A80045
:1007E000DE82A800DEA2A900B4030200000000001F
:1007F00000000600851F7800AC78EF0064C580001B
:100800006824E1001C003100AD78EF00ADD8BF00D6
:1008100054C280004822DE000024E10013003600AC
:10082000ACD8BF000160EF00C902DD00ADD8BF0049
:100830000160EF004200DD000500400064842000FC
:1008400084024000804AEB0000C0B3009042980050
:1008500000C0B300A042980000C0B300B0429800AE
:10086000AD78EC000604040000000000AC78EC0059
:10087000FE03040000000000CF0278000000060024
:10088000851F7800E922A900D742A900620009006B
:100890000000000074C580000960EF00030520001F
:1008A0008482410060C2A9006002AE0002003700ED
:1008B00068C2BF00FCFF37006802F800E5FF9F0038
:1008C0006802F9006002AE00FEFF3700C6000900B2
:1008D0000000000060C2A9006002AE000200370004
:1008E00068C2BF00FCFF37006862EF006002AE0024
:1008F000FEFF3700C60009000000000060C2A9002A
:100900006002AE000200370068C2BF00FCFF370083
:10091000AFD8BF0068E2B7006002AE00FEFF37004C
:10092000C600090000000000E922A800D742A80084
:100930008E01090000000000CF02780000000600D0
:10094000ACD8BF0033E8B70030C0B300AEF8B70092
:10095000ACD8BF00AFF8B7004004020000000000B0
:100960008E0109000000000000000600ACD8BF00A6
:100970000160EF000080B2000D0032001080B20074
:10098000140032003080B2001C0032001080B2002F
:10099000240032007080B2002C0032001080B200BF
:1009A000340032003080B2003C0032004500370095
:1009B00020C0B300AEF8B700AF78EF0040040200EB
:1009C0000000000010C0B30011E8B7006205040089
:1009D0000000000020C0B300AEF8B70010C0B300A4
:1009E000AFF8B700400402000000000020C0B300D0
:1009F00011E8B700620504000000000020C0B30049
:100A0000AEF8B70020C0B300AFF8B7004004020052
:100A10000000000040C0B30011E8B7006205040008
:100A20000000000020C0B300AEF8B70030C0B30033
:100A3000AFF8B700400402000000000080C0B3001F
:100A400011E8B700620504000000000020C0B300F8
:100A5000AEF8B70040C0B300AFF8B70040040200E2
:100A60000000000000C1B30011E8B70062050400F7
:100A70000000000020C0B300AEF8B70050C0B300C3
:100A8000AFF8B700400402000000000000C2B3004D
:100A900011E8B700620504000000000020C0B300A8
:100AA000AEF8B70060C0B300AFF8B7004004020072
:100AB0000000000000C4B30011E8B70062050400A4
:100AC000000000008E010900000000000000060088
:100AD000851F7800861F7800E922A900D742A90067
:100AE000120009000000000060C2A9006002AE0010
:100AF0000200370068C2BF00FCFF370000CFB30020
:100B000068E2B7006002AE00FEFF37001200090085
:100B100000000000E922A800D742A8000000EB0076
:100B2000D422AF000000E800004378000000EB0092
:100B3000D522AF000000E800004073000004E00090
:100B4000020032008E050400000000004F03780010
:100B5000CF02780000000600AE78EF0020C0B3009E
:100B6000AFF8B70040040200000000008E01090049
:100B700000000000F44180006824E100020036001B
:100B800080C0B3003EE8B7003EC8BF000160EF0080
:100B90000080B200170032001080B2001B0032004B
:100BA0003080B2001F0032001080B20023003200FB
:100BB0007080B200270032001080B2002B0032009B
:100BC0003080B2002F0032001080B20033003200BB
:100BD000F080B200370032001080B2003B003200DB
:100BE0003080B2003F0032001080B200430032007B
:100BF0004800370030C0B300ACF8B700A0040200D2
:100C0000000000008A0604000000000030C1B300AC
:100C1000ACF8B700A0040200000000008A0604003F
:100C20000000000030C2B300ACF8B700A00402001E
:100C3000000000008A0604000000000030C4B30079
:100C4000ACF8B700A0040200000000008A0604000F
:100C50000000000030C6B300ACF8B700A0040200EA
:100C6000000000008A0604000000000020C8B30055
:100C7000ACF8B700A0040200000000008A060400DF
:100C80000000000010C9B300ACF8B700A0040200D7
:100C9000000000008A0604000000000010CAB30033
:100CA000ACF8B700A0040200000000008A060400AF
:100CB0000000000000CCB300ACF8B700A0040200B4
:100CC000000000008A0604000000000000CDB30010
:100CD000ACF8B700A0040200000000008A0604007F
:100CE0000000000000CEB300ACF8B700A004020082
:100CF000000000008A0604000000000000CFB300DE
:100D0000ACF8B700A0040200000000008A0604004E
:100D10000000000032C8BF00ACF8B700B604020003
:100D2000000000006805020000000000000006004E
:100D3000D6D8BF000160EF000080B200050032008D
:100D40001080B200070032003080B200090032008B
:100D50000C003700E922A800D742A800C206040010
:100D600000000000E922A900D742A800C206040042
:100D700000000000E922A800D742A900C206040032
:100D80000000000000000600851F7800ADD8BF00FD
:100D9000D6F8B700980602000000000026000900FF
:100DA0000000000060C2A9006002AE00020037002F
:100DB00068C2BF00FCFF370010C5B30068E2B7008F
:100DC0006002AE00FEFF3700C60009000000000010
:100DD00060C2A9006002AE000200370068C2BF0016
:100DE000FCFF37006862EF006002AE00FEFF3700D4
:100DF000C60009000000000064C580000960EF0023
:100E000083802000030042009042780060C2A90065
:100E10006002AE000200370068C2BF00FCFF37006E
:100E20006802F800E5FF9F006802F9006002AE006A
:100E3000FEFF3700D678EF009806020000000000A1
:100E40008E01090000000000CF02780000000600BB
:100E5000ACD8BF000160EF000080B2000500320096
:100E60001080B200070032003080B2000B00320068
:100E700010003700D642A800D762A8005A07040025
:100E800000000000D642A9008E0109000000000009
:100E9000D642A8005A07040000000000D762A9004B
:100EA0008E01090000000000D762A8005A07040064
:100EB0000000000000000600851F7800C50020002B
:100EC00003000900B51F7800090020004300AF00AF
:100ED00019002000891F78008384680001F0A600B3
:100EE000030037008180EA000000EA00E08048004B
:100EF00003F0A600030037008381EA000201EA0044
:100F0000E081490003026900150032000002EB0095
:100F10008002EB000003EB008003EB0008022000DE
:100F20004200A9000080D2008180D2000482D20059
:100F30008582D2000328E10001003A0002A0E1000E
:100F4000030039000202520083825A004200A800C6
:100F50000683D2008783D2000804E900F0FF3A003C
:100F600009F0A600070037000600EA000100320081
:100F700002003A008700EA00050037008780EA0097
:100F80000300370087007800060078000000370073
:100F9000CF0478000900E000010032000400BE0028
:100FA0002501200003000900CF127800CF0278004D
:100FB00000000600851F7800C5002000030009001E
:100FC000B51F78000202B80003F0A6000200370047
:100FD0000383B900010037000303B8004200A900F1
:100FE0008502430060844B0001F0A6000200370038
:100FF000028BB90001003700020BB80085024B00DC
:1010000008844B000980B000038BB90008044B0032
:1010100087834C00870178000801780085007800FC
:10102000040078002501200003000900CF12780099
:10103000CF02780000000600851F7800C500200060
:1010400003000900B51F78000002780081027800D3
:1010500002037800830378000000EB008000EB00BF
:101060000001EB008001EB000800A10007F0A600E2
:10107000050037000800A0000402EA008582EA00AB
:101080000683EA008783EA008504720002003A00C2
:101090008704730015003200394720000340A70081
:1010A0000B0037004200A9000482D2008582D200E2
:1010B0000683D2008783D2000080D2008180D200D4
:1010C0000281D2008381D2008904E900F3FF3A0053
:1010D000C44CDD004200A90009F0A1000340A100BA
:1010E00083816C000800A70003F0A0002501200008
:1010F00003000900CF127800CF027800000006003C
:10110000881F78002801200004000900B81F78001B
:101110008005EB006066B80003047800870478005F
:10112000FA7F20004200A9004220A90044C4DE004A
:10113000080465000800E000710032004200A900C8
:101140004220A900C4CCDE00890465000900E0004B
:101150006B0032000884440009B0A7000400370087
:10116000F83FB10066003200650039000300370027
:101170001A402000854245006100310087866900E1
:101180004200A9004220A900F300B2000340A000E1
:10119000F700B2000740A000881F78000124B800C3
:1011A000002DB8000A0544008B854C000C80B0006F
:1011B0000224B8008B0544000C864C00012CB800BA
:1011C0000005EB008B0544000C864C000A80B00043
:1011D0000034B8008B0544000C864C000A80B00037
:1011E0008005EB000324B8000C0644000A854C007F
:1011F0000B80B000022CB8000C0644000A854C009D
:101200000B80B0000134B8000C0644000A854C0085
:101210000B80B000003CB8000C0644000A854C006E
:101220000B80B0000C0078000006EB00032CB80027
:101230000A0544008B854C000C80B0000234B800D5
:101240000A0544008B854C000C80B0000334B800C4
:101250008B0544000C864C00013CB8000A05440094
:101260008B854C000C80B000023CB8008B0544001C
:101270000C864C00033CB8000C0644008A00780041
:101280000B0178008C017800540020004200A90076
:101290008381D3000281D3008180D3000080D300FA
:1012A0000402E900F9FF3A004F0478000804E8005E
:1012B00001037000010032000200370003037100D7
:1012C000080032000340A700060037004200A900D2
:1012D0000080D2008180D2000281D2008381D200BE
:1012E0000804E9004444DD0003F0A1000DF0A7006C
:1012F00003F0A0000340A10083016C00030037004D
:101300006000B8006001B80000003700A8012000AC
:10131000040009004F1478004F0478000000060014
:10132000851F7800C500200003000900B51F780064
:1013300000027800810278000203780083037800BD
:101340000000EB008000EB000001EB008001EB00EF
:101350000800A10007F0A600050037000800A00063
:101360000402EA008582EA000683EA008783EA0035
:101370008504720002003A008704730015003200F1
:10138000394720000340A7000B0037004200A900A6
:101390000482D2008582D2000683D2008783D200E5
:1013A0000080D2008180D2000281D2008381D200ED
:1013B0008904E900F3FF3A00C44CDD004200A900B3
:1013C00009F0A1000340A10083816C000800A70080
:1013D00003F0A0002501200003000900CF127800CF
:1013E000CF02780000000600881F78002801200046
:1013F00004000900B81F780087866900030478009C
:1014000087047800FA7F20004200A9004220A9004A
:1014100044C4DE00080465000800E0006C003200EF
:101420004200A9004220A900C4CCDE008904650066
:101430000900E000660032000005EB0009065400D8
:1014400003003900FC3FB0006100310004003700A8
:101450001B4020000B0656005D0039005C00320086
:101460000004EB008004EB000005EB008005EB00BE
:10147000F301B2000340A000F701B2000740A00052
:101480008C1F78006C0320000400500085805800F9
:10149000060159008781590002003300060031001F
:1014A00006003A000400400085804800060149001B
:1014B00087814900010037000800A0000C06E90000
:1014C0000B0032004200A9000080D2008180D200CF
:1014D0000281D2008381D2004200A9000884D20098
:1014E0008984D2000A85D2008B85D200E6FF3700BE
:1014F0004F0678000B50A7000100370006003700A8
:101500004200A9008B85D3000A85D3008984D300CB
:101510000884D300030037000C06E9004200A9004C
:101520002B0032004200AF00090037000080D200DB
:101530008180D2000281D2008381D2000402500057
:101540008582580006035900878359001500390029
:101550000804E80013003A008904E80011003A008A
:101560000A05E8000F003A008B05E8000D003A007C
:101570000C06E800160032000A0037000C06E900ED
:10158000130032000B40A700060037004200A900FC
:101590000884D2008984D2000A85D2008B85D200CB
:1015A000F8FF37004466DD004200A9000CF0A100FE
:1015B0000DF0A7000CF0A0000B40A1008B016E0005
:1015C0000A017800890078000800780005003700DB
:1015D0000000200001002000020020000300200085
:1015E00000003700A8012000040009004F14780013
:1015F0004F04780000000600851F7800861F7800E1
:1016000003027800030378004200A90044A2DE0030
:10161000F57F20000482620003003A006000B800F9
:101620000001EB00130037000438B100F300B200F2
:10163000370020004200A9000080D2008180D20043
:101640000281D2008381D2008703E900F9FF3A00CA
:1016500001007800820078000370A1000480FD0082
:101660004200A9000482D30006F0A70004F0A00005
:1016700003016A004F037800CF02780000000600E3
:10168000851F7800C500200004000900B51F780000
:10169000000278008102780083037800020378005A
:1016A0004200A9004220A9008180D2000180FD00F3
:1016B000F10FB2000100E0004B0032004200A9002F
:1016C0004220A9008381D2000380FD00F30FB20005
:1016D0000300E000440032000080FB0001C0410034
:1016E00004003100F007B1003F0032003E00390035
:1016F000020037001048B0003B00310007856A0047
:101700004200A9004220A900F50FB2000570A00018
:101710004200A900F70FB2000770A0000621B80030
:10172000062CB80083014C00890078004200AF000D
:101730008100E8004200A900043CB80083014C008D
:1017400081804C00072CB80081004C000000E800AC
:101750000100E0004220AF00010037000300370025
:101760000300E0004220AF000500370001F0A700B1
:10177000030037008381D2008180D2000000E9009D
:10178000010178004200A9000370A600090037009B
:1017900007F02F00878161000310B000600149004D
:1017A0000200E00003003A000300E00001003A00FC
:1017B0000000E8000080FD004200A9004220A900CE
:1017C0008080D3000AF0A70001F0A00002F0A10081
:1017D0000280FD00814069000380FD000341780024
:1017E0000200780003003700000020000100200004
:1017F000000037004501200004000900CF127800E6
:10180000CF02780000000600851F78008102780072
:1018100000017800640B20008180D2000180FD006F
:10182000F10FB20001425200854178000370A00020
:10183000F30FB2000000EB008000EB007F20E1001E
:101840000F0033004200A9008381D3000281D3003E
:101850008180D3000080D3000402E900F9FF3A0040
:1018600005F0A600060037000000EA000200320082
:101870008180EA00020037008100EA0000003700A2
:10188000CF02780000000600851F7800C500200008
:1018900004000900B51F7800B8D8BF00D6F8B7001B
:1018A0009806020000000000BA38EF00BC38EF00D4
:1018B000BE38EF00C038EF00C238EF00C438EF0088
:1018C00060C2A9006002AE000200370068C2BF001B
:1018D000FCFF370010C0B30068E2B7006002AE0042
:1018E000FEFF37008E0109000000000060C2A90061
:1018F0006002AE000200370068C2BF00FCFF370084
:101900006862EF006002AE00FEFF370068C2BF00F1
:101910000160EF0001002000BAB8B700E1C58800FF
:1019200060C2A9006002AE000200370068C2BF00BA
:10193000FCFF37006862EF006002AE00FEFF370078
:1019400068C2BF000160EF0001002000BEB8B70010
:1019500001C6880060C2A9006002AE000200370024
:1019600068C2BF00FCFF37006862EF006002AE0093
:10197000FEFF370068C2BF000160EF0001002000D9
:10198000C2B8B70021C68800D678EF0098060200DA
:1019900000000000BAD8BF000DE0B7000043EB0024
:1019A0000B60EF008042EB00F1C5800000002000DA
:1019B0008082720001037300C4D8BF0003E0B70047
:1019C000C3D8BF0080407800C2D8BF0001E0B70094
:1019D0000040EB008100730000807200C6B8B700C1
:1019E00041C688004300A900C698BF0041C68000D8
:1019F00002102000030020005C070200000000002D
:101A0000C6B8B70041C68800C698BF0041C680006E
:101A10005200200003002000DA070200000000004E
:101A200080027800010378000100200002002000FD
:101A30000300200011C8BF000160EF001C08020075
:101A400000000000851F7800861F780000027800E3
:101A500081027800020378008303780000002000F0
:101A6000010020000200200003162400800802006C
:101A7000000000004F037800CF0278008003780058
:101A800001047800820478000305780005007800DE
:101A9000860078008001EB0001F0A7008081EB0058
:101AA000030178009009020000000000851F780003
:101AB000861F7800871F7800070278008802780068
:101AC000090378008A037800F4090200000000008E
:101AD000CF0378004F037800CF027800FC0A0200A1
:101AE0000000000051C6880062C68800CA98BF0086
:101AF00061C680000268290083B12400400B020007
:101B000000000000040C0200000000000000BE0005
:101B10004501200004000900CF127800CF027800B0
:101B200000000600851F7800ADD8BF000160EF00FF
:101B3000C902DD004AD8BF000160EF004200DD00AD
:101B4000050040006484200084024000ACD8BF003F
:101B5000B8F8B700440C02000000000004002000A8
:101B6000B41A7800B41A7800B278EF00B2D8BF0087
:101B700054C280004822DE000024E1001400360038
:101B8000ADD8BF000160EF00C902DD00B2D8BF00D0
:101B90000160EF004200DD00050040006484200089
:101BA000040040000002780003002000B41978000F
:101BB000B41978004638B400010078004898B400A1
:101BC00048B8B700B278EC00B60D04000000000081
:101BD0004300A9004BD8BF00004178000560EF002A
:101BE000030020004698BF0041C280005C0702004D
:101BF0000000000046B8B70041C288004618F8004F
:101C0000AE18F9004818F800B018F9004638EF008F
:101C10004838EF00AE98BF0081C58000CF02780041
:101C200000000600851F780090D8BF0064C48000C3
:101C30004822DE000024E1000B0036009078EC0022
:101C400090D8BF000160EF00EF02600024892100FE
:101C50000480420064C580000042900064C5880092
:101C6000380E04000000000080C7B300ACF8B700D5
:101C700097C0A9008DD8BF009058E30006003A0035
:101C800064C480004822DE006F24E10002003600B8
:101C90008D78EF009078EF0097C0A800ACD8BF0017
:101CA00000E0B700CF02780000000600F0CFB300DC
:101CB000ADF8B700ACD8BF000160EF000083B20000
:101CC000130032001080B200140032003080B200E5
:101CD000160032001080B200180032007080B2008E
:101CE0001A0032001080B2001C0032003080B200B6
:101CF0001E0032001080B20020003200F080B200DE
:101D0000220032001080B200240032002700370089
:101D1000AD78EF00DA0E04000000000010C0B30040
:101D2000ADF8B700DA0E04000000000020C0B300D8
:101D3000ADF8B700DA0E04000000000030C0B300B8
:101D4000ADF8B700DA0E04000000000040C0B30098
:101D5000ADF8B700DA0E04000000000050C0B30078
:101D6000ADF8B700DA0E04000000000060C0B30058
:101D7000ADF8B700DA0E04000000000070C0B30038
:101D8000ADF8B700DA0E04000000000080C0B30018
:101D9000ADF8B700DA0E04000000000090C0B300F8
:101DA000ADF8B700DA0E040000000000F0CFB30079
:101DB000ADF8B700ADD8BF0000000600851F780061
:101DC000C500200003000900B51F780080037800DB
:101DD0008404780004F0A1000400E00006003A004A
:101DE00009F0A70002003700050020000F003700AF
:101DF000050020000D003700E64252000A003900BD
:101E00000003200009F0A600000220003322AF00EA
:101E1000FEFF370034A2B7008502E900FBFF3B005C
:101E20005500200001003700840278006400200083
:101E300005E0A00009F0A70005F0A000087122004D
:101E4000110009008883D800580F0200000000002C
:101E500081037800883E2000110009008883D800A3
:101E6000580F02000000000081037800480620009F
:101E7000110009008883D800580F020000000000FC
:101E800081037800A8002000110009008883D80091
:101E9000580F0200000000000003200000C04000B6
:101EA0003322AF00FEFF370034A2B700170037001F
:101EB000060320000000E0000E003A0005E0A60046
:101EC0000D0037000402E9000524E10002003200A1
:101ED0004200AF00000006000000E00005003A00EC
:101EE00005E0A6000400370005F0A6000602200069
:101EF0000100370005E0A100004043003322AF009D
:101F0000FEFF370034A2B7000000060025012000C4
:101F100003000900CF127800CF027800000006000D
:101F2000851F7800A4D8BF000160EF001080B200C8
:101F3000090032003080B200360032001080B2005A
:101F4000640032007080B200920032001080B20053
:101F5000C90032008802370010C0B300ACF8B700E7
:101F600010C0B300ADF8B700C406020000000000C6
:101F700010C0B300ACF8B70020C0B300ADF8B70094
:101F8000C40602000000000010C0B300ACF8B700A7
:101F900028070200000000009E0F0900000000005A
:101FA00020C0B300ACF8B700280702000000000012
:101FB000D422AE0002003700D80F04000000000059
:101FC00010C0B300ACF8B700AD78EF00920D02007E
:101FD0000000000012A8B700A1408800D522AE0082
:101FE00002003700EE0F04000000000020C0B30024
:101FF000ACF8B70010C0B300ADF8B700920D020006
:102000000000000016A8B700C1408800BC140400FE
:102010000000000020C0B300ACF8B70010C0B3004F
:10202000ADF8B700C40602000000000020C0B300F5
:10203000ACF8B70020C0B300ADF8B700C40602008A
:102040000000000010C0B300ACF8B7002807020081
:10205000000000009E0F09000000000020C0B30037
:10206000ACF8B7002807020000000000D422AE0040
:1020700002003700361004000000000010C0B3005A
:10208000ACF8B70020C0B300ADF8B700920D020065
:10209000000000001AA8B700E1408800D522AE0079
:1020A000020037004E1004000000000020C0B30002
:1020B000ACF8B70030C0B300ADF8B700920D020025
:1020C000000000001EA8B70001418800BC140400F5
:1020D0000000000030C0B300ACF8B70010C0B3007F
:1020E000ADF8B700C40602000000000030C0B30025
:1020F000ACF8B70020C0B300ADF8B700C4060200CA
:102100000000000010C0B300ACF8B70028070200C0
:10211000000000009E0F09000000000020C0B30076
:10212000ACF8B7002807020000000000D422AE007F
:1021300002003700961004000000000010C0B30039
:10214000ACF8B70040C0B300ADF8B700920D020084
:102150000000000022A8B70021418800D522AE006F
:1021600002003700AE1004000000000020C0B300E1
:10217000ACF8B70050C0B300ADF8B700920D020044
:102180000000000026A8B70041418800BC140400EC
:102190000000000040C0B300ACF8B70010C0B300AE
:1021A000ADF8B700C40602000000000040C0B30054
:1021B000ACF8B70020C0B300ADF8B700C406020009
:1021C0000000000010C0B300ACF8B7002807020000
:1021D000000000009E0F09000000000020C0B300B6
:1021E000ACF8B7002807020000000000D422AE00BF
:1021F00002003700F61004000000000010C0B30019
:10220000ACF8B70060C0B300ADF8B700920D0200A3
:10221000000000002AA8B70061418800D522AE0066
:10222000020037000E1104000000000020C0B300BF
:10223000ACF8B70070C0B300ADF8B700920D020063
:10224000000000002EA8B700814188004A78EC0009
:1022500054C280004822DE006100520054C2800057
:102260000960EF000020E100010036004A78EF002D
:10227000BC1404000000000090D8BF0064C48000BB
:102280004822DE000024E100B9013600A678EF0004
:10229000120E020000000000A5F8B7008CD8BF00A5
:1022A0000160EF000080B2000F0032001080B20029
:1022B0005B0032003080B200A60032001080B20015
:1022C000C60032007080B200E20032001080B2001E
:1022D000130132003080B200330132001080B200AE
:1022E000520132009F013700A5D8BF000160EF0006
:1022F0003087B2000B0032003080B2001100320093
:102300007081B2001F0032001081B2002400320040
:102310004081B200290032006081B2002E003200FC
:10232000310037003C48A900FA0302000000000019
:10233000AC050200000000008C78EF000C120400D5
:10234000000000003C48A8000100200001007800C7
:102350000160EF0000020200000000008100E800C0
:102360003322AF00FEFF370034A2B7008000200008
:102370000008E600F5FF37008C78EF000C1204002F
:102380000000000010C0B3008CF8B7003C48AF005C
:10239000010037008C78EF000C12040000000000F0
:1023A00020C0B3008CF8B7003C48AF0001003700F4
:1023B0008C78EF000C1204000000000050C0B30045
:1023C0008CF8B7003C48AF00010037008C78EF0074
:1023D0000C120400000000003C68A8008C78EF009C
:1023E0000C12040000000000010020000100780031
:1023F0000160EF0016020200000000008100E8000A
:102400003322AF00FEFF370034A2B7005000200097
:102410000008E600F5FF3700B414040000000000D7
:10242000A5D8BF00ACF8B700560E020000000000AF
:10243000A6F8B70034C58000F4CFB2000F003A0010
:102440008C78EF0001002000010078000160EF00AF
:102450002A020200000000008100E8003322AF00E1
:10246000FEFF370034A2B700900020000008E6000D
:10247000F5FF3700B414040000000000A6D8BF0028
:102480008EF8B7008F78EF0074C480006620E100FA
:1024900021003E008ED8BF0032E8B70001002000C6
:1024A000010078000160EF0042020200000000001D
:1024B0008100E8003322AF00FEFF370034A2B700EE
:1024C000300020000008E600F5FF370032C8BF00EA
:1024D0000160EF0004002000DE0E0200000000009A
:1024E0003322AF00FEFF370004022000A411880051
:1024F0003322AF00FEFF3700D4002000A411880073
:102500003322AF00FEFF3700A4002000A411880092
:10251000A412040000000000010020000100780067
:102520000160EF0058020200000000008100E80096
:102530003322AF00FEFF370034A2B70010012000A5
:102540000008E600F5FF37008C78EF00B4140400B3
:1025500000000000A5D8BF00ACF8B700560E02007E
:1025600000000000A6F8B70034C58000F4CFB20028
:102570000F003A008C78EF00010020000100780085
:102580000160EF0078020200000000008100E80016
:102590003322AF00FEFF370034A2B70080002000D6
:1025A0000008E600F5FF3700B41404000000000046
:1025B0008E38EF00A6D8BF000AE0B7000B60EF002E
:1025C000050278006A20B8008E38B40030C0B3002D
:1025D0008CF8B700B414040000000000A5D8BF00B8
:1025E000ACF8B700560E020000000000A6F8B700D5
:1025F00034C58000F4CFB2000F003A008C78EF00B1
:1026000001002000010078000160EF008E0202004E
:10261000000000008100E8003322AF00FEFF370019
:1026200034A2B700800020000008E600F5FF370064
:10263000B414040000000000A6D8BF000160EF0041
:102640008E38B40040C0B3008CF8B700B414040056
:102650000000000074C480006C20E10021003E00F6
:102660008ED8BF003EE8B7000100200001007800CE
:102670000160EF00A4020200000000008100E800F9
:102680003322AF00FEFF370034A2B7003000200035
:102690000008E600F5FF37003EC8BF000160EF000C
:1026A00004002000DE0E0200000000003322AF0014
:1026B000FEFF370004022000A41188003322AF007F
:1026C000FEFF3700D4002000A41188003322AF00A1
:1026D000FEFF3700A4002000A41188008A13040024
:1026E0000000000001002000010078000160EF0000
:1026F000BA020200000000008100E8003322AF00AF
:10270000FEFF370034A2B700100120000008E600E9
:10271000F5FF37008C78EF00B414040000000000CF
:10272000A5D8BF00ACF8B700560E020000000000AC
:10273000A6F8B70034C58000F4CFB2000F003A000D
:102740008C78EF0001002000010078000160EF00AC
:1027500078020200000000008100E8003322AF0090
:10276000FEFF370034A2B700800020000008E6001A
:10277000F5FF3700B4140400000000008E38EF00AD
:10278000A6D8BF000AE0B7000B60EF0044062000A7
:102790000428B8008E38B40060C0B3008CF8B700CD
:1027A000B414040000000000A5D8BF00ACF8B700C6
:1027B000560E020000000000A6F8B70034C58000E5
:1027C000F4CFB2000F003A008C78EF000100200037
:1027D000010078000160EF008E020200000000009E
:1027E0008100E8003322AF00FEFF370034A2B700BB
:1027F000800020000008E600F5FF3700B414040054
:1028000000000000A6D8BF000AE0B7000B60EF0090
:10281000050278006A20B8008E38B40070C0B3009A
:102820008CF8B700B414040000000000A5D8BF0065
:10283000ACF8B700560E020000000000A6F8B70082
:1028400034C58000F4CFB2000F003A008C78EF005E
:1028500001002000010078000160EF00DA020200B0
:10286000000000008100E8003322AF00FEFF3700C7
:1028700034A2B700800020000008E600F5FF370012
:10288000B414040000000000A6D8BF000160EF00EF
:102890008E38B40074C48000030820000418E100DE
:1028A000210039008ED8BF004BF8B700010020008E
:1028B000010078000160EF00F0020200000000005B
:1028C0008100E8003322AF00FEFF370034A2B700DA
:1028D000D00020000008E600F5FF37004BD8BF000D
:1028E0000160EF0004002000DE0E02000000000086
:1028F0003322AF00FEFF370004022000A41188003D
:102900003322AF00FEFF3700D4002000A41188005E
:102910003322AF00FEFF3700A4002000A41188007E
:10292000AC14040000000000010020000100780049
:102930000160EF0010030200000000008100E800C9
:102940003322AF00FEFF370034A2B7006001200041
:102950000008E600F5FF37008C78EF00B41404009F
:10296000000000008C78EF003C1104000000000023
:10297000BC14040000000000CF0278000000060034
:10298000861F7800871F7800881F7800891F7800CD
:102990000002EB008002EB000003EB008003EB0081
:1029A0000304690011003200080220004200A9005F
:1029B0000080D2008180D2000482D2008582D200C1
:1029C0000328E10001003A0002A0E1000300390001
:1029D0000202520083825A004200A8000683D200FD
:1029E0008783D2000804E900F0FF3A0087007800EE
:1029F00006007800CF0478004F047800CF037800F9
:102A00004F03780000000600851F7800C5002000F5
:102A100007000900B51F780001F0A6000700370085
:102A20000000EA000100320002003A008100EA00E2
:102A3000010037008180EA000480A0008002EB00E2
:102A400000037800810378000406780004F0A100F8
:102A50000404E00001003A0018003700EB42520085
:102A600016003900054252000CF0A6000B0037009A
:102A70000480A60007003700D00220003322AF00F8
:102A8000FEFF370034A2B7000480A1008502E900F0
:102A90000A0033000003200001003700000220007C
:102AA0003322AF00FEFF370034A2B7008502E900F1
:102AB000FBFF3B000480A7000442E900E80020007F
:102AC000090020001000FA000C377C000884E9009F
:102AD000FDFF3B0084027800A40020000580A700D1
:102AE0000402E80005E0A0000CF0A70005F0A0003B
:102AF0000504E000010032008542E900040F78007F
:102B000015079800060078008700780002A02C00C6
:102B1000A3B92300087122000DF0A1004300A90011
:102B2000C0140200000000000DF0A2000DF0A7008C
:102B3000070037004007980051079800000178000F
:102B4000810178002E009000BE009000F3FF370056
:102B5000420798005307980024079800350798000B
:102B60001E0278009E029000060320000000E00094
:102B700011003A0005E0A600110037000402E90048
:102B8000040F78000400E0000D0032000524E1008D
:102B9000020032004200AF001800370005F0A60026
:102BA000030037000580A60010003700070037003B
:102BB000060220000D00370005E0A100150798006F
:102BC0009E0290000580A600080037000580A10045
:102BD0001507980000057800D00220003322AF00CE
:102BE000FEFF370034A2B7000A007800004043001F
:102BF0003322AF00FEFF370034A2B7004E00900032
:102C0000DE009000A20020008001EB006100E100E6
:102C100001003200C1FF37000080FA00A50120004A
:102C200007000900CF127800CF02780000000600EC
:102C30000FF82100F0FF210020A0B70000000000E5
:102C4000404424002005880081E0A80061E2A9003A
:102C5000E502A900E4E2A800E4C2A90060C2A9005C
:102C6000F40320001413880061E2A8000628EF0096
:102C7000040028008411880004402000941188007A
:102C80003062A80054012000C411880030C0B30095
:102C900032E8B7003368EF003868EF003968EF00BA
:102CA0003A68EF003B68EF003C08A9003C28A90007
:102CB0003C48A9003C68A90010C0B3003DE8B7003B
:102CC00010C0B3003EE8B700F0CFB3003FE8B70054
:102CD00040E8EF004A78EF0000C1B3004BF8B700BE
:102CE0008E38EF008D78EF009078EF002CA3EF0086
:102CF0002AA3EF000028EF0004602700444088006A
:102D000044252300544088000401200064408800CA
:102D10000E28EF001068EF003428EF003628EF008F
:102D20009238EF009438EF009638EF009838EF00B3
:102D30009A38EF009C38EF009E38EF00A038EF0083
:102D400010C0B300A2F8B700980302000000000012
:102D5000C403020000000000FA03020000000000AB
:102D60003E68EF0010C0B3003DE8B700D662A8008F
:102D7000D602A800E922A800D742A800D642A8009F
:102D8000D762A8000000EB00D422AF000000E800EA
:102D9000004378000000EB00D522AF000000E800FF
:102DA000004073000004E00002003200C21604007C
:102DB00000000000AC05020000000000A2D8BF0027
:102DC000A4F8B700900F0200000000003C68AE00BD
:102DD000690037003C68A9003322AF00FEFF3700CE
:102DE00014062000A41188001288BF00A1408000B2
:102DF0009400280004150200000000003322AF00F8
:102E0000FEFF3700A4002000A41188003322AF0089
:102E1000FEFF370054062000A41188001688BF006A
:102E2000C14080009400280004150200000000004A
:102E30003322AF00FEFF3700A4002000A411880059
:102E40003322AF00FEFF370024062000A4118800C3
:102E50001A88BF00E1408000940028000415020099
:102E6000000000003322AF00FEFF3700A400200066
:102E7000A41188003322AF00FEFF37006406200053
:102E8000A41188001E88BF00014180009400280022
:102E900004150200000000003322AF00FEFF3700DF
:102EA000A4002000A41188003322AF00FEFF3700E9
:102EB00034062000A41188002288BF002141800030
:102EC0009400280004150200000000003322AF0027
:102ED000FEFF3700A4002000A41188003322AF00B9
:102EE000FEFF370074062000A41188002688BF006A
:102EF00041418000940028000415020000000000F9
:102F00003322AF00FEFF3700A4002000A411880088
:102F10003322AF00FEFF370044062000A4118800D2
:102F20002A88BF0061418000940028000415020037
:102F3000000000003322AF00FEFF3700A400200095
:102F4000A41188003322AF00FEFF37008406200062
:102F5000A41188002E88BF008141800094002800C1
:102F600004150200000000003322AF00FEFF37000E
:102F7000A4002000A4118800A278EC0014C58000F1
:102F80006524E1000200360010C0B300A2F8B700CB
:102F90003C48AE000200370050C0B300A2F8B700B2
:0C2FA000DE160400000000000040FE00EF
:0200000401F009
:10000000CE0000FFCF0000FF070000FF830000FFCD
:10001000060000FFDD0000FFE70000FFC30000FF57
:00000001FF
;PIC24HJ128GP506A
;CRC=0391  CREATED="30-мар-17 14:38"
