:020000040800F2
:10000000B0060020C90A0008CD0A0008CF0A00087F
:10001000D10A0008D30A0008D50A00080000000031
:10002000000000000000000000000000D70A0008E7
:10003000D90A000800000000DB0A00087D0400085F
:10004000DF0A0008DF0A0008DF0A000800000000DD
:1000500000000000DF0A0008DF0A0008DF0A0008CD
:10006000DF0A000800000000DF0A0008DF0A0008BD
:10007000DF0A000800000000DF0A0008DF0A0008AD
:10008000DF0A0008DF0A000800000000DF0A00089D
:10009000DF0A00080000000000000000000000006F
:1000A000000000000000000000000000DF0A00085F
:1000B000DF0A0008DF0A0008DF0A0008DF0A00087C
:1000C00000F002F800F090F80AA090E8000C8244DA
:1000D0008344AAF10107DA4501D100F085F8AFF2B7
:1000E000090EBAE80F0013F0010F18BFFB1A43F016
:1000F000010318474432000064320000103A24BF64
:1001000078C878C1FAD8520724BF30C830C144BF7C
:1001100004680C60704700000023002400250026BE
:10012000103A28BF78C1FBD8520728BF30C148BF5A
:100130000B6070476E2900F0BD85702900F00787BD
:10014000662902F05285652902F04F85672902F081
:100150004C85612902F04B8503681B0A28BF41F0DA
:100160008001692900F06A85642900F06785752996
:1001700000F064856F2900F09486782900F0D3861A
:10018000E92900F02F86E42900F02C86F52900F0FB
:100190002986EF2900F09186F82900F0D2860368BD
:1001A000DB0928BF41F08001632901F0D583732961
:1001B00001F0DA83E32901F0E583F32901F0EA8312
:1001C000002070471FB501F037FC0400002000211B
:1001D00002F036F9401C60600020002102F01AF99C
:1001E000E0601FBD10B510BD01F0F8FB1146FFF730
:1001F000E9FF00F009F801F0D5FC03B4FFF7F2FFC6
:1002000003BC01F01DFD000008B500F0C4F800F0CB
:10021000F1F800F041F900F0CCFA00F030F81348A2
:100220000090684600F05CF81EE06421104800F081
:1002300013F9C8B9002000F086F940B14FF07C51A5
:10024000009802F0DBF90090684600F049F80120C0
:1002500000F079F940B14FF07C51009802F050FC69
:100260000090684600F03CF8DFE700009A99993F5B
:10027000100000200020344988600860704700B5F5
:100280003248C06940F001703049C8613048406868
:1002900020F001002E4948600846806820F00300E5
:1002A00088600846C06820F00100C8600846006900
:1002B00020F0010008610846406920F00110486103
:1002C0000846806920F0030088610846C06920F074
:1002D0000100C861FFF7CEFF08201B49086000BD80
:1002E00070B50446206802F05DF905460022134609
:1002F00002F0C8F802D20020206006E0154920680C
:1003000002F0CCFB01D2134820601349206802F0B0
:10031000F9FA06460F4902F0DFF9054602F09EFAA7
:1003200009498860206802F03DF905462A460B46D7
:1003300003210AA000F052FB0348826805210BA0AC
:1003400000F04CFB70BD00000000094000000240BE
:1003500000800C403333534000F07F4520202020A4
:1003600056203D20252E32662056000020202020D9
:1003700044203D2025750000002019494860886010
:10038000C860086148618861086248628862C86222
:100390001448C861704700B5FFF7EEFF012010490F
:1003A000886000BF0E48006800F004000028F9D003
:1003B00040F204700A49486000BF0948006800F034
:1003C00002000028F9D04FF483700549C860064840
:1003D000064908600648C06B0549C86300BD0000B7
:1003E000000002401000000800B4C4040000002017
:1003F00000800D4010B500204FF0E02108614861F9
:100400008861214800684FF47A71B0FBF1F0401E1A
:100410004FF0E021486107200861481707210028B4
:1004200007DA4A07140E194A00F00F031B1FD454B1
:1004300003E04A07130E164A135400BF4FF0FF3073
:1004400000F01F02012191404209920002F1E022D6
:10045000C2F8001100BF10BD0246106828B90D484F
:10046000006808441060002070470A4B10681B6841
:10047000984201D8002010600120F5E70548006887
:10048000401C0449086070470000002018ED00E09F
:1004900000E400E0040000206648C06940F01070ED
:1004A0006449C8616448406820F4866062494860D5
:1004B00008468068614908405F4988600846C0680E
:1004C00040F48660C860084600695D4908405A49A2
:1004D0000861084640695A4908405749486108463A
:1004E000806956490840544988610846C06920F42B
:1004F0008660C8615348406820F0C8005149486090
:10050000084680684FF2C00188434E49886008461B
:10051000C06840F0C800C8600846006920F0C810F4
:1005200008610846406920F0C810486108468069A3
:100530004FF2C0018843434988610846C06920F0F2
:10054000C800C861704710B501460022002321B9D8
:100550003C480068C0F3801223E0012904D13648EA
:100560000068C0F300121CE0022904D13248006880
:10057000C0F3802215E0032904D132480068C0F39B
:10058000C0020EE0042904D12E480068C0F3C01256
:1005900007E0052905D128480068C0F3401080F025
:1005A00001022948405C30B91AB90120264C605438
:1005B00001E0002010BD2448405C012815D1002333
:1005C000002003E082F001042344401CB0F5806F5A
:1005D000F8D3B3F5806F04D102201B4C6054012086
:1005E000E8E70020184C6054E4E71748405C022814
:1005F00006D11AB10320144C605401E00020D9E761
:100600001148405C032812D14FF48063002001E0C0
:100610009B1A401CB0F5806FFAD31BB900200A4C1E
:10062000605402E00220084C60540020C2E7002021
:10063000C0E700000000024000000B40FFF0CFFFC9
:10064000CFFBCFFB00800C400800002008B5FD491F
:10065000096841F00201FB4A1160FB49886000BF54
:10066000F949C96801F010010029F9D1F749096871
:1006700021F00401F54A11600021009102E0009987
:10068000491C0091F2490968F24AB1FBF2F1009A63
:100690009142F4D808BD08B5EA49096821F0020181
:1006A000E84A1160E849886000BFE749C96801F07D
:1006B00010010029F9D1E549096821F00401E34A54
:1006C00011600021009102E00099491C0091E0496D
:1006D0000968E04AB1FBF2F1009A9142F4D808BDF2
:1006E00010B5044604F00F00FFF7D5FF102141EAD2
:1006F0002410FFF7D0FF10BD10B5044644F0B00041
:10070000FFF7C9FF10BD70B506460C462546E11738
:1007100004EB5171C910A4EBC101C8B2FFF7ECFFA3
:10072000152096FBF0F100FB116000EB4000012169
:1007300001EB4000C5B22846FFF7D2FF70BD10B5EF
:1007400000210846FFF7DFFFBE48006840F00200C6
:10075000BC490860002405E0BF49085DFFF776FF4B
:10076000601CC4B27E2CF7DB01210020FFF7CBFF19
:1007700005E0B949085DFFF769FF601CC4B2FC2CB5
:10078000F7DB10BD30B5002410E02046FFF7B4FFC2
:100790000020FFF7A5FF002504E00020FFF756FF2B
:1007A000681CC5B2802DF8DB601CC4B2082CECDBE1
:1007B00030BD10B5A948C06940F00850A749C861CC
:1007C000A048406840F006009E494860084680689E
:1007D00020F03C0088600846C06840F00600C86011
:1007E0000846006920F0061008610846406920F0BC
:1007F000061048610846806940F03C008861084660
:10080000C06920F00600C8619048406820F00F00E1
:100810008E4948600846806820F0FF0088600846DE
:10082000806840F0AA0088600846C06840F00F0069
:10083000C8600846006920F00F100861084640694A
:1008400020F00F1048610846806940F0FF00886181
:100850000846C06920F00F00C8618048C06940F4B4
:1008600080707E49C8610846C06A40F08070C862E6
:100870000020754908604860086148614862C720E7
:10088000086002204860724800687549B0FBF1F0CA
:100890006D490861002405E07249085DFFF7FBFE21
:1008A000601CC4B20C2CF7D3FFF76CFFFFF747FFB7
:1008B0006448006840F004006249086010BD10B54B
:1008C00004461CB1A720FFF7E6FE02E0A620FFF7D2
:1008D000E2FE10BD30B5044621460020FFF713FFAD
:1008E000002504E00020FFF7B1FE681CC5B2802D92
:1008F000F8DB30BD2DE9F0470646884691464FF0BB
:10090000000A0025002400BF0CE0E80026FA00F0F1
:1009100000F03F0005EB450149008840204384B2C8
:10092000681CC5B2E80026FA00F000F0C00080287C
:10093000EBD00DB9F4B20CE0E90026FA01F0A91CE5
:10094000FF220A41104005EB450149008840204341
:1009500084B2202C0ADBBF2C08DCA4F1200000EBC1
:1009600040004FF6FF7101EA400A25E0B4F5826FBE
:100970000BDBB4F58A6F08DAA4F55C7000EB40007D
:100980004FF6FF7101EA400A16E040F2014084424E
:1009900002D14FF44C7A0FE040F25140844202D130
:1009A0004FF4647A08E042F21610844202D140F219
:1009B000963A01E04FF0000A49464046FFF7A3FE91
:1009C000002707E00AEB0701274A505CFFF73EFECD
:1009D000781CC7B2062FF5DBBDE8F0870FB42DE910
:1009E000F04397B007464FF000090026002016900C
:1009F00020A816903A46542101A8169B00F080F8D2
:100A00000020169001A800F095F8401C00F0FF09A6
:100A10000025A846002441E001A8005D00B941E09E
:100A200001E0681CC5B201A8005D80212941084091
:100A30000028F6D1D5B901A810F80480601CC4B212
:100A400022E0000000800C400000044000800E40C6
:100A50000000002080CC0602323100080000024075
:100A600000093D002E320008F22B00080AE001A820
:100A7000005D691EC900884040EA0808601CC4B2D5
:100A8000681EC5B2002DF2DC9DF87C203146404640
:100A9000FFF730FF4FF00008701CC6B24C4501DA7A
:100AA000152EB9DB00BF07E09DF87C2031462020E1
:100AB000FFF720FF701CC6B2152EF5DB17B0BDE89E
:100AC000F0035DF814FB000008480047FEE7FEE76E
:100AD000FEE7FEE7FEE7FEE7FEE7FEE7FEE7FEE7EE
:100AE00003480449044A054B70470000C100000850
:100AF000B0000020B0060020B0020020B0020020AC
:100B00007CB51D4616460C00009001D02044401EC6
:100B1000074B7B442A4669460190304600F0E3F8D3
:100B200005461CB10020694600F0F0F828467CBD5F
:100B30000102000010B5431C02E010F8011B71B166
:100B40008107FAD14FF0013202C88C1A8C4314EAA3
:100B5000C211F9D0C01A0A0603D0C01E10BDC01AB7
:100B600010BD0A0401D0801E10BD0902FCD0401E39
:100B700010BD70477047704770B5044685690068BE
:100B8000C10601D5302600E02026C00707D070BD81
:100B9000D4E9012130469047206A401C20626D1E36
:100BA000F6D570BD70B5044685690078C00707D1D9
:100BB00070BDD4E9012120209047206A401C2062AA
:100BC0006D1EF6D570BD09684A0501D540B2704763
:100BD000C905FCD500B2704709684A0501D5C0B205
:100BE0007047C905FCD580B2704770B50C46054604
:100BF000012A05D02878800600D5EA69002302E0A2
:100C0000012305E05B1C934202D2E05C0028F9D18D
:100C1000A869E618C01AA861286A184428622846FC
:100C2000FFF7AAFF04E0D5E9012114F8010B904772
:100C3000B442F8D32846FFF7B5FF70BD2DE9F04167
:100C40000646002410687529314616A510D0FFF716
:100C5000BAFF002802DA404213A507E031688A078C
:100C600001D512A502E0490704D511A5012401E030
:100C7000FFF7B2FF00210A2206F1240709E0B0FBCA
:100C8000F2FCB0FBF2F302FB1C0030307854184643
:100C9000491C0028F3D123462A463046BDE8F041DE
:100CA00000F069BA000000002D0000002B000000D9
:100CB0002000000011680268006A530501D5087021
:100CC0000AE0D30501D5088006E0130603D5C21754
:100CD000C1E9000200E008600120704701694A1C78
:100CE00002610878704700B58FB0CDE9013100216D
:100CF000059105497944CDE903101146684600F095
:100D000031F90FB000BD0000E5FFFFFF0A6802F8EF
:100D1000010B0A607047D1E900239A4202D2531CAA
:100D20000B601070704700002DE9FF5F15468A4682
:100D30000446DFF8AC80F8440027D8E900103E46AE
:100D4000CDE9001010E03AF816106A4602A800F04B
:100D500025FE411C07D02178890603D5E2693918A0
:100D600091420DD80744761C2078800602D5E069B0
:100D7000B84205DDAE42E6DB3AF816000028E2D1C3
:100D8000A069C01BA0612046FFF7F6FED8E900105D
:100D9000CDE90010002017E03AF818106A4602A8C2
:100DA00000F0FCFDB0F1FF3F81460BD000250DF1B6
:100DB000080B05E0D4E901211BF8050090476D1CE4
:100DC0004D45F7D308F10100B0428046E4DB206ACC
:100DD000384420622046FFF7E5FEBDE8FF9F000093
:100DE000022500002DE9F0418046D21D22F00702C5
:100DF0000025D2E90002F52915A614D0011E72F1D2
:100E0000000106DA0023D0EB030063EB020211A617
:100E100008E0D8F800108B0701D50FA602E04907BB
:100E200001D50EA601251146002408F1240704E08F
:100E300000F05CF930323A55641C50EA0102F7D1F7
:100E40002B46324621464046BDE8F04100F093B9BA
:100E5000000000002D0000002B000000200000001A
:100E600030B4002100F1240408E002F00705D208A4
:100E7000303542EA4372DB086554491C52EA0305E7
:100E8000F3D10468002310A2250707D5A40600D4D7
:100E900021B1C46901230DA2641EC46130BC00F0FD
:100EA0006AB910B5044621461068FFF795FE024660
:100EB0002046BDE810400023D2E7D21D22F00701F2
:100EC000D1E90023CCE70000000000003000000062
:100ED000F0B40D460188090502D5214C7C4402E09E
:100EE0001F4C7C440E34002100F1240608E002F07F
:100EF0000F071209E75D42EA03721B097754491C88
:100F000052EA0307F3D102780023120704D5702DAB
:100F100006D009B1022311342246F0BC00F02BB9EF
:100F200001231034F8E770B504460D4621461068D9
:100F3000FFF752FE024629462046BDE870400023D6
:100F4000C6E7D21D22F00703D3E90023C0E70368F8
:100F5000126843F0200303600823C3610023B7E74E
:100F6000642300002DE9F05F894604464FF0000A33
:100F7000DFF874B1FB44C0F820A02046E168884740
:100F8000002874D0252806D0D4E901219047206A92
:100F9000401C2062F1E700265F462046E168884752
:100FA0002028054607DB312D05D2781910F8200CD2
:100FB00008B10643F1E7B00701D526F00406C4F8EE
:100FC0001CA00027C4F818A02A2D09D0284601F03B
:100FD0001AFA38B304EB8708303DC8F8185019E006
:100FE00059F8041B204604EB87029161E1688847A9
:100FF000012F054618D1E069002820DA26F02006E6
:101000001DE0D8F8180000EB800005EB40003038F8
:10101000C8F818002046E1688847054601F0F3F952
:101020000028EED1012F0AD02E2D08D12046E168EC
:1010300088477F1C0546022F46F02006C4DBA069C6
:10104000002803DA404246F00106A061F00701D013
:1010500026F010066C2D0BD0682D09D04C2D39D000
:101060006A2D35D0742D35D07A2D33D016E038E086
:10107000E1682F4620468847B842054609D16C2FC3
:1010800026D04FF48060E168064320468847054635
:1010900004E06C2F1AD04FF4807006430DB3A5F115
:1010A0004100192802D8203546F400664A462946F0
:1010B000204626604E46FFF73DF880B101280BD050
:1010C000F61D26F0070000F1080956E74020E4E786
:1010D0008020D8E70020D6E706F104094DE728462E
:1010E00052E7206ABDE8F09FF422000030B5B0F16D
:1010F0000A024FEA900E71F100034EEA817EB0EBD6
:101100000E0061EB91014FEA101E4EEA017E10EBDA
:101110000E0041EB11114FEA102E4EEA016E10EB5A
:101120000E0041EB11214FEA104E4EEA014E10EB3A
:101130000E0041EB1141401841F100014FEAD0008F
:1011400040EA41704FEAD10110EB80054FEA81047B
:1011500044EA907444EB01046D1944EB0404521BFF
:10116000A3414FF0000348BF0A3200D530BD401CF8
:1011700041F1000130BD2DE9F0470D4699469246F8
:10118000044600F124080168880604D5E06921F0CE
:101190001001216000E00120A84201DD471B00E0B2
:1011A0000027A1697A1902EB0900081AA0612078CA
:1011B000C00602D42046FFF7DFFC002608E0D4E991
:1011C00001211AF806009047206A401C761C206214
:1011D0004E45F4DB2078C0060AD52046FFF7CCFC4C
:1011E00006E0D4E9012130209047206A401C2062AB
:1011F000381EA7F10107F4DC07E0D4E9012118F853
:1012000005009047206A401C2062281EA5F10105B8
:10121000F3DC2046FFF7C6FC2078000602D502204A
:10122000BDE8F0870120FBE770472DE9FF4F0C4632
:101230001E464FF0FF378BB0D2E90001DDF8608029
:101240000A908A46C1F30A5505B93D460021084671
:101250004FF00000BAF1000F00F4400005DA00EB97
:1012600080004FF4400101EA50004FEA9059B9F173
:10127000010F00DDB9460A9850EA4A000ED044F644
:101280001050A5F2FF3545432F14B8F1000F1ED0C2
:101290007542291E1EDDC9F100021CE0B8F1010FE4
:1012A0004FF0000001D0302103E0F24305E021546B
:1012B000401CB042FBDB30460022002121540B9938
:1012C000C1F80880C1E900200FB0BDE8F08FBD1B58
:1012D0006D1CDEE74A4600DA694206A800F0F0FB22
:1012E00006AB93E8070003AB83E8070050460A9972
:1012F00000F0ADFC8DE80700A0F500501F3800900D
:101300000398002D0ADD42F21F014A4608440023DB
:1013100003A90390684600F016FF09E0A0F500500D
:101320004A461F38002303A90390684600F020FFB7
:101330008DE807000004000C03D04FF0FF30410897
:1013400000E01046B8F1000F03D0002200921546CD
:101350001EE0751E05D4FFF7C9FE303262556D1EC2
:10136000F9D5B3460122084302D000227F1C04E0D5
:101370002078302801D100227F1E002A099784D0CE
:101380001DE0112D07DAFFF7B1FE303262556D1CFA
:1013900050EA0102F5D1084302D00098C8B10EE02E
:1013A0000021681E05E0235C625C63542254401EE9
:1013B000491C8142F7DBAB46A81B401E0990002068
:1013C00004F80B000B98099AC0F80880C0E9002BBC
:1013D0007AE711264FF0000857E72DE9F04F8846CD
:1013E0000446D21D22F0070191B0D1E90001CDE9F8
:1013F0000A0100F0F4FF02460B98C00F01D02D2027
:1014000007E02068810701D52B2002E0202101EAB6
:10141000C000032A099001D0072A05DB0346414694
:10142000204600F00DFB0BE12078800601D5E06935
:1014300000E00620B8F1650F814606D0B8F1660FCE
:1014400018D0B8F1670F70D131E00020B9F1110F59
:10145000009001DB112301E009F101030AAA01A9AF
:101460000CA8FFF7E2FEDDE90C70002609F101058A
:10147000834647E001204B4600904FF000470AAA00
:1014800001A90CA8FFF7D1FEDDE90DB00C995D466E
:10149000002610B909F101000D18B9EB050003D4BD
:1014A000C0F1FF3609F10105A5EB09002BE0B9F108
:1014B000010F01DA4FF001090020B9F1110F00907E
:1014C000484601DD112300E003460AAA01A90CA841
:1014D000FFF7ABFEDDE90C704D4600268346207811
:1014E00000070AD4AB4500DA5D4601A8012D04DDF2
:1014F000411911F8011C302907D04F4502DA17F1C4
:10150000040F04DA012082460FE06D1EEEE7002F83
:1015100002DCED1B3E4403E0781CA84200DD7D1C8C
:10152000B81B00F1010A4FF000472078000703D4F0
:10153000AA4501DB4FF0FF3A0021B7F1004F0DF152
:1015400043088DF8431024D002202B23002F01DA0A
:101550007F422D230A21021EA0F1010000DC5FB1B1
:1015600097FBF1FC97FBF1F201FB1C7C17460CF199
:10157000300C08F801CDEEE7A8F1010003702188D6
:10158000090501D5452100E06521A0F1010800F819
:10159000011C09980FA9A1EB0807FF1D00B101204C
:1015A000411901EBEA70A1693844081A401EA06194
:1015B0002078C00602D42046FFF7DEFA099828B149
:1015C000D4E901219047206A401C20622078C0069F
:1015D00022D52046FFF7D0FA1EE0002E04DBB345EB
:1015E00002DD01A8805D00E03020D4E901219047B0
:1015F000206A401C2062761CAAF101005FEA000A02
:101600000AD100F019FAC0680168405CD4E90121F0
:101610009047206A401C2062281EA5F10105DCDCF1
:1016200007E0D4E9012118F8010B9047206A401C1B
:101630002062381EA7F10107F3DC2046FFF7B2FA5B
:10164000032011B041E600002DE9F04F04460D469D
:10165000D21D22F0070089B0D0E9009748463946EC
:1016600000F0BDFE0246F80F01D02D2307E02068F0
:10167000810701D52B2302E0202101EAC0038DF868
:1016800020300BB1012000E00020032A824601D067
:10169000072A04DB2946204600F0D2F93FE12078F2
:1016A000800601D40D2500E0E569C7F30A560D2D2B
:1016B00049DA00214FEA175B08464FF00000002F7F
:1016C00000F4400007DA00EB80004FF4400100EB2B
:1016D000D07001EA60008115012901DD4FF0FF3172
:1016E00000224FEA850CBCF1180F06D31346ACF16B
:1016F00018004FF08052C24003E04FF4801323FAE9
:101700000CF30CF10C0CBCF1200F04D3ACF1200C49
:1017100009FA0CF001E007FA0CF000294FF000483C
:1017200001DD18B90FE00ED140450CD319EB0209C9
:101730005F4121B9404502D19F4329EA0209BBEB31
:10174000175F00D0761C2088000502D57B487844BE
:1017500002E07A487844193808AA302302F80A309F
:10176000037C0AF10101002E0AF1020A53546A4671
:1017700002DC4FF0300101E04FF031014FF0010881
:101780008DF8001002D0A6F2FF3603E059EA4701B7
:1017900000D06B4E002D02DC2178090704D54FF0F4
:1017A00002082E218DF80110C44600210BE0C7F37A
:1017B00003433F01C35C491C6D1E02F80830052934
:1017C00008F1010801DA002DF1DC00210CE000EB4A
:1017D0001973491C1B786D1E082902F808304FEA5E
:1017E000091908F1010801DA002DF0DC21688B06E7
:1017F00002D516E0A8F10108E04505DD02EB08037B
:1018000013F8013C302BF5D0B8F1000F09DD02EBE5
:10181000080313F8013C2E2B03D1090701D4A8F1CA
:101820000108002D05DD3E2102F808106D1E08F1AB
:101830000108407C002E02F8080008F1010804DAD3
:101840002D20764202F8080002E02B2002F8080062
:101850000A214FF47A70864208F101080BDB96FBEF
:10186000F0F3303302F8083096FBF0F308F101088A
:1018700000FB136601E0642E0CDB642096FBF0F3A2
:10188000303302F8083096FBF0F308F1010800FB52
:10189000136601E00A2E06DB96FBF1F0303002F809
:1018A000080008F1010896FBF1F001FB10603030F0
:1018B00002F80800A16908F1010808EB050202EB33
:1018C0000A00081AA0612078C00602D42046FFF75B
:1018D00053F9216A08AE01EB0A00206204E0D4E962
:1018E000012116F8010B9047BAF1010AF7D22078CE
:1018F000C00602D52046FFF73FF96E4609E016F80C
:10190000010B3E280FD0D4E901219047206A401CEA
:101910002062B8F10108F2D22046FFF743F909B07E
:101920000320BDE8F08F206A2844206203E0D4E958
:101930000121302090476D1EEBD3F8E73E1B0000DD
:1019400002FCFFFF10B5436913B1AFF3008001E063
:10195000FFF74BF9012010BD127800F124010A7045
:1019600000224A700122EDE711684FF0FF32E9E7EB
:1019700010B5436913B1AFF3008001E0FFF7D4F96C
:10198000012010BD128800F1240182840022C2844B
:101990000122EDE711684FF0FF32E9E770B5164616
:1019A0000C46054600F040F8036893F80101012851
:1019B00006D0FF2C0FD8185D68B101202C7070BDC7
:1019C000D3F807013246214603F2071303442846A1
:1019D000BDE8704018474FF0FF3070BD754600F00D
:1019E000EBF8AE4605006946534620F007008546F1
:1019F00018B020B5FFF774F8BDE820404FF000069E
:101A00004FF000074FF000084FF0000B21F00701E6
:101A1000AC46ACE8C009ACE8C009ACE8C009ACE829
:101A2000C0098D467047000010B500F005F8001D94
:101A300010BD00BF0D0A0000004870477000002074
:101A40002DE9F0411F46044603260168072A01F4E8
:101A5000006004DB08B116A505E016A503E008B197
:101A600015A500E015A521F010002060A069C01E9A
:101A7000A0610FB1401EA0612046FFF77DF84FB175
:101A8000D4E9012138469047206A401C2062C01CDE
:101A9000206206E0206AFAE7D4E9012115F8010B7B
:101AA0009047761EF8D22046FFF77CF8BDE8F0811B
:101AB0004E414E006E616E00494E4600696E6600F2
:101AC0002DE9F047814616468AB0354878440DC85E
:101AD0008DE80D0032487844801C03AC0DC884E8C2
:101AE0000D0041F69B300844372190FBF1F290FB4A
:101AF000F1F5A5F1800501FB12041B3C02D56442FF
:101B0000012000E00020DFF898A080460027FA447A
:101B1000AAF1BE0A0EE0E0070AD03246684607EB9B
:101B2000470101230AEB810100F022FB8DE8070049
:101B300064107F1C002CEED1194F7F44AE3F19E09A
:101B4000E80715D007EB04100DF1180A90E80E0015
:101B50008AE80E00C068F04201D198190890324618
:101B6000012306A903A800F003FB03AB83E80700E9
:101B70006D10641C002DE3D14FF00103324669461D
:101B8000B8F1000F03A802D000F0DDFA01E000F088
:101B9000EFFAC9E90001C9F808200AB0BDE8F087EA
:101BA0005018000010B50446AFF300802046BDE891
:101BB0001040FEF722BB0000004870475000002094
:101BC0004FF0013C50F8042B51F8043B9A4221D1CC
:101BD000A2EB0C03934313EACC1317D150F8042B58
:101BE00051F8043B9A4215D1A2EB0C03934313EA3C
:101BF000CC130BD150F8042B51F8043B9A4209D175
:101C0000A2EB0C03934313EACC13DBD04FF000009C
:101C1000704700BFD01A01BAB1FA81F101F0180182
:101C200022FA01F0CB40C1F12001DBB2C0B2C01AF0
:101C30002CFA01F3D11A914311EAC311E6D170478E
:101C400001491820ABBEFEE72600020070475FEA9C
:101C5000400C08BF91F0000F4FEA8C234FEAC122DD
:101C600043EA51514FEA1C5018BF00F5F0404FEACB
:101C7000300018BF41F000415FEA6C5C00F0298041
:101C8000BCF1FF3F08BF40F080407047130C06BF17
:101C900012044FF0100C4FF0000C130E04BF120290
:101CA0000CF1080C130F04BF12010CF1040C930F7C
:101CB00004BF92000CF1020CD30F04BF52000CF1D0
:101CC000010C11464FF00002A0F11F00A0EB0C0028
:101CD000704711F0004F08BF704731F000413FF4EA
:101CE000D5AF0B0C06BF09044FF0100C4FF0000CE1
:101CF0000B0E04BF09020CF1080C0B0F04BF090105
:101D00000CF1040C8B0F04BF89000CF1020CCB0FFB
:101D100004BF49000CF1010CCCF12003A0EB0C0036
:101D200022FA03F302FA0CF241EA030100F1010086
:101D3000704720F07F4C80EA030023F07F47ACEB34
:101D4000070303F57C5300F0004003F1FF032DE986
:101D500080494FEA154B09B44FEA144325EA0B4E6C
:101D600024EA03480FF2042606EB132749083E78BD
:101D70005FEA320203FB0667C7F5000707FB06F6BA
:101D80004FEA54374FEAD64606F1020607FB066CC7
:101D9000CCF1005C4FEA1C472CEA074C07FB06F429
:101DA0000CFB06F504EB15464FEA961634BF0020EF
:101DB0004FF000404FEAD13706FB07FC4FEA1C4CBE
:101DC0000CFB0BF7D21B03FB0CF761EB07010CFBC1
:101DD0000EF7B0EB074072EB17420CFB08F734BF6D
:101DE000A2EB0742B2EB074261EB17414FEA0C440A
:101DF0004FEA910706FB07FC4FEA1C4C0CFB0BF764
:101E0000B0EBC74072EB573203FB0CF734BFA2EBC9
:101E1000C742B2EBC74261EB57310CFB0EF7B0EB98
:101E2000C70072EB57720CFB08F734BFA2EBC70276
:101E3000B2EBC70261EB5771039F4FEA816141EA40
:101E4000921104EBCC044FEAD1374FEA826206FBD1
:101E500007FC42EA90124FEA80604FEA1C4C0CFBF0
:101E60000BF7D21B03FB0CF761EB07010CFB0EF722
:101E7000B0EB074072EB17420CFB08F734BFA2EB44
:101E80000742B2EB074261EB17414FEA8C554FEA2C
:101E9000910704EB9C2406FB07FC4FEA1C4C0CFB4F
:101EA0000BF7B0EBC74072EB573203FB0CF734BFB4
:101EB000A2EBC742B2EBC74261EB57310CFB0EF706
:101EC000B0EBC70072EB57720CFB08F734BFA2EB04
:101ED000C702B2EBC70261EB577115EB4C254FEA15
:101EE000816141EA92114FEA82624FEAD13742EAB8
:101EF000901206FB07FC44F100044FEA80604FEAB1
:101F00001C4C0CFB0BF7D21B03FB0CF761EB07011E
:101F10000CFB0EF7B0EB074072EB17420CFB08F717
:101F200034BFA2EB0742B2EB074261EB174115EB5E
:101F30001C154FEA813141EA92414FEA823242EA6E
:101F400090424FEA80304FEA0C7644F1000448EAB0
:101F500003434EEA0B484FF0000EB2EB080C71EB56
:101F6000030724BF624639464EEB0E0E4FF0000BBE
:101F70000018524149414BEB0B0BB2EB080C71EBD3
:101F800003077BF1000B24BF624639464EEB0E0E71
:101F90004FF0000B0018524149414BEB0B0BB2EBD9
:101FA000080C71EB03077BF1000B24BF6246394636
:101FB0004EEB0E0E51EA020718BF46F0010616EB73
:101FC0000E7655F1000254F1000103D5BDE88901F8
:101FD000BDE80088BDE88901BDE80048B619524156
:101FE00041EB0101A3F10103704780807F7E7D7C7E
:101FF0007B7A7978777676757473727171706F6E9B
:102000006E6D6C6C6B6A6A69686867666665646445
:10201000636362616160605F5F5E5E5D5D5C5C5BCF
:102020005B5A5A595958585757565655555554543E
:10203000535352525251515050504F4F4F4E4E4D9C
:102040004D4D4C4C4C4B4B4B4A4A4A4949494848E8
:102050004847474747464646454545444444444328
:1020600043434342424242414141002B9C4630D4CB
:1020700077002BD01CB54FEA370703B44FF01000A0
:102080004FF01001BAF1000F06D0BCF1000FDCBF19
:1020900040F0080040F008014FF000000FBCBDE820
:1020A00010400BF1010BBBF1010F08BF5FEA1707EE
:1020B00022BF12F1010211F101014FF0004143F181
:1020C000000300F0004043EA00007047F9D35708CE
:1020D000D0E746EA064613F1400F4FEA16461FDDE9
:1020E00013F1200FDFBF16430A46002120335B4265
:1020F000BED0C3F1200746EA064602FA07F74FEAC8
:10210000164646EA0706C3F1200722FA03F201FA4F
:1021100007F721FA03F14FF0000342EA0702A7E7AD
:1021200046EA020646EA06464FEA164646EA01062F
:10213000BCBF46EA0646360C4FF000034FF00002E3
:102140004FF0000194E72DE9804C9A46934670B415
:1021500091E8380007C831EA400C48BF34EA430C24
:1021600003D5FFF7E6FDFFF780FFF0BCBDE8008C6C
:102170002DE9804C9A46934670B491E8380007C820
:1021800010F0804F08BF13F0804F03D100F005F826
:10219000FFF76BFFF0BCBDE8008C20F07F4780EAC2
:1021A000030023F07F4C07EB0C03A3F57C5300F0F6
:1021B0000040A3F1FE0392F0000F00F0B38095F011
:1021C000000F00F077802DE901494FEA11404FEAF6
:1021D000144621EA004800FB06FC24EA064708FBF7
:1021E00006F607FB08F800FB07F718EB06484CEB70
:1021F000164C4FEA124B18EB07484FEA15464CEBCA
:10220000174022EA0B4E0BFB06FC25EA06470EFBA5
:1022100006F607FB0EFE0BFB07F71EEB064E4CEB1C
:10222000164C4FF000061EEB074E4CEB174B18EB0D
:102230000B0840F1000018EB0E0B58EB000840F1C2
:1022400000008F1A4FF000013CBFC943661B14BF4A
:10225000B5EB040C00213CBFC943F61B4FEA174401
:102260004EEA8E0E27EA04454FEA1C4704FB07623C
:102270002CEA074C05FB07F70CFB05F604FB0CFCEE
:1022800016EB074642EB174216EB0C4642EB1C429C
:102290001BEB060658EB0202414146EA9E0601D5B9
:1022A000BDE80189B619524141EB0101A3F10103D7
:1022B000BDE801894FEA14454FEA114724EA054673
:1022C00021EA074C05FB07F406FB07F70CFB06F1B8
:1022D00005FB0CFC11EB074144EB17444FEA124796
:1022E00011EB0C4144EB1C4422EA074C05FB07F2BE
:1022F00006FB07F70CFB06F605FB0CFC16EB074686
:1023000042EB174216EB0C4642EB1C456A1854F19F
:10231000000148BF7047B619524141EB0101A3F1DA
:102320000103704795F0000F37D04FEA11424FEA92
:10233000144721EA024624EA074C02FB07F106FB98
:1023400007F70CFB06F402FB0CFC14EB074441EB13
:1023500017414FEA154714EB0C4441EB1C4125EAA9
:10236000074C02FB07F506FB07F70CFB06F602FB22
:102370000CFC16EB074645EB174516EB0C4645EBF8
:102380001C42121951F1000148BF7047B619524161
:1023900041EB0101A3F1010370474FEA14454FEAF5
:1023A000114724EA054621EA074C05FB07F106FB25
:1023B00007F70CFB06F24FF0000605FB0CFC12EBD6
:1023C000074241EB174112EB0C4251EB1C4148BF55
:1023D0007047921841EB0101A3F1010370474900D6
:1023E00050EAC12018BF04204A0D18BF40F0010078
:1023F00040F2FF72B2EB515F08BF40F002000128CB
:1024000008BF0520704730380A2801D201207047E4
:102410000020704710B500290AD00878002807D09E
:1024200005487844FFF7CCFB002801D0002010BD00
:102430000248784410BD0000360F00002E0F000047
:1024400010B500290AD00878002807D0054878443C
:10245000FFF7B6FB002801D0002010BD02487844E9
:1024600010BD0000260F00001E0F0000491058BFCD
:10247000C1F140415B1058BFC3F140438B42EFF3C1
:102480000080704751EA030C17D41CF5801F58BF19
:10249000BCF5801F00F10680994218BF704708BF45
:1024A0009042704707D711F5801F58BF13F5801F62
:1024B00019D499427047894270471CF5801F08D58E
:1024C000BCF5801FF7D58B4218BF704708BF82420A
:1024D00070474FF4001C1CEB410F38BF1CEB430F3F
:1024E00001D28B42704770B500F008F89224490081
:1024F0004FF000514FF08053FFF7B8BF0EF1020EBE
:102500002EF0030E5EF8046B364205D4012A43EB2D
:10251000030515F5001F12D8012841EB010C1CF52D
:10252000001F0CD80ED14FEAD17C15F5001F0CEB23
:102530004C0C0CF1020C08BF4CEBD37C04E04FF0C8
:10254000080C01E04FEAD37C0CEB4C0526FA05F6AB
:1025500006F00706B6F1040C06D20EEB860CBDE8B9
:1025600070404CF0010C6047DFE80CF0090B0202F0
:102570004FF000414FF00000A1F5002170BD194659
:102580001046012851EB010418BFD4F5001484BF94
:10259000002001F0004170BD0808A0F500114FEACD
:1025A0003101704743004FEAD30C4FEA3C0C4340E3
:1025B0001FBF40070CF1605113F0FE4F70471CF035
:1025C000006F03D100200CF0004170470CF0004375
:1025D00043EA507010B540EACC0000F014FA00BF96
:1025E000000000924FEA0001FFF7D6BF4FF0004114
:1025F0004FF00000A1F500217047000090EA010FA4
:1026000048BF81F0004100F18282421A3CBF801A2B
:1026100089184FEAD0524FF07F4C1CEA410FA2EBD1
:10262000D15318BF9CEA026F00F03B804FF0004C82
:102630004CEA00204CEA012121FA03FC10EB0C0CBF
:102640001ED202F1FF325FEA1C2040EBC25038BFBD
:1026500070471CF07F0F4FEA400C18BFBCF17F4F52
:1026600038BF7047C3F12003994008BF20F0010034
:10267000BCF17F4F38BF7047A0F1C04000F009BAED
:102680004FEA3C00000A40EBC25028BF1CF0FF0F8D
:102690004FEA400CE6D018BFBCF17F4F38BF7047FF
:1026A000EAE79CEA026F05D010EA5C0F08BF00F071
:1026B0000040704710B500F0A6F900BF64FBBE3EB5
:1026C000401058BFC0F14040491058BFC1F14041CF
:1026D0008142EFF3008070474FF47F0C1CEAD01268
:1026E0001EBF1CEAD11392EA0C0F93EA0C0F00F004
:1026F000858090EA010F48BF42F4807240F4000CDC
:1027000041F400002CF07F4120F07F4000B5814271
:10271000A2EB03020FF2081CACEB504EC0F100001C
:102720009EF800E04FEA4E0E00FB0EFC38BF490059
:102730004FEA2C1C02F5FA020CFB0EF34FEACE1EF8
:102740004FEA112C4FEAC1210EEB635E42EB2242AD
:102750000EFB0CFC4FEA1C5300FB03114FEA112C3B
:102760004FEA01310EFB0CFC4FEADC4C00FB0C1174
:10277000C14228BF09184CEB03335DF804EB10EBA2
:10278000410143EBC250B2F57C0F38BF704729D5E9
:1027900012F0F00F1CBF00F1C04000F00040704785
:1027A000008182838485868788898B8C8D8E8F912A
:1027B0009293959697999A9C9D9FA0A2A3A5A7A84E
:1027C000AAACAEB0B2B3B5B7B9BCBEC0C2C5C7C97A
:1027D000CCCED1D4D7D9DCDFE2E6E9ECF0F3F7FADE
:1027E000FE0000004FEA400C0CF1807CBCF17E4FF3
:1027F00028BF7047B0F1C04000F04BB990EA010F1C
:102800000CEAD11348BF42F48072624538BF634579
:1028100007D213F47F0F16D080EA010000F00040C9
:10282000704710B500F0EFF8097EFC3E00F005B8E7
:1028300080EA010000F00040704780EA010000F0EB
:10284000004000F026B912F47F0F04BF0248704721
:1028500080EA010000F01DB90000C07FC10DD1F178
:102860009E0206DB4FEA002343F0004323FA02F006
:102870007047004207D54FEA4001B1F1FE4F02D246
:102880004FF00000704710B500F0BDF84992248069
:10289000002070476FEA20007047000050EA010CEA
:1028A00000F113801CF5000F58BFBCF5000F01D4D8
:1028B0008842704707D710F5000F58BF11F5000F79
:1028C00015D488427047894270471CF5000F04D523
:1028D000BCF5000FF7D5814270474FF0807C1CEBB0
:1028E000400F38BF1CEB410F01D28142704710B539
:1028F00000F089F8922449004FF000504FF08051C9
:10290000FFF7DEBE4FF47F0C1CEAD0121EBF1CEA9C
:10291000D11392EA0C0F93EA0C0F00F0478090EA73
:10292000010F48BF42F480724FF0004C4CEA002087
:102930004CEA012102EB0302A0FB0113A2F5000205
:10294000002918BF43F001035B0028BF4FEA33039F
:1029500042EB22425FEA132C4CEBC2502EBFBCEB81
:10296000436FB2F57C0F70474FEA036CBCF1004F28
:1029700008BF20F00100B2F57C0F38BF70470BD5BF
:1029800082F0FF0212F5803FC8BF704700F1C040DF
:10299000D8BF00F00040704700F5000C5FEA4C0C17
:1029A00048BF7047B0F1C04000F073B890EA010F23
:1029B0000CEAD11348BF42F48072624538BF6345C8
:1029C00004D280EA010000F00040704710B500F02A
:1029D0001AF800BF8900013E00F007B800F009B8FE
:1029E0005FEA410C5FEA1C6C08D080EA010000F04D
:1029F00050B85FEA400C5FEA1C6CF6D14FF0004023
:102A0000A0F5800070470EF1020E2EF0030E5EF866
:102A1000044B244204D44FEA4102B2F17F4F11D853
:102A20004FEA4003B3F17F4F0CD80ED14FEAD07C70
:102A3000B2F17F4F0CEB4C0C0CF1020C08BF4CEBCD
:102A4000D17C04E04FF0080C01E04FEAD17C0CEBA4
:102A50004C0324FA03F404F00704B4F1040C06D286
:102A60000EEB840CBDE810404CF0010C6047DFE831
:102A70000CF0070802024FF00040A0F5800010BDE6
:102A80000846420018BFD2F1807288BF00F00040B3
:102A900010BDFF2141EAD050C005704751EA000C3B
:102AA00000F113801CF5000F58BFBCF5000F01D4D6
:102AB0008142704707D711F5000F58BF10F5000F7E
:102AC00015D481427047894270471CF5000F04D528
:102AD000BCF5000FF7D5884270474FF0807C1CEBA7
:102AE000410F38BF1CEB400F01D28842704780EA8B
:102AF000010081EA000180EA0100FFF7F8BE000052
:102B000090EA010F48BF81F000413FF57EAD421AC7
:102B100004D882F00042A0EB020011444FEAD052E8
:102B20004FF07F4C1CEA410FA2EBD15318BF9CEA37
:102B3000026F4AD04FF0004C4CEA00204CEA0121D1
:102B400021FA03FCB0EB0C0C0FD412F0FE0F36D0C0
:102B50005FEA4C001DD5001240EBC25038BF7047F1
:102B60001CF03F0F18BF70470BE0A2F101025FEAB3
:102B70001C2040EBC25038BF70471CF07F0F18BFBD
:102B80007047C3F12003994014BF401E20F001009C
:102B9000704780084FEA122308BF7047B0FA80FCE4
:102BA000A2EB0C02CCF1280C60FA0CF093EA122F85
:102BB00004BF00EBC25070474FEAC3707047130A5E
:102BC0005FEADC1008BF7047F6E79CEA026F04D0AA
:102BD00010EA5C0F08BF0020704710B5FFF713FF25
:102BE00040DFF63E81F000407047FEF7F6BBFEF78F
:102BF0002BBD00000000000000005F000000000787
:102C000000070000147F147F1400242A7F2A12007A
:102C10002313086462003649552250000000070063
:102C20000000001C224100000041221C000014088A
:102C30003E08140008083E0808000050300000005C
:102C40000808080808000060600000002010080460
:102C500002003E5149453E0000427F400000426173
:102C6000514946002141454B31001814127F100094
:102C70002745454539003C4A49493000017109055D
:102C80000300364949493600064949291E000036E5
:102C900036000000005636000000081422410000F3
:102CA00014141414140000412214080002015109E4
:102CB00006003E415D551E007E1111117E007F49C8
:102CC000494936003E41414122007F4141221C00DA
:102CD0007F49494941007F09090901003E414949AD
:102CE0007A007F0808087F0000417F4100002040F3
:102CF000413F01007F08142241007F4040404000D6
:102D00007F020C027F007F0408107F003E4141419A
:102D10003E007F09090906003E4151215F007F09FD
:102D20001929460026494949320001017F01010065
:102D30003F4040403F001F2040201F003F403840A0
:102D40003F0063140814630007087008070061510E
:102D500049454300007F4141000002040810200063
:102D60000041417F00000402010204004040404055
:102D700040000000010200002054545478007F48B5
:102D800044443800384444444400384444487F00B4
:102D9000385454541800087E0901060018A4A4A44D
:102DA0007C007F080404780000447D40000020403F
:102DB000443D00007F102844000000417F40000097
:102DC0007C04180478007C080404780038444444E7
:102DD0003800FC242424180018242428FC007C0833
:102DE00004041800085454542000043F44403000A8
:102DF0003C4040207C001C2040201C003C403040D7
:102E00003C004428102844001CA0A0A07C0044647E
:102E1000544C440000083641000000007F000000D0
:102E200000413608000010081010080000000000E3
:102E30000000007E43437E00007E63637E00007ED0
:102E400073737E00007E7B7B7E00007E7F7F7E0032
:102E500040004000400004047F04040014147F1468
:102E60001400143E554122001C227F221400487E8B
:102E70004949420000081422000004027F020400B5
:102E800010207F201000081C2A08080008082A1CAF
:102E900008007F4171311F0002557D050200101EA0
:102EA0003F1E1000E0E07F020C00E4E87F224C00AF
:102EB00000183C3C18000808080808000808080822
:102EC00008007F4141417F0008082A0808001020BF
:102ED0007F01010000002214080014341C161400A5
:102EE0002412242412002A2A2A2A2A0000444A51A1
:102EF000000000514A44000007484B483F000C5175
:102F000052513C002040413F0100221C141C220071
:102F10007E0202020300000077000000204A5529CB
:102F200002007C55545544003E635D773E003E49A7
:102F30004941220008142A142200040404041C003D
:102F40000000000000003E41754B3E0000017C0186
:102F5000000006090906000044445F4444000041A3
:102F60007F41000000447D4000007C040406000016
:102F7000FE20201E200006097F017F0000000C0CAF
:102F800000003855545518007F0408107F0038544D
:102F90005444280022142A1408002040443D000014
:102FA000264949493200085454542000000278024E
:102FB00000007E1111117E007F45454539007F4993
:102FC000494936007F0101010300603E213F600056
:102FD0007F494949410077087F08770041494949BD
:102FE00036007F1008047F007E2013087E007F08D3
:102FF00014224100403C02017F007F020C027F004E
:103000007F0808087F003E4141413E007F010101E9
:103010007F007F09090906003E414141220001016C
:103020007F010100074848483F001C227F221C0006
:103030006314081463007F40407FC0000F1010101D
:103040007F007F407F407F007F407F40FF00017F07
:10305000444438007F4438007F007F4444380000F7
:10306000224149493E007F083E413E004629190958
:103070007F002054545478003C4A4A4930003E496D
:103080004D4A30007C04040C0000C078447CC00031
:103090003854545418006C107C106C00445454285C
:1030A00000007C2010087C007C2112097C007C1030
:1030B000284400007008047C00007C0810087C0094
:1030C0007C1010107C003844444438007C04040414
:1030D0007C00FC24242418003844444444000404A4
:1030E0007C0404001CA0A0A07C003048FC483000F8
:1030F0004428102844007C40407CC0000C10107C08
:1031000000007C407C407C007C407C40FC00047CD7
:10311000505020007C5020007C007C50502000004B
:103120002844545438007C1038443800085434146F
:103130007C0040407C06721AEADABADAEA9A7A0629
:103140007C404000000000000000C0202020C000A3
:10315000C0202020C000000000000000008040804F
:103160004000E0202020E000E00080402000E0005F
:1031700080402000000000000000E0408040E000AF
:1031800080000000800000008080000000808080BF
:10319000000080000000800000008080000080802F
:1031A000808000004080408000000000000000009F
:1031B00005053560455555555555555545603505F9
:1031C00005000000000000000F0202020F000708C7
:1031D00008080700000000000000010205020400CA
:1031E0000F0000000F000F01020408000F0102048D
:1031F00008000000000000000F0001000F000F0495
:1032000002010F000E01000F0000040A0A0A0F005D
:103210000F0202020F00180F080F18001F04040409
:103220000300040205020100000000000000AEE2FD
:10323000A3A6C881202F26AD02AF00000000000029
:1032400000000000303132333435363738394142EE
:1032500043444546403058003031323334353637F8
:1032600038396162636465664030780004000008A4
:1032700000000000000000020001000010303132A8
:103280003334353637383961626364656678700087
:10329000303132333435363738394142434445468C
:1032A0005850000002400000000000A00000000094
:1032B00005400000000000C8000000000C400000B5
:1032C0000000409C00000000194000000020BCBE2F
:1032D0000000000034400000BFC91B8E0000000445
:1032E000B5400000504BCFD06607E2CF0100000090
:1032F0006C4100003E8251AADFEEA73401000000BD
:10330000D9420000DCB5A0E23A301F97FFFFFFFF73
:10331000B4450000FD25A0C8E9A3C14FFFFFFFFF92
:10332000FF3F00000000008000000000FF3F0000A1
:10333000000000800000000084340008000000202D
:1033400010000000FC000008943400081000002069
:10335000A0060000180100081C0000004300000047
:10336000F8FFFFFF0C0000000E0000000F0000003F
:103370002E0000001001000043000000F8FFFFFFD6
:103380000040404040404040404041414141414078
:10339000404040404040404040404040404040402D
:1033A00040050202020202020202020202020202BC
:1033B00002202020202020202020200202020202C1
:1033C0000202909090909090101010101010101019
:1033D0001010101010101010101010100202020225
:1033E0000202888888888888080808080808080869
:1033F0000808080808080808080808080202020265
:10340000400000000000000000000000000000007C
:1034100000000000000000000000000000000000AC
:10342000000000000000000000000000000000009C
:10343000000000000000000000000000000000008C
:10344000000000000000000000000000000000007C
:10345000000000000000000000000000000000006C
:10346000000000000000000000000000000000005C
:10347000000000000000000000000000000000004C
:103480000000000000127A000000000000000000B0
:043490000000000038
:04000005080000C12E
:00000001FF
