:040000009FEF03F07B
:08000800046ED8CF05F0E0CF33
:1000100006F00001E9CF0CF0EACF07F0E1CF08F0DD
:10002000E2CF09F0D9CF0AF0DACF0BF0F3CF12F01C
:10003000F4CF13F0FACF14F0F5CF15F0F6CF16F099
:10004000F7CF17F000C00EF001C00FF002C010F0A3
:1000500003C011F0F2AA30EF00F0F2B465EF00F047
:100060000EC000F00FC001F010C002F011C003F08C
:100070000CC0E9FF07C0EAFF078E08C0E1FF09C016
:10008000E2FF0AC0D9FF0BC0DAFF12C0F3FF13C0B2
:10009000F4FF14C0FAFF15C0F5FF16C0F6FF17C035
:1000A000F7FF045006C0E0FF05C0D8FF1000D6E8F7
:1000B000F4F0EEE2EEE920200000E3E0F3F1F1ECF1
:1000C000E5F2F02056312E303000010E1B6EEA0EA4
:1000D000D76E600ED66EF294F29430EF00F0423D8F
:1000E000000020C3E0F3F1F10000C8E7ECE5F02EDA
:1000F0000000D3F1F22E203000002020202020200C
:100100000000D1F2EEEF20200000C8E7ECE5F02E71
:100110000000EA6A410EE96EEF500EE00C0E016E2F
:10012000006A002EFED7012EFBD7F70E006E002EC0
:10013000FED700D0EF2EF2D71200553AF00E55162A
:10014000819855C01CF01CA881941CB881841CAAFD
:1001500081921CBA81821CAC829A1CBC828A1CAE21
:1001600082981CBE8288030E006E002EFED7818608
:10017000060E006E002EFED700008196060E006E61
:10018000002EFED700001200020E405E0BE3EA6A6A
:10019000400EE96EEF5006E0020E006E002EFED714
:1001A000EF2EFAD71200819AA60E006E002EFED70F
:1001B000000081884238436E0F0E431643C055F04D
:1001C000BCDF42C055F0B9DF12008196819AC80E9B
:1001D000416E9FDF030E556EB0DFC80E406ED4DF58
:1001E000030E556EAADFC80E406ECEDF030E556EAD
:1001F000A4DFC80E406EC8DF020E556E9EDFC80E2B
:10020000406EC2DF2A0E426ECEDF080E426ECBDF9A
:10021000010E426EC8DF020E416E7BDF060E426E9B
:10022000C2DF0F0E426EBFDF0A0E416E72DF11EFAA
:1002300004F0010E426EB7DF020E416E6ADF12005B
:10024000819AA60E006E002EFED70000818A81885A
:100250005338546E0F0E541654C055F06EDF53C011
:1002600055F06BDF37EF01F052C053F0E9D71200C1
:1002700042C052F0F9DF47EF01F00900F5520CE0FF
:10028000F6CF40F0F7CF41F0F5CF42F0F1D740C0C4
:10029000F6FF41C0F7FFF1D7120040508009416ED0
:1002A000426E81DF1200C5DFAE0EF66E000EF76EF5
:1002B000E4DF400E406EF1DFBA0EF66E000EF76E10
:1002C000DCDF080E406EFA0E416E23DF402EFBD7B6
:1002D000B0DF12EF04F0030EC2163E34006E00369B
:1002E000FC0E00160050C21220EF04F0D8B203D06A
:1002F000EA6A460EE96E41504518800B4B6E41AEDE
:100300000BD03E1E3F1E401E411E3E2AD8B43F2A3F
:10031000D8B4402AD8B4412A45AE0BD0421E431E61
:10032000441E451E422AD8B4432AD8B4442AD8B41D
:10033000452A006A016A026A036A466A476A486A8D
:10034000496A45504410431042102CE0200E4A6E7A
:10035000D8903E363F3640364136463647364836E8
:1003600049364550495C08E14450485C05E143503A
:10037000475C02E14250465C0FE34250465E435008
:10038000D8A0433C475E4450D8A0443C485E45500A
:10039000D8A0453C495ED880003601360236033687
:1003A0004A2ED6D74BAE0BD0001E011E021E031ED6
:1003B000002AD8B4012AD8B4022AD8B4032A46C0E5
:1003C000EFFF47C0ECFF48C0ECFF49C0ECFF70EF07
:1003D00004F0596A5A6A010E5B6EDA6AD96A5E6A7B
:1003E000510E5D6EEA6A550EE96E5EC0E2FF5DC0B9
:1003F000E1FF5BC05CF0D890E550EE02F35059226B
:10040000F4505A225C2EF7D759C0DEFF5AC059F07B
:100410005A6AD8B05A2A5D2AD8B45E2A5B2A5B5041
:100420000508E0E11200D8B203D0EA6A590EE96E7D
:10043000006A016A026A036A596A5A6A5B6A5C6AFC
:1004400058505710561055102CE0200E5D6ED89065
:10045000513652365336543659365A365B365C3638
:1004600058505C5C08E157505B5C05E156505A5CA3
:1004700002E15550595C0FE35550595E5650D8A0D3
:10048000563C5A5E5750D8A0573C5B5E5850D8A097
:10049000583C5C5ED88000360136023603365D2E4D
:1004A000D6D759C0EFFF5AC0ECFF5BC0ECFF5CC071
:1004B000ECFF1200D89247C054F046C053F045C03C
:1004C00052F044C051F0586A576A270E566E100E0B
:1004D000556EA9DF03C04CF002C04BF001C04AF0DA
:1004E00000C049F04CC054F04BC053F04AC052F029
:1004F00049C051F0586A576A270E566E100E556E55
:1005000068DF03C050F002C04FF001C04EF000C0E1
:100510004DF04850040805E2300E4924516E526EE9
:10052000A3DE4D50445E4E50455A4F50465A5050EF
:10053000475AD89247C054F046C053F045C052F0D5
:1005400044C051F0586A576A030E566EE80E556E55
:100550006ADF03C04CF002C04BF001C04AF000C09B
:1005600049F04CC054F04BC053F04AC052F049C05F
:1005700051F0586A576A030E566EE80E556E29DF21
:1005800003C050F002C04FF001C04EF000C04DF06B
:100590004850030805E2300E4924516E526E64DE65
:1005A0004D50445E4E50455A4F50465A5050475A4F
:1005B000D89247C054F046C053F045C052F044C0F2
:1005C00051F0586A576A566A640E556E2CDF03C0A4
:1005D0004CF002C04BF001C04AF000C049F04CC0E2
:1005E00054F04BC053F04AC052F049C051F0586A21
:1005F000576A566A640E556EECDE03C050F002C0B6
:100600004FF001C04EF000C04DF04850020808E223
:10061000300E4924516E526E27DE2E0E526E24DEAD
:100620004D50445E4E50455A4F50465A5050475ACE
:10063000D89247C054F046C053F045C052F044C071
:1006400051F0586A576A566A0A0E556EECDE03C0BE
:100650004CF002C04BF001C04AF000C049F04CC061
:1006600054F04BC053F04AC052F049C051F0586AA0
:10067000576A566A0A0E556EACDE03C050F002C0CF
:100680004FF001C04EF000C04DF04850010805E2A7
:10069000300E4924516E526EE7DD4D50445E4E508F
:1006A000455A4F50465A5050475A4850000805E2A4
:1006B000300E4424516E526ED7DD77EF03F02B0ECF
:1006C000436E41BE01D007D0401E411E402AD8B41F
:1006D000412A2D0E436E43C052F0C6DD476A466A7A
:1006E00041C045F040C044F042C048F0E3D6A8EF16
:1006F00004F0010E3F6E040E3E24016E015204E030
:10070000D8903F36012EFCD73FC01CF01CA8819426
:100710001CB881841CAA81921CBA81821CAC829A6A
:100720001CBC828A1CAE82981CBE8288640E406EFD
:100730002BDD000E82B6010E016EBFEF04F0F86AE9
:10074000D09E078EEA6AE96AA786080EAF6E020E8F
:100750007D6EA60EAC6E900EAB6E1B6A0F015C51E7
:10076000800B5C6F000E5D6FC196C198C19A5E6B85
:100770005F6B196A1A6A1C6A1D6A1E6A1F6A206A00
:10078000216A226A236A246A256A266A276A286AF5
:10079000296A2B6A2A6A200E2D6EC00E2C6E356ACD
:1007A000346A336A326A396A386A376A366A3D6A45
:1007B0003C6A3B6A3A6AC050C00B3A09C06EC08EB0
:1007C000C2805C51800B5C6F020E5D6FC196C19858
:1007D000C19A000E886E000EA96E040E5E6F5F6FE8
:1007E000000E0409CA6EFF0ECB6E94948B940C0E0F
:1007F000506F9992C80E516F5051CF0B506F870EAA
:10080000D56EEA0ED76E600ED66EC188C19AC196BB
:1008100092949494916A010E936E890E946E0001E5
:10082000D4D441D506DD406A38DDF28AC00EF2121A
:1008300004001B52D8B499D01B6A010E3E6E4BD5F2
:10084000406A2BDDDE0EF66E000EF76E16DD3D6A99
:100850003C6A3B6A3A6A2B6A2A6A2B5232E12A5076
:1008600063082FE3C282C2B2FED7C4CF03F0026A8C
:10087000036A03C035F002C034F0C4CF33F0C3CFF5
:1008800032F035AE04D0356A346A336A326A35BE26
:100890000CD0355205E1345203E133500F0805E224
:1008A000356A346A0F0E336E326832503A2633504E
:1008B0003B2234503C2235503D222A2AD8B42B2AE0
:1008C000CCD7D8923DC041F03CC040F03BC03FF097
:1008D0003AC03EF0456A446A436A640E426E06D5E9
:1008E00003C035F002C034F001C033F000C032F074
:1008F00035C054F034C053F033C052F032C051F020
:10090000586A576A566A040E556E63DD03C035F0A7
:1009100002C034F001C033F000C032F035C039F00D
:1009200034C038F033C037F032C036F02C50325E6D
:100930002D50335A000E345A355A33C03FF032C06E
:100940003EF033C041F032C040F0040E426EB7D6E4
:10095000E20EF66E000EF76E90DC400E406E9DDCEF
:10096000EA0EF66E000EF76E88DC2B6A2A6A2B52AE
:1009700044E12A50030841E32AC03EF0BAD60152AE
:100980002AE01D0E2A24E96E000E2B20EA6EEF509D
:10099000140819E1210E2A24E96E000E2B20EA6EBC
:1009A000EF5210E1210E2A24E96E000E2B20EA6E90
:1009B000010EEF6E250E2A24E96E000E2B20EA6E42
:1009C000010EEF6E07D01D0E2A24E96E000E2B20BB
:1009D000EA6EEF2A0ED01D0E2A24E96E000E2B209F
:1009E000EA6EEF6A210E2A24E96E000E2B20EA6ED1
:1009F000EF6A2A2AD8B42B2ABAD725521DE0256AD5
:100A0000400E406E4ADCF20EF66E000EF76E35DCDC
:100A100037C02DF036C02CF0040E3E6EAF0E416E86
:100A200089EC00F03E2EFAD7400E406E36DCFA0E0E
:100A3000F66E000EF76E21DC26520AE0266A400EA2
:100A4000406E2BDC020EF66E010EF76E16DCF29A8B
:100A500027520AE0276A400E406E1FDC0A0EF66E2F
:100A6000010EF76E0ADCF28A285204E0286A400E72
:080A7000406E13DCDDD603002B
:020000040030CA
:0E0000001D127835008991000FC00FE00F40EF
:00000001FF
;PIC18F25K80
;CRC=5CC9  CREATED="03-сен-12 15:25"
