:020000040800F2
:10000000080F0020BD2B0008FD2D0008012E000860
:10001000052E0008092E00080D2E00080000000023
:10002000000000000000000000000000112E000889
:10003000152E000800000000192E00081D2E0008D3
:10004000212E0008252E0008292E0008000000009F
:10005000000000002D2E0008312E0008352E00086B
:10006000392E0008000000003D2E0008412E000837
:10007000452E000800000000492E00084D2E000803
:10008000512E0008552E000800000000592E0008CF
:100090005D2E0008000000000000000000000000CD
:1000A000000000000000000000000000612E0008B9
:1000B000652E0008692E00086D2E0008712E0008BC
:1000C000002000E0401CC0B21628FBDB7047002077
:1000D00000E0401CC0B20428FBDB7047002000E0B9
:1000E000401CC0B20728FBDB7047002000E0401C2A
:1000F000C0B29C28FBDB7047002000E0401CDFF80A
:1001000040178842FAD3704780B5DFF8381709687E
:1001100031F00401DFF82C271160DFF82C17096893
:1001200031F40061DFF820271160DFF81C1709683F
:1001300031F02001DFF810271160DFF80C17096893
:1001400051F01001DFF800271160DFF80017C0B28E
:100150000860FFF7BCFFDFF8EC06006850F0800095
:10016000DFF8E0160860FFF7B2FFDFF8D806006896
:1001700030F08000DFF8CC160860FFF7AFFFFFF724
:10018000ADFF01BD80B5DFF8BC16096831F0040190
:10019000DFF8B0261160DFF8B016096831F40061AD
:1001A000DFF8A4261160DFF8A016096831F010010D
:1001B000DFF894261160DFF89016096851F02001ED
:1001C000DFF884261160DFF88416C0B20860FFF7FC
:1001D0007EFFDFF87006006850F08000DFF86416DC
:1001E0000860FFF774FFDFF85C06006830F08000FD
:1001F000DFF850160860FFF771FFFFF76FFF01BDD2
:1002000080B5DFF84016096831F00401DFF83426C4
:100210001160DFF83416096851F40061DFF8282610
:100220001160DFF82C1609780A2910DADFF81816A1
:10023000096831F02001DFF810261160DFF8081698
:10024000096851F01001DFF8002611600FE0DFF8B7
:10025000F815096851F02001DFF8EC251160DFF88E
:10026000E815096831F01001DFF8DC251160DFF8CE
:10027000DC15C0B20860FFF72AFFDFF8C805006888
:1002800050F08000DFF8BC150860FFF720FFDFF8B2
:10029000B405006830F08000DFF8A8150860FFF7AB
:1002A0001DFFFFF71BFF01BD80B5DFF8981509683A
:1002B00031F00401DFF88C251160DFF88C15096836
:1002C00051F40061DFF880251160DFF87C150968C2
:1002D00031F01001DFF870251160DFF86C15096846
:1002E00051F02001DFF860251160DFF86015C0B221
:1002F0000860FFF7ECFEDFF84C05006850F0800066
:10030000DFF840150860FFF7E2FEDFF83805006807
:1003100030F08000DFF82C150860FFF7DFFEFFF7F4
:10032000DDFE01BD80B5DFF81C05006830F08000FF
:10033000DFF810150860DFF81005006830F4806001
:10034000DFF804150860FFF7BBFEDFF8FC04006867
:1003500050F48060DFF8F0140860FFF7C6FEC0209C
:10036000FFF7D2FEC020FFF70DFF3F20FFF7CCFEC6
:100370003F20FFF707FF01BD80B550F0B800C0B2C5
:10038000FFF7C2FE01BD80B550F04000C0B2FFF7DC
:10039000BBFE01BD80B5C0B2082804DA50F0B80039
:1003A000C0B2FFF7EFFE01BD80B5C0B2402804DA4D
:1003B00050F04000C0B2FFF7E5FE01BD10B50400EB
:1003C000DFF88C04002101702000C0B2FFF7D4FFD9
:1003D0000020FFF7D8FF2000C0B2FFF7DBFF0020AE
:1003E000FFF7E2FF10BD38B5002407E00020FFF75B
:1003F0005BFF6D1CEDB2802DF8DB641CE4B2082CB1
:100400001ADA2000C0B2FFF7B7FF2000C0B2FFF732
:10041000BAFF002503E00020FFF7F2FE6D1CEDB2ED
:10042000402DF8DB2000C0B2FFF7B4FF2000C0B2BF
:10043000FFF7BAFF4025DDE731BD38B504000120E4
:1004400007E0DFF80C140978491CDFF80424117068
:10045000401CC0B2E4B2A042F3D3E4B2142C00DBDF
:100460001324002503E00020FFF7CAFE6D1CEDB247
:10047000E4B2062000FB04F08542F4DB31BD10B588
:10048000DFF8CC130978491CDFF8C4231170C0B21F
:10049000002810D0022833D01DD304284ED03ED3DC
:1004A000062869D059D3082800F0848073D309281E
:1004B00000F08F809BE0002406E0E4B2DFF89403B4
:1004C000205CFFF79DFE641CE4B2062CF5DB0020E7
:1004D000FFF796FE8BE00020FFF792FE0020FFF76B
:1004E0008FFE002405E0E4B2DB48205CFFF788FEC5
:1004F000641CE4B2032CF6DB0020FFF781FE76E0FB
:10050000002405E0E4B2D548205CFFF779FE641CC6
:10051000E4B2052CF6DB0020FFF772FE67E0002452
:1005200005E0E4B2CE48205CFFF76AFE641CE4B24A
:10053000052CF6DB0020FFF763FE58E0002405E001
:10054000E4B2C848205CFFF75BFE641CE4B2062CF2
:10055000F6DB0020FFF754FE49E0002405E0E4B29A
:10056000C148205CFFF74CFE641CE4B2052CF6DBAE
:100570000020FFF745FE3AE0002405E0E4B2BB4866
:10058000205CFFF73DFE641CE4B2052CF6DB002086
:10059000FFF736FE2BE0002405E0E4B2B448205C0F
:1005A000FFF72EFE641CE4B2052CF6DB0020FFF7FB
:1005B00027FE1CE0002405E0E4B2AE48205CFFF713
:1005C0001FFE641CE4B2052CF6DB0020FFF718FECA
:1005D0000DE0002405E0E4B2A748205CFFF710FE20
:1005E000641CE4B2052CF6DB0020FFF709FE10BD09
:1005F0002DE9F8430400C9B201290BD0C0F01E81D7
:1006000003291CD00BD305296AD036D3062900F064
:10061000B38013E12000C0B2FFF731FF0EE10A20E2
:10062000B4FBF0F52800C0B2FFF729FFADB20A20F5
:1006300000FB15442000C0B2FFF721FFFEE064205C
:10064000B4FBF0F52800C0B2FFF719FFADB264208B
:1006500000FB15460A20B6FBF0F63000C0B2FFF7EB
:100660000EFFADB2642000FB15400A2101FB160409
:100670002000C0B2FFF703FFE0E04FF47A70B4FB54
:10068000F0F52800C0B2FFF7FAFEADB24FF47A7071
:1006900000FB15466420B6FBF0F63000C0B2FFF751
:1006A000EEFEADB24FF47A7000FB1540642101FB01
:1006B00016070A20B7FBF0F73800C0B2FFF7DFFEDD
:1006C000ADB24FF47A7000FB1540642101FB1600B7
:1006D0000A2101FB17042000C0B2FFF7D0FEADE0F5
:1006E00042F21070B4FBF0F52800C0B2FFF7C7FE6D
:1006F000ADB242F2107000FB15464FF47A70B6FBB3
:10070000F0F63000C0B2FFF7BAFEADB242F21070A0
:1007100000FB15404FF47A7101FB16076420B7FB0C
:10072000F0F73800C0B2FFF7AAFEADB242F2107087
:1007300000FB15404FF47A7101FB1600642101FBA8
:1007400017080A20B8FBF0F84046C0B2FFF797FE42
:10075000ADB242F2107000FB15404FF47A7101FB0C
:100760001600642101FB17000A2101FB1804200078
:10077000C0B2FFF784FE61E04048B4FBF0F528000A
:10078000C0B2FFF77CFEADB23C4800FB154642F21A
:100790001070B6FBF0F63000C0B2FFF770FEADB2DD
:1007A000364800FB154042F2107101FB16074FF46A
:1007B0007A70B7FBF0F73800C0B2FFF760FEADB259
:1007C0002E4800FB154042F2107101FB16004FF459
:1007D0007A7101FB17086420B8FBF0F84046C0B2FC
:1007E000FFF74DFEADB2254800FB154042F21071F7
:1007F00001FB16004FF47A7101FB1700642101FB25
:1008000018090A20B9FBF0F94846C0B2FFF737FED5
:10081000ADB21A4800FB154042F2107101FB160000
:100820004FF47A7101FB1700642101FB18000A21C3
:1008300001FB19042000C0B2FFF721FEBDE8F183DF
:10084000E874020000800B4000800C4000800A40E9
:10085000040000203C2C0008E42D0008FC2B0008BC
:10086000042C00080C2C0008142C00081C2C000878
:10087000242C00082C2C0008342C0008A086010031
:1008800080B5C9B2FFF7B4FE01BD000010B5DFF8B6
:10089000C01D0978491CDFF8B82D1170C0B221289D
:1008A00000F03B862A2800F05F862B2800F008869F
:1008B0002C2800F083862D2800F012862E2800F0C8
:1008C00070862F2800F05D863A2800F019863C28B3
:1008D00000F0D9853D2800F0E3853E2800F0C5856D
:1008E0003F2800F02786412800F07586422800F056
:1008F0009086432800F0AE86442800F0CB86452839
:1009000000F0E886462800F00487472800F0218799
:10091000482800F03E87492800F05B874A2800F00D
:1009200078874B2800F095874C2800F0B0874D2839
:1009300000F0D0874E2800F0ED874F2801F00C80A2
:10094000502801F02980512801F04680522801F0FA
:100950006580532801F08280542801F0A180552839
:1009600001F0C080562801F0DD80572801F0FC809E
:10097000582801F01B81592801F038815A2801F0CC
:1009800055815F2800F0E385612800F033866228F6
:1009900000F04F86632800F06D86642800F08A8698
:1009A000652800F0A786662800F0C386672800F057
:1009B000E086682800F0FD86692800F01A876A281A
:1009C00000F037876B2800F053876C2800F06F87A2
:1009D0006D2800F08E876E2800F0AC876F2800F03D
:1009E000CA87702800F0E787712801F00580722817
:1009F00001F02480732801F04180742801F05F80A9
:100A0000752801F07F80762801F09C80772801F01E
:100A1000BB80782801F0D980792801F0F6807A2807
:100A200001F01381A82800F08A81B82800F098818D
:100A3000C02800F0BE80C12800F0DD80C22800F090
:100A4000FC80C32800F01B81C42800F03481C52835
:100A500000F05381C62800F09481C72800F0B381CC
:100A6000C82800F0D281C92800F0F181CA2800F01E
:100A70001082CB2800F02F82CC2800F04E82CD28A7
:100A800000F06D82CE2800F08C82CF2800F0AB827F
:100A9000D02800F0CA82D12800F0E982D22800F0E4
:100AA0000883D32800F02783D42800F04683D52874
:100AB00000F06583D62800F08483D72800F0A38354
:100AC000D82800F0C283D92800F0E183DA2800F0AA
:100AD0002284DB2800F04184DC2800F0FA83DD2842
:100AE00000F05D84DE2800F07C84DF2800F09B8429
:100AF000E0286FD0E12800F08F80E22800F0AE807F
:100B0000E32800F0CA80E42800F0E680E52800F041
:100B10000581E62800F04681E72800F06581E82895
:100B200000F08481E92800F0A381EA2800F0C28166
:100B3000EB2800F0E181EC2800F00082ED2800F0C5
:100B40001F82EE2800F03E82EF2800F05D82F02840
:100B500000F07C82F12800F09B82F22800F0BA823B
:100B6000F32800F0D982F42800F0F882F52800F08C
:100B70001783F62800F03683F72800F05583F8280D
:100B800000F07483F92800F09383FA2800F0D483EE
:100B9000FB2800F0F383FC2800F0AC83FD2800F074
:100BA0000F84FE2800F02E84FF2800F04D8401F011
:100BB0005AB8002406E0E4B2DFF8140D205CFFF719
:100BC0001FFB641CE4B2072CF5DB0020FFF718FBC9
:100BD00001F049B8002406E0E4B2DFF8F40C205C30
:100BE000FFF70EFB641CE4B2072CF5DB0020FFF7D7
:100BF00007FB01F038B8002406E0E4B2DFF8100D7E
:100C0000205CFFF7FDFA641CE4B2052CF5DB002044
:100C1000FFF7F6FA01F027B8002406E0E4B2DFF8A7
:100C2000F00C205CFFF7ECFA641CE4B2052CF5DB59
:100C30000020FFF7E5FA01F016B8002406E0E4B260
:100C4000DFF8100D205CFFF7DBFA641CE4B2052C22
:100C5000F5DB0020FFF7D4FA01F005B8002406E028
:100C6000E4B2DFF8F00C205CFFF7CAFA641CE4B2CF
:100C7000052CF5DB0020FFF7C3FA00F0F4BF0024D9
:100C800006E0E4B2DFF80C0D205CFFF7B9FA641C53
:100C9000E4B2052CF5DB00F0E6BF002406E0E4B288
:100CA000DFF8F00C205CFFF7ABFA641CE4B2052C13
:100CB000F5DB00F0D8BF002406E0E4B2DFF8140D45
:100CC000205CFFF79DFA641CE4B2082CF5DB0020E1
:100CD000FFF796FA00F0C7BF002406E0E4B2DFF8A1
:100CE000F40C205CFFF78CFA641CE4B2082CF5DBF2
:100CF0000020FFF785FA00F0B6BF002406E0E4B25A
:100D0000DFF8140D205CFFF77BFA641CE4B2052CBD
:100D1000F5DB0020FFF774FA00F0A5BF002406E021
:100D2000E4B2DFF8F40C205CFFF76AFA641CE4B26A
:100D3000052CF5DB0020FFF763FA00F094BF0024D8
:100D400006E0E4B2DFF8D00C205CFFF759FA641C2F
:100D5000E4B2052CF5DB0020FFF752FA00F083BF68
:100D6000002406E0E4B2DFF8B00C205CFFF748FA9C
:100D7000641CE4B2052CF5DB0020FFF741FA00F01B
:100D800072BF002406E0E4B2DFF8100D205CFFF72C
:100D900037FA641CE4B20A2CF5DB0020FFF730FAC6
:100DA00000F061BF002406E0E4B2DFF8F00C205C44
:100DB000FFF726FA641CE4B20A2CF5DB0020FFF7EB
:100DC0001FFA00F050BF002406E0E4B2DFF80C0D7B
:100DD000205CFFF715FA641CE4B2052CF5DB00205B
:100DE000FFF70EFA00F03FBF002406E0E4B2DFF8A0
:100DF000EC0C205CFFF704FA641CE4B2052CF5DB74
:100E00000020FFF7FDF900F02EBF002406E0E4B259
:100E1000DFF8CC0C205CFFF7F3F9641CE4B2062C7D
:100E2000F5DB0020FFF7ECF900F01DBF002406E021
:100E3000E4B2DFF8AC0C205CFFF7E2F9641CE4B22A
:100E4000062CF5DB0020FFF7DBF900F00CBF0024D7
:100E500006E0E4B2DFF8880C205CFFF7D1F9641CEF
:100E6000E4B2062CF5DB0020FFF7CAF900F0FBBE68
:100E7000002406E0E4B2DFF8680C205CFFF7C0F95C
:100E8000641CE4B2062CF5DB0020FFF7B9F900F092
:100E9000EABE002406E0E4B2DFF8C80C205CFFF7ED
:100EA000AFF9641CE4B2062CF5DB0020FFF7A8F9CB
:100EB00000F0D9BE002406E0E4B2DFF8A80C205C04
:100EC000FFF79EF9641CE4B2062CF5DB0020FFF767
:100ED00097F900F0C8BE002406E0E4B2DFF8C80CC1
:100EE000205CFFF78DF9641CE4B2062CF5DB0020D2
:100EF000FFF786F900F0B7BE002406E0E4B2DFF8A1
:100F0000A80C205CFFF77CF9641CE4B2062CF5DB2E
:100F10000020FFF775F900F0A6BE002406E0E4B259
:100F2000DFF8C40C205CFFF76BF9641CE4B2082CFA
:100F3000F5DB0020FFF764F900F095BE002406E021
:100F4000E4B2DFF8A40C205CFFF75AF9641CE4B2A9
:100F5000082CF5DB0020FFF753F900F084BE0024D5
:100F600006E0E4B2DFF8C00C205CFFF749F9641C2E
:100F7000E4B2062CF5DB0020FFF742F900F073BE67
:100F8000002406E0E4B2DFF8A00C205CFFF738F99B
:100F9000641CE4B2062CF5DB0020FFF731F900F009
:100FA00062BE002406E0E4B2DFF8BC0C205CFFF770
:100FB00027F9641CE4B2062CF5DB0020FFF720F9CA
:100FC00000F051BE002406E0E4B2DFF89C0C205C87
:100FD000FFF716F9641CE4B2062CF5DB0020FFF7DE
:100FE0000FF900F040BE002406E0E4B2DFF87C0C0C
:100FF000205CFFF705F9641CE4B2062CF5DB002049
:10100000FFF7FEF800F02FBE002406E0E4B2DFF8A0
:101010005C0C205CFFF7F4F8641CE4B2062CF5DBF2
:101020000020FFF7EDF800F01EBE002406E0E4B259
:10103000DFF83C0C205CFFF7E3F8641CE4B2062CFC
:10104000F5DB0020FFF7DCF800F00DBE002406E021
:10105000E4B2DFF81C0C205CFFF7D2F8641CE4B2A9
:10106000062CF5DB0020FFF7CBF800F0FCBD0024D8
:1010700006E0E4B2DFF8FC0B205CFFF7C1F8641C6B
:10108000E4B2062CF5DB0020FFF7BAF800F0EBBD68
:10109000002406E0E4B2DFF8DC0B205CFFF7B0F8D8
:1010A000641CE4B2062CF5DB0020FFF7A9F800F081
:1010B000DABD002406E0E4B2DFF8880C205CFFF71C
:1010C0009FF8641CE4B2062CF5DB0020FFF798F8CB
:1010D00000F0C9BD002406E0E4B2DFF8680C205C33
:1010E000FFF78EF8641CE4B2062CF5DB0020FFF756
:1010F00087F800F0B8BD002406E0E4B2DFF8480C41
:10110000205CFFF77DF8641CE4B2072CF5DB0020BF
:10111000FFF776F800F0A7BD002406E0E4B2DFF8A0
:10112000280C205CFFF76CF8641CE4B2072CF5DB9C
:101130000020FFF765F800F096BD002406E0E4B259
:10114000DFF8080C205CFFF75BF8641CE4B2082CA5
:10115000F5DB0020FFF754F800F085BD002406E021
:10116000E4B2DFF8E80B205CFFF74AF8641CE4B255
:10117000082CF5DB0020FFF743F800F074BD0024D5
:1011800006E0E4B2DFF8F80B205CFFF739F8641CE6
:10119000E4B2072CF5DB0020FFF732F800F063BD66
:1011A000002406E0E4B2DFF8D80B205CFFF728F853
:1011B000641CE4B2072CF5DB0020FFF721F800F0F7
:1011C00052BD002406E0E4B2DFF8B80B205CFFF764
:1011D00017F8641CE4B2072CF5DB0020FFF710F8C9
:1011E00000F041BD002406E0E4B2DFF8980B205C7B
:1011F000FFF706F8641CE4B2072CF5DB0020FEF7CD
:10120000FFFF00F030BD002406E0E4B2DFF8780B09
:10121000205CFEF7F5FF641CE4B2052CF5DB002032
:10122000FEF7EEFF00F01FBD002406E0E4B2DFF899
:10123000580B205CFEF7E4FF641CE4B2052CF5DBE0
:101240000020FEF7DDFF00F00EBD002406E0E4B252
:10125000DFF8380B205CFEF7D3FF641CE4B2082CE7
:10126000F5DB0020FEF7CCFF00F0FDBC002406E01B
:10127000E4B2DFF8180B205CFEF7C2FF641CE4B296
:10128000082CF5DB0020FEF7BBFF00F0ECBC0024CF
:1012900006E0E4B2DFF86C0B205CFEF7B1FF641CE3
:1012A000E4B2092CF5DB0020FEF7AAFF00F0DBBC5E
:1012B000002406E0E4B2DFF84C0B205CFEF7A0FF50
:1012C000641CE4B2092CF5DB0020FEF799FF00F066
:1012D000CABC002406E0E4B2DFF82C0B205CFEF769
:1012E0008FFF641CE4B2052CF5DB0020FEF788FFBD
:1012F00000F0B9BC002406E0E4B2DFF80C0B205C7F
:10130000FEF77EFF641CE4B2052CF5DB0020FEF73F
:1013100077FF00F0A8BC002406E0E4B2DFF8EC0A96
:10132000205CFEF76DFF641CE4B2072CF5DB0020A7
:10133000FEF766FF00F097BC002406E0E4B2DFF899
:10134000CC0A205CFEF75CFF641CE4B2072CF5DBE2
:101350000020FEF755FF00F086BC002406E0E4B252
:10136000DFF8580B205CFEF74BFF641CE4B2082C3E
:10137000F5DB0020FEF744FF00F075BC002406E01A
:10138000E4B2DFF8380B205CFEF73AFF641CE4B2ED
:10139000082CF5DB0020FEF733FF00F064BC0024CE
:1013A00006E0E4B2DFF8180B205CFEF729FF641CAE
:1013B000E4B2052CF5DB0020FEF722FF00F053BC61
:1013C000002406E0E4B2DFF8F80A205CFEF718FF1C
:1013D000641CE4B2052CF5DB0020FEF711FF00F0E1
:1013E00042BC002406E0E4B2DFF8D80A205CFEF735
:1013F00007FF641CE4B2082CF5DB0020FEF700FFB9
:1014000000F031BC002406E0E4B2DFF8B80A205C4A
:10141000FEF7F6FE641CE4B2082CF5DB0020FEF7B4
:10142000EFFE00F020BC002406E0E4B2DFF8980AEA
:10143000205CFEF7E5FE641CE4B2062CF5DB002020
:10144000FEF7DEFE00F00FBC002406E0E4B2DFF899
:10145000780A205CFEF7D4FE641CE4B2062CF5DBAF
:101460000020FEF7CDFE00F0FEBB002406E0E4B253
:10147000DFF8580A205CFEF7C3FE641CE4B2062CB9
:10148000F5DB00F0F0BB002406E0E4B2DFF8400A30
:10149000205CFEF7B5FE641CE4B2062CF5DBE2E34B
:1014A000002406E0E4B2DFF82C0A205CFEF7A8FE78
:1014B000641CE4B2062CF5DB0020FEF7A1FED2E3AB
:1014C000002406E0E4B2DFF8100A205CFEF798FE84
:1014D000641CE4B2052CF5DB0020FEF791FEC2E3AC
:1014E000002406E0E4B2DFF8F409205CFEF788FE91
:1014F000641CE4B2052CF5DB0020FEF781FEB2E3AC
:10150000002406E0E4B2DFF8D809205CFEF778FE9C
:10151000641CE4B2032CF5DBA5E3002406E0E4B28E
:10152000DFF8C009205CFEF76BFE641CE4B2032CFC
:10153000F5DB98E3002406E0E4B2DFF8AC09205CB8
:10154000FEF75EFE641CE4B2052CF5DB8BE30024A1
:1015500006E0E4B2DFF89409205CFEF751FE641C5B
:10156000E4B2072CF5DB7EE3002406E0E4B2DFF80A
:101570008009205CFEF744FE641CE4B2072CF5DB16
:1015800071E3002406E0E4B2DFF86809205CFEF7AE
:1015900037FE641CE4B2052CF5DB0020FEF730FEBC
:1015A00061E3002406E0E4B2DFF84C09205CFEF7BA
:1015B00027FE641CE4B2032CF5DB54E3002406E0B0
:1015C000E4B2DFF83809205CFEF71AFE641CE4B2CE
:1015D000032CF5DB47E3002405E0E4B2BC48205CC3
:1015E000FEF70EFE641CE4B2072CF6DB0020FEF7CB
:1015F00007FE38E3002405E0E4B2B548205CFEF7BE
:10160000FFFD641CE4B2072CF6DB0020FEF7F8FDBA
:1016100029E3002406E0E4B2DFF83803205CFEF79B
:10162000EFFD641CE4B2052CF5DB0020FEF7E8FDBD
:1016300019E3002405E0E4B2C648205CFEF7E0FDB3
:10164000641CE4B2052CF6DB0020FEF7D9FD0AE3AA
:1016500004000020002406E0E4B2DFF81806205C55
:10166000FEF7CEFD641CE4B2062CF5DB0020FEF78D
:10167000C7FDF8E2002406E0E4B2DFF8F805205CDC
:10168000FEF7BEFD641CE4B2062CF5DB0020FEF77D
:10169000B7FDE8E2002406E0E4B2DFF86408205C6D
:1016A000FEF7AEFD641CE4B2072CF5DB0020FEF76C
:1016B000A7FDD8E2002406E0E4B2DFF84408205C8D
:1016C000FEF79EFD641CE4B2072CF5DB0020FEF75C
:1016D00097FDC8E2002406E0E4B2DFF83C03205C9A
:1016E000FEF78EFD641CE4B2052CF5DB0020FEF74E
:1016F00087FDB8E2002405E0E4B2C748205CFEF7AD
:101700007FFD641CE4B2052CF6DB0020FEF778FDBB
:10171000A9E2002406E0E4B2DFF8E807205CFEF767
:101720006FFD641CE4B2062CF5DB0020FEF768FDBB
:1017300099E2002406E0E4B2DFF8C807205CFEF777
:101740005FFD641CE4B2062CF5DB0020FEF758FDBB
:1017500089E2002406E0E4B2DFF8AC07205CFEF783
:101760004FFD641CE4B2072CF5DB0020FEF748FDBA
:1017700079E2002406E0E4B2DFF88C07205CFEF793
:101780003FFD641CE4B2072CF5DB0020FEF738FDBA
:1017900069E2002406E0E4B2DFF88C04205CFEF786
:1017A0002FFD641CE4B2062CF5DB0020FEF728FDBB
:1017B00059E2002406E0E4B2DFF86C04205CFEF796
:1017C0001FFD641CE4B2062CF5DB0020FEF718FDBB
:1017D00049E2002406E0E4B2DFF83007205CFEF7BF
:1017E0000FFD641CE4B2042CF5DB0020FEF708FDBD
:1017F00039E2002406E0E4B2DFF81007205CFEF7CF
:10180000FFFC641CE4B2042CF5DB0020FEF7F8FCBE
:1018100029E2002406E0E4B2DFF8F406205CFEF7DB
:10182000EFFC641CE4B2052CF5DB0020FEF7E8FCBD
:1018300019E2002406E0E4B2DFF8D406205CFEF7EB
:10184000DFFC641CE4B2052CF5DB0020FEF7D8FCBD
:1018500009E2002405E0E4B2C248205CFEF7D0FCB7
:10186000641CE4B2062CF6DB0020FEF7C9FCFAE1AA
:10187000002405E0E4B2BB48205CFEF7C1FC641C18
:10188000E4B2062CF6DB0020FEF7BAFCEBE1002404
:1018900006E0E4B2DFF87C06205CFEF7B1FC641CD5
:1018A000E4B2062CF5DB0020FEF7AAFCDBE1002405
:1018B00006E0E4B2DFF85C06205CFEF7A1FC641CE5
:1018C000E4B2062CF5DB0020FEF79AFCCBE100BF6A
:1018D0008C2C0008002405E0E4B2C348205CFEF72D
:1018E0008FFC641CE4B2082CF6DB0020FEF788FCB9
:1018F000B9E1002405E0E4B2BB48205CFEF780FCBF
:10190000641CE4B2082CF6DB0020FEF779FCAAE1A7
:10191000942C0008002406E0E4B2DFF8FC05205C0B
:10192000FEF76EFC641CE4B2072CF5DB0020FEF72A
:1019300067FC98E1002406E0E4B2DFF8DC05205CF7
:10194000FEF75EFC641CE4B2072CF5DB0020FEF71A
:1019500057FC88E19C2C0008002405E0E4B2C24852
:10196000205CFEF74DFC641CE4B2062CF6DB002084
:10197000FEF746FC77E1002405E0E4B2BA48205CBB
:10198000FEF73EFC641CE4B2062CF6DB0020FEF7FA
:1019900037FC68E1A42C0008002405E0E4B2B44858
:1019A000205CFEF72DFC641CE4B2062CF6DB002064
:1019B000FEF726FC57E1002405E0E4B2AC48205CC9
:1019C000FEF71EFC641CE4B2062CF6DB0020FEF7DA
:1019D00017FC48E1AC2C0008002406E0E4B2DFF874
:1019E0003C05205CFEF70CFC641CE4B2082CF5DB23
:1019F0000020FEF705FC36E1002406E0E4B2DFF843
:101A00001C05205CFEF7FCFB641CE4B2082CF5DB33
:101A10000020FEF7F5FB26E1B42C0008002406E0C8
:101A2000E4B2DFF8FC04205CFEF7EAFB641CE4B2DD
:101A3000062CF5DB0020FEF7E3FB14E1002406E0B2
:101A4000E4B2DFF8DC04205CFEF7DAFB641CE4B2ED
:101A5000062CF5DB0020FEF7D3FB04E1002406E0B2
:101A6000E4B2DFF8C004205CFEF7CAFB641CE4B2F9
:101A7000062CF5DB0020FEF7C3FBF4E0002406E0B3
:101A8000E4B2DFF8A004205CFEF7BAFB641CE4B209
:101A9000062CF5DB0020FEF7B3FBE4E0D82B0008B2
:101AA000002405E0E4B2A748205CFEF7A9FB641C13
:101AB000E4B2062CF6DB0020FEF7A2FBD3E0002404
:101AC00005E0E4B29F48205CFEF79AFB641CE4B298
:101AD000062CF6DB0020FEF793FBC4E0BC2C0008CC
:101AE000C42C0008002406E0E4B2DFF83C04205CCB
:101AF000FEF786FB641CE4B2072CF5DB0020FEF742
:101B00007FFBB0E0002406E0E4B2DFF81C04205CB8
:101B1000FEF776FB641CE4B2072CF5DB0020FEF731
:101B20006FFBA0E0002406E0E4B2DFF80004205CD4
:101B3000FEF766FB641CE4B2072CF5DB0020FEF721
:101B40005FFB90E0002406E0E4B2DFF8E003205CF5
:101B5000FEF756FB641CE4B2072CF5DB0020FEF711
:101B60004FFB80E0CC2C0008002406E0E4B2DFF854
:101B7000C003205CFEF744FB641CE4B2082CF5DBD8
:101B80000020FEF73DFB6EE0002406E0E4B2DFF843
:101B9000A003205CFEF734FB641CE4B2082CF5DBE8
:101BA0000020FEF72DFB5EE0D42C0008002405E0A9
:101BB000E4B27348205CFEF723FB641CE4B2072CFC
:101BC000F6DB0020FEF71CFB4DE0002405E0E4B24C
:101BD0006B48205CFEF714FB641CE4B2072CF6DBB8
:101BE0000020FEF70DFB3EE0DC2C0008002405E0A1
:101BF000E4B2D048205CFEF703FB641CE4B2062C80
:101C0000F6DB0020FEF7FCFA2DE0002405E0E4B24C
:101C1000C848205CFEF7F4FA641CE4B2062CF6DB3C
:101C20000020FEF7EDFA1EE0E42C0008002405E099
:101C3000E4B2C148205CFEF7E3FA641CE4B2062C6F
:101C4000F6DB0020FEF7DCFA0DE0002405E0E4B24C
:101C5000B948205CFEF7D4FA641CE4B2062CF6DB2B
:101C60000020FEF7CDFA10BDEC2C0008F42C000883
:101C7000FC2C0008042D000870B50400002500208D
:101C800001E06D1C401CC0B2192803DAC0B2015D2E
:101C90000029F6D100260BE0F6B2305D202802D1F3
:101CA0000120FEF7CAFBF6B2305DFEF7EFFD761CB1
:101CB000F6B2EDB2AE42EFD370BD30B5ADF2044D29
:101CC00000A89E494FF4806200F072F900240DE0F4
:101CD000EDB2E4B2802000A900FB0410285CFEF7FE
:101CE0008FFA6D1CEDB2402DF2DB641CE4B2082CBF
:101CF00008DA2000C0B2FEF73FFB0020FEF743FBEE
:101D00000025EFE700240DE0EDB2E4B2802000A949
:101D100000FB0410285CFEF7C7FA6D1CEDB2802DA5
:101D2000F2DB641CE4B2082C08DA2000C0B2FEF733
:101D300031FB0020FEF738FB4025EFE70DF2044DA4
:101D400030BD00000C2D0008142D00081C2D0008CB
:101D50007B485FF0FF3101607A48012101607A48D9
:101D600000684007FBD57948042101607648006887
:101D70008007FBD576484FF48371016070470000FF
:101D8000242D00082C2D0008342D00083C2D0008BF
:101D90007048FF2101607048002101606F484FF6D4
:101DA000FF7101606E485FF0FF3101606D48FF21F7
:101DB00001606D48002101606C484FF6FF710160C1
:101DC0006B485FF0FF3101606A484FF6FF710160B8
:101DD00069480021016069484FF6FF710160684859
:101DE0005FF0FF310160674884210160664800218F
:101DF000016066484FF6FF71016065485FF0FF3192
:101E000001607047E42B0008542D0008442D0008A1
:101E100010B5ADF5C06D80A85E494FF4806200F04A
:101E2000C7F800A85C494FF4007200F0C1F8FFF752
:101E30008FFFFFF7ADFFFEF775FAFFF73EFFFEF7E6
:101E40005BF9FEF759F9FEF757F9FEF7CCFA0024D3
:101E50000020FEF7B3FA5148FFF70EFF0120FEF70E
:101E6000ADFA4F48FFF708FF0320FEF7A7FA4D48E9
:101E7000FFF702FF0520FEF7A1FA4B48FFF7FCFE33
:101E80000620FEF79BFA4948FFF7F6FE0321A4B2AD
:101E90002000FEF7F5FC0720FEF790FA4048FFF718
:101EA000EBFE641CA4B240F2E730844200D100246F
:101EB000FEF722F9FEF720F9CAE700004C2D0008D2
:101EC0005C2D0008642D00086C2D0008442C0008CF
:101ED0004C2C0008542C00085C2C0008642C0008D2
:101EE000E82D0008EC2D00086C2C0008742C00086C
:101EF0007C2C0008842C0008F02D0008F42D00082C
:101F0000742D00087C2D0008842D0008F82D000891
:101F10008C2D0008942D00089C2D0008A42D00088D
:101F2000AC2D0008B42D0008C42D0008BC2D0008FD
:101F3000CC2D0008D42D0008DC2D0008342000082A
:101F40001C00024008000240000002400400024061
:101F50000C00024004000C4008000C400C000C4037
:101F600018000C4004800A4008800A400C800A4097
:101F700018800A4004800C4008800C400C800C4003
:101F800018800C4004800B4008800B400C800B40F4
:101F900018800B403424000834280008802B0008E7
:101FA000282B0008942B0008A82B0008CC2B000835
:101FB000103A07D330B4B1E83810103AA0E838101E
:101FC000F9D230BC530724BFB1E80810A0E80810CC
:101FD00044BF51F8043B40F8043BD20724BF31F81A
:101FE000022B20F8022B44BF0B7803707047083A8D
:101FF00007D3B1E80810083A40F8043B40F804CB96
:10200000F7D25307E4E710B450F8041B81B102681B
:102010001218001D50F8043BDC0744BFA9F101046D
:10202000E31852F8044B43F8044B091FF9D1EBE7CE
:1020300010BC7047FFFF0303030303030303030301
:1020400003030303030303030307FFFF8783838360
:1020500083F3F33333333333333333333333333380
:102060003333333333F3F38383838387FFFF0703F0
:102070000303030303030303030303030303030330
:102080000303030303030303030303030303030320
:10209000030303030303030303C1FCFF1F7FFCE0EF
:1020A0000103030303030303030303030303030302
:1020B0000303FFFFFFFF000000000000000000001E
:1020C000000000000000000000000101010101010A
:1020D000010F0F0C0C0C0C0C0C0C0C0C0C0C0C0C45
:1020E0000C0C0C0C8C8F0F0101010101010100008F
:1020F00000000000000000000000000000000000E0
:1021000000000000000000000000000000008080CF
:1021100080808080808080E0FCFF8F818080839F32
:10212000FFF0C0C0C0C0C0C0C0C0C0000000000000
:102130000000FFFFFFFF000000000000FCFFFFFFAA
:1021400080C0C0F0F8F87C3E3E00000000808000B7
:102150000000000000000000000F0F0F0F0F0F071E
:102160000707FFFFFFFF0F0F070707071F1F1F0FBF
:102170000F0C0060606060E0E0E0C08000000000E4
:102180000000E0E0E0E0E0E0C00000000000010747
:102190000F1F397971610303030101E1E18101013D
:1021A00001010138BCDECF0703010100000000007F
:1021B0000000FFFFFFFF000000000000FFFFFFFF27
:1021C000FFFFF7F3E1C000000000000000FFFFFC8C
:1021D000C0E0F8FCFEFEFFFF000000000000000071
:1021E000C0FCFFFFFFFF0000000000000000000037
:1021F00000181C1C1C1E0E8ECEFFFFFF3C000000B2
:10220000F8FF3F070100008181808000000000008E
:102210000000000000000000000000000183C7EF84
:10222000FE7C3E1FC7C3C0C0C0C0C000000000008D
:102230000000FFFFFFFF0000000000033F3F7F7F23
:102240003F010307071F7F7E7C000000003F3F3FE8
:102250000F0F0301003F3F3F000000000000007F20
:102260007F3F7F7F3F07000000000000000000006C
:102270000003070707070707070301000000000026
:10228000070F0F0E0E0E0F070301010000000000E4
:10229000000000000000000000000000070703012C
:1022A0000000F0FE3F0F8C8CBCF8F0000000000036
:1022B0000000FFFFFFFF0F06C6C6C6C6C6C6FEFE6D
:1022C000C0C0C0C0C0C0000000000000000000008E
:1022D00000F808E8E8080888C8F878080808F8004E
:1022E00000000000000000000000000000000000EE
:1022F00000000000000000000000000000000000DE
:10230000000000E0E0C0C08000000000E0E000004D
:1023100000000000000000000000000000000000BD
:102320000000C3F3F3030303F1F100000000000019
:102330000000FFFFFFFF8000181818181818F8F8A1
:1023400018181818181800000000000000000000FD
:1023500000FF18FFFF3C7EE7C18000E0E000FF00C7
:10236000000000000000000000000000000000006D
:102370000000000000000000F8F8181818181818DD
:10238000181818FFFF1899DBFF7F7E3CFFFF181815
:102390001818181818181818F8F80000000000008D
:1023A000001F1F0303737F3F0781E0F878F8F000F8
:1023B0000000FFFFFFFFC7C3C3C3C3C3C3C3C3C37F
:1023C000C0C0C0C0C0C0C0C0C0C0C0C0C0C0C0C00D
:1023D000C0DFD0D3D3D0D0D6D6D7D7D7D7D0DFC0D1
:1023E000C0C0C0C0C0C0C0C0C0C0C0C0C0C0C0C0ED
:1023F000C0C0C0C0C0C0C0E0FFFFE0C0C0C0C0C01F
:10240000C0C0C0C7C7C3C3C1C0C0C0C0C7C7C0C0A9
:10241000C0C0C0C0C0C0C0F0FFFFF0C0C0C0C0C0DE
:10242000C0C0C0C0C0C0C0C0DEDFC7C6C6DFDFC01E
:10243000C0C0FFFFFF010101010101010101010114
:10244000010101010101010101010101010101017C
:10245000010101010101010101010101010101016C
:10246000010101010101010101010101010101015C
:10247000010101010101010101010101010101014C
:10248000010101010101010101010101010101013C
:10249000010101010101010101010101010101012C
:1024A000010101010101010101010101010101011C
:1024B000010101FFFF0000000000000080C0E0C03B
:1024C000E0F0F0F0F0F0F0F0F0F0F0F0F0F0E0E03C
:1024D000E0C08000000000800000008000800080DC
:1024E00000800080008080000080000080000000EC
:1024F00000800000800000800080008080800080DC
:10250000800000800000800080008000800080004B
:1025100080008000000080008000008080800080BB
:10252000000080008000800080008000800080002B
:102530008000803F1FC0E0E0FCFEF3E3E3E3E3AF95
:102540006FFFFFFFBFBFFFFF7F7FFFFFFFFFFFFFAB
:10255000FFFFFFFFFFF6F41F21E2616F606F646F02
:10256000606F6568606F6261676867606A67606E08
:10257000616F60676A6B606F656860606F60606FF5
:102580006261676867606F626F606F646F606F65DC
:1025900068646A6F60606F646F6060606F60676AD4
:1025A0006B606D626D606F626F606F646F606F65AE
:1025B00068646A6FFE3F3F3FBFFFFFFFFFFFFFFF03
:1025C000FEF977370303010000000001070F130134
:1025D00000000107D70E08C000100FF8000080E0CF
:1025E000F8FEFFFFFFFE0000000000C0F0FEFFFF4E
:1025F000FFFE000000E0F0F8FC7C3E1E1F0F0F0FF6
:102600000F1F1E1E3E7CFCF8F0C000000000000002
:102610000000000080C0F0FCFEFFFFFE0000060F7F
:102620000F0F0F0F0F0FFFFFFFFFFF0F0F0F0F0F0A
:102630000F0F06F03FE00000013FFFFFFFFFFF3FED
:102640003F0000E00000000000000000000000006B
:1026500000000000000101C1E0E0F9FFFCFFFF7F86
:102660001FFFFFFFFFFF80E0F8FEFFFF3FFFFFFFC0
:10267000FFFF000000000101000000307878FCFC42
:10268000FCFC787830000107FFFFFFFC0000000031
:1026900080E0F8FEFFFF3FFFFFFFFFFF00000000AC
:1026A000000000000000FFFFFFFFFF00000000002F
:1026B000000000FFFC010304182040818707070089
:1026C000000000000000000000000000000000000A
:1026D0000000008080E4E7FBFFFF7F3F0F03010065
:1026E00000FFFFFFFFFFFF7F1F07030000FFFFFF4B
:1026F000FFFF00000070F8F8F0E0E0C0C0808080CC
:1027000080C0C0C0E0F0FCFF7F3F0F81E0F8FCFF1D
:10271000FF3F1F07010000FFFFFFFFFF0000000059
:10272000000000000000FFFFFFFFFF0000000000AE
:10273000000000FFFF000000000000000001020296
:102740000404040C0C0C0C0C0C0C0C0C0C040404F9
:10275000020301000003070703010000000000005E
:10276000000307070703000000000000000307073D
:102770000703000000000001010303030707070728
:102780000707030303010100000000030707070315
:10279000000000000000000307070703000000001E
:1027A000000000000000030707070300000000000E
:1027B000000000FFFF80808080808080808080809B
:1027C0008080808080808080808080808080808009
:1027D00080808080808080808080808080808080F9
:1027E00080808080808080808080808080808080E9
:1027F00080808080808080808080808080808080D9
:1028000080808080808080808080808080808080C8
:1028100080808080808080808080808080808080B8
:1028200080808080808080808080808080808080A8
:10283000808080FFFF010101010101010181E1E1CF
:102840008101010101010101010181010101010178
:102850000101010101010181818181818181810168
:1028600001010101010101010101C1E101010101B8
:10287000010101FFFF0000000000C0F0FE3F070162
:102880001FFEF08000000000007FFFFF000080C0FE
:10289000F03CFEFE0000000101018080C1C1FF9EEE
:1028A0000000000000000000C0FE1F077FF00000D5
:1028B000000000FFFF00006078FF7F0F01000000B4
:1028C00000011FFFF8C000000000FFFF781E070195
:1028D0000000FFFF000000000101010101010101F2
:1028E00003FFFE00000080FCFF1F180C0C0F3FF0E0
:1028F000000000FFFF0000000000000000000000DA
:1029000000000000000000800000000000800000C7
:102910000080810100000004040C0C0C0E06060669
:102920000301000000000307000000000000000396
:102930000F0000FFFF00000000000000000000008A
:1029400000000080D0F0F0B1D16AAEB4D4771C148E
:10295000F60F0EFE1A0E1C38FC3070D8C0C0800076
:102960000000000000000000000000000000000067
:10297000000000FFFF000000000000000000000059
:102980000080E03FC0FF0601000FC05E4140C080F4
:102990000F000001834E404047C0000001071F7236
:1029A000C488983060800000000000000000000033
:1029B000000000FFFF00000000000000004464224F
:1029C00013190C06030F7CF0C08003061535664111
:1029D000C0C0C0C0C3C2C3C362311000000000C089
:1029E0007FF001030C183162444404040402020025
:1029F000000000FFFF808080808080808080808059
:102A000080808080808080808181879EACCCFCEC3F
:102A1000CCFCECECECECECECECFCBC9C8C8E8B8DF4
:102A2000868380808080808080808080808080809D
:102A3000808080FF25490968244A1268D20700D5A2
:102A4000400822490968490705D521490968C1F3A9
:102A50000321491C48431D490968090A11F0030173
:102A6000002903D002290CD001D30BE00AE017495A
:102A70000968C1F30311491CB0FBF1F01549086066
:102A800000E0FFE770472DE9F0411348134901606A
:102A90000E4804680D48002101600D4805680C4887
:102AA000002101600E4806680D48002101600D48B4
:102AB00007680C48002101600B48D0F800800A48E4
:102AC00000210160FFF7B6FFBDE8F0810C00024075
:102AD00004000240000000201C000240100000081A
:102AE00008000240100002401400024010B50749DF
:102AF00079441831064C7C44163404E00A68081DF9
:102B0000511888470146A142F8D110BD08000000C5
:102B100018000000F3F4FFFF080000005803000055
:102B200000000020000000002A2A2A2A2A2A2A2A35
:102B30002A2A2A2A2A2A2A2A2A2A2A2A2A00000073
:102B400000F009F8002801D0FFF7D0FF0020FFF7C0
:102B50005FF900F002F80120704700F001B80000B2
:102B60000746384600F002F8FBE7000080B5C04693
:102B7000C046024A11001820ABBEFBE72600020047
:102B80002020CFF0E8E2E5F220F1F2F3E4E5EDF207
:102B900021000000206475626E6120656C656374BD
:102BA000726F6E696373000020CFE8F8F320EFEED8
:102BB0002DF0F3F1F1EAE821000000000148804720
:102BC00001480047872A0008F12B0008202020D167
:102BD000F7E8F2E0FE3A00004163361C7F7F1C36C6
:102BE000634100007F7F407F7F407FFFC000000087
:102BF000C046C046C046C046FFF7A2FF6273594FA9
:102C000046000000226B497F36000000181C167F2A
:102C10007F1000004F4F4979310000003E7F497915
:102C20003000000061791D0703000000367F497FF6
:102C300036000000064F497F3E0000003E7F4141C4
:102C40007F3E00004163361C08000000081C36630C
:102C500041000000001414141400000008083E088D
:102C60000800000008080808080000000369690F50
:102C7000000000000040404040000000002A1C3ED0
:102C80001C2A00006030180C06000000707C1F1326
:102C90001F7C70007F7F4979300000007F7F497F73
:102CA000360000007F7F01010100000040607F5F6F
:102CB000417F7F407F7F494949000000226B497F67
:102CC000360000007F7F380E7F7F00007F7F1C363C
:102CD00063410000407F3F017F7F00007F7F1C3801
:102CE000381C7F7F7F7F08087F7F00003E7F414147
:102CF0007F3E00007F7F01017F7F00007F7F090909
:102D00000F0600003E7F41416322000001017F7FEA
:102D10000101000041477E381E0701001C3E227F52
:102D20007F223E1C41633E1C3E6341007F7F40404A
:102D30007FFFC0000F1F107F7F0000007F7F407F5C
:102D40007F407F7F01017F7F487830007F7F484848
:102D500078307F7F7F7F4878300000002263497F92
:102D60003E0000007F7F1C7F41417F3E467F390946
:102D70007F7F00007F7F4141633E1C007F7F090908
:102D8000090100001C3E6349497B3A004040417FF5
:102D90003F0000007F7F4040404000007F7F060CE6
:102DA000187F7F001C3E6341C1E33E1C7F7F1939C1
:102DB0006F460000266F49497B320000071F78608C
:102DC000781F07003F7F4040407F3F001F7F781EF5
:102DD0001E787F1F030F7C7C0F0300006171594D2B
:102DE00047430000017F7F00363600006F6F000010
:102DF0006060000060E00000417F7F41FFF7FEBFA0
:102E0000FFF7FEBFFFF7FEBFFFF7FEBFFFF7FEBFF6
:102E1000FFF7FEBFFFF7FEBFFFF7FEBFFFF7FEBFE6
:102E2000FFF7FEBFFFF7FEBFFFF7FEBFFFF7FEBFD6
:102E3000FFF7FEBFFFF7FEBFFFF7FEBFFFF7FEBFC6
:102E4000FFF7FEBFFFF7FEBFFFF7FEBFFFF7FEBFB6
:102E5000FFF7FEBFFFF7FEBFFFF7FEBFFFF7FEBFA6
:102E6000FFF7FEBFFFF7FEBFFFF7FEBFFFF7FEBF96
:0C2E7000FFF7FEBF00127A000000000017
:0400000508002BF1D3
:00000001FF
