:020000040000fa
:080000000002040000000000f2
:020000040000fa
:100400002fb720000e7f22000e01880000000000a0
:100410000c00070080ff20000100200011000700f1
:10042000000020000000e000020032000000020096
:1004300000000000980e0200000000000040da00fa
:100440000000fe004440a900600120000000e00020
:100450000300320000002000a00188004440a800f2
:100460000000060091018800800078000000eb0089
:1004700015003700e280400032a0b4009101ba00bc
:10048000e280400032a0b4009102ba00e280400055
:1004900032a0b4000002eb00472bde00f507b200eb
:1004a000602ce10004003a000059eb008301e900f0
:1004b000fdff3e00040037006128e100010032002a
:1004c0000082eb00040007001101ba000200e00006
:1004d000e8ff3a00000006003159ba008301e90044
:1004e0000c0032002159ba008301e90008003200f3
:1004f0000400e00003003a00e280400032a0b400b3
:10050000f5ff370011d9ba008301e900faff3a007c
:100510008100e800e180400032a0b4000000060045
:100520000040da000000fe00839f68000100e00048
:1005300002003d0060001000e08018000300e000b1
:1005400002003d0060011100e08119001400070065
:100550004f00e00002003b0060001000e080180047
:1005600000000600811f78000100e00002003d004d
:1005700060001000e08018000300e00002003d0071
:1005800060011100e0811900150007004f00e00034
:1005900002003b0060001000e08018000000060030
:1005a0006022b800060220000000d0008180d20046
:1005b0000482d2008582d2000000a0000202520014
:1005c00083825a00030031000202420083824a0003
:1005d0000000a1000603e900f3ff3a000000060056
:0c05e000efff07000400be000000060052
:020000040000fa
:1000080090020000900200009002000090020000a0
:100018009002000090020000900200009002000090
:100028009002000090020000900200001a0c0000ec
:100038009002000090020000900200009002000070
:1000480090020000900200009002000046040000a8
:100058009002000090020000900200009002000050
:100068009002000090020000900200009002000040
:100078009002000090020000900200009002000030
:100088009002000090020000900200009002000020
:100098009002000090020000660400009002000038
:1000a8009002000090020000900200009002000000
:1000b80090020000900200009002000090020000f0
:1000c80090020000900200009002000090020000e0
:1000d80090020000900200009002000090020000d0
:1000e80090020000900200009002000090020000c0
:1000f80090020000900200009002000090020000b0
:10010800900200009002000090020000900200009f
:10011800900200009002000090020000900200008f
:10012800900200009002000090020000900200007f
:10013800900200009002000090020000900200006f
:10014800900200009002000090020000900200005f
:10015800900200009002000090020000900200004f
:10016800900200009002000090020000900200003f
:10017800900200009002000090020000900200002f
:10018800900200009002000090020000900200001f
:10019800900200009002000090020000900200000f
:1001a80090020000900200009002000090020000ff
:1001b80090020000900200009002000090020000ef
:1001c80090020000900200009002000090020000df
:1001d80090020000900200009002000090020000cf
:1001e80090020000900200009002000090020000bf
:0801f8009002000090020000db
:020000040000fa
:10020800900200009002000090020000900200009e
:10021800900200009002000090020000900200008e
:100228009002000090020000900200001a0c0000ea
:10023800900200009002000090020000900200006e
:1002480090020000900200009002000046040000a6
:10025800900200009002000090020000900200004e
:10026800900200009002000090020000900200003e
:10027800900200009002000090020000900200002e
:10028800900200009002000090020000900200001e
:100298009002000090020000660400009002000036
:1002a80090020000900200009002000090020000fe
:1002b80090020000900200009002000090020000ee
:1002c80090020000900200009002000090020000de
:1002d80090020000900200009002000090020000ce
:1002e80090020000900200009002000090020000be
:1002f80090020000900200009002000090020000ae
:10030800900200009002000090020000900200009d
:10031800900200009002000090020000900200008d
:10032800900200009002000090020000900200007d
:10033800900200009002000090020000900200006d
:10034800900200009002000090020000900200005d
:10035800900200009002000090020000900200004d
:10036800900200009002000090020000900200003d
:10037800900200009002000090020000900200002d
:10038800900200009002000090020000900200001d
:10039800900200009002000090020000900200000d
:1003a80090020000900200009002000090020000fd
:1003b80090020000900200009002000090020000ed
:1003c80090020000900200009002000090020000dd
:1003d80090020000900200009002000090020000cd
:1003e80090020000900200009002000090020000bd
:0803f8009002000090020000d9
:020000040000fa
:0200000401f009
:04001c00c30000001d
:020000040000fa
:0200000401f009
:04001800e7000000fd
:020000040000fa
:0200000401f009
:040014005f00000089
:020000040000fa
:0200000401f009
:04001000c20000002a
:020000040000fa
:0200000401f009
:04000c00a30000004d
:020000040000fa
:0200000401f009
:0400080007000000ed
:020000040000fa
:0200000401f009
:04000400cf00000029
:020000040000fa
:0200000401f009
:04000000cf0000002d
:020000040000fa
:1005ec0053560000200000002e0000005355000060
:1005fc002000000053490000200000004b4f000079
:0c060c00450000004b4f000044000000bf
:020000040000fa
:10061800b1578000d25780008041eb00828f500094
:10062800060036000380fb000000060013c0b3007c
:100638008100e800828f5000faff3e00808f500052
:10064800faff32008100e800828f5000fbff36007d
:10065800f4ff370012cbbf0032b1200012417800fe
:1006680081072000824f5000070031000040e80059
:1006780012ebb7006f00600021b0200060c0780066
:100688008080fb0012cbbf000014e10003003200a1
:100698009560a8000100780000000600ef4f5100a7
:1006a800fbff3600136bef00126bef009560a8009c
:1006b8000100780000000600f8ff37008182fb0087
:1006c8000104e00004003a0001f02f00f00f2000c0
:1006d8000080700000000600000178008001eb0037
:1006e8000080eb0014002a0012006800810020003e
:1006f8000008a3000d0032000000d10004006800cb
:100708008100e900faff3a008301e8000281e8006d
:10071800858f5100f4ff3900c800dd004800de0075
:100728000080700000000600ebff37000000d100d9
:100738008100e900eeff3a00f3ff37000080fb007c
:100748002011880023c2bf000008a300fdff32006b
:100758000000060044c7bf0001ceb300014060009e
:1007680044e7b700e0012000303a880044c7bf00e2
:10077800f043b20044e7b7004827ef0040a7a900bc
:1007880042c7bf000058a300fdff3200000006006a
:1007980000c7b300a960b7008560a9009560a800ec
:1007a800400120004011880021e2a80021c2bf00ba
:1007b800c1cfb3000140600021e2b70020c2bf00f2
:1007c80091cfb3000140600020e2b70020a2a90049
:1007d8002062a9002002a90023a2a90023e2a900ff
:1007e80023c2a9002342a80022c2bf00f043b200de
:1007f80022e2b7000000060070c0b300b360b70083
:1008080087c0a90097c0a80000412000c011880037
:1008180031e2a80031c2bf00c1cfb300014060007f
:1008280031e2b70030c2bf0091cfb3000140600091
:1008380030e2b70030a2a9003062a9003002a90056
:1008480032c2a90032e2a90033c2a9003342a8008b
:100858000000060085c0bf000038a300fdff32007d
:10086800301180000080fb00000006000080fb00c3
:10087800a011880033c2bf000008a300fdff3200aa
:1008880000000600809fbe00821f78003400f80038
:1008980000002000a0018800134bec0013ebb70008
:1008a800321180006f00600021b0200002f0780053
:1008b8008560a9003400f9004f0178004f00be00a0
:1008c80000400600809fbe00829fbe003400f800f2
:1008d80000002000a001880013b220009341780096
:1008e800b21180008380fb00a0b4200082707800e1
:1008f800ea4f5100070032000340e80021ebb7003f
:1009080087c0a9003400f9004f01be004f00be00a7
:1009180000400600216bef0010c0b30020ebb700c9
:1009280087c0a9003400f9004f01be004f00be0087
:1009380000400600f7ff3700c7c2a900cc22a90073
:10094800cc42a900d222a900de02a900e202a90035
:10095800de22a900e222a900de82a900e282a90023
:10096800dea2a800dec2a900e402a900e4c2a90030
:10097800e522a900e582a900e5a2a900e5c2a9002f
:10098800e5e2a90000000600a5c0bf00f1c8b30059
:10099800014060000045b300a5e0b7008460a900ed
:1009a8009460a80005e1a9000421a90004c1a900d8
:1009b80004c1bf000044a1000054a00004e1b70036
:1009c8000021ef0050c320001008880005e1a800ae
:1009d8000000060001cdb300014040000080fb008c
:1009e800000006000043b0000080fb000000060085
:1009f800a00020002011880023c2bf000008a30027
:100a0800fdff3200d00020002011880023c2bf0063
:100a18000008a300fdff3200000006000a00fa00eb
:100a2800889fbe008a9fbe000005be00e00f5000f0
:100a3800e08f58003a003500e00f5500e08f5d0068
:100a48001a0032008004eb000984fb007280570012
:100a580000044400a2002000030020000a00be0099
:100a6800befe070002c3b300024c4000a2002000f3
:100a7800030020000a00be00a9fe07000005be0012
:100a88008904e800e00f5000e08f5800eeff3a00bc
:100a9800094078000904e0000d003a004f05be0047
:100aa8004f04be000080fa0000000600000320008a
:100ab8002011880023c2bf000008a300f7ff3a00f6
:100ac80023c2bf000008a300faff3200f3ff37007b
:100ad80089407800094150008140e9000180fb000d
:100ae800f2815700030040001080fb0020118800ad
:100af80023c2bf000008a300fdff3200814f510050
:100b0800e6ff32008140e9000180fb00f2815700d6
:100b1800030040001080fb0020118800f4ff37001c
:100b280060051000e0851800d00220002011880020
:100b380023c2bf000008a300bfff3a0023c2bf00c2
:100b48000008a300faff3200bbff370080007800de
:100b5800114078000004e0000a0032008100e8003b
:100b68000080fb002011880023c2bf000008a300fa
:100b7800f7ff3a0023c2bf000008a300faff3200c3
:100b8800f3ff3700000006000004e0000300320015
:100b9800e14f500007003200000006001eabef00d6
:100ba8001cabef001aabef0018abef00f0aaef0098
:100bb8000000060060c5b3004a4be3005e00320047
:100bc80010c4b300504be3003d00320050c5b300e1
:100bd8005c4be3002700320090c4b3005f4be30096
:100be8000c00320060c4b300684be300eaff3a002f
:100bf80000b72000d1c0b30090cf1000e6ff3a0044
:100c080000cdb300694bb4000080fb00805788001a
:100c18000000060000b72000d1c0b30090cf10003c
:100c2800f0ff3a0005cdb30000b6200010c1420025
:100c38000281fb00803e20000091b9000540780049
:100c4800624bb4000080fb00440620000480b90019
:100c58008000410032b6200092c242000540780070
:100c6800a2c0b3000440bc0002814000c258880002
:100c7800dcff370000b72000d1c0b30090cf1000d0
:100c8800d5ff3a0003cdb300d2b5200092c0410091
:100c980001407800a2c0b3000440bc0003407800c3
:100ca8005e4bb4000080fb0000014100d258880070
:100cb80090c4b3005f4be300caff3a00d5ff37008a
:100cc80000b72000d1c0b30090cf1000bfff3a009a
:100cd80005cdb30010b5200010c142000281fb0011
:100ce800803e20000091b90005407800534bb400c5
:100cf8000080fb00440620000480b9008000410009
:100d080005407800544bb400a2c0b3000440bc00b6
:100d18000281400050b5200090c242008582fb004d
:100d280005014100e258880050c5b3005c4be30060
:100d3800a9ff3a00cfff370000b72000d1c0b300a9
:100d480090cf10009eff3a0003cdb300b2b420004c
:100d580012c241000482fb000071220000a2b90007
:100d6800034078004c4bb4000080fb00863e200016
:100d78000680b90000024200034078004f4bb400df
:100d8800a2c0b3000440bc0082007800e0b4200098
:100d980010c141000281fb00400620000091b9000b
:100da8000280400000024200f458880010c4b300da
:100db800504be30085ff3a00c1ff37008000780000
:100dc800114078000004e0000a0032008100e800c9
:100dd8000080fb00a011880033c2bf000008a300f8
:100de800f7ff3a0033c2bf000008a300faff320041
:100df800f3ff370000000600c0042000a01188009f
:100e080033c2bf000008a300fdff3200d00020005d
:100e1800a011880033c2bf000008a300fdff320004
:100e2800000006000271220000027800110009008b
:100e38000280d8000002fd0002a1b90002005000a3
:100e4800823e200080027800110009000280d8004c
:100e58008002fd0002a9b9000200500042062000ed
:100e680000037800110009000280d8000003fd008b
:100e780002b1b90002005000a200200011000900d0
:100e88000280d80000017800612f28001140780006
:100e98000004e0000a0032008100e8000080fb0046
:100ea800a011880033c2bf000008a300f7ff3a0072
:100eb80033c2bf000008a300faff3200f3ff370077
:100ec80001c3b300014042000080fb00a01188006c
:100ed80033c2bf000008a300fdff320001c3b30006
:100ee80001c042000080fb00a011880033c2bf008f
:100ef8000008a300fdff3200a12f28001140780050
:100f08000004e0000a0032008100e8000080fb00d5
:100f1800a011880033c2bf000008a300f7ff3a0001
:100f280033c2bf000008a300faff3200f3ff370006
:100f380001c3b300014043000080fb00a0118800fa
:100f480033c2bf000008a300fdff320001c3b30095
:100f5800014041000080fb00a011880033c2bf009f
:100f68000008a300fdff3200d0002000a011880077
:100f780033c2bf000008a300fdff320000000600d6
:100f8800a200200000027800110009000280d800a9
:100f98000002fd006a21b90002015000c12f28009b
:100fa800114078000004e0000a0032008100e800e7
:100fb8000080fb00a011880033c2bf000008a30016
:100fc800f7ff3a0033c2bf000008a300faff32005f
:100fd800f3ff370001c3b300014042000080fb006b
:100fe800a011880033c2bf000008a300fdff320033
:100ff80001c3b300014041000080fb00a01188003c
:1010080033c2bf000008a300fdff3200d00020005b
:10101800a011880033c2bf000008a300fdff320002
:1010280000000600823e200000027800110009003e
:101038000280d8000002fd0002a1b90002005000a1
:101048004206200080027800110009000280d800c2
:101058008002fd0002a9b90002005000a200200091
:10106800110009000280d800000178000130280032
:10107800114078000004e0000a0032008100e80016
:101088000080fb00a011880033c2bf000008a30045
:10109800f7ff3a0033c2bf000008a300faff32008e
:1010a800f3ff370001c3b300014042000080fb009a
:1010b800a011880033c2bf000008a300fdff320062
:1010c800a12f2800114078000004e0000a00320037
:1010d8008100e8000080fb00a011880033c2bf0037
:1010e8000008a300f7ff3a0033c2bf000008a300be
:1010f800faff3200f3ff370001c3b30001c042001a
:101108000080fb00a011880033c2bf000008a300c4
:10111800fdff320001c3b300014041000080fb0025
:10112800a011880033c2bf000008a300fdff3200f1
:10113800d0002000a011880033c2bf000008a3001f
:10114800fdff320000000600413028000000e000ea
:1011580001003a0081302800114078000004e000c6
:101168000a0032008100e8000080fb00a01188001e
:1011780033c2bf000008a300f7ff3a0033c2bf0024
:101188000008a300faff3200f3ff3700d000200068
:10119800a011880033c2bf000008a300fdff320081
:1011a80000000600889fbe00e34f50001c0032007c
:1011b800e64f5000020032004f04be000000060057
:1011c800b0578000e80f50003d0032002100360083
:1011d800e90f50005d00320081302800ea0f50000e
:1011e8002d0032000004eb000919200000c429007a
:1011f80001002000ae0307000804e800890f54002e
:10120800edff320000c4290001002000a8030700f8
:101218000804e800890f5400f4ff3a00e6ff37009d
:10122800f058800000408800d058800010408800a6
:10123800e058800020408800c05880003040880076
:1012480080578000404088004f04be000000060020
:10125800dbff3700e40f500023003200e70f500097
:10126800e0ff3a007040800001c42900810f50005f
:10127800020036000100780071408800e9fe07008e
:101288000004eb0009192000d8ff370033c2bf0063
:101298000008a300fdff3200114078000004e000c0
:1012a800380032008100e8000080fb00a0118800af
:1012b80033c2bf000008a300f4ff3200f6ff370076
:1012c8008040800001192000810f50000200360084
:1012d800010078008140880029ff07000004eb0026
:1012e80009192000c1ff3700413028000808e20032
:1012f80022003200114078000004e0000a003200a9
:101308008100e8000080fb00a011880033c2bf0004
:101318000008a300f7ff3a0033c2bf000008a3008b
:10132800faff3200f3ff3700d0002000a011880038
:1013380033c2bf000008a300aaff3a0033c2bf00af
:101348000008a300faff3200a6ff37009040800093
:1013580081382100810f500004003e0031ff070052
:101368000004eb0009192000a0ff370001007800f5
:10137800914088002bff0700f9ff370081302800d3
:10138800dcff3700d0002000a011880033c2bf0066
:101398000008a300fdff32000004eb00097d2000d7
:1013a80000c4290001002000410307000804e800e8
:1013b800890f5400faff3a00a0408000e10f500066
:1013c800220032000000e00001003a00e982a90092
:1013d8000004eb004906200000c429000100200099
:1013e800330307000804e800890f5400faff3a00a5
:1013f80041302800114078000004e0000a00320063
:101408008100e8000080fb00a011880033c2bf0003
:101418000008a300f7ff3a0033c2bf000008a3008a
:10142800faff3200f3ff3700d0002000a011880037
:1014380033c2bf000008a3006aff3a0033c2bf00ee
:101448000008a300faff320066ff3700e982a8000f
:101458000004eb0049062000dfff3700889fbe002c
:10146800d0032000d047880060002000e0478800b3
:10147800f05780004804de00f84788008083fb00ae
:1014880007488800905780004803de001648880007
:101498008084fb00294888008080eb00a38f20000f
:1014a8006590200014002a009380680082002000c4
:1014b8000108a300360032000100d1008400680052
:1014c8000201e900faff3a008381e800838f5200a5
:1014d800f5ff3a004808dd00c808de00810070000a
:1014e800c1578800cbc2a800d00320002011880073
:1014f80023c2bf000008a300fdff320060002000e7
:101508002011880023c2bf000008a300fdff32009d
:101518002811880023c2bf000008a300fdff320085
:101528002711880023c2bf000008a300fdff320076
:101538002611880023c2bf000008a300fdff320067
:101548002911880023c2bf000008a300fdff320054
:101558004808de002011880023c2bf000008a3004d
:10156800fdff32000180fb002011880023c2bf006c
:101578000008a300fdff320000c42900010020007c
:10158800cb020700cbc2a9004f04be000000060032
:101598008100d1000201e900c5ff3a00caff370007
:1015a800889fbe008a1f7800b7578000a757880019
:1015b800d0032000d047880030002000e047880092
:1015c800d857800008054400fa4788000800e00062
:1015d800180032008780430000802000008340000c
:1015e800070278008002eb00a98f2000b60178007e
:1015f80063c042000080fb00000040004819de0084
:1016080002b07c00e4c042008180fb008180400081
:101618008381fb0083b07c000402e8008582e80037
:10162800074052000080fb00880f5000efff390090
:10163800b45788000a437800634045008082fb0065
:101648000004e0003d003a0001f02f00f00f2000f8
:1016580000827000c4578800cbc2a800d0032000c5
:101668002011880023c2bf000008a300fdff32003c
:10167800300020002011880023c2bf000008a3000a
:10168800fdff32000680fb002011880023c2bf0046
:101698000008a300fdff32000800e0001600320039
:1016a8008780430000802000808040008701780008
:1016b800110178004810de002011880023c2bf0005
:1016c8000008a300fdff32000280fb002011880003
:1016d80023c2bf000008a300fdff32008301e80019
:1016e8008180e80007c051000080fb00800f540093
:1016f800efff3e00a35788004820de002011880035
:1017080023c2bf000008a300fdff32000480fb00d5
:101718002011880023c2bf000008a300fdff32008b
:1017280000c429000100200061020700cbc2a90003
:101738004f0578004f04be00000006008001eb0052
:101748000080eb00a28f200014002a00120068001d
:10175800810020000008a300100032000000d10022
:10176800040068008100e900faff3a008301e800fc
:101778000281e800838f5200f4ff3e00c800dd00bc
:101788004800de0000827000c4578800cbc2a80061
:10179800d003200020118800b2ff37000000d100dc
:1017a8008100e900ebff3a00f0ff3700881f78005e
:1017b80080c12f00fe0ab400b057880018b020007e
:1017c80030c0b300984f10001200320062c0b3005e
:1017d800984f110003003200016bef004f047800ae
:1017e80000000600b0578000000040000180200083
:1017f8009257800002b0780060c0b30069fe07000d
:1018080016ff0700016bef004f0478000000060088
:10181800f4ff370063fe070061ff070062c0b300f2
:10182800984f1100ecff3a00eeff3700809fbe0092
:10183800829fbe00849fbe00869fbe003400f800d1
:1018480000002000a001880012cbbf0033b12000a7
:1018580093417800834f5000140031000040e800a5
:1018680012ebb7006f01600021b02000e2c07800e1
:1018780080cf5100480032009560a8008180fb00ad
:1018880001007800eeeab70000cbbf00eb4f500034
:101898002c003200eb4f50000d003e00ea4f500084
:1018a80049003200a0c0b30000ebb70050c32000cd
:1018b800100888008460a9003400f9004f03be00b6
:1018c8004f02be004f01be004f00be0000400600a0
:1018d800ec4f50004a003200ed4f5000f1ff3a0043
:1018e8008180fb0001007800fc0ab70080017800c5
:1018f800e0578800174be2006c003200f057880070
:10190800176bef00164be2007a003200156bef0000
:10191800c0c0b30000ebb700fc2aef0050c32000a2
:10192800100888008460a9003400f9004f03be0045
:101938004f02be004f01be004f00be00004006002f
:10194800e3ff3700e3cf50003b003200e6cf500002
:10195800d4ff3a0010c0b30017ebb70016ebb7007e
:10196800fa2aef00f22aef00c0c0b30000ebb7007c
:1019780050c32000100888008460a9003400f900d2
:101988004f03be004f02be004f01be004f00be0015
:1019980000400600ceff3700efcf5100b6ff3600fb
:1019a800136bef00126bef009560a8008180fb00bd
:1019b80001007800eeeab70000cbbf00eb4f500003
:1019c800b4ff3a00dfff37000104e0002a003a00c4
:1019d800b0c0b30000ebb70050c320001008880067
:1019e8008460a9003400f9004f03be004f02be0016
:1019f8004f01be004f00be0000400600b4ff370094
:101a08004808dd00e0578800d0c0b30000ebb700fd
:101a180050c32000100888008460a9003400f90031
:101a28004f03be004f02be004f01be004f00be0074
:101a380000400600a6ff370010c0b30017ebb70040
:101a4800fa2aef00f22aef00c0c0b30000ebb7009b
:101a580050c32000100888008460a9003400f900f1
:101a68004f03be004f02be004f01be004f00be0034
:101a78000040060096ff3700d0c3b30080cf500067
:101a8800d3ff320050c32000100888008460a900ea
:101a98003400f9004f03be004f02be004f01be00e4
:101aa8004f00be000040060089ff3700164be200d9
:101ab8001600320090578800166bef0060c0b30024
:101ac80014ebb700c0c0b30000ebb70050c3200050
:101ad800100888008460a9003400f9004f03be0094
:101ae8004f02be004f01be004f00be00004006007e
:101af80077ff370010c0b30015ebb700c0c0b300c4
:101b080000ebb700fc2aef0084ff3700154be2001a
:101b180013003200c0072000808f510072003e0081
:101b2800d357880030c0b30014ebb700c0c0b3006f
:101b380000ebb700156bef0050c3200010088800b9
:101b48008460a9003400f9004f03be004f02be00b4
:101b58004f01be004f00be00004006005cff37008a
:101b680047b1200030c0b300974f10003300320057
:101b780060c0b300974f10004cff3a00d00320001c
:101b8800d047880060002000e0478800f0578000b8
:101b9800c800de00f14788000080fb00004888008c
:101ba80090578000c800de00114888000080fb00c4
:101bb800204888008080eb00a48f200066902000d9
:101bc80015002a0094806800820020000108a30004
:101bd800410032000100d100850068000201e900df
:101be800faff3a000482e800840f5300f5ff3a0038
:101bf8004808dd00c808de0001007000c0578800f2
:101c0800808f51003c003200a0c0b30000ebb70049
:101c1800146bef0050c32000100888008460a900ee
:101c28003400f9004f03be004f02be004f01be0052
:101c38004f00be000040060025ff3700d0032000fb
:101c4800d047880030002000e0478800f057800027
:101c5800c800de00f14788000080fb0000488800cb
:101c6800d0578000c800de00114888000080fb00c3
:101c7800204888008080eb00a48f20006690200018
:101c880015002a0094806800820020000108a30043
:101c9800130032000100d100850068000201e9004c
:101ca800faff3a000482e800840f5300f5ff3a0077
:101cb8004808dd00c808de0001007000c057880031
:101cc800808f510012003200a0c0b30000ebb700b3
:101cd800146bef00a6ff37008100d100bfff37006b
:101ce8008100d100edff3700a0c0b30000ebb700c2
:101cf800156bef0090ff370060c0b30001ebb70031
:101d0800a0c0b30000ebb700146bef00c1ff3700b1
:101d180030c0b30001ebb700a0c0b30000ebb700c0
:101d2800146bef0092ff3700889fbe008a1f78006f
:101d380044c7bf0001ceb3000140600044e7b700cc
:101d4800e0012000303a880044c7bf00f043b200e9
:101d580044e7b7004827ef0040a7a90042c7bf00e3
:101d68000058a300fdff3200c7c2a900cc22a90079
:101d7800cc42a900d222a900de02a900e202a900f1
:101d8800de22a900e222a900de82a900e282a900df
:101d9800dea2a800dec2a900e402a900e4c2a900ec
:101da800e522a900e582a900e5a2a900e5c2a900eb
:101db800e5e2a90000c7b300a960b7008560a900e3
:101dc8009560a800400120004011880021e2a80089
:101dd80021c2bf00c1cfb3000140600021e2b700bb
:101de80020c2bf0092cfb3000240600020e2b700db
:101df80020a2a9002062a9002002a90023a2a9000c
:101e080023e2a90023c2a9002342a80022c2bf00de
:101e1800f043b20022e2b70070c0b300b360b7006d
:101e280087c0a90097c0a80000412000c011880001
:101e380031e2a80031c2bf000140600031e2b700c2
:101e480030c2bf000240600030e2b70030a2a900f3
:101e58003062a9003002a90032c2a90032e2a9000a
:101e680033c2a9003342a800a5c0bf00f1c8b3001f
:101e7800014060000045b300a5e0b7008460a900f8
:101e88009460a80005e1a9000421a90004c1a900e3
:101e980004c1bf000044a1000054a00004e1b70041
:101ea8000021ef0050c320001008880005e1a800b9
:101eb8000004eb0019b020000a80200080c12f0028
:101ec800fe0ab400b057880030c0b300994f100024
:101ed8002200320010b0200061c0b30090cf100083
:101ee80024003200016bef0000c42900010020002b
:101ef8006f000700204be2002b003a000804e800be
:101f080080bb2000800f5400ecff36000040eb003f
:101f18001dfb0700c0042000a011880033c2bf00c9
:101f28000008a300fdff3200d0002000a0118800a7
:101f380033c2bf000008a300fdff3200206bef0092
:101f48000004eb0080c12f00fe0ab400b0578800df
:101f580030c0b300994f1000deff3a0091fc070033
:101f68008ffd070010b0200061c0b30090cf1000b3
:101f7800dcff3a00b0578000000040009157800015
:101f880001307d0060c0b30086fc070033fd070008
:101f9800016bef0000c42900010020004400070085
:101fa800204be200d5ff320010c0b300f6fa07005c
:101fb800c0042000a011880033c2bf000008a3009d
:101fc800fdff3200d0002000a011880033c2bf00fe
:101fd8000008a300d9ff3a0033c2bf000008a300dd
:081fe800faff3200d5ff3700bb
:020000040000fa
:101ff000f20a000080000000020000000000000063
:1020000000000000000000000000000000000a00c6
:1020100000000000000000000000000000000000c0
:1020200000000000000000000000000000000000b0
:1020300000000000000000000000000000000000a0
:102040000000000000000000000000000000000090
:102050000000000000000000000000000000000080
:102060000000000000000000000000000000000070
:102070000000000000000000000000000000000060
:102080000000000000000000000000000000000050
:102090000000000000000000000000000000000040
:1020a000000000000000000000080000f202000034
:0820b000000000000000000028
:020000040000fa
:1020b800f03fb1000180b10006003500ee030900d1
:1020c80000000000403fb1000180b100fbff3d006f
:1020d8001000b000203fb000020035000080090069
:0820e8000000000000000600ea
:00000001FF
