:020000040000fa
:080000000002040000000000f2
:020000040000fa
:10000800a6020000a6020000a6020000a602000048
:10001800a6020000a6020000a6020000a602000038
:10002800a6020000a6020000a6020000c80b0000fd
:10003800a6020000a6020000a6020000a602000018
:10004800a6020000a6020000a6020000bc0d0000e7
:10005800a6020000a6020000a6020000a6020000f8
:10006800a6020000a6020000a6020000a6020000e8
:10007800a6020000a6020000a6020000a6020000d8
:10008800a6020000a6020000a6020000a6020000c8
:10009800a6020000a6020000e80d0000a60200006b
:1000a800a6020000a6020000a6020000a6020000a8
:1000b800a6020000a6020000a6020000a602000098
:1000c800a6020000a6020000a6020000a602000088
:1000d800a6020000a6020000a6020000a602000078
:1000e800a6020000a6020000a6020000a602000068
:1000f800a6020000a6020000a6020000a602000058
:10010800a6020000a6020000a6020000a602000047
:10011800a6020000a6020000a6020000a602000037
:10012800a6020000a6020000a6020000a602000027
:10013800a6020000a6020000a6020000a602000017
:10014800a6020000a6020000a6020000a602000007
:10015800a6020000a6020000a6020000a6020000f7
:10016800a6020000a6020000a6020000a6020000e7
:10017800a6020000a6020000a6020000a6020000d7
:10018800a6020000a6020000a6020000a6020000c7
:10019800a6020000a6020000a6020000a6020000b7
:1001a800a6020000a6020000a6020000a6020000a7
:1001b800a6020000a6020000a6020000a602000097
:1001c800a6020000a6020000a6020000a602000087
:1001d800a6020000a6020000a6020000a602000077
:1001e800a6020000a6020000a6020000a602000067
:0801f800a6020000a6020000af
:020000040000fa
:10020800a6020000a6020000a6020000a602000046
:10021800a6020000a6020000a6020000a602000036
:10022800a6020000a6020000a6020000c80b0000fb
:10023800a6020000a6020000a6020000a602000016
:10024800a6020000a6020000a6020000bc0d0000e5
:10025800a6020000a6020000a6020000a6020000f6
:10026800a6020000a6020000a6020000a6020000e6
:10027800a6020000a6020000a6020000a6020000d6
:10028800a6020000a6020000a6020000a6020000c6
:10029800a6020000a6020000e80d0000a602000069
:1002a800a6020000a6020000a6020000a6020000a6
:1002b800a6020000a6020000a6020000a602000096
:1002c800a6020000a6020000a6020000a602000086
:1002d800a6020000a6020000a6020000a602000076
:1002e800a6020000a6020000a6020000a602000066
:1002f800a6020000a6020000a6020000a602000056
:10030800a6020000a6020000a6020000a602000045
:10031800a6020000a6020000a6020000a602000035
:10032800a6020000a6020000a6020000a602000025
:10033800a6020000a6020000a6020000a602000015
:10034800a6020000a6020000a6020000a602000005
:10035800a6020000a6020000a6020000a6020000f5
:10036800a6020000a6020000a6020000a6020000e5
:10037800a6020000a6020000a6020000a6020000d5
:10038800a6020000a6020000a6020000a6020000c5
:10039800a6020000a6020000a6020000a6020000b5
:1003a800a6020000a6020000a6020000a6020000a5
:1003b800a6020000a6020000a6020000a602000095
:1003c800a6020000a6020000a6020000a602000085
:1003d800a6020000a6020000a6020000a602000075
:1003e800a6020000a6020000a6020000a602000065
:0803f800a6020000a6020000ad
:020000040000fa
:100400008fb820000e7f22000e018800000000003f
:10041000000020000000e000020032000001200087
:10042000200288000c000700802821000100200025
:1004300011000700000020000000e0000200320070
:100440000000020000000000141202000000000082
:100450000040da000000fe004440a90060012000d6
:100460000000e0000300320000002000a00188002e
:100470004440a80000000600910188008000780038
:100480000000eb0015003700e280400032a0b4000d
:100490009101ba00e280400032a0b4009102ba009b
:1004a000e280400032a0b4000002eb00472bde00e7
:1004b000f507b200602ce10004003a000059eb009f
:1004c0008301e900fdff3e00040037006128e100e0
:1004d000010032000082eb00040007001101ba00a5
:1004e0000200e000e8ff3a00000006003159ba00bf
:1004f0008301e9000c0032002159ba008301e900b0
:10050000080032000400e00003003a00e2804000ee
:1005100032a0b400f5ff370011d9ba008301e90019
:10052000faff3a008100e800e180400032a0b40008
:1005300000000600b40e0400000000006c0f040070
:1005400000000000b00f0400000000000040da00ce
:100550000000fe00839f68000100e00002003d00f3
:1005600060001000e08018000300e00002003d0081
:1005700060011100e0811900140007004f00e00045
:1005800002003b0060001000e08018000000060040
:10059000811f78000100e00002003d0060001000b3
:1005a000e08018000300e00002003d00600111003f
:1005b000e0811900150007004f00e00002003b0039
:1005c00060001000e0801800000006006022b80003
:1005d000060220000000d0008180d2000482d200f8
:1005e0008582d2000000a0000202520083825a00dd
:1005f000030031000202420083824a000000a10091
:100600000603e900f3ff3a0000000600efff0700d1
:080610000400be00000006001a
:020000040000fa
:1006180053560000200000002e0000005355000033
:100628002000000053490000200000004b4f00004c
:0c063800450000004b4f00004400000093
:020000040000fa
:100644000200fa00004f78001e427800e14f520089
:1006540002003a009560a800010037009560a900e7
:100664000080fa00000006000800fa0060479800c5
:100674006e429000e34f52000a003a00a442800008
:10068400744c8800c4428000844c8800b4428000ca
:10069400944c8800d4428000a44c8800944280008a
:1006a400b44c88006e429000e44f52000c003a00b3
:1006b40044b82000144278000482fb0044548800ab
:1006c40064b82000144278000482fb00545488006b
:1006d40054b82000144278000482fb00645488005b
:1006e4006e429000e64f52006e003a00444c800087
:1006f4006123b800c4ff2f00f5ff2f00060242005b
:1007040087824a006600200007002000860f5200fe
:10071400878f5a0053003e00046001000600370032
:10072400520037005100370007003700110037002e
:100734001b00370025003700b44c8000040078000b
:10074400460607004a003700e54c800004c429002f
:10075400848f52000200360004c42900e44c88004f
:1007640045eb2000e44c8000040078000500010003
:100774003f003700f54c800004192000848f52009c
:100784000200360004192000f44c8800c5f620004d
:10079400f44c8000040078000500010034003700a8
:1007a400054d800084382100848f520002003600f9
:1007b40084382100044d880005fb2000044d80008e
:1007c4000400780005000100290037000000eb0058
:1007d400220607000002eb00040f78000400370033
:1007e40000c42900010020003a0707001e0fe8009a
:1007f400f47c20009e027800848f5200f8ff3600bb
:10080400144d8000e10f520002003a00e982a80072
:1008140004003700144d8000e00f520001003a003c
:10082400e982a9000002eb001407980006003700d3
:1008340000c4290001002000260707001e029000c2
:100844000402e800140798009e0290003406200079
:10085400848f5200f6ff360010002000ff050700c9
:100864000300370000000000010037000000000012
:100874000002eb00240798000600370000c429009a
:1008840001002000130707002e0290000402e80074
:1008940024079800ae029000f4182000848f5200c0
:1008a400f6ff36000080fa00000006000200fa009d
:1008b4000042eb00044f78000f0037009e4278009e
:1008c4000582fb0084024200e49820000482420076
:1008d4008002eb00050a78009e4278000582fb0046
:1008e4008402420084a82000048242008002eb00bb
:1008f400050a78001e4fe800c4c7b3009e42780082
:1009040084cf5200edff36000080fa00000006009c
:100914000600fa00200798000042eb00044f78001c
:10092400444c8000140798000a0037009e0290008f
:100934002e029000848f520003003a0014c0b300ca
:10094400044f7800070037001e0290000402e800fc
:1009540014079800544480009e029000848f520033
:10096400f2ff36001e427800044078000080fa004e
:10097400000006000200fa00004f7800c485200041
:10098400144278000442e800040078005ce8b700f0
:10099400c4852000144278000482fb00ef02620048
:1009a400e4852000048242001e4a78000080fa0098
:1009b400000006000200fa00d58520009542780068
:1009c400c48520001442780084cf52000f00310007
:1009d400d4852000144278000442e8000002fd009f
:1009e4005de8b7000002fd00d485200014427800c1
:1009f4000482fb00ef026200e485200004824200ce
:100a040014427800044f78000200370084c7b30012
:100a1400044f78000040eb0009ff0700c585200063
:100a240095427800d48520001442780084cf520087
:100a34000a003a00c485200014427800ef4f5200a7
:100a4400060036000042eb00040078005ce8b700c2
:100a54000042eb00040078005de8b70010c0b3006a
:100a6400f7fe07001e427800044078000080fa0078
:100a7400000006000a00fa003007980041079800b9
:100a84000082eb00040f78000002eb0014079800ca
:100a9400200037001e029000be0290000482420033
:100aa400144278000482fb001e0f6a0084002000b8
:100ab40024079800110037001e02780061026200ca
:100ac40004427800e04f5200060032001e02780013
:100ad4000402d100040f780014002a001e0f6a00db
:100ae400030037001e0278000402d100040f7800ce
:100af4002e0290000402e900240798002e029000c0
:100b0400e00f5200ecff3a001e0290000402e800dd
:100b1400140798009e0290004e029000848f5200a9
:100b2400dcff39001e027800c822dd004822de0006
:100b3400048f72001e027800040078000080fa001e
:100b4400000006000000fa00f48720001442780038
:100b5400e04f520003003a0044b8200014427800e9
:100b64000200370034b820001442780004007800f2
:100b74008ce8b70064c0b300040078008de8b700c7
:100b8400344480004822de000442780004007800e7
:100b94008ee8b700344480000442780004007800f2
:100ba4008fe8b700644c80004822de0004427800dd
:100bb4000400780090e8b700644c80000442780098
:100bc4000400780091e8b70061002000c08820008c
:100bd400a8ff070000027800344c8800cbc2a800ac
:100be400f487200014427800e04f520003003a00da
:100bf40044b82000144278000200370034b82000c2
:100c040014427800044078005403070060c0b30025
:100c140052030700344480004822de000442780076
:100c2400044078004d0307003444800004427800f7
:100c34000440780049030700644c80004822de0029
:100c4400044278000440780044030700644c8000a8
:100c5400044278000440780040030700344c8000cc
:100c64004822de0004427800044078003b03070079
:100c7400344c8000044278000440780037030700b5
:100c8400cbc2a9000080fa00000006000400fa00ac
:100c9400444c8000544c8800f487200014427800af
:100ca400e04f520003003a0044b820001442780098
:100cb4000200370034b82000144278000002fd001e
:100cc4008ce8b7000002fd0034c0b3000002fd0050
:100cd4008de8b7000002fd0054448000044278000f
:100ce400044242000002fd008ee8b7000002fd004d
:100cf40034c0b300044f78000042eb00144798005e
:100d04001f0037001e4278000483fb00444c80001f
:100d140084024200e4982000048242001402780015
:100d24004822de0004427800c58820008502430082
:100d3400844a78001e4fe8001e4278000483fb00ba
:100d4400444c800084024200e49820000482420063
:100d54001402780004427800c5882000850243000c
:100d6400844a78001e4fe800444c80000402e800e6
:100d7400444c88001e4290000442e8001447980046
:100d84001e4290008482fb0054448000848f5200f1
:100d9400dcff390054448000040242006302420034
:100da40084007800c088200032ff07000002780029
:100db400344c8800cbc2a800f48720001442780089
:100dc400e04f520003003a0044b820001442780077
:100dd4000200370034b82000144278000440780040
:100de400de02070030c0b300dc0207005444800078
:100df400044278000442420004407800d70207000d
:100e04000042eb002447980017003700544c800040
:100e140084024200e4982000048242001402780014
:100e24004822de000442780004407800cb02070028
:100e3400544c800084024200e49820000482420062
:100e4400140278000442780004407800c3020700ca
:100e5400544c80000402e800544c88002e42900058
:100e64000442e800244798002e4290008482fb004c
:100e740054448000848f5200e4ff3900344c8000d5
:100e84004822de000442780004407800b3020700e0
:100e9400344c80000442780004407800af0207001c
:100ea400cbc2a9000080fa00000006000400fa008a
:100eb400444c8000544c8800f4872000144278008d
:100ec400e04f520003003a0044b820001442780076
:100ed4000200370034b82000144278000002fd00fc
:100ee4008ce8b7000002fd0044c0b3000002fd001e
:100ef4008de8b7000002fd005444800004427800ed
:100f0400044242000002fd008ee8b7000002fd002a
:100f140034c0b300044f78000042eb00144798003b
:100f24001f0037001e4278000483fb00444c8000fd
:100f34008402420084a82000048242001402780043
:100f44004822de0004427800c58820008502430060
:100f5400844a78001e4fe8001e4278000483fb0098
:100f6400444c80008402420084a820000482420091
:100f74001402780004427800c588200085024300ea
:100f8400844a78001e4fe800444c80000402e800c4
:100f9400444c88001e4290000442e8001447980024
:100fa4001e4290008482fb0054448000848f5200cf
:100fb400dcff390054448000040242006302420012
:100fc40084007800c0882000aafe07000002780090
:100fd400344c8800cbc2a800f48720001442780067
:100fe400e04f520003003a0044b820001442780055
:100ff4000200370034b8200014427800044078001e
:101004005602070040c0b300540207005444800055
:101014000442780004424200044078004f02070072
:101024000042eb002447980017003700544c80001e
:101034008402420084a82000048242001402780042
:101044004822de000442780004407800430207008e
:10105400544c80008402420084a820000482420090
:101064001402780004427800044078003b02070030
:10107400544c80000402e800544c88002e42900036
:101084000442e800244798002e4290008482fb002a
:1010940054448000848f5200e4ff3900344c8000b3
:1010a4004822de0004427800044078002b02070046
:1010b400344c800004427800044078002702070082
:1010c400cbc2a9000080fa00000006000200fa006a
:1010d400004f780044b820001442780004007800df
:1010e4008ce8b700458820009542780004c8b30016
:1010f40004c27200040078008de8b70014c0b30085
:10110400040078008ee8b70031002000c088200079
:1011140058fe070000027800344c8800cbc2a800b7
:1011240044b8200014427800044078000b02070001
:10113400458820009542780004c8b30004c27200b8
:1011440004407800050207001e40780003020700ef
:10115400344c80004822de000442780004407800c9
:10116400fe010700344c80000442780004407800fb
:10117400fa010700cbc2a9000080fa0000000600b3
:101184000200fa00004f7800f4872000144278002f
:10119400e04f520003003a0044b8200014427800a3
:1011a4000200370034b820001442780004007800ac
:1011b4008ce8b700344480004822de000442780002
:1011c400040078008ee8b7003444800004427800bc
:1011d400040078008fe8b70061002000c088200078
:1011e40024fe070000027800344c8800354c80004f
:1011f40044448000848f520007003a001e40780067
:1012040085e8b700a4c0b3000002fd0082ebb7007c
:101214000002fd0005003700a4c0b30004007800fc
:1012240082ebb70040c0b300a8ff07000042eb0008
:101234000400780083e8b7000080fa00000006008c
:101244000000fa0025013700dafd070000427800ab
:101254000002fd0084e8b7000002fd0024b820006d
:10126400144278000482fb006123b90064ff2f005c
:10127400f5ff2f000602420087824a003600200054
:1012840007002000860f5200878f5a000d013e0090
:1012940004600100030037001f00370066003700b8
:1012a40071003700458820009542780044b820003a
:1012b4001442780084cf520008003a00b4c0b3004e
:1012c4000002fd0082ebb7000002fd000042eb00cb
:1012d4000002fd007fe8b7000002fd004588200001
:1012e4009542780034b820001442780084cf52002c
:1012f400f9003a00b4c0b3000002fd0082ebb7006d
:101304000002fd0014c0b3000002fd007fe8b70036
:101314000002fd00f10037004488200014427800e8
:101324000482fb00e40f52002a003200e60f520050
:1013340013003200e30f520037003a0014c0b30028
:101344000002fd007ee8b7000002fd000002eb0091
:10135400544488000002eb00644c88000042eb0017
:101364000002fd0081e8b7000002fd00c4c0b30024
:101374000002fd0082ebb7000002fd002d003700e3
:1013840014c0b3000002fd007ee8b7000002fd00b7
:1013940014c0b3000002fd0080e8b7000002fd00a5
:1013a4000002eb00544488000002eb00644c880007
:1013b4000042eb000002fd0081e8b7000002fd00de
:1013c400c4c0b3000002fd0082ebb7000002fd00c0
:1013d4001800370014c0b3000002fd007ee8b70017
:1013e4000002fd000002eb00544488000002eb0000
:1013f400644c880014c0b3000002fd0081e8b7000b
:101404000002fd00c4c0b3000002fd0082ebb7007f
:101414000002fd000700370010c0b3002bff0700d7
:10142400a4c0b3000002fd0082ebb7000002fd007f
:10143400aa003700a900370044882000144278002d
:101444000482fb0044448800444480004822dd00b8
:1014540044448800d4c0b3000002fd0082ebb7000e
:101464000002fd009d0037004488200014427800eb
:101474008482fb00444480000502720044448800d6
:10148400e487200014427800e04f52001a00320032
:1014940044448000344488000042eb000002fd0014
:1014a4007ee8b7000002fd000488200014427800a2
:1014b400e04f5200050032000042eb000002fd0044
:1014c40082e8b7000002fd000400370014c0b30036
:1014d4000002fd0082e8b7000002fd00c4c0b300b2
:1014e4000002fd0082ebb7000002fd000002eb00e9
:1014f40044448800790037000488200014427800ae
:10150400e04f52000f00320044448000644c8800d5
:101514000042eb000002fd0080e8b7000002fd007d
:1015240064c0b3000002fd0083e8b7000002fd00c0
:10153400c4c0b3000002fd0082ebb7000002fd004e
:10154400660037002488200014427800e04f5200df
:101554001f00320045448000c4072000848f5200dd
:1015640011003e0044448000544488001488200044
:1015740014427800e04f520002003a0034c0b30035
:101584000100370044c0b3000002fd0083e8b70047
:101594000002fd00c4c0b3000002fd0082ebb700ee
:1015a4000002fd0005003700a4c0b3000400780069
:1015b40082ebb70030c0b300c4fe07000042eb006a
:1015c4000002fd0082e8b7000002fd00430037007e
:1015d40034882000144278000482fb00e40f520097
:1015e40014003200e60f520003003200e30f5200f1
:1015f4001f0032002d00370064c0b30004007800df
:101604008de8b700644c80004822de000442780074
:101614000400780090e8b700644c8000044278002d
:101624000400780091e8b70060c0b300d4fe07005e
:101634002300370044c0b300040078008de8b700ed
:10164400544480004822de000442780004007800fc
:1016540090e8b70054448000044278000400780005
:1016640091e8b70040c0b300c5fe0700140037007e
:1016740034c0b300040078008de8b70054448000ff
:101684004822de00044278000400780090e8b700a5
:1016940054448000044278000400780091e8b700c4
:1016a40030c0b300b6fe070005003700a4c0b30085
:1016b4000002fd0082ebb7000002fd0007003700c6
:1016c40006003700a4c0b3000002fd0082ebb7009f
:1016d4000002fd000100370000000000d585200055
:1016e40095427800c48520001442780084cf5200cb
:1016f400d5fe39000080fa00000006000000fa0060
:1017040034448000843eb100444c88005488200056
:1017140014427800e34f520003003a0030c0b30093
:10172400d1fb070059fd07005488200014427800bb
:10173400e64f520009003a00444c8000654c80009a
:1017440004034200e498200004024300050a7800e0
:1017540060c0b300c4fb0700fafc070054882000f3
:1017640014427800e44f520003003a0040c0b30032
:10177400bdfb0700cdfd07000042eb00040078002c
:1017840085e8b7000080fa00000006003600f80083
:10179400809fbe00829fbe00849fbe00869fbe00c5
:1017a4003400f80000002000a00188000000fa00c6
:1017b400a3fe070054c32000140888008460a90015
:1017c4000080fa003400f9004f03be004f02be004f
:1017d4004f01be004f00be003600f9000040060075
:1017e4000000fa00253a800004fe2f000482620003
:1017f400243a8800e4012000343a8800243a800026
:101804000460a1000470a100243a88000002eb00e7
:10181400443a880040a7a90000000000153a80005f
:101824000402200004826200e00f5200fbff320039
:101834000080fa00000006000000fa004405800061
:1018440004c0a00004d0a00004e0a0004405880067
:101854008560a9009560a800440120004411880017
:1018640021e2a800041180000480a1000490a100da
:1018740004118800041180000410a1000420a100b8
:101884000411880020a2a9002062a9002002a90056
:1018940023a2a90023e2a90023c2a9002342a8008d
:1018a400141180000460a1000470a10014118800c8
:1018b4000080fa00000006000000fa009405800091
:1018c4000480a0000490a00004a0a0009405880057
:1018d40087c0a90097c0a80004412000c411880053
:1018e40031e2a800841180000480a1000490a100ca
:1018f40084118800841180000410a1000420a10038
:101904008411880030a2a9003062a9003002a90025
:1019140032c2a90032e2a90033c2a9003342a800ae
:101924000080fa00000006000200fa000000000037
:10193400250480000480200004826200e00f52002d
:10194400fbff320034118000044f78001e427800ff
:10195400044078000080fa00000006000200fa004b
:10196400004f78009e4278000582fb002411880015
:1019740000000000151180000410200004826200a1
:10198400e00f5200fbff320090e72000010020002e
:10199400d00207000080fa00000006000200fa00ee
:1019a400004f78009e4278000582fb00a411880055
:1019b40000000000951180000410200004826200e1
:1019c400e00f5200fbff32000080fa000000060026
:1019d4000000fa00a0c0b300e0ff0700d0c0b300cd
:1019e400deff07000080fa00000006001000fa0085
:1019f400881f780060079800710798000042eb0088
:101a0400044f78006e029000fe029000e00f520036
:101a1400e08f5a0008003d006e029000fe02900024
:101a240060021200e0821a006407980075079800ab
:101a3400d0c2b300c9ff07006e029000fe029000fe
:101a4400e00f5200e08f5a002900320017003700df
:101a54001e4278000484fb006e029000fe02900097
:101a6400a2002000030020000400be00c7fa070003
:101a74000002be00044278000443b000880247001c
:101a8400944298001e4fe8006e029000fe029000ff
:101a9400a2002000030020000400be00acfa0700ee
:101aa4000002be0064079800750798006e0290005b
:101ab400fe029000e00f5200e08f5a00e4ff3a006b
:101ac400070037001e4fe9009e4278000582fb00a4
:101ad4000402470014429000044078009fff07006e
:101ae4001e427800e04f5200f6ff3a000200370031
:101af40000c3b30099ff07004f0478000080fa0088
:101b0400000006000200fa00000f7800050037000c
:101b14001e027800144278001e0fe800044078008a
:101b24008eff07001e02780014427800e04f520036
:101b3400f7ff3a000080fa00000006000200fa00f5
:101b4400000f7800050037001e0278001442780068
:101b54001e0fe8000440780090ff07001e02780082
:101b640014427800e04f5200f7ff3a000080fa0078
:101b7400000006003600f800809fbe00829fbe0071
:101b8400849fbe00869fbe003400f8000000200041
:101b9400a00188000000fa0034118000044278009b
:101ba4000440780073fb07008560a9000080fa00f8
:101bb4003400f9004f03be004f02be004f01be00c7
:101bc4004f00be003600f90000400600801f780078
:101bd400849fbe00861f78003400f80000002000b7
:101be400a00188000000fa00048520001442780057
:101bf4000483fb00b41180000442780005802000b7
:101c040085024300844a7800048520001442780049
:101c14008482fb0004802000048242001442780085
:101c2400ea4f520009003a000042eb000002fd00b6
:101c340050e8b7000002fd0014c0b3000002fd002c
:101c440051e8b7000002fd000500370004852000bc
:101c5400144278000442e8000400780050e8b70019
:101c640087c0a9000080fa003400f9004f0378000f
:101c74004f02be004f007800004006000000fa004a
:101c8400c7c2a900cc22a900cc42a900d222a90033
:101c9400de02a900e202a900de22a900e222a900d4
:101ca400de82a900e282a900dea2a800dec2a900a9
:101cb400e402a900e4c2a900e522a900e582a90082
:101cc400e5a2a900e5c2a900e5e2a9000080fa00a6
:101cd400000006000000fa002405800004c0a000f3
:101ce40004d0a10004e0a000240588008460a900b9
:101cf4009460a80005e1a9000421a90004c1a90079
:101d0400240880000440a1000450a0002408880096
:101d14000002eb000408880054c320001408880063
:101d240005e1a8000080fa00000006000200fa00a5
:101d3400004f780004cdb3001e42420004407800f6
:101d44000080fa00000006000200fa00004f78004c
:101d540005c3b3001ec24200044078000080fa00ac
:101d6400000006000a00fa0040079800ce02900026
:101d740004712200110009008482d8000002780056
:101d8400040f78009e0278000471220004aab900ae
:101d940004027800ce02900084825200843e200027
:101da400110009008482d80000027800140798000a
:101db4009e0278000471220004aab900040278008b
:101dc400ce029000048352009e029000843e2000c4
:101dd40004aab900040278008402530044062000d7
:101de400110009008482d8000002780024079800ba
:101df4009e0278000471220004aab900040278004b
:101e0400ce029000048352009e029000843e200083
:101e140004aab9000402780004035300ae0290003f
:101e24004406200004aab900040278008402530086
:101e3400a4002000110009008482d8000002780068
:101e440034079800c03028003cff07001e027800c9
:101e54000442780004407800bbff07000042780089
:101e640004407800cdfe07001e0290000442780072
:101e740004407800b4ff0700004278000440780072
:101e8400c6fe0700003128002cff07002e02900038
:101e94000442780004407800abff07000042780059
:101ea40004407800bdfe07003e0290000442780022
:101eb40004407800a4ff0700004278000440780042
:101ec400b6fe0700d0c0b300b4fe07000080fa00dd
:101ed400000006000600fa0020079800ae029000f9
:101ee400a4002000110009008482d80000027800b8
:101ef400040f78001e0278006a22b90004027800f8
:101f0400ae02900004825200140798002031280089
:101f14000aff07001e02780004427800044078009b
:101f240089ff070000427800044078009bfe070008
:101f34001e029000044278000440780082ff0700eb
:101f4400004278000440780094fe0700d0c0b3003b
:101f540092fe07000080fa00000006000800fa0064
:101f640030079800be029000843e20001100090052
:101f74008482d80000027800040f78009e02780062
:101f8400843e200004aab90004027800be02900036
:101f94008482520044062000110009008482d80083
:101fa40000027800140798009e027800843e200006
:101fb40004aab90004027800be029000048352000f
:101fc4009e0290004406200004aab900040278008e
:101fd40084025300a4002000110009008482d80068
:101fe400000278002407980060312800d3fe07001f
:101ff4001e027800044278000440780052ff070073
:10200400004278000440780064fe07000031280094
:10201400cafe07001e0290000442780004407800c3
:1020240049ff070000427800044078005bfe070087
:102034002e029000044278000440780042ff07001a
:10204400004278000440780054fe0700d0c0b3007a
:1020540052fe07000080fa00000006000400fa00a7
:10206400100798001e029000e00f52000200320098
:10207400a431280001003700e4312800040f78005f
:102084001e007800adfe0700d0c0b30043fe070079
:102094000080fa00000006000000fa00c0c4b3008b
:1020a4003efe0700d0c0b3003cfe07000080fa00eb
:1020b400000006000200fa00889fbe00004f78006e
:1020c4009e4278000582fb00e00f520003003200bc
:1020d400e10f52000c003200cf0037000082eb0009
:1020e400a44288000082eb00b44288000082eb0026
:1020f400c44288000082eb00d44288000082eb00d6
:1021040094428800c400370005802000954278007e
:1021140064c5b30084cf52002f003a0054822000db
:1021240014427800ed4f5200040032005482200023
:1021340014427800ed4f520027003a00148020002a
:102144001442780004407800f8fe0700004278004a
:102154008482fb000471220004aab90004047800fc
:10216400248020001442780004407800effe070029
:10217400004278008482fb00843e200004aab90057
:1021840004027800040444005480200014427800bf
:1021940004407800e5fe0700004278000482fb005a
:1021a4006a22b90084047800448020001442780034
:1021b40004407800ddfe0700004278008482fb00c2
:1021c4004406200004aab9000402780004824400f2
:1021d40004024400a44288006580200095427800ef
:1021e40014c4b30084cf52002c003a00548220005f
:1021f40014427800ed4f5200040032005482200053
:1022040014427800ed4f520024003a0074802000fc
:102214001442780004407800c4fe070000427800ad
:102224008482fb00843e200004aab90004047800e0
:10223400948020001442780004407800bbfe07001c
:10224400004278008482fb004406200004aab900fe
:102254000402780004044400a4802000144278009e
:1022640004407800b1fe0700004278000482fb00bd
:102274006a22b9000402780004044400b4802000f7
:102284001442780004407800a8fe07000042780059
:102294000482fb0004024400b4428800258120002b
:1022a4009542780054c5b30084cf520018003a0018
:1022b4005482200014427800ed4f52000400320092
:1022c4005482200014427800ed4f520010003a006e
:1022d40034812000144278000440780093fe070003
:1022e400004278000482fb006a22b90004047800ea
:1022f4004481200014427800044078008bfe0700db
:10230400004278000482fb0004024400c4428800b6
:10231400558120009542780094c4b30084cf5200c4
:1023240025003a005482200014427800ed4f5200f8
:10233400040032005482200014427800ed4f520011
:102344001d003a00648120001442780004407800a3
:1023540076fe0700004278008482fb00843e200061
:1023640004aab9000404780084812000144278008f
:10237400044078006dfe0700004278008482fb0070
:102384004406200004aab9000402780004044400ae
:1023940094812000144278000440780063fe070012
:1023a400004278000482fb006a22b900040278002b
:1023b40004024400d4428800e5812000954278005c
:1023c40064c4b30084cf520010003a005482200049
:1023d40014427800ed4f5200040032005482200071
:1023e40014427800ed4f52000a003a00f4812000b4
:1023f40014427800044078004cfe07000042780044
:102404000482fb00944288000300370000000000af
:1024140001003700000000004f04be000080fa00f5
:10242400000006000200fa00edfc070013fe07009e
:1024340001fd070020fd070026fe07001bf9070029
:102444000002eb00040f78000100370000000000d8
:10245400aafc070000c42900010020001d00070099
:102464001485200014427800e04f52000a00320024
:1024740010c0b3000fff070007ff07000042eb0086
:102484000002fd0051e8b7000002fd000002eb006d
:10249400040f7800eeff37001e0fe80084bb200015
:1024a4009e027800848f5200e8ff36000040eb0063
:1024b40000ff0700f8fe07000002eb00040f78009d
:1024c4000042eb000002fd0051e8b7000002fd00ed
:0424d400dfff3700ef
:020000040000fa
:1024d800f03fb1000180b10006003500ee030900ad
:1024e80000000000403fb1000180b100fbff3d004b
:1024f8001000b000203fb000020035000080090045
:082508000000000000000600c5
:020000040000fa
:10251000000800008203000000000000820b0000a1
:1025200006000000020000000af73d00140500004c
:0425300000000000a7
:020000040000fa
:0200000401f009
:04000000cf0000002d
:020000040000fa
:0200000401f009
:04000400cf00000029
:020000040000fa
:0200000401f009
:0400080007000000ed
:020000040000fa
:0200000401f009
:04000c00a30000004d
:020000040000fa
:0200000401f009
:04001000c20000002a
:020000040000fa
:0200000401f009
:040014005f00000089
:020000040000fa
:0200000401f009
:04001800e7000000fd
:020000040000fa
:0200000401f009
:04001c00c30000001d
:00000001FF
