:020000040800F2
:1000000008100020E1070008210800082508000862
:10001000290800082D080008310800080000000029
:10002000000000000000000000000000350800088B
:1000300039080008000000003D08000841080008D9
:1000400045080008490800084D08000800000000A5
:1000500000000000510800080704000823040008FD
:100060005D0800080000000061080008650800083D
:100070006908000800000000330400087108000847
:100080004104000879080008000000007D0800080D
:1000900081080008000000000000000000000000CF
:1000A00000000000000000000000000085080008BB
:1000B000890800088D0800089108000895080008C4
:1000C000012110F01F029140DFF8702440B2400976
:1000D00042F820107047DFF86804006850F0040010
:1000E000DFF85C140860DFF85C04006850F0007012
:1000F000DFF8501408600020DFF84C14086000207E
:10010000DFF8481408600020DFF8441408604FF658
:10011000FF70DFF8401408600020DFF83C1408602E
:100120000020DFF8381408600120DFF81C14086094
:100130007047B0F1807F01D301200FE00021DFF88C
:1001400020241160DFF81C140860DFF8F403006855
:1001500050F00100DFF8E81308600020704738B560
:100160000400002509E0DFF80004FFF7E2FFDFF8F4
:10017000D0030068C003FAD56D1CA542F3D331BD8E
:100180000120DFF8E8130860DFF8E40300684007A7
:10019000FAD540F20470DFF8DC130860DFF8D00312
:1001A00000688007FAD54FF48B70DFF8CC13086035
:1001B0005FF0FF30DFF8C41308600020DFF884131D
:1001C000086070474FF6FD70DFF8B4130860082030
:1001D000DFF8B01308604FF6FF70DFF8AC1308606B
:1001E0005FF0FF30DFF8A41308604FF6FF70DFF810
:1001F000A01308600020DFF89C1308604FF6FF7022
:10020000DFF8941308605FF0FF30DFF890130860A8
:100210004FF6FF70DFF8881308600020DFF88413C2
:1002200008604FF6FF70DFF8801308605FF0FF3062
:10023000DFF8781308607F20DFF87413086000206F
:10024000DFF8701308604FF67F70DFF86C130860FA
:100250005FF0FF30DFF8641308600020DFF8601300
:1002600008604FF6FF70DFF85C1308600020DFF8CD
:10027000581308604FF6F070DFF8501308604FF61F
:10028000B770DFF84C130860AA20DFF84813086045
:100290004FF6FF70DFF8401308605FF0FF30DFF8C3
:1002A0003C1308607047A748006850F08060A5497B
:1002B00008600020DFF8301308600020DFF82C13FE
:1002C000086041F63F70DFF8281308600020DFF86F
:1002D000241308600220DFF8201308607047A74845
:1002E000006850F48000A5490860AA48006850F4EE
:1002F0002050A8490860A848006850F06000A6494E
:100300000860A648006850F47050A44908602B208B
:10031000DFF8E81208601A20DFF8E41208606020B5
:10032000DFF8E01208601020DFF8DC12086040F20D
:100330000130DFF8D812086070479E48006850F01E
:100340000A009C4908609C48006850F003009A49E4
:1003500008609A48006850F00F00984908602B2008
:10036000AB4908601A20AB4908606020AA490860C0
:100370001020AA49086040F20130A949086070477E
:10038000A84909688906FBD4C0B2A749086070472C
:10039000A64909688906FBD4C0B2A5490860704720
:1003A0003EB505000024002D03D56D422D20FFF73A
:1003B000EFFF002D10D13020FFF7EAFF37BD0A20F4
:1003C00095FBF0F100FB115030306946E4B2605407
:1003D000641C0A2095FBF0F5002DF0D1E4B2002C4E
:1003E000ECD0641E6846E4B2205CFFF7D1FFF5E76D
:1003F00010B5040003E02078FFF7C2FF641C2078EA
:100400000028F8D110BD8B48006850F4007089496D
:1004100008608548006886490860102086490860A1
:10042000704783480068804908601020834908604D
:10043000704700206A49086000206A4908607047D8
:100440007C48006830F400707A49086067480068AA
:1004500040084000654908600020794908607047FD
:1004600080B5FFF78DFEFFF736FEFFF7ABFEFFF717
:100470001AFF4248006850F0C000404908605FF031
:10048000407070490860FFF72AFFFFF756FF01BD73
:1004900010B5FFF7E5FF6748006830F480606549F4
:1004A00008606448006830F4007062490860062003
:1004B000FFF706FE62B64FF4FA60FFF750FE62489F
:1004C000FFF796FF0D20FFF75BFF0A20FFF758FFAD
:1004D0006420FFF744FE5D48FFF78AFF0D20FFF719
:1004E0004FFF0A20FFF74CFF6420FFF738FE584803
:1004F000FFF77EFF0D20FFF743FF0A20FFF740FFC5
:100500004FF47A70FFF72BFE524C0120FFF748FFA3
:100510005148FFF76DFF0D20FFF732FF0A20FFF76C
:100520002FFF0120FFF71BFE2000FFF761FF4FF4B4
:10053000FA60FFF714FEEBE70000000000E100E0C6
:1005400010E000E0240002400C80074000800740DB
:1005500004800740088007405880074054800740C7
:1005600018E000E014E000E07F38010008000240DD
:1005700000000240040002400C0002401C00024047
:1005800004800A4008800A400C800A4018800A4013
:1005900004000B4008000B400C000B4018000B40FF
:1005A00004800B4008800B400C800B4018800B40EF
:1005B00004000C4008000C400C000C4018000C40DB
:1005C00014000C4004800C4008800C400C800C404F
:1005D00004800E4008800E400C800E4018800E40B3
:1005E0000000074054000740040008400C00084089
:1005F000080008400000084058000840240003405C
:10060000280003402C000340380003403000034022
:1006100024800340288003402C800340388003401E
:10062000308003401800034000000340188003405E
:100630000080034000000B4044000340448003401E
:100640005400084028000240F0070008FC0700089A
:10065000BC07000808080008D007000824490968FA
:1006600023490968C90700D5400821490968490795
:1006700005D520490968C1F30321491C48431C4999
:100680000968090A11F00301002903D002290CD0DE
:1006900001D30BE00AE016490968C1F30311491CB4
:1006A000B0FBF1F01449086000E0FFE7704780B547
:1006B0001248134908600E48006800200C49086081
:1006C0000C48006800200B4908600E4800680020B4
:1006D0000C4908600C48006800200B4908600B4872
:1006E0000068002009490860FFF7B8FF01BD00005D
:1006F0000C0002400400024000000020100000082E
:100700001C00024008000240100002401400024099
:1007100010B450F8041B79B102684368121808300D
:10072000DC0744BFA9F10104E31852F8044B43F875
:10073000044B091FF9D1ECE710BC704710B507490D
:1007400079441831064C7C44163404E00A68081DCC
:10075000511888470146A142F8D110BD0800000099
:1007600018000000ADFFFFFF040000002C01000096
:10077000000000200000000000F00BF8002801D06D
:10078000FFF7DCFF0020C046C046FFF781FE00F007
:1007900002F80120704700F001B800000746384613
:1007A00000F002F8FBE7000080B5C046C046024AF0
:1007B00011001820ABBEFBE72600020041542B437A
:1007C00049505345525645523D312C34303031005A
:1007D00041542B43495053454E443D302C34000086
:1007E0000148804701480047AF0600081508000887
:1007F00041542B43574D4F44453D330041542B4307
:1008000049504D55583D3100313131313030303063
:1008100000000000C046C046C046C046FFF7ACFF1F
:10082000FFF7FEBFFFF7FEBFFFF7FEBFFFF7FEBFFC
:10083000FFF7FEBFFFF7FEBFFFF7FEBFFFF7FEBFEC
:10084000FFF7FEBFFFF7FEBFFFF7FEBFFFF7FEBFDC
:10085000FFF7FEBFFFF7D7BDFFF7E3BDFFF7FEBF12
:10086000FFF7FEBFFFF7FEBFFFF7FEBFFFF7E1BDDB
:10087000FFF7FEBFFFF7E4BDFFF7FEBFFFF7FEBFC8
:10088000FFF7FEBFFFF7FEBFFFF7FEBFFFF7FEBF9C
:0C089000FFF7FEBFFFF7FEBF00127A006A
:0400000508000815D2
:00000001FF
