:020000040800F2
:1000000008100020B9060008D5060008D906000827
:10001000DD060008E1060008E50600080000000013
:10002000000000000000000000000000E9060008D9
:10003000ED06000800000000F1060008F5060008C3
:10004000F9060008FD06000801070008000000008E
:10005000000000000507000879030008A703000856
:100060001107000800000000150700081907000824
:100070001D07000800000000B7030008250700085E
:10008000C50300082D070008000000003107000824
:10009000350700080000000000000000000000001C
:1000A0000000000000000000000000003907000808
:1000B0003D070008410700084507000849070008F8
:1000C00040B24109DFF88823012310F01F0013FA22
:1000D00000F042F821007047DFF87803006850F024
:1000E0000400DFF870130860DFF86C03006850F05C
:1000F0000070DFF864130860DFF86003002101601E
:10010000DFF85C0300210160DFF858030021016083
:10011000DFF854034FF6FF710160DFF85003002150
:100120000160DFF84C0300210160DFF8300301219A
:1001300001607047B0F1807F01D301200FE0DFF84C
:10014000341300220A60DFF830130860DFF804037C
:10015000006850F00100DFF8FC12086000207047D2
:1001600038B50400002509E0DFF81003FFF7E2FFCF
:10017000DFF8E0020068C003FAD56D1CA542F3D396
:1001800031BDDFF8FC0201210160DFF8F8020068F0
:100190004007FAD5DFF8F00240F204710160DFF8A1
:1001A000E40200688007FAD5DFF8E0024FF48B71B3
:1001B0000160DFF8DC025FF0FF310160DFF89802D8
:1001C000002101607047DFF8CC024FF6FD7101603D
:1001D000DFF8C40208210160DFF8C0024FF6FF71AA
:1001E0000160DFF8BC025FF0FF310160DFF8B402AC
:1001F0004FF6FF710160DFF8B00200210160DFF807
:10020000AC024FF6FF710160DFF8A4025FF0FF312E
:100210000160DFF8A0024FF6FF710160DFF898027D
:1002200000210160DFF894024FF6FF710160DFF8F2
:1002300090025FF0FF310160DFF888027F210160EA
:10024000DFF8840200210160DFF880024FF67F7141
:100250000160DFF87C025FF0FF310160DFF87402BB
:1002600000210160DFF870024FF6FF710160DFF8D6
:100270006C0200210160DFF868024FF6F071016046
:10028000DFF860024FF6B7710160DFF85C02AA2167
:100290000160DFF858024FF6FF710160DFF850028D
:1002A0005FF0FF31016070476B48006850F080607C
:1002B00069490860DFF8440200210160DFF840026C
:1002C00000210160DFF83C0241F63F710160DFF878
:1002D000380200210160DFF834020221016070471A
:1002E0006B48006850F48000694908606E480068F7
:1002F00050F420506C4908606C48006850F0600071
:100300006A4908606A48006850F47050684908609B
:100310007F482B2101607F481A2101607E486021BF
:1003200001607E48102101607D4840F2013101608A
:1003300070476548006850F00A00634908606348E8
:10034000006850F00300614908606148006850F09F
:100350000F005F49086073482B21016072481A2121
:10036000016072486021016071481021016071488C
:1003700040F20131016070477148006850F400702C
:100380006F4908605E48006850F001005C490860F1
:100390006A486949096801606A48102101605A4841
:1003A000002101607047644864490968016066483B
:1003B0001021016070474F48002101604E48002124
:1003C000016070475E48006830F400705C49086066
:1003D0004B48006840084000494908605B480021DC
:1003E0000160704780B5FFF7CCFEFFF775FEFFF7A1
:1003F000EAFEFFF759FF2648006850F0C000244984
:10040000086053485FF040710160FFF769FFFFF734
:1004100090FF01BD80B5FFF7E5FF4948006830F463
:100420008060474908604648006830F400704449DD
:1004300008601020FFF744FE0620FFF741FE07206A
:10044000FFF73EFE62B62320FFF78AFEFBE70000BF
:1004500000E100E010E000E0240002400C800740D2
:10046000008007400480074008800740588007400C
:100470005480074018E000E014E000E07F380100FD
:100480000800024000000240040002400C0002404C
:100490001C00024004800A4008800A400C800A4088
:1004A00018800A4004000B4008000B400C000B4071
:1004B00018000B4004800B4008800B400C800B4060
:1004C00018800B4004000C4008000C400C000C404D
:1004D00018000C4014000C4004800C4008800C40B4
:1004E0000C800C4004800E4008800E400C800E40B2
:1004F00018800E40000007405400074004000840E8
:100500000C0008400800084000000840580008405F
:1005100024000340280003402C000340380003401F
:100520003000034024800340288003402C80034097
:1005300038800340308003400000034000800340C7
:1005400000000B4044000340448003405400084036
:100550002800024025490968244A1268D20700D5BC
:10056000400822490968490705D521490968C1F3AE
:100570000321491C48431D490968090A11F0030178
:10058000002903D002290CD001D30BE00AE017495F
:100590000968C1F30311491CB0FBF1F0154908606B
:1005A00000E0FFE770472DE9F0411348134901606F
:1005B0000E4804680D48002101600D4805680C488C
:1005C000002101600E4806680D48002101600D48B9
:1005D00007680C48002101600B48D0F800800A48E9
:1005E00000210160FFF7B6FFBDE8F0810C0002407A
:1005F00004000240000000201C000240100000081F
:1006000008000240100002401400024010B450F8EC
:10061000041B81B102681218001D50F8043BDC076E
:1006200044BFA9F10104E31852F8044B43F8044B0A
:10063000091FF9D1EBE710BC7047000010B507495E
:1006400079441831064C7C44163404E00A68081DCD
:10065000511888470146A142F8D110BD080000009A
:1006600018000000A9FFFFFF04000000E0000000E8
:10067000000000200000000000F009F8002801D070
:10068000FFF7DCFF0020FFF7C5FE00F002F80120B5
:10069000704700F001B800000746384600F002F845
:1006A000FBE7000080B5C046C046024A1100182092
:1006B000ABBEFBE726000200014880470148004727
:1006C000A7050008C9060008C046C046C046C04687
:1006D000FFF7D2FFFFF7FEBFFFF7FEBFFFF7FEBF3A
:1006E000FFF7FEBFFFF7FEBFFFF7FEBFFFF7FEBF3E
:1006F000FFF7FEBFFFF7FEBFFFF7FEBFFFF7FEBF2E
:10070000FFF7FEBFFFF7FEBFFFF736BEFFF74BBE9A
:10071000FFF7FEBFFFF7FEBFFFF7FEBFFFF7FEBF0D
:10072000FFF749BEFFF7FEBFFFF74CBEFFF7FEBF66
:10073000FFF7FEBFFFF7FEBFFFF7FEBFFFF7FEBFED
:10074000FFF7FEBFFFF7FEBFFFF7FEBF00127A0004
:04000005080006C920
:00000001FF
