:020000040800F2
:1000000030100020C1090008DD090008E1090008DE
:10001000E5090008E9090008ED09000800000000F2
:10002000000000000000000000000000F1090008CE
:10003000F509000800000000F9090008FD090008A2
:10004000010A0008050A0008090A0008000000006B
:10005000000000000D0A0008110A0008E30500086E
:10006000190A0008000000001D0A0008210A000803
:10007000250A000800000000290A00082D0A0008CF
:10008000310A0008350A000800000000390A00089B
:100090003D0A000800000000000000000000000011
:1000A000000000000000000000000000410A0008FD
:1000B000450A0008490A00084D0A0008510A0008CC
:1000C00040B24109DFF87826012310F01F0013FA2F
:1000D00000F042F821007047DFF86806006850F031
:1000E0000400DFF860160860DFF85C06006850F076
:1000F0000070DFF854160860DFF850060021016038
:10010000DFF84C0600210160DFF84806002101609D
:10011000DFF844064FF6FF710160DFF8400600216A
:100120000160DFF83C0600210160DFF820060121B4
:1001300001607047B0F1807F01D301200FE0DFF84C
:10014000241600220A60DFF820160860DFF8F405A4
:10015000006850F00100DFF8EC15086000207047DF
:1001600038B50400002509E0DFF80006FFF7E2FFDC
:10017000DFF8D0050068C003FAD56D1CA542F3D3A3
:1001800031BDDFF8CC1500220A604F21484380B210
:10019000DFF8BC1509688842F9D27047DFF8D0054E
:1001A000006850F00A00DFF8C8150860DFF8C405E1
:1001B000006850F00300DFF8BC150860DFF8B805F0
:1001C000006850F00F00DFF8B0150860DFF8AC05EC
:1001D000006850F08000DFF8A4150860DFF8A00583
:1001E0005FF000710160DFF89C052B210160DFF8F2
:1001F00098051A210160DFF8940570210160DFF88D
:1002000090054FF482610160DFF8880510210160DC
:10021000DFF8840540F2013101607047DFF87C159A
:1002200009688906FAD4DFF87815C0B2086070470B
:1002300080B50A20FFF7F2FF0D20FFF7EFFF01BDA9
:100240003EB505000024002D03D56D422D20FFF79B
:10025000E5FF002D10D13020FFF7E0FF37BD0A2069
:1002600095FBF0F100FB11503030E4B200A960546E
:10027000641C0A2095FBF0F5002DF0D1E4B2002CAF
:10028000ECD0641E2000C0B200A9405CFFF7C6FF9E
:10029000F4E710B5040003E02078FFF7BFFF641C0B
:1002A00020780028F8D110BDC0B2002808D1DFF8AE
:1002B000F404006830F00200DFF8E814086007E09A
:1002C000DFF8E004006850F00200DFF8D81408609E
:1002D000DFF8D4044FF6FF710160DFF8D0045FF05F
:1002E000FF3101607047DFF8C804006830F0020099
:1002F000DFF8BC1408607047DFF8B404006850F001
:100300000200DFF8AC1408607047DFF8A40400684E
:1003100010F00200704710B50120FFF7C5FFFFF78E
:10032000E2FF4FF42070FFF72CFFFFF7E5FF0520F9
:10033000FFF727FF0020FFF7B7FF642403E00A2040
:10034000FFF71FFF641EE4B2002C09D0FFF7DDFFAA
:100350000028F4D1FFF7D9FF0028FBD0012000E0EE
:10036000002010BD10B504000120FFF79DFFFFF72E
:10037000BAFFE4B2002C08D00A20FFF702FFFFF713
:10038000BBFF5020FFF7FDFE07E05020FFF7F9FE0E
:10039000FFF7B2FF0520FFF7F4FE10BD10B50024F3
:1003A0000120FFF781FFFFF79EFF0A20FFF7E9FE1C
:1003B000FFF7A2FF0A20FFF7E4FE0020FFF774FF1B
:1003C000FFF7A3FF04004620FFF7DBFE2000C0B2CA
:1003D00010BD38B50024082508E0E4B26408FFF732
:1003E000DDFF002801D054F080046D1EEDB2002D19
:1003F000F3D12000C0B232BD38B50400082506E0B4
:1004000014F00100FFF7AEFFE4B264086D1EEDB218
:10041000002DF5D131BD082290EA010313F001034C
:10042000DBB2012B01D191F01801C9B24908DBB24E
:10043000012B01D151F08001C0B24008521ED2B24E
:10044000002AE9D10800C0B2704780B5FFF763FF0A
:10045000002801D1002003E0CC20FFF7CDFF0120D0
:1004600002BDF0B583B0002500260024FFF7EDFFA4
:10047000002808D04420FFF7BFFFFFF7AAFF0600BF
:10048000F6B2002EF9D0FFF7E0FF002837D0BE20EB
:10049000FFF7B2FF0220FFF774FE00270EE0FFF720
:1004A00098FF0600FFB200A83E542900C9B2FFB26F
:1004B00000A8385CFFF7AFFF05007F1CFFB2092FD3
:1004C000EDDBEDB2002D1AD19DF801009DF8001072
:1004D00051EA0024B4F5FA6F07DA40F2712000FB0C
:1004E00004F00A2190FBF1F409E0B24804194DF23E
:1004F000D86000FB04F040F26F3190FBF1F4200073
:10050000FEBD9E485FF0FF310160AB4801210160F4
:10051000AA4800684007FBD5A94840F604110160CD
:10052000A64800688007FBD5A6484FF48B71016090
:100530007047A54861210160A44800210160A448DA
:100540004FF6FF710160A3485FF0FF310160A248E0
:100550004FF6FF710160A14800210160A0484FF6ED
:10056000FF7101609F485FF0FF3101609E480021EC
:1005700001609E48002101609D484FF6FF710160B7
:100580009C485FF0FF3101609B4800210160784882
:100590000021016077484FF6FF71016076485FF0F7
:1005A000FF31016095484FF6FF71016094480021CA
:1005B000016094484FF6FF71016093485FF0FF318E
:1005C000016092484FF6FF7101607648002101609A
:1005D00075484FF6FF71016074485FF0FF310160AC
:1005E0007047F8B500208A490F220A60002105E013
:1005F000C9B2884A002322F81130491CC9B2102917
:10060000F6DB66490968C90610D4C0B28149644A5C
:10061000126821F81020C0B27E4911F81010C9B23A
:10062000C0B27C4A22F81010401CEAE779480088E2
:10063000672801D1012000E000207649498865291A
:1006400001D1012100E00021724A9288742A01D16F
:10065000012200E000226F4BDB885F2B01D10123D8
:1006600000E000236B4C2489742C01D1012400E0AC
:100670000024684D6D89652D01D1012500E000251C
:10068000644EB6896D2E01D1012600E00026614F2F
:10069000FF89702F01D1012700E00027C0B2C9B245
:1006A0000840D2B21040DBB21840E4B22040EDB2B4
:1006B0002840F6B23040FFB2384203D056480121FC
:1006C000017002E05448022101705348007801286B
:1006D00009D152480068FFF7B3FDFFF7A9FD4E4866
:1006E000002101700BE04C480078022807D14C48EB
:1006F000FFF7CFFDFFF79CFD4748002101704948F7
:100700000021016048484FF482610160F1BD80B56D
:10071000FFF7F7FEFFF7E0FCFFF70BFFFFF73EFDEB
:100720000720FFF7CDFC62B6FFF79BFE3B49086050
:10073000C820FFF715FD364800210160F4E70000EE
:1007400000E100E010E000E0240002400C800740DF
:100750000080074004800740088007405880074019
:100760005480074018E000E014E000E07F3801000A
:1007700008000C400C000C4018000C401C0002400B
:100780002800024024800340288003402C8003403E
:100790003880034034800340308003401880034099
:1007A0000080034008800E400C800E4018800E40F0
:1007B00000800E400100FFFF0800024000000240E0
:1007C000040002400C00024004800A4008800A40F5
:1007D0000C800A4018800A4004000B4008000B40BF
:1007E0000C000B4018000B4004800B4008800B40AD
:1007F0000C800B4018800B4004000C4004800C401F
:1008000008800C400C800C4018800C4004800E4086
:1008100000000B40000000202800002024000020E1
:10082000E408000804800340448003402549096827
:10083000244A1268D20700D54008224909684907AE
:1008400005D521490968C1F30321491C48431D49C5
:100850000968090A11F00301002903D002290CD00C
:1008600001D30BE00AE017490968C1F30311491CE1
:10087000B0FBF1F01549086000E0FFE770472DE993
:10088000F0411348134901600E4804680D480021E7
:1008900001600D4805680C48002101600E4806689B
:1008A0000D48002101600D4807680C4800210160D7
:1008B0000B48D0F800800A4800210160FFF7B6FF1E
:1008C000BDE8F0810C00024004000240200000203E
:1008D0001C00024010000008080002401000024006
:1008E00014000240636F6D6D616E64206572726FFB
:1008F000722C20706C656173652073656E642027AF
:100900006765745F74656D702720636F6D6D616ED0
:100910006400000010B450F8041B81B10268121882
:10092000001D50F8043BDC0744BFA9F10104E318A3
:1009300052F8044B43F8044B091FF9D1EBE710BC04
:100940007047000010B5074979441831064C7C44C3
:10095000163404E00A68081D511888470146A14270
:10096000F8D110BD0800000018000000A9FFFFFF2B
:100970002C000000E000000000000020000000004B
:1009800000F009F8002801D0FFF7DCFF0020FFF796
:10099000BEFE00F002F80120704700F001B8000030
:1009A0000746384600F002F8FBE7000080B5C04675
:1009B000C046024A11001820ABBEFBE72600020029
:1009C00001488047014800477F080008D109000816
:1009D000C046C046C046C046FFF7D2FFFFF7FEBF85
:1009E000FFF7FEBFFFF7FEBFFFF7FEBFFFF7FEBF3B
:1009F000FFF7FEBFFFF7FEBFFFF7FEBFFFF7FEBF2B
:100A0000FFF7FEBFFFF7FEBFFFF7FEBFFFF7FEBF1A
:100A1000FFF7FEBFFFF7E5BDFFF7FEBFFFF7FEBF25
:100A2000FFF7FEBFFFF7FEBFFFF7FEBFFFF7FEBFFA
:100A3000FFF7FEBFFFF7FEBFFFF7FEBFFFF7FEBFEA
:100A4000FFF7FEBFFFF7FEBFFFF7FEBFFFF7FEBFDA
:100A5000FFF7FEBF000000000000000000000000E3
:100A60000000000000000000000000000000000086
:100A70000000000000127A000000000000000000EA
:04000005080009D115
:00000001FF
