:040000007CEF13F08E
:08000800046ED8CF05F0E0CF33
:1000100006F00001E9CF0CF0EACF07F0E1CF08F0DD
:10002000E2CF09F0D9CF0AF0DACF0BF0F3CF12F01C
:10003000F4CF13F0FACF14F000C00EF001C00FF0AF
:1000400002C010F003C011F0F2A82AEF00F0F2B2E3
:100050003FEF01F09DAA30EF00F09EBADFEF01F014
:100060000EC000F00FC001F010C002F011C003F08C
:100070000CC0E9FF07C0EAFF078E08C0E1FF09C016
:10008000E2FF0AC0D9FF0BC0DAFF12C0F3FF13C0B2
:10009000F4FF14C0FAFF045006C0E0FF05C0D8FF0B
:1000A0001000202020C8E7ECE5F0E8F2E5EBFC00CA
:1000B000202020ECE0E3EDE8F2EDEEE9000020E89E
:1000C000EDE4F3EAF6E8E82E2076322E3420000044
:1000D0002020202020202020202020202020202020
:1000E000000020202020C4C0D2D7C8CA2020202051
:1000F0002000202020202020CDC5202020202020CE
:100100002000202020CFCEC4CACBDED7C5CD2120F1
:1001100020002020202020202020202020202020FF
:100120002020000020D3F1F2E0EDEEE2EAE020ED45
:10013000F3EBFF2000004278203D200020C3F12E89
:1001400020004279203D200020C3F12E2000427A79
:10015000203D200020C3F12E200020D3F1F2E0ED5D
:10016000EEE2EAE020EDF3EBFF20000020427820F1
:100170003D20000020C3F12E2000204279203D20A8
:10018000000020C3F12E200020427A203D200000F4
:1001900020C3F12E2000080E016E00008B9694966D
:1001A0000000E1378B98D8B09488D8A094989486B2
:1001B00082A6FED7012EF1D700008B969496000000
:1001C000948800000000948682A6FED7016A000091
:1001D00082B801808B9694968B9894981200080EA2
:1001E000E06F00C0E1F094880000948682A6FED7FC
:1001F00082B8D88082A8D8900136000094968B9659
:10020000E02FF1D7948800008B98E151D8A49498FE
:100210000000948682A6FED700008B96949600007C
:100220008B989498120094880000948600008B9814
:10023000949800008B9694963C0EE16FACDFDFC083
:10024000E1F0A9DFE0C0E1F0A6DF94980000948619
:1002500082A6FED7000000D00000948800001200A3
:100260001BC0DFF0180EE06FDEDF1CC0DFF0E00E19
:10027000E06FD9DF1DC0DFF0E06BD5DF1200DE6B71
:10028000DD6B1AA203D07D6B7C6B91D0948800004B
:10029000948600008B98949800008B9694963C0E60
:1002A000E16F79DF030EE16F76DF949800009486AA
:1002B00082A6FED7000000D0000094880000948839
:1002C0000000948600008B98949800008B9694967A
:1002D0003D0EE16F60DF010E006E81DF386A01C004
:1002E00037F0010E006E7BDF01C039F0DF6BDF51AC
:1002F00039101F6E37C020F0010E006E70DF3B6AB0
:1003000001C03AF0010E006E6ADF01C03CF0DF6B05
:10031000DF513C10216E3AC022F0010E006E5FDF0B
:100320003E6A01C03DF0010E006E59DF01C03FF092
:10033000DF6BDF513F10236E3DC024F09498000026
:10034000948682A6FED7000000D0000094880000AA
:100350001A807AC000F07B51036E02E100520BE07C
:10036000035003E1010E005C07E0035003E1020EBD
:10037000005C0FE01BD01AD020C0DEF01FC0DDF003
:1003800024C020F023C01FF0DEC024F0DDC023F025
:100390000DD022C0DEF021C0DDF024C022F023C049
:1003A00021F0DEC024F0DDC023F000D059DFD90EEB
:1003B000D76EDA0ED66EF292F29230EF00F0892B01
:1003C00089510F0B036A8B0FE96E000E0320EA6E52
:1003D000AECFEFFF9E9A30EF00F0CEC1CDC0D0D3AC
:1003E000C6C5CD20C4C0D2D7C8CA00002020202056
:1003F0002020D2E8EF3A20202020202000002020DA
:10040000426D6178203D20312E33206B47532020F0
:10041000200020426D6178203D20382E3120475346
:10042000202020200000202020CEF8E8E1EAE02073
:100430004944202020200000C4E0F2F7E8EA204EE2
:100440003A202000CAEEFDF4F4E8F6E8E5EDF2FB10
:100450003A004B78203D20004B79203D20004B7A1C
:10046000203D2000207200002020312C33206B47DB
:100470007320200020720000202020382C312047DB
:100480007320000020202020202020202020202059
:10049000202A00006F6B0A0D000069643D00636D47
:1004A00064206572726F720A0D006572722070317D
:1004B0000A0D00006572722070320A0D000065722C
:1004C000722070330A0D00006572722070340A0DBC
:1004D000000020C7E0EFE8F1FC20E220CFC7D32ED8
:1004E0002E2E000065727220700A0D0020C7E0EF0A
:1004F000E8F1FC20E220CFC7D32E2E2E00002020D2
:100500002020202020202020202020200000EA6A17
:10051000BF0EE96EEF500EE0030E016E006A002E72
:10052000FED7012EFBD73C0E006E002EFED700D06A
:10053000EF2EF2D71200070ED55F0BE3EA6AD50E55
:10054000E96ED890EF32EF5004E001D000D0EF2EEA
:10055000FDD71200D33BF00ED3178A98D3C017F003
:100560008B9A17B88B8A8B9417BA8B848B9217BC93
:100570008B828B9017BE8B80020ED46FF90ED56FD5
:10058000DADFD42FFBD78A8600D000D000008A960D
:10059000290E006E002EFED7000012008A9ACF0EA0
:1005A000006E002EFED700D000008A88C039C16FCF
:1005B0000F0EC117C1C0D3F0CDDFC0C0D3F0CADF6A
:1005C00012008A968A9A140EBF6FA1DF030ED36FB2
:1005D000C1DF200E006E002EFED700D00000030EFB
:1005E000D36FB8DF200E006E002EFED700D00000C3
:1005F000030ED36FAFDF200E006E002EFED700D0AB
:100600000000020ED36FA6DF200E006E002EFED774
:1006100000D000002A0EC06FC1DF080EC06FBEDF21
:10062000010EC06FBBDF060EC06FB8DF0F0EC06FCC
:10063000B5DF21EF14F08A9A020ED26FF90ED56F52
:100640007ADFD22FFBD78A8A8A88D139D26F0F0EF0
:10065000D217D2C0D3F07EDFD1C0D3F07BDF34EF2E
:1006600003F0D0C0D1F0E7D71200C0C0D0F0F9DF5E
:1006700044EF03F00900F5520CE0F6CFBEF0F7CFDF
:10068000BFF0F5CFC0F0F1D7BEC0F6FFBFC0F7FF97
:10069000F1D71200BE518009BF6FC06F7FDF12001B
:1006A000010EC06F7BDFA60E006E002EFED700008D
:1006B0001200A20EF66E000EF76EDCDF400EBE6F6B
:1006C000E9DFB00EF66E000EF76ED4DF100EBE6FCF
:1006D000E1DFBE0EF66E000EF76ECCDF500EBE6F81
:1006E000D9DFD00EF66E000EF76EC4DF040EA26FD7
:1006F000FA0EBF6F0CDFA22FFBD7D2DF23EF14F06F
:10070000AF6BB06BB16BAEC0B0F0ADC0B1F0948860
:100710000000948600008B98949800008B96949625
:100720001EC0B2F0166AF2BE168EF29E1EC0E1F036
:1007300032DD16BEF28E166AF2BE168EF29EB0C082
:10074000E1F029DD16BEF28E166AF2BE168EF29E1A
:10075000B1C0E1F020DD16BEF28E948800009486D0
:10076000000082A6FED78B98949800008B969496F2
:100770001E500109B26F166AF2BE168EF29EE16F2C
:100780000ADD16BEF28E010E006E166AF2BE168EDD
:10079000F29E25DD16BEF28E01C0AFF0166AF2BEE3
:1007A000168EF29EE169F7DC16BEF28E9498000078
:1007B000948682A6FED7000000D000009488000036
:1007C000036A7951680FE96E000E0320EA6EAFC02C
:1007D000EFFF792BAFC001F01200A7C0AAF0A6C0AE
:1007E000A9F0AB6B040EAC6FAC51AB5D15E2A5C0CC
:1007F000AEF0A4C0ADF084DF01C0A8F0A9C0E9FF4D
:10080000AAC0EAFFA8C0EFFFA92BD8B4AA2BA42B3B
:10081000D8B4A52BAB2BE8D71200AE6BA4C0ADF0BB
:100820006FDF01C0A5F0A42BAE6BA4C0ADF068DFF4
:1008300001C0A6F0A5C0A8F0A76BA651A713A7C03A
:1008400001F0A8C002F0A5EF04F0AF69AE69AC51A9
:10085000AC07000A2CE0ABC003F0AA51AA2BD8B415
:10086000AB2BE96E03C0EAFFEF50AF19AD6FAD39A6
:10087000006E0F0E00160050AD1BAEC0B1F0B06B95
:10088000000E036AB01B0350B11BAD39006E003679
:10089000E00E00160050036AB01B0350B11B036A40
:1008A000AD51B019AE6F0350B119AF6FD0D7AEC014
:1008B00001F0AFC002F01200A39181C0AEF080C081
:1008C000ADF01EDF7D6B01C07CF0802BD8B4812B96
:1008D00081C0AEF080C0ADF013DF7F6B01C07EF051
:1008E000802BD8B4812B81C0AEF080C0ADF008DF82
:1008F0007B6B01C07AF0802BD8B4812B81C0A5F02E
:1009000080C0A4F0A76B4C0EA66F67DF040E802793
:10091000000E812381C0A5F080C0A4F0A76B500E0B
:10092000A66F5BDF040E8027000E812381C0A5F037
:1009300080C0A4F0A76B540EA66F4FDF040E802773
:10094000000E812380C0A4F068D702C085F001C0EA
:1009500084F0AB6B680EAA6F0E0EAC6F76DF02C030
:1009600087F001C086F0796B816B806B8651845D66
:1009700004E18751855D01E1A381000EA3B1010E61
:10098000016EC7EF05F0BF6BBE6BC16BC06BC36B75
:10099000C26B94880000948600008B9894980000A5
:1009A0008B969496166AF2BE168EF29EBD0EE16F7D
:1009B000CBEC00F016BEF28E010E006E166AF2BE8F
:1009C000168EF29E0CDC16BEF28E010E006E166ABA
:1009D000F2BE168EF29E03DC16BEF28E010E006E83
:1009E000166AF2BE168EF29EEFEC00F016BEF28E84
:1009F000010E006E166AF2BE168EF29EEFEC00F04B
:100A000016BEF28E010E006E166AF2BE168EF29EB1
:100A1000EFEC00F016BEF28E010E006E166AF2BE0A
:100A2000168EF29EEFEC00F016BEF28E010E006EF6
:100A3000166AF2BE168EF29EEFEC00F016BEF28E33
:100A4000010E006E166AF2BE168EF29EEFEC00F0FA
:100A500016BEF28E0150036ABE6F03C0BFF0010ED6
:100A6000006E166AF2BE168EF29EEFEC00F016BE15
:100A7000F28E0150036AC06F03C0C1F0010E006E18
:100A8000166AF2BE168EF29EEFEC00F016BEF28EE3
:100A90000150036AC26F03C0C3F0949800009486AB
:100AA00082A6FED7000000D0000094880000948841
:100AB0000000948600008B98949800008B96949682
:100AC000166AF2BE168EF29EBC0EE16FCBEC00F001
:100AD00016BEF28E166AF2BE168EF29EE16BCBEC5B
:100AE00000F016BEF28EBE51180BC46FC56BC43534
:100AF000026EC535036E0236033602360336F80E33
:100B0000021602C0C4F003C0C5F0C483C481166AD3
:100B1000F2BE168EF29EC4C0E1F0CBEC00F016BE21
:100B2000F28E166AF2BE168EF29EC0C0E1F0CBECD9
:100B300000F016BEF28EC2511F0B006E036A005009
:100B4000C009C46F03C0C5F0166AF2BE168EF29ECD
:100B5000E16FCBEC00F016BEF28E94980000948604
:100B600082A6FED7000000D0000094880000C1BF1C
:100B700005D0C15307E1C051FE0804E3010E016E28
:100B800003D002D0000E016E1200A26B95D61A9609
:100B900001B01A86020EA36FFA0EBF6FB8DCA32F46
:100BA000FBD77C511E080FE17D530DE1F18CF288DB
:100BB0001E0EA26F166AF2BE168EF29E30EC01F087
:100BC00016BEF28E16D07C51250806E17D5304E155
:100BD000DADE01C0A2F00DD04F6A4E6A4D6A7F0E78
:100BE0004C6E536A526A516A506E576A566A556A19
:100BF000546EA2C001F01200D8B203D0EA6AD70E38
:100C0000E96E006A016A026A036AD76BD86BD96B16
:100C1000DA6BD651D511D411D3112CE0200EDB6F35
:100C2000D890CF37D037D137D237D737D837D93711
:100C3000DA37D651DA5D08E1D551D95D05E1D451F5
:100C4000D85D02E1D351D75D0FE3D351D75FD451C3
:100C5000D8A0D43DD85FD551D8A0D53DD95FD651C5
:100C6000D8A0D63DDA5FD88000360136023603368A
:100C7000DB2FD6D7D7C0EFFFD8C0ECFFD9C0ECFF31
:100C8000DAC0ECFF1200D76BD86B010ED96FDA6AAD
:100C9000D96ADC6BCF0EDB6FEA6AD30EE96EDCC07B
:100CA000E2FFDBC0E1FFD9C0DAF0D890E550EE02F8
:100CB000F350D723F450D823DA2FF7D7D7C0DEFF6D
:100CC000D8C0D7F0D86BD8B0D82BDB2BD8B4DC2B5E
:100CD000D92BD9510508E0E11200D892C5C0D2F055
:100CE000C4C0D1F0C3C0D0F0C2C0CFF0D66BD56BBA
:100CF000270ED46F100ED36F7FDF03C0CAF002C07F
:100D0000C9F001C0C8F000C0C7F0CAC0D2F0C9C065
:100D1000D1F0C8C0D0F0C7C0CFF0D66BD56B270ECE
:100D2000D46F100ED36FAFDF03C0CEF002C0CDF092
:100D300001C0CCF000C0CBF0C651040805E2300E73
:100D4000C725CF6FD06F8DDCCB51C25FCC51C35B59
:100D5000CD51C45BCE51C55BD892C5C0D2F0C4C0E2
:100D6000D1F0C3C0D0F0C2C0CFF0D66BD56B030EAC
:100D7000D46FE80ED36F40DF03C0CAF002C0C9F0E1
:100D800001C0C8F000C0C7F0CAC0D2F0C9C0D1F0DD
:100D9000C8C0D0F0C7C0CFF0D66BD56B030ED46FF0
:100DA000E80ED36F70DF03C0CEF002C0CDF001C0FB
:100DB000CCF000C0CBF0C651030805E2300EC725C9
:100DC000CF6FD06F4EDCCB51C25FCC51C35BCD51E6
:100DD000C45BCE51C55BD892C5C0D2F0C4C0D1F0BF
:100DE000C3C0D0F0C2C0CFF0D66BD56BD46B640E4D
:100DF000D36F02DF03C0CAF002C0C9F001C0C8F05F
:100E000000C0C7F0CAC0D2F0C9C0D1F0C8C0D0F08D
:100E1000C7C0CFF0D66BD56BD46B640ED36F33DF06
:100E200003C0CEF002C0CDF001C0CCF000C0CBF0CA
:100E3000C651020805E2300EC725CF6FD06F11DC16
:100E4000CB51C25FCC51C35BCD51C45BCE51C55BAE
:100E5000D892C5C0D2F0C4C0D1F0C3C0D0F0C2C0D7
:100E6000CFF0D66BD56BD46B0A0ED36FC5DE03C043
:100E7000CAF002C0C9F001C0C8F000C0C7F0CAC0C3
:100E8000D2F0C9C0D1F0C8C0D0F0C7C0CFF0D66B87
:100E9000D56BD46B0A0ED36FF6DE03C0CEF002C062
:100EA000CDF001C0CCF000C0CBF0C651010806E285
:100EB000300EC725CF6FD06F31EC03F0CB51C25F3E
:100EC000CC51C35BCD51C45BCE51C55BC65100084C
:100ED00006E2300EC225CF6FD06F31EC03F0120066
:100EE000C851D8B471D0006ECC51D8B46DD00026A2
:100EF00004E3810E002668E204D07F0E005E64E306
:100F000063E0C9C0D0F0CD51D01BC98FCD8FCB517C
:100F1000CF03F4CFD2F0CA51CE03F4CF03F0F3CF16
:100F2000D1F0CF03F350D227F450D123000E032287
:100F3000CB51CE03F350D227F450D123000E026AD6
:100F400003220222C951CF03F350D127F4500322C8
:100F5000000E0222C951CE03F3500326F4500222A0
:100F6000000E016A0122CB51CD03F350D127F4507A
:100F70000322000E02220122CA51CD03F3500326A0
:100F8000F4500222000E0122C951CD03F350022673
:100F9000F4500122002A01BE05D0D13703360236B3
:100FA00001360006000ED1AF0AD0032A0222012228
:100FB000015005E1025003E1035001E1002AD0BFD6
:100FC000018ED0AF019E04D0006A016A026A036AF2
:100FD0001200A251B608A26F036AA3C0A6F0A38FA5
:100FE000D890A333A433A533033202320132003246
:100FF000A22FF6D7A6AF0BD0001E011E021E031EA5
:10100000002AD8B4012AD8B4022AD8B4032A12007C
:10101000D892ABC0D2F0AAC0D1F0A9C0D0F0A8C07D
:10102000CFF0D66BD56B270ED46F100ED36FE4DDE7
:1010300003C0B0F002C0AFF001C0AEF000C0ADF030
:10104000B0C0D2F0AFC0D1F0AEC0D0F0ADC0CFF0E4
:10105000D66BD56B270ED46F100ED36F14DE03C082
:10106000B4F002C0B3F001C0B2F000C0B1F0AC51B6
:10107000040806E2300EAD25B56FD06F31EC03F0F9
:10108000B151A85FB251A95BB351AA5BB451AB5B3C
:10109000D892ABC0D2F0AAC0D1F0A9C0D0F0A8C0FD
:1010A000CFF0D66BD56B030ED46FE80ED36FA4DDF3
:1010B00003C0B0F002C0AFF001C0AEF000C0ADF0B0
:1010C000B0C0D2F0AFC0D1F0AEC0D0F0ADC0CFF064
:1010D000D66BD56B030ED46FE80ED36FD4DD03C08F
:1010E000B4F002C0B3F001C0B2F000C0B1F0AC5136
:1010F00003080AE2300EAD25B56FD06F31EC03F076
:101100002E0ED06F31EC03F0B151A85FB251A95B44
:10111000B351AA5BB451AB5BD892ABC0D2F0AAC0BA
:10112000D1F0A9C0D0F0A8C0CFF0D66BD56BD46BEE
:10113000640ED36F61DD03C0B0F002C0AFF001C038
:10114000AEF000C0ADF0B0C0D2F0AFC0D1F0AEC0D4
:10115000D0F0ADC0CFF0D66BD56BD46B640ED36F2F
:1011600092DD03C0B4F002C0B3F001C0B2F000C021
:10117000B1F0AC51020806E2300EAD25B56FD06F6C
:1011800031EC03F0B151A85FB251A95BB351AA5B36
:10119000B451AB5BD892ABC0D2F0AAC0D1F0A9C019
:1011A000D0F0A8C0CFF0D66BD56BD46B0A0ED36F3E
:1011B00023DD03C0B0F002C0AFF001C0AEF000C04C
:1011C000ADF0B0C0D2F0AFC0D1F0AEC0D0F0ADC085
:1011D000CFF0D66BD56BD46B0A0ED36F54DD03C042
:1011E000B4F002C0B3F001C0B2F000C0B1F0AC5135
:1011F000010806E2300EAD25B56FD06F31EC03F07B
:10120000B151A85FB251A95BB351AA5BB451AB5BBA
:10121000AC51000806E2300EA825B56FD06F31EC56
:1012200003F012002B0EA76FA5AF07D0A41FA51FB8
:10123000A42BD8B4A52B2D0EA76FA7C0D0F031ECEE
:1012400003F0AB6BAA6BA5C0A9F0A4C0A8F0A6C020
:10125000ACF0DEDE120050EC03F0BE6B4AEC03F0A3
:10126000DA0EF66E030EF76E3AEC03F0400EBE6F28
:101270004AEC03F0EC0EF66E030EF76E3AEC03F058
:10128000100EBE6F4AEC03F07C51250809E17D5336
:1012900007E1FE0EF66E030EF76E3AEC03F012D085
:1012A0007C511E0809E17D5307E1120EF66E040E13
:1012B000F76E3AEC03F006D0260EF66E040EF76ECB
:1012C0003AEC03F0500EBE6F4AEC03F0380EF66EA7
:1012D000040EF76E3AEC03F0C56BC46B7FC0C3F02D
:1012E0007EC0C2F0030EC66FF8DC080EA26FFA0EC5
:1012F000BF6F87EC02F0A22FFAD750EC03F0BE6B61
:101300004AEC03F0440EF66E040EF76E3AEC03F06E
:10131000400EBE6F4AEC03F0520EF66E040EF76EEE
:101320003AEC03F04FC0CBF04EC0CAF04DC0C9F04C
:101330004CC0C8F0CF6BCE6B7A0ECD6F880ECC6FE1
:10134000CFDD03C0A5F002C0A4F001C0A3F000C02F
:10135000A2F03FDE01C0A3F000C0A2F001C0A5F0E2
:1013600000C0A4F0050EA66F5DDF100EBE6F4AEC44
:1013700003F0580EF66E040EF76E3AEC03F053C00D
:10138000CBF052C0CAF051C0C9F050C0C8F0CF6B0A
:10139000CE6B7A0ECD6F880ECC6FA2DD03C0A5F0A8
:1013A00002C0A4F001C0A3F000C0A2F012DE01C090
:1013B000A3F000C0A2F001C0A5F000C0A4F0050E8B
:1013C000A66F30DF500EBE6F4AEC03F05E0EF66E75
:1013D000040EF76E3AEC03F057C0CBF056C0CAF0DB
:1013E00055C0C9F054C0C8F0CF6BCE6B7A0ECD6F2C
:1013F000880ECC6F75DD03C0A5F002C0A4F001C05B
:10140000A3F000C0A2F0E5DD01C0A3F000C0A2F08F
:1014100001C0A5F000C0A4F0050EA66F03DF080E02
:10142000A26FFA0EBF6F87EC02F0A22FFAD750EC32
:1014300003F0120094880000948600008B98949822
:1014400000008B969496166AF2BE168EF29EE16BA1
:10145000CBEC00F016BEF28E94980000948682A623
:10146000FED7000000D000009488000017EF0CF0B9
:101470008E0E006EC9C001F0C8C002F0036AC9AF89
:1014800005D0011E021E022A01E1012A015209E1D2
:1014900002C001F0026A080E005E015202E1006A19
:1014A0000AD0D89001BE04D0023601360006F9D722
:1014B000C9BF01D0019E83EF0AF0C36BC26BC76B3B
:1014C000C66BC56BC46BBE35C86FBF35C96FC83737
:1014D000C937C837C937C837C937F00EC817C85118
:1014E000C011C26FC951C111C36FC3BF07D0C3516F
:1014F000070804E2000EC25F100EC35BC3C0C9F050
:10150000C2C0C8F0B5D703C0CBF002C0CAF001C05A
:10151000C9F000C0C8F0390ECF6FB40ECE6F480EC0
:10152000CD6F7B0ECC6FDCDC03C0C7F002C0C6F011
:1015300001C0C5F000C0C4F0C7C0CBF0C6C0CAF03F
:10154000C5C0C9F0C4C0C8F0CF6BCE6B200ECD6F44
:10155000820ECC6FC5DC03C0C7F002C0C6F001C06C
:10156000C5F000C0C4F0C4C000F0C5C001F0C6C0E2
:1015700002F0C7C003F012008E0E006EBE51005E76
:10158000BFC002F0C0C001F0028E005209E0D89046
:10159000025202E1015204E002320132002EF7D77A
:1015A000BFAF05D0011E021E012AD8B4022A1200C4
:1015B000EACFC6F0E9CFC5F0BFAF08D0C58FC5A947
:1015C000C52BBE1FBF1FBE2BD8B4BF2BBF39F00920
:1015D000C16FC127E20FC26F320FC46FBF510F0B33
:1015E000C227C227C427E90FC36FC327C327BE3949
:1015F0000F0BC327C427C337C437C41FC437BE511A
:101600000F0BC427C137070EC06F0A0EC307C427CC
:10161000FDE3C207C327FDE3C107C227FDE3C007FF
:10162000C127FDE3EA6AC00EE96E070EC515C59D28
:10163000ED52C51507E1C5B9EE52C5B903D0200E6C
:10164000006E20D0E926000EEA22E950C40803E12A
:10165000EA5201E1C58DEF50006E08E1C5BD06D02C
:10166000C5B914D0C5B702D0200E0BD0C5AF06D077
:101670002D0E006EED50C59DC59F04D0C587C59940
:10168000300E002600509EA8FED7AD6EEE50C5ADC0
:10169000DCD712002B0EC16FBFAF07D0BE1FBF1F1C
:1016A000BE2BD8B4BF2B2D0EC16FC1C0D0F031EC12
:1016B00003F0C56BC46BBFC0C3F0BEC0C2F0C0C0F6
:1016C000C6F06DEC06F01200A86BA76BAE6BAD6BAD
:1016D000B46BB36BBA6BB96BBC6BBB6B948800001B
:1016E000948600008B98949800008B969496166AC6
:1016F000F2BE168EF29EBD0EE16FCBEC00F016BE70
:10170000F28E010E006E166AF2BE168EF29EEFEC9D
:1017100000F016BEF28E0150036AA36F03C0A4F05E
:10172000010E006E166AF2BE168EF29EEFEC00F00D
:1017300016BEF28E0150036AA56F03C0A6F0010E1B
:10174000006E166AF2BE168EF29EEFEC00F016BE28
:10175000F28E0150036AA76F03C0A8F0010E006E5D
:10176000166AF2BE168EF29EEFEC00F016BEF28EF6
:101770000150036AB36F03C0B4F0010E006E166A25
:10178000F2BE168EF29EEFEC00F016BEF28E015005
:10179000036AB16F03C0B2F0010E006E166AF2BEAA
:1017A000168EF29EEFEC00F016BEF28E0150036A28
:1017B000AF6F03C0B0F0010E006E166AF2BE168E57
:1017C000F29EEFEC00F016BEF28E010E006E166A6D
:1017D000F2BE168EF29EEFEC00F016BEF28E010EF7
:1017E000006E166AF2BE168EF29EEFEC00F016BE88
:1017F000F28E010E006E166AF2BE168EF29EEFECAD
:1018000000F016BEF28E94980000948682A6FED751
:10181000000000D0000094880000B33D04D0B45311
:1018200002E1BD6B68D1B351885D04E103D6C3EC1E
:1018300004F061D1B3C088F0B231036EB131026EF1
:101840000332023203320232033202320F0E031627
:1018500002C0A9F003C0AAF0B1510F0BAB6FAC6B83
:10186000AF510F0BAD6FAE6BA4C0BFF0A3C0BEF005
:10187000AAC0C1F0A9C0C0F020DE4FC0CBF04EC05E
:10188000CAF04DC0C9F04CC0C8F003C0CFF002C0D0
:10189000CEF001C0CDF000C0CCF070EC07F003C07A
:1018A000C1F002C0C0F001C0BFF000C0BEF064DEF5
:1018B00002C0B6F001C0B5F0A6C0BFF0A5C0BEF032
:1018C000ACC0C1F0ABC0C0F0F8DD53C0CBF052C02B
:1018D000CAF051C0C9F050C0C8F003C0CFF002C078
:1018E000CEF001C0CDF000C0CCF070EC07F003C02A
:1018F000C1F002C0C0F001C0BFF000C0BEF03CDECD
:1019000002C0B8F001C0B7F0A8C0BFF0A7C0BEF0D9
:10191000AEC0C1F0ADC0C0F0D0DD57C0CBF056C0F6
:10192000CAF055C0C9F054C0C8F003C0CFF002C01F
:10193000CEF001C0CDF000C0CCF070EC07F003C0D9
:10194000C1F002C0C0F001C0BFF000C0BEF014DEA4
:1019500002C0BAF001C0B9F0A25105E0010A04E0EA
:10196000030A0FE01BD01AD0B6C0BCF0B5C0BBF064
:10197000BAC0B6F0B9C0B5F0BCC0BAF0BBC0B9F0DF
:101980000DD0B8C0BCF0B7C0BBF0BAC0B8F0B9C099
:10199000B7F0BCC0BAF0BBC0B9F000D01AA420D0D8
:1019A00050EC03F0BE6B4AEC03F05A0EF66E010EDB
:1019B000F76E3AEC03F0B6C026F0B5C025F0B8C01B
:1019C00028F0B7C027F0BAC02AF0B9C029F0040E39
:1019D000BE6FFA0EBF6F87EC02F0BE2FFAD71A94D3
:1019E0002550B55F2650B65B2750B75F2850B85BCF
:1019F0002950B95F2A50BA5B780E9EA8FED7AD6E0B
:101A0000090EE96EB6C0BFF0B5C0BEF0D1DD740EF0
:101A10009EA8FED7AD6E0A0E9EA8FED7AD6E790EBB
:101A20009EA8FED7AD6E090EE96EB8C0BFF0B7C074
:101A3000BEF0BEDD740E9EA8FED7AD6E0A0E9EA847
:101A4000FED7AD6E7A0E9EA8FED7AD6E090EE96E7A
:101A5000BAC0BFF0B9C0BEF0ABDD740E9EA8FED711
:101A6000AD6E0A0E9EA8FED7AD6EBE6B4AEC03F0BB
:101A70006C0EF66E010EF76E3AEC03F0B6C0BFF0D6
:101A8000B5C0BEF0040EC06F05DE740EF66E010E1A
:101A9000F76E3AEC03F0400EBE6F4AEC03F07A0E9C
:101AA000F66E010EF76E3AEC03F0B8C0BFF0B7C0A7
:101AB000BEF0040EC06FEEDD820EF66E010EF76E04
:101AC0003AEC03F0100EBE6F4AEC03F0880EF66E8F
:101AD000010EF76E3AEC03F0BAC0BFF0B9C0BEF029
:101AE000040EC06FD7DD900EF66E010EF76E3AEC65
:101AF00003F0010EBD6FBDC001F03FEF14F0B60E54
:101B0000006E036A026A016AA691A5AF0CD0A68195
:101B1000A21FA31FA41FA51FA22B05E1A32B03E156
:101B2000A42BD8B4A52BA251A311A411A51102E195
:101B3000006A0FD0D89001BE09D0A237A337A437CE
:101B4000A537033602360136002EF4D7019EA6B122
:101B5000018E1200E950AA6FA9AF0DD0AA07AA8B77
:101B6000A61FA71FA81FA91FA62BD8B4A72BD8B4A0
:101B7000A82BD8B4A92B3B0EB16F9A0EB06FCA0E2A
:101B8000AF6FAE6B0A0EAC6FD882EA6AA60EE96E32
:101B9000A9C0D2F0A8C0D1F0A7C0D0F0A6C0CFF0A5
:101BA000B1C0D6F0B0C0D5F0AFC0D4F0AEC0D3F065
:101BB000FCEC05F0015000520FE1AC51010A0CE0C1
:101BC000AA510CE00F0BAC5D01E027E2AABF25D0C3
:101BD000AABD04D0200E1CD0200EAA17AAAB0AD092
:101BE000AA9B00C0AAF02D0E9EA8FED7AD6EAAC07B
:101BF00000F0AA6B300EAAAB0BD0AA9B00C0AAF0D3
:101C00002D0E9EA8FED7AD6EAAC000F0AA6B300EB6
:101C1000002600509EA8FED7AD6ED892B1C0D2F07B
:101C2000B0C0D1F0AFC0D0F0AEC0CFF0D66BD56BA6
:101C3000D46B0A0ED36FFCEC05F003C0B1F002C008
:101C4000B0F001C0AFF000C0AEF0AC2F9DD71200D5
:101C50001AA420D050EC03F0BE6B4AEC03F0240E23
:101C6000F66E010EF76E3AEC03F020C026F01FC0AE
:101C700025F022C028F021C027F024C02AF023C07C
:101C800029F0040EA26FFA0EBF6F87EC02F0A22FAC
:101C9000FAD71A942950235C006E2A502458036EF8
:101CA000005003C001F0026A036A01AE02D00206CE
:101CB000030603C036F002C035F001C034F000C0A6
:101CC00033F02750215C006E28502258036E0050DC
:101CD00003C001F0026A036A01AE02D002060306E5
:101CE00003C032F002C031F001C030F000C02FF06C
:101CF00025501F5C006E26502058036E005003C014
:101D000001F0026A036A01AE02D00206030603C0B4
:101D10002EF002C02DF001C02CF000C02BF02EC020
:101D2000A5F02DC0A4F02CC0A3F02BC0A2F0E7DEDC
:101D300003C0CBF002C0CAF001C0C9F000C0C8F0B7
:101D40009A0ECF6F990ECE6F010ECD6F770ECC6FBE
:101D500070EC07F003C043F002C042F001C041F054
:101D600000C040F043C0CBF042C0CAF041C0C9F04F
:101D700040C0C8F04FC0CFF04EC0CEF04DC0CDF047
:101D80004CC0CCF070EC07F003C043F002C042F04E
:101D900001C041F000C040F032C0A5F031C0A4F055
:101DA00030C0A3F02FC0A2F0AADE03C0CBF002C067
:101DB000CAF001C0C9F000C0C8F09A0ECF6F990EEA
:101DC000CE6F010ECD6F770ECC6F70EC07F003C0B5
:101DD00047F002C046F001C045F000C044F047C0E3
:101DE000CBF046C0CAF045C0C9F044C0C8F053C0EB
:101DF000CFF052C0CEF051C0CDF050C0CCF070EC5E
:101E000007F003C047F002C046F001C045F000C033
:101E100044F036C0A5F035C0A4F034C0A3F033C000
:101E2000A2F06DDE03C0CBF002C0CAF001C0C9F061
:101E300000C0C8F09A0ECF6F990ECE6F010ECD6F15
:101E4000770ECC6F70EC07F003C04BF002C04AF085
:101E500001C049F000C048F054C000F05550800A5D
:101E6000016E56C002F057C003F04BC0CBF04AC021
:101E7000CAF049C0C9F048C0C8F057C0CFF056C03A
:101E8000CEF0CD6F54C0CCF070EC07F003C04BF037
:101E900002C04AF001C049F000C048F043C0CBF096
:101EA00042C0CAF041C0C9F040C0C8F0CF6BCE6B91
:101EB0007A0ECD6F880ECC6F70EC07F003C0A5F0E2
:101EC00002C0A4F001C0A3F000C0A2F0E9EC07F04A
:101ED00003C0A5F002C0A4F001C0A3F000C0A2F0AE
:101EE000780E9EA8FED7AD6E450EE96EA5C0A9F08E
:101EF000A4C0A8F0A3C0A7F0A2C0A6F02BDE680E75
:101F00009EA8FED7AD6E0A0E9EA8FED7AD6E47C046
:101F1000CBF046C0CAF045C0C9F044C0C8F0CF6B92
:101F2000CE6B7A0ECD6F880ECC6F70EC07F003C0CD
:101F3000A5F002C0A4F001C0A3F000C0A2F0E9EC3B
:101F400007F003C0A5F002C0A4F001C0A3F000C0D8
:101F5000A2F0790E9EA8FED7AD6E450EE96EA5C023
:101F6000A9F0A4C0A8F0A3C0A7F0A2C0A6F0F2DD1B
:101F7000680E9EA8FED7AD6E0A0E9EA8FED7AD6E67
:101F80004BC0CBF04AC0CAF049C0C9F048C0C8F045
:101F9000CF6BCE6B7A0ECD6F880ECC6F70EC07F0E6
:101FA00003C0A5F002C0A4F001C0A3F000C0A2F0DD
:101FB000E9EC07F003C0A5F002C0A4F001C0A3F053
:101FC00000C0A2F07A0E9EA8FED7AD6E450EE96E57
:101FD000A5C0A9F0A4C0A8F0A3C0A7F0A2C0A6F015
:101FE000B9DD680E9EA8FED7AD6E0A0E9EA8FED77C
:101FF000AD6EBE6B4AEC03F0360EF66E010EF76E58
:102000003AEC03F043C0CBF042C0CAF041C0C9F083
:1020100040C0C8F0CF6BCE6B7A0ECD6F880ECC6F00
:1020200070EC07F003C0C1F002C0C0F001C0BFF007
:1020300000C0BEF0BCEC0AF002C0A3F001C0A2F0E8
:1020400002C0A5F001C0A4F0040EA66F12EC09F0C6
:102050003C0EF66E010EF76E3AEC03F0400EBE6FCA
:102060004AEC03F0420EF66E010EF76E3AEC03F006
:1020700047C0CBF046C0CAF045C0C9F044C0C8F064
:10208000CF6BCE6B7A0ECD6F880ECC6F70EC07F0F5
:1020900003C0C1F002C0C0F001C0BFF000C0BEF07C
:1020A000BCEC0AF002C0A3F001C0A2F002C0A5F08F
:1020B00001C0A4F0040EA66F12EC09F0480EF66EF3
:1020C000010EF76E3AEC03F0100EBE6F4AEC03F00F
:1020D0004E0EF66E010EF76E3AEC03F04BC0CBF0ED
:1020E0004AC0CAF049C0C9F048C0C8F0CF6BCE6B37
:1020F0007A0ECD6F880ECC6F70EC07F003C0C1F084
:1021000002C0C0F001C0BFF000C0BEF0BCEC0AF0DD
:1021100002C0A3F001C0A2F002C0A5F001C0A4F06B
:10212000040EA66F12EC09F0540EF66E010EF76E57
:102130003AEC03F01A9065EF14F0BE6B4AEC03F032
:10214000E20EF66E000EF76E3AEC03F0400EBE6F34
:102150004AEC03F0F20EF66E000EF76E3AEC03F066
:10216000100EBE6F4AEC03F0020EF66E010EF76E13
:102170003AEC03F0500EBE6F4AEC03F0120EF66E0E
:10218000010EF76E3AEC03F088EF14F089518A5D86
:102190000CE28A2B8A510F0B036A8B0FE96E000E3B
:1021A0000320EA6EEFCFA2F002D0780EA26F9D9AC4
:1021B0008A51895D05E189510F0802E2896B8A6BBA
:1021C0009D8AA2C001F09BEF14F00900F5520DE0CA
:1021D000F6CFA2F0F7CFA3F0F5509EA8FED7AD6ED4
:1021E000A2C0F6FFA3C0F7FFF0D71200EACFACF011
:1021F000E9CFABF0A539F009A76FA727E20FA86FC9
:10220000320FAA6FA5510F0BA827A827AA27E90FFD
:10221000A96FA927A927A4390F0BA927AA27A9378E
:10222000AA37AA1FAA37A4510F0BAA27A737070E50
:10223000A66F0A0EA907AA27FDE3A807A927FDE3B1
:10224000A707A827FDE3A607A727FDE3EA6AA60ECE
:10225000E96E070EAB15AB9DE926000EEA22E950A8
:10226000AA0803E1EA5201E1AB8DEF50006E08E1EC
:10227000ABBD06D0ABB90CD0ABB702D0200E03D0AB
:10228000AB87AB99300E002600509EA8FED7AD6EEE
:10229000EE50ABADE4D71200A369A251300A13E0AF
:1022A000010A13E0030A14E0010A15E0070A16E028
:1022B000010A17E0030A18E0010A19E00F0A1AE000
:1022C000010A1BE01DD0A36B1CD0010EA36F19D017
:1022D000020EA36F16D0030EA36F13D0040EA36FCC
:1022E00010D0050EA36F0DD0060EA36F0AD0070EF7
:1022F000A36F07D0080EA36F04D0090EA36F01D0FF
:10230000A369A3C001F01200A451A603F3CF01F00A
:10231000F4CF00F0A703F3500026A551A603F35015
:102320000020026E12008E0E006EA3C001F0A2C04B
:1023300002F0036A015209E102C001F0026A080ECC
:10234000005E015202E1006A08D0D89001BE04D0BC
:10235000023601360006F9D7019E1200A651D8B404
:10236000A5D0B26FAA51D8B4A1D0B25F05E37F0E59
:10237000B227D8B09BD006D0810EB25FD8A096D03D
:10238000D8B494D0B2C000F0016A026A036AB16B9B
:10239000A7C0B0F0B08FA8C0AFF0A9C0AEF0190EC2
:1023A000B26FAD51AE5F0DE2010EAF5F0AE2B05FFA
:1023B00008E2B15F06E2B12BB02BAF2BAD51AE27D7
:1023C00028D0AC51AF5F12E2010EB05F0FE2B15FF7
:1023D0000DE2B12BB02BAC51AF27AD51AE2719E3B5
:1023E000AF2B17E1B02B15E1B12B13D0AB51800906
:1023F000B05F0EE2010EB15F0BE2B12BAB51800971
:10240000B027AC51AF27E9E3B02BE7E1B12BE5D71B
:102410000380B22F01D00BD0D890AE37AF37B03792
:10242000B137D890033602360136B337BAD7B3A1E5
:1024300006D0D890013202320332B33302D0000604
:1024400035E0B3BF1ED0D890AE37AF37B037B13715
:10245000AD51AE5F07E2010EAF5F04E2B05F02E292
:10246000B15F1AE3AC51AF5F05E2010EB05F02E26B
:10247000B15F12E3AB518009B05F03E2010EB15FBF
:102480000BE3032A09E1022A07E1012A05E1002AF8
:102490000DE0013202320332A7C0B2F0AB51B21BE1
:1024A000B2AF02D0018E06D0019E04D0006A016A4C
:1024B000026A036A1200A3C0AAF0A751AA1BAAAF1E
:1024C00005D0D894D890A3BFD8802FD0A3C0AAF0AD
:1024D000A6C0ABF0A251AB5F06E0AAAF26D0D850A1
:1024E000010AD86E22D0A7C0ABF0A351AB5F06E0C3
:1024F000AAAF1BD0D850010AD86E17D0A8C0ABF035
:10250000A451AB5F06E0AAAF10D0D850010AD86E34
:102510000CD0A9C0ABF0A551AB5F06E0AAAF05D0C7
:10252000D850010AD86E01D0D8901200B26BB36BAC
:10253000B0C0B2F0AFC0B3F0948800009486000041
:102540008B98949800008B9694961EC0B4F0166AEF
:10255000F2BE168EF29E1EC0E1F0CBEC00F016BE6D
:10256000F28E166AF2BE168EF29EB2C0E1F0CBEC8D
:1025700000F016BEF28E166AF2BE168EF29EB3C040
:10258000E1F0CBEC00F016BEF28E166AF2BE168EAB
:10259000F29EB1C0E1F0CBEC00F016BEF28E949842
:1025A0000000948682A6FED7000000D00000948828
:1025B00000000F0EBF6F87EC02F0036A7851580FCE
:1025C000E96E000E0320EA6EB1C0EFFF782B120017
:1025D000A9C0ABF0A8C0AAF0AC6B040EAD6FAD51B2
:1025E000AC5D17E2ABC003F0AAC0E9FFABC0EAFFE5
:1025F000EFCFAEF0A7C0B0F0A6C0AFF0AEC0B1F064
:1026000095DFAA2BD8B4AB2BA62BD8B4A72BAC2B19
:10261000E6D71200AB6BA7C0AAF00E0EAC6F25EC8C
:1026200004F002C0A9F001C0A8F0A9C0AAF0AB6BE9
:10263000B06BA6C0AFF0A9C0B1F078DFA62BB06B2D
:10264000A6C0AFF0A8C0B1F071DFA8C001F0A9C06A
:1026500002F076EF13F0A36BA26BA56BA46BA3C083
:10266000B0F0A2C0AFF07CC0B1F060DFA22BD8B454
:10267000A32BA3C0B0F0A2C0AFF07EC0B1F056DF74
:10268000A22BD8B4A32BA3C0B0F0A2C0AFF07AC0E5
:10269000B1F04CDFA22BD8B4A32BA3C0A7F0A2C0EB
:1026A000A6F0A96B4C0EA86F93DF040EA227000EB4
:1026B000A323A3C0A7F0A2C0A6F0A96B500EA86FD9
:1026C00087DF040EA227000EA323A3C0A7F0A2C099
:1026D000A6F0A96B540EA86F7BDF040EA227000E94
:1026E000A323A2C0A6F0580EA76F94D702C0A5F0EE
:1026F00001C0A4F0786B1200F86AD09E078EA796EE
:10270000400EAF6EA60EAC6E900EAB6E1A901A9283
:102710001A941B6A010E1C6E020E1D6EA00E1E6E18
:10272000206A1F6A226A216A246A236A266A256A45
:10273000286A276A2A6A296A2E6A2D6A2C6A2B6AF5
:10274000326A316A306A2F6A366A356A346A336AA5
:10275000386A376A396A3B6A3A6A3C6A3E6A3D6A55
:102760003F6A436A426A416A406A476A466A456A02
:10277000446A4B6A4A6A496A486A4F6A4E6A4D6AB5
:102780007F0E4C6E536A526A516A506E576A566A8F
:10279000556A546E786B796B7B6B7A6B816B806B4F
:1027A0001A96856B846B876B866B886B896B8A6BDB
:1027B0000F015C51800B5C6F000E5D6FC196C1987C
:1027C000C19A5E6B5F6B08D00300170000002040C9
:1027D000580010408B000000000EF86E270EF76EB8
:1027E000C80EF66E0900F550006E000A13E00900ED
:1027F000F550016EE8BE05D00F0BEA6E0900F5CF6B
:10280000E9FF01BC090001AC0900F5CFEEFF004E65
:10281000E9D7F9D7F86A00019B6B9D6B9E6BA06BA3
:102820009F6B9380939293969398939A949094929B
:102830009494949A94869488949C948E8A82E1EFDE
:1028400002F059EF03F0C5EC05F00152D8A42BECCF
:1028500009F09D8AC00EF21204007CC000F07D5188
:10286000036E03E1250E005C06E0035003E11E0E3B
:10287000005C27E048D07AC0A2F064EF0BF001C002
:102880009BF09B2D1BD0500EBE6F4AEC03F0640EE4
:10289000F66E040EF76E3AEC03F0AB6BAA6B7BC0DE
:1028A000A9F07AC0A8F0010EAC6F08EC08F0680E31
:1028B000F66E040EF76E3AEC03F002D07D6B7C6B83
:1028C00032D01AA01DD028EF0EF0500EBE6F4AEC89
:1028D00003F0740EF66E040EF76E3AEC03F0AB6B79
:1028E000AA6B7BC0A9F07AC0A8F0010EAC6F08EC0F
:1028F00008F0780EF66E040EF76E3AEC03F002D094
:102900007D6B7C6B10D0C5EC05F001520AE115D44B
:10291000040EA26FFA0EBF6F87EC02F0A22FFAD757
:1029200002D02BEC09F080B601D01A8489518A5D5F
:10293000D8B0D0D22BD401C09CF0500EBE6F4AEC60
:1029400003F0840EF66E040EF76E3AEC03F09D5120
:1029500010E0010AD8B4F3D0030AD8B417D1010AA1
:10296000D8B438D1070AD8B459D1010AD8B455D24D
:10297000A2D29C517A0A10E0090A16E0010A3EE050
:10298000190A3FE00A0AD8B4C4D0030AD8B4C6D0A2
:10299000010AD8B4C8D0CCD01A84940EF66E040EB6
:1029A000F76E13DC9D6BCAD0720E9EA8FED7AD6E7B
:1029B0003D0E9EA8FED7AD6E0C0EE96E7BC0A5F055
:1029C0007AC0A4F013DC2C0E9EA8FED7AD6E9A0E32
:1029D000F66E040EF76EE5EC10F00B0EE96E7DC09E
:1029E000A5F07CC0A4F002DC0A0E9EA8FED7AD6E56
:1029F0000D0E9EA8FED7AD6E9D6BA0D0050E9D6FEF
:102A00009DD0610E9EA8FED7AD6E4FC0CBF04EC0DC
:102A1000CAF04DC0C9F04CC0C8F0CF6BCE6B7A0E77
:102A2000CD6F880ECC6F70EC07F003C0C1F002C010
:102A3000C0F001C0BFF000C0BEF0BCEC0AF002C0A4
:102A4000A3F001C0A2F0090EE96E02C0A5F001C01A
:102A5000A4F0F6EC10F0620E9EA8FED7AD6E53C047
:102A6000CBF052C0CAF051C0C9F050C0C8F0CF6B13
:102A7000CE6B7A0ECD6F880ECC6F70EC07F003C072
:102A8000C1F002C0C0F001C0BFF000C0BEF0BCEC9D
:102A90000AF002C0A3F001C0A2F0090EE96E02C064
:102AA000A5F001C0A4F0F6EC10F0630E9EA8FED7CE
:102AB000AD6E57C0CBF056C0CAF055C0C9F054C077
:102AC000C8F0CF6BCE6B7A0ECD6F880ECC6F70ECEA
:102AD00007F003C0C1F002C0C0F001C0BFF000C0E9
:102AE000BEF0BCEC0AF002C0A3F001C0A2F0090ED7
:102AF000E96E02C0A5F001C0A4F0F6EC10F00A0ED9
:102B00009EA8FED7AD6E0D0E9EA8FED7AD6E9D6B36
:102B100015D0010E9D6F610E9E6F10D0010E9D6F3E
:102B2000620E9E6F0BD0010E9D6F630E9E6F06D0DE
:102B30009E0EF66E040EF76EE5EC10F0BCD19CC054
:102B4000A2F04CEC11F001C0A1F0A151FF0808E186
:102B50009D6BAA0EF66E040EF76EE5EC10F0ABD18D
:102B6000A06B9F6BA36BA1C0A2F0A3C0A5F0A1C0F6
:102B7000A4F0030EA76FE80EA66F84EC11F00150CD
:102B80009F270250A023020E9D6F95D19CC0A2F0FA
:102B90004CEC11F001C0A1F0A151FF0808E19D6BC0
:102BA000B40EF66E040EF76EE5EC10F084D1A36B54
:102BB000A1C0A2F0A3C0A5F0A1C0A4F0A76B640EB1
:102BC000A66F84EC11F001509F270250A023030E42
:102BD0009D6F71D19CC0A2F04CEC11F001C0A1F02E
:102BE000A151FF0808E19D6BBE0EF66E040EF76E54
:102BF000E5EC10F060D1A36BA1C0A2F0A3C0A5F0DA
:102C0000A1C0A4F0A76B0A0EA66F84EC11F00150CE
:102C10009F270250A023040E9D6F4DD19CC0A2F0AF
:102C20004CEC11F001C0A1F0A151FF0808E19D6B2F
:102C3000C80EF66E040EF76EE5EC10F03CD1036A98
:102C4000A1519F270350A0239E51610A06E0030A69
:102C500043E0010AD8B47FD0BDD0A0C0A3F09FC08C
:102C6000A2F093EC11F003C0A5F002C0A4F001C0E3
:102C7000A3F000C0A2F003C0A9F002C0A8F001C0F8
:102C8000A7F000C0A6F0AD6BAC6B7A0EAB6F880EF0
:102C9000AA6FAEEC11F003C04FF002C04EF001C0BD
:102CA0004DF000C04CF04FC0A5F04EC0A4F04DC098
:102CB000A3F04CC0A2F0A96BA86BA76BA66B5BEC52
:102CC00012F009E14F6A4E6A4D6A7F0E4C6EE80EB3
:102CD0009F27030EA0237ED0A0C0A3F09FC0A2F028
:102CE00093EC11F003C0A5F002C0A4F001C0A3F062
:102CF00000C0A2F003C0A9F002C0A8F001C0A7F074
:102D000000C0A6F0AD6BAC6B7A0EAB6F880EAA6FED
:102D1000AEEC11F003C053F002C052F001C051F00C
:102D200000C050F053C0A5F052C0A4F051C0A3F0B1
:102D300050C0A2F0A96BA86BA76BA66B5BEC12F05E
:102D400009E1536A526A516A7F0E506EE80E9F275E
:102D5000030EA0233FD0A0C0A3F09FC0A2F093EC2D
:102D600011F003C0A5F002C0A4F001C0A3F000C0A0
:102D7000A2F003C0A9F002C0A8F001C0A7F000C0F3
:102D8000A6F0AD6BAC6B7A0EAB6F880EAA6FAEEC93
:102D900011F003C057F002C056F001C055F000C05A
:102DA00054F057C0A5F056C0A4F055C0A3F054C0CD
:102DB000A2F0A96BA86BA76BA66B5BEC12F009E104
:102DC000576A566A556A7F0E546EE80E9F27030EA7
:102DD000A02300D09E519EA8FED7AD6E090EE96ECD
:102DE000A0C0A5F09FC0A4F0F6EC10F00A0E9EA8BB
:102DF000FED7AD6E0D0E9EA8FED7AD6E50EC03F063
:102E0000400EBE6F4AEC03F0D20EF66E040EF76E63
:102E10003AEC03F020DC9D6B4ED09CC0A2F04CEC51
:102E200011F001C0A1F0A151FF0802E0000E01D095
:102E3000010EA26FA151020802E3000E01D0010EA3
:102E4000A21108E09D6BE40EF66E040EF76EE5EC41
:102E500010F031D0266A256A286A276A2A6A296A08
:102E60007B6BA1C07AF0720E9EA8FED7AD6E3D0EB0
:102E70009EA8FED7AD6E0D0EE96E7BC0BFF07AC086
:102E8000BEF0D8EC0AF00A0E9EA8FED7AD6E0D0E6D
:102E90009EA8FED7AD6E50EC03F0400EBE6F4AEC1C
:102EA00003F0EC0EF66E040EF76E3AEC03F02BEC2A
:102EB00013F09D6B00D0500EBE6F4AEC03F04B0E2A
:102EC000BF6F87EC02F0FE0EF66E040EF76E3AEC62
:082ED00003F02CD5C1D403006E
:020000040030CA
:0E00000015C37833008991000FC00FE00F4048
:00000001FF
;PIC18F25K80
;CRC=6602  CREATED="21-май-17 14:23"
