:020000040000fa
:080000000002040000000000f2
:020000040000fa
:10000800d2020000d2020000d2020000d202000098
:10001800d2020000d2020000d2020000d202000088
:10002800d2020000d2020000d2020000d202000078
:10003800d2020000d2020000d2020000d202000068
:10004800e6150000d2020000d2020000922700004c
:10005800d2020000d2020000d2020000d202000048
:10006800d2020000d2020000d2020000d202000038
:10007800d2020000d2020000d2020000d202000028
:10008800d2020000d2020000d2020000d202000018
:10009800b6050000d2020000de270000d2020000f0
:1000a800d2020000d2020000d2020000d2020000f8
:1000b800d2020000d2020000d2020000d2020000e8
:1000c800d2020000d2020000d2020000d2020000d8
:1000d800d2020000d2020000d2020000d2020000c8
:1000e800d2020000d2020000d2020000d2020000b8
:1000f80016280000d2020000d2020000d20200003e
:10010800d2020000d2020000d2020000d202000097
:10011800d2020000d2020000d2020000d202000087
:10012800d2020000d2020000d2020000d202000077
:10013800d2020000d2020000d2020000d202000067
:10014800d2020000d2020000d2020000d202000057
:10015800d2020000d2020000d2020000d202000047
:10016800d2020000d2020000d2020000d202000037
:10017800d2020000d2020000d2020000d202000027
:10018800d2020000d2020000d2020000d202000017
:10019800d2020000d2020000d2020000d202000007
:1001a800d2020000d2020000d2020000d2020000f7
:1001b800d2020000d2020000d2020000d2020000e7
:1001c800d2020000d2020000d2020000d2020000d7
:1001d800d2020000d2020000d2020000d2020000c7
:1001e800d2020000d2020000d2020000d2020000b7
:1001f800d2020000d2020000d2020000d2020000a7
:10020800d2020000d2020000d2020000d202000096
:10021800d2020000d2020000d2020000d202000086
:10022800d2020000d2020000d2020000d202000076
:10023800d2020000d2020000d2020000d202000066
:10024800d2020000d2020000d2020000d202000056
:10025800d2020000d2020000d2020000d202000046
:020000040000fa
:100400000f5921000eff27000e0188000000000098
:10041000000020000000e000020032000001200087
:10042000200288000c00070040c6220001002000c6
:100430000f000700000020000000e0000200320072
:100440000000020000000000bc2b020000000000c1
:100450000040da000000fe00c00320000000e000c1
:1004600002003200002020009001880000000600f9
:10047000a1028800800078000000eb001a0037001d
:10048000e280400054a0b4009101ba00e280400034
:1004900054a0b4009102ba00e280400054a0b4001d
:1004a0000002eb00472bde00f507b200a601880032
:1004b000602ce10008003a000049eb000201e8006e
:1004c000020039003420ec0002f0a0008301e900b2
:1004d000f9ff3e00040037006128e100010032000e
:1004e0000082eb00040007001101ba000200e000e6
:1004f000e3ff3a000000060004d0a300e20f490029
:100500001c003900810278003549ba000201e80078
:10051000020039003420ec0002f0a0008301e90061
:100520000f0032002549ba000201e800020039003c
:100530003420ec0002f0a0008301e9000800320042
:100540000400e0000600320015c9ba000201e8000c
:10055000020039003420ec0002f0a0008301e90021
:100560008180e80054a0b4000300e000e2ff3a00fc
:10057000000006009102ba00055978008301e900e5
:10058000f7ff3200c82ade00055978008301e90030
:10059000f3ff32000400e000f1ff320011d9ba008d
:1005a000eeff37000040da000000fe00889fbe002a
:1005b0008a9fbe008c1f7800a5000700ac003300a6
:1005c00003866c006450e1002e0032006420e100dc
:1005d000330032006150e1002f0032006120e10061
:1005e0003100320085855500eb07b000090020007e
:1005f00008042000050037000804440089844c00ea
:100600000a0031000603430087834b0000015300ba
:1006100081815b00f8ff33000203be000800a000e8
:100620000804440089844c00f6ff3900c639dd0017
:100630008301730001003200130020008904d100ff
:100640000884d3000998a300050032000800a70021
:100650000300a0008904d1000884d3008b05e800c2
:100660008904d1000884d3000001eb000281d2008c
:100670003c00070001f0a1000cf0a70001f0a00071
:10068000840037006420e100860032000801be00cb
:100690000200be00f7ff37006120e1008100320058
:1006a0006000b800f3ff37000000200001f82700c9
:1006b000f0ff3700839f68000100e00002003d006a
:1006c00060001000e08018000300e00002003d0020
:1006d00060011100e0811900750007004f00e00083
:1006e00002003b0060001000e080180000000600df
:1006f0000001be00410007000470a70003f0a10044
:1007000003f8a30013003a006509b100100032009d
:10071000090035006928e1000200350001002800c9
:100720000000050000004000818048008502e900cb
:10073000fcff3a0000000600f88f4200050035007b
:100740008100d1000080d3008502e800fcff3a0060
:10075000000006008000eb00000005006011b800fa
:100760006300370081002000618055000b003d00d0
:100770000b00200061fe2f000100e1001d0034008d
:1007800082817100610164008904d1000884d30072
:100790000000e800faff3a007100200061006400e8
:1007a0000300700002006000090032006104440090
:1007b000e0844c000988a500050032008b05e800a4
:1007c0006808e10002003a008904d1000884d300df
:1007d000f20f20000258e10005003d00c75ddd007a
:1007e000f907b20089807500080078000000060053
:1007f0000bf827008b00780000000500c70ade0018
:10080000f107b200f50fb20008003200e1cf42005c
:10081000020032000170a00024000500810f70006a
:10082000010032000408050044000500810f70003b
:1008300002003a00140005008502e90000004000b3
:1008400081c04800fcff3b000170a00024000500af
:100850000004be00e9ff07000003be000405be005f
:100860000200be00e5ff0700844f7500000006008f
:100870000200be006450e100050036006420e10083
:10088000020036000968a30001003a000800be001b
:100890000160a0004f0678004f05be004f04be0067
:1008a00000000600f0ff2f00f1ff2700f9ff3700de
:1008b0006022b800060220000000d0008180d20033
:1008c0000482d2008582d2000000a0000202520001
:1008d00083825a00030031000202420083824a00f0
:1008e0000000a1000603e900f3ff3a000000060043
:1008f000889fbe008a9fbe000082700004027100c3
:1009000004827100260032000004be000200be0016
:100910006011b8006b092000950220000182cf0011
:100920000a0039000541b1000082cf0007003900fc
:100930000541b1000982cf00040039000541b10032
:100940000882cf00010039000541b1000542520084
:10095000120032000a003b008281710061016400d4
:100960008100d1000080d3008984d3000884d300a3
:100970008b05e8000442e800f7ff3a000700370063
:100980000804440089844c0000004800818048002d
:100990008b05e9000442e900f9ff3a0071ff070006
:0c09a0004f05be004f04be000000060022
:020000040000fa
:1009ac002f000000683300003030000030310000b0
:1009bc00520000006832000030300000303000007f
:1009cc005200000068310000303000003030000070
:1009dc00520000003f520000004100000052000095
:1009ec00003f00003252000000530000003f0000a6
:1009fc00323500003030000030520000006800003a
:100a0c000032000038000000323700000000000007
:080a1c000a000000290000009f
:020000040000fa
:100a24000200fa00000f78001e02780004427800e9
:100a3400614262000482fb004f22dd00f608800060
:100a4400f5ff27008502630005027200f4088800a0
:100a54000080fa00000006000600fa002007980053
:100a64002e02900005002000863e200086abb900cf
:100a7400e021b90082037800070343008402780070
:100a8400843e2000042ab80005034300860278004f
:100a9400048fbe00048fbe001e00be002eff0700a0
:100aa4000002be00c21e2500830824000400be000c
:100ab400bdfe07000002be000400be000bff0700dd
:100ac4000002be00048fbe000002eb00c4088800d0
:100ad4000002eb00a40888001e02be00402ade00cb
:100ae4000500200004027800e40888001e02780053
:100af400d40888000080fa00000006000000fa0014
:100b040021e1a9001fe1a9001e61a8001e21a9007e
:100b14001ec1a900f40880000440a0000450a000f5
:100b2400f40888000002eb00c40888000002eb000f
:100b3400a40888000002eb00e4088800f40f2000f9
:100b4400d4088800744280000400a1000410a100ad
:100b54000420a000744288000388a9002388a80008
:100b64000080fa0000000600801f7800841f7800cf
:100b74003200f800002020009001880000000000ee
:100b84000000fa0014c0b3000400780042f5b70076
:100b94000002eb00a40888000002eb00c4088800ef
:100ba4000388a9000080fa003200f9004f0278009f
:100bb4004f007800004006000200fa00004f780061
:100bc40004cdb3001e424200044078000080fa00c5
:100bd400000006000200fa00004f780005c3b300cd
:100be4001ec24200044078000080fa0000000600a3
:100bf4000400fa00881f78002047980031479800c5
:100c04000002eb00040f78002e4290000482fb00e7
:100c14006123b9000082eb008082eb0006024200ef
:100c240087824a003600200007002000860f520009
:100c3400878f5a007c003e00040601000300370041
:100c44000d00370023003700460037003e42900075
:100c54008482fb001445210004824200144278007f
:100c640004407800d4ff0700004278000482fb00af
:100c7400040f78006d0037003e4290008482fb0030
:100c84001445210004824200144278000440780094
:100c9400c9ff0700004278000482fb00ea24b9007f
:100ca4003e4290000482fb008402e80014452100c7
:100cb400048242001442780004407800beff07001a
:100cc400004278000482fb0004024400040f780010
:100cd400560037003e4290008482fb0014452100f8
:100ce400048242001442780004407800b2ff0700f6
:100cf400004278008482fb004406200084acb900e2
:100d04003e4290000482fb008402e8001445210066
:100d1400048242001442780004407800a6ff0700d1
:100d2400004278000482fb00ea22b9000404440073
:100d34003e4290000482fb008482e80014452100b6
:100d44000482420014427800044078009aff0700ad
:100d5400004278000482fb0004024400040f78007f
:100d6400320037003e4290008482fb00144521008b
:100d74000482420014427800044078008eff070089
:100d8400004278008482fb00843e200084acb900d9
:100d94003e4290000482fb008402e80014452100d6
:100da40004824200144278000440780082ff070065
:100db400004278008482fb004406200084aab90023
:100dc400040444003e4290000482fb008482e80054
:100dd4001445210004824200144278000440780043
:100de40075ff0700004278000482fb00ea22b90084
:100df400040444003e4290000482fb00e3024200eb
:100e04001445210004824200144278000440780012
:100e140069ff0700004278000482fb0004024400da
:100e2400040f78000100370000000000040078007f
:100e34004f0478000080fa00000006000200fa0067
:100e44000042eb000002fd00d1f4b7000002fd00f7
:100e54000042eb00044f7800060037009e02fb00be
:100e640014452100848242000042eb00844a780049
:100e74001e4fe8001e427800fd4f5200f7ff340079
:100e84000080fa00000006000200fa00004f78001b
:100e94001e4278008482fb00144521000482420033
:100ea40094427800f4c2b30084cf52000b003a009d
:100eb4009e4278000582fb008482e80014452100ec
:100ec400048242009442780004c4b30084cf5200e8
:100ed40002003a0014002000010037000002eb0079
:100ee400040078000080fa00000006000800fa0000
:100ef4004047980051479800624798000082eb00f1
:100f0400040f78004e4290008482fb0014452100b7
:100f1400048242009442780004c6b30084cf520095
:100f240035003a005e429000244798001e003700c6
:100f34002e4290008482fb0014452100048242006a
:100f44009442780004c6b30084cf520002003a00f1
:100f54002e429000544798002e4290008482fb0059
:100f6400144521000482420014427800ed4f5200df
:100f74000a003a002e4290000482fb008402e8003a
:100f8400144521000482420014427800ea4f5200c2
:100f940002003a002e429000644798002e429000ce
:100fa4000442e80024479800ae4290006e4290004c
:100fb40084cf5200deff36005e4290000442e80017
:100fc400544798006e4290000442e9006447980038
:100fd400ee4290005e42900004c2520034479800f2
:100fe400de4090003e40900001ff070000027800c0
:100ff400040f7800020037000082eb00040f780031
:101004001e027800040078000080fa000000060048
:101014000200fa00004f780088ff070055aea800d0
:10102400644d2800040078009b0f07001e407800e0
:10103400e8fe07000042780004407800890f0700aa
:10104400844d280004007800930f0700a00f0700c8
:1010540055aea90040062000f4110700b0c0b3004b
:1010640089ff070000027800040078000080fa007d
:10107400000006000200fa00004f78006fff07002e
:1010840055aea800644d280004007800820f0700c4
:101094001e407800cffe070000427800044078002c
:1010a400700f0700044e2800040078007a0f070030
:1010b400870f070055aea900603b2000db11070035
:1010c400b0c0b30070ff070000027800040078008d
:1010d4000080fa00000006000200fa00004f7800c9
:1010e40056ff070055aea800644d280004007800a0
:1010f400690f07001e407800b6fe07000042780022
:1011040004407800570f0700844e2800040078003c
:10111400610f07006e0f070055aea900603b200069
:10112400c2110700b0c0b30057ff070000027800e7
:10113400040078000080fa00000006000200fa00b3
:10114400004f78003dff070055aea800644d28000d
:1011540004007800500f07001e4078009dfe070031
:1011640000427800044078003e0f0700044f280036
:1011740004007800480f0700550f070055aea9007a
:10118400040078000080fa00000006000200fa0063
:1011940002c1b30081c0b30080c0b30053ff070095
:1011a40000027800040f78001e0278000400780022
:1011b4000080fa00000006000c00fa00004f9800be
:1011c40051079800de02900084bb2000848f5200f7
:1011d400010036005c00370018ff0700de029000b3
:1011e400843e2000110009008482d80000027800a7
:1011f400040f78009e027800843e200084aab9007f
:10120400de0290008482520044062000110009008e
:101214008482d80000027800140798009e027800a7
:10122400843e200084aab900de0290008482520029
:101234001e0390004406200084b2b9008482520048
:10124400a4002000110009008482d8000002780064
:10125400240798009e027800843e200084aab900e6
:10126400de029000848252001e0390004406200097
:1012740084b2b900848252002e029000ea22b9009e
:10128400048252003407980055aea800644d28002b
:1012940004007800000f07000e4890004dfe070080
:1012a4000042780004407800ee0e0700344f280016
:1012b40004007800f80e07001e027800044278004b
:1012c4000440780043fe07000042780004407800a0
:1012d400e40e07001e0290000442780004407800e7
:1012e4003cfe07000042780004407800dd0e070051
:1012f4002e029000044278000440780035fe070076
:101304000042780004407800d60e07003e029000a8
:1013140004427800044078002efe07000042780062
:1013240004407800cf0e0700544f280004007800d2
:10133400d90e0700e60e070055aea900a0c0b30001
:10134400d1fe070000027800040078000080fa0053
:10135400000006000200fa00004f7800b7fe070004
:1013640055aea800644d280004007800ca0e07009a
:101374001e40780017fe0700004278000440780001
:10138400b80e0700744f280004007800c20e07004e
:10139400cf0e070055aea9000080fa000000060039
:1013a4000200fa0002c1b30071c0b30090c0b300e0
:1013b400cefe070000027800040f78001e027800b9
:1013c400040078000080fa00000006000800fa001b
:1013d4004047980031079800be0290008402200024
:1013e400848f5200010036003000370093fe07005e
:1013f400be029000a4002000110009008482d800dd
:1014040000027800040f78001e027800ea22b90076
:10141400be029000048252001407980055aea80042
:10142400644d2800040078009b0e07004e40900095
:10143400e8fd07000042780004407800890e0700a8
:10144400b44f280004007800930e07001e027800b1
:101454000442780004407800defd07000042780072
:10146400044078007f0e07001e02900004427800ba
:1014740004407800d7fd070000427800044078005b
:10148400780e0700544f280004007800820e0700ed
:101494008f0e070055aea90040012000e31007009d
:1014a40080c0b30078fe07000002780004007800d2
:1014b4000080fa00000006000200fa00004f7800e5
:1014c4005efe070055aea800644d280004007800b5
:1014d400710e07001e407800befd07000042780030
:1014e400044078005f0e0700d44f28000400780001
:1014f400690e0700760e070055aea9000080fa00b9
:10150400000006000200fa0022c1b300d1c0b300fb
:10151400d0c0b30075fe070000027800040f780005
:101524001e027800040078000080fa000000060023
:101534000c00fa0060479800410798005207980091
:10154400ce02900094152000848f520001003600d2
:101554004d00370039fe0700ce02900044062000fb
:10156400110009008482d80000027800040f78007a
:101574009e0278004406200084aab900ce0290009e
:1015840084825200a4002000110009008482d80043
:1015940000027800140798009e0278004406200098
:1015a40084aab900ce029000848252001e029000e8
:1015b400ea22b900048252002407980055aea8001c
:1015c400644d280004007800330e07006e4090003c
:1015d40080fd07000042780004407800210e0700d7
:1015e40054502800040078002b0e07005e0290007f
:1015f400e10f520002003a00745028000100370045
:10160400a450280004007800230e07001e0278006e
:1016140004427800044078006efd07000042780020
:10162400044078000f0e07001e0290000442780068
:101634000440780067fd0700004278000440780009
:10164400080e07002e02900004427800044078003f
:1016540060fd07000042780004407800010e070096
:10166400544f2800040078000b0e0700180e0700e2
:1016740055aea900400120006c100700b0c0b300b3
:1016840001fe070000027800040078000080fa00e0
:10169400000006000a00fa0030079800410798008d
:1016a4000082eb00040f78000002eb00140798009e
:1016b40020003700be0290001e0290000482420007
:1016c400144278000482fb001e0f6a00840020008c
:1016d40024079800110037001e027800610262009e
:1016e40004427800e04f5200060032001e027800e7
:1016f4000402d100040f780014002a001e0f6a00af
:10170400030037001e0278000402d100040f7800a1
:101714002e0290000402e900240798002e02900093
:10172400e00f5200ecff3a001e0290000402e800b1
:10173400140798009e0290004e029000848f52007d
:10174400dcff39001e027800c822dd004822de00da
:10175400048f72001e027800040078000080fa00f2
:10176400000006000000fa00651b21009542780085
:10177400f45821001442780084cf520003003a0048
:10178400f45821001442780002003700e458210084
:1017940014427800040078008af0b70064c0b300f3
:1017a400040078008bf0b700d48d80004822de005e
:1017b40004427800040078008cf0b700d48d8000d7
:1017c40004427800040078008df0b700c48d8000d6
:1017d4004822de0004427800040078008ef0b7004e
:1017e400c48d800004427800040078008ff0b700b4
:1017f40061002000a0082100a6ff07000002780075
:1018040044848800450ea800651b21009542780099
:10181400f45821001442780084cf520003003a00a7
:10182400f45821001442780002003700e4582100e3
:101834001442780004407800ac0d070060c0b30087
:10184400aa0d0700d48d80004822de0004427800ef
:1018540004407800a50d0700d48d80000442780070
:1018640004407800a10d0700c48d80004822de00ea
:1018740004427800044078009c0d0700c48d800069
:101884000442780004407800980d070044848000e6
:101894004822de000442780004407800930d0700db
:1018a4004484800004427800044078008f0d0700cf
:1018b400450ea9000080fa00000006000400fa00aa
:1018c400d48d8000148488001484800024848800cb
:1018d400651b210095427800f458210014427800d9
:1018e40084cf520003003a00f458210014427800d7
:1018f40002003700e4582100144278000002fd0081
:101904008af0b7000002fd0034c0b3000002fd00fd
:101914008bf0b7000002fd0034848000044278009c
:10192400044242000002fd008cf0b7000002fd00fa
:1019340034c0b300044f78000042eb001447980011
:101944001f0037001e4278000483fb0014848000cb
:1019540084024200e41b2100048242001402780045
:101964004822de0004427800a508210085024300d5
:10197400844a78001e4fe8001e4278000483fb006e
:101984001484800084024200e41b2100048242008b
:101994001402780004427800a5082100850243005f
:1019a400844a78001e4fe800148480000402e80092
:1019b400148488001e4290000442e80014479800f2
:1019c4001e4290008482fb0034848000848f520085
:1019d400dcff3900348480000402420063024200c8
:1019e40084007800a00821002aff07000002780084
:1019f40044848800450ea800651b210095427800a8
:101a0400f45821001442780084cf520003003a00b5
:101a1400f45821001442780002003700e4582100f1
:101a24001442780004407800300d070030c0b30041
:101a34002e0d0700348480000442780004424200e2
:101a440004407800290d07000042eb002447980069
:101a5400170037002484800084024200e41b210024
:101a640004824200140278004822de000442780016
:101a7400044078001d0d0700248480008402420085
:101a8400e41b21000482420014027800044278001e
:101a940004407800150d0700248480000402e80047
:101aa400248488002e4290000442e80024479800d1
:101ab4002e4290008482fb0034848000848f520084
:101ac400e4ff3900448480004822de0004427800a8
:101ad40004407800050d0700448480000442780027
:101ae40004407800010d0700450ea9000080fa00ab
:101af400000006000400fa00d48d800014848800dd
:101b04001484800024848800651b21009542780099
:101b1400f45821001442780084cf520003003a00a4
:101b2400f45821001442780002003700e4582100e0
:101b3400144278000002fd008af0b7000002fd00a4
:101b440044c0b3000002fd008bf0b7000002fd00aa
:101b54003484800004427800044242000002fd0004
:101b64008cf0b7000002fd0034c0b300044f7800cd
:101b74000042eb00144798001f0037001e42780013
:101b84000483fb001484800084024200842b21001f
:101b940004824200140278004822de0004427800e5
:101ba400a508210085024300844a78001e4fe800fe
:101bb4001e4278000483fb001484800084024200e7
:101bc400842b21000482420014027800044278002d
:101bd400a508210085024300844a78001e4fe800ce
:101be400148480000402e800148488001e429000db
:101bf4000442e800144798001e4290008482fb00cf
:101c040034848000848f5200dcff390034848000e7
:101c1400040242006302420084007800a00821000c
:101c24009cfe07000002780044848800450ea8004a
:101c3400651b210095427800f45821001442780075
:101c440084cf520003003a00f45821001442780073
:101c540002003700e4582100144278000440780060
:101c6400a20c070040c0b300a00c0700348480001d
:101c74000442780004424200044078009b0c0700b0
:101c84000042eb00244798001700370024848000aa
:101c940084024200842b2100048242001402780052
:101ca4004822de0004427800044078008f0c0700cc
:101cb4002484800084024200842b21000482420098
:101cc400140278000442780004407800870c07006e
:101cd400248480000402e800248488002e429000ba
:101ce4000442e800244798002e4290008482fb00be
:101cf40034848000848f5200e4ff390044848000df
:101d04004822de000442780004407800770c070083
:101d1400448480000442780004407800730c070077
:101d2400450ea9000080fa00000006000600fa0033
:101d3400404798000002eb00140798000042eb00b3
:101d4400044f780044002100144278000482fb0010
:101d5400c822dd0054002100144278000482fb00f4
:101d640005027200d48d8800651b2100954278001d
:101d7400f45821001442780084cf520003003a0042
:101d8400f45821001442780002003700e45821007e
:101d9400144278000002fd008af0b7000002fd0042
:101da400d48d80004822de00044278000002fd0049
:101db4008cf0b7000002fd00d48d8000044278004e
:101dc4000002fd008df0b7000002fd004e429000bd
:101dd4000482fb00e40f520037003200e60f520089
:101de40003003200e30f52001a00320048003700ab
:101df40064002100144278000482fb00c822dd0044
:101e040074002100144278000482fb000502720071
:101e1400c48d880064c0b3000002fd008bf0b700dd
:101e24000002fd00c48d80004822de0004427800d8
:101e34000002fd008ef0b7000002fd00c48d80009a
:101e4400044278000002fd008ff0b7000002fd009c
:101e54002f00370064002100144278000482fb0044
:101e6400c822dd0074002100144278000482fb00c3
:101e7400050272003484880034c0b3000002fd00ff
:101e84008bf0b7000002fd00348480004822de009d
:101e9400044278000002fd008ef0b7000002fd004d
:101ea40034848000044278000002fd008ff0b70003
:101eb4000002fd001600370064002100144278007f
:101ec4000482fb00c822dd00740021001442780063
:101ed4000482fb00050272003484880044c0b3000d
:101ee400040078008bf0b700348480004822de00c0
:101ef40004427800040078008ef0b7003484800037
:101f040004427800040078008ff0b700000000005d
:101f140084002100144278000482fb00c822dd0002
:101f240094002100144278000482fb000502720030
:101f34004484880061002000a0082100d5fd07002a
:101f44000002780014079800448480009e029000e8
:101f5400848f520002003a004e429000044f7800f1
:101f64001e427800044078000080fa000000060059
:101f74000600fa00200798000042eb00244798006e
:101f8400d48d8000040f7800080037002e029000e2
:101f94009e027800848f520003003a0014c0b300fc
:101fa40024479800050037001e0fe80034848000a1
:101fb4009e027800848f5200f4ff36002e42900077
:101fc400044078000080fa00000006000200fa00d5
:101fd4000042eb00044f7800243b210014427800b7
:101fe400e14f52003d003a0004808000e70f5200a8
:101ff4003a00360024002100144278000002fd005b
:10200400b6f1b7000002fd00651b2100954278007f
:10201400f45821001442780084cf520006003200a4
:10202400651b210095427800e45821001442780091
:1020340084cf520028003a00340021001442780072
:102044000482fb00e40f520014003200e60f520039
:102054000a003200e30f52001d003a0030c0b30002
:1020640032ff070000427800e34f520013003a00a9
:1020740034c0b300044f78001500370060c0b300cb
:102084002aff070000427800e64f52000d003a0094
:1020940064c0b300044f78000d00370040c0b300a3
:1020a40022ff070000427800e44f520007003a0084
:1020b40044c0b300044f780005003700000000005e
:1020c400030037000000000001003700000000009a
:1020d4000600070001003700040007001e427800d4
:1020e400044078000080fa00000006000200fa00b4
:1020f4000002eb00040f78000500370024002100e3
:102104009e0242000042eb00844a78001e0fe80061
:10211400f40720009e027800848f5200f7ff3400f9
:102124000002eb00048088000042eb000400780009
:10213400b2f3b7000080fa00000006000000fa00c5
:10214400050b0700e9ff07000080fa000000060005
:102154000400fa00000f7800110798001e027800ae
:1021640084024200e41b2100048242009e0290008b
:10217400050a78000080fa00000006000400fa0056
:10218400000f7800110798001e02780084024200b4
:10219400e41b210004824200940278001e02900095
:1021a400050a78000080fa00000006000400fa0026
:1021b400000f7800110798001e0278008402420084
:1021c400842b210004824200940278001e029000b5
:1021d400050a78000080fa00000006000400fa00f6
:1021e400000f7800110798001e0278008402420054
:1021f400842b2100048242009e029000050a78008c
:102204000080fa00000006000000fa00d48d80006f
:10221400040078000080fa00000006000000fa00c4
:10222400c48d8000040078000080fa0000000600dd
:102234000200fa00f458210014427800044f780098
:102244001e427800044078000080fa000000060076
:102254000200fa00004f78001e4078008ff5b700a6
:10226400a2ff07000080fa00000006000400fa0044
:10227400000f7800110798001e0278006123b8004f
:1022840014ff2f00f5ff2f000602420087824a0048
:10229400b600200007002000860f5200878f5a00e6
:1022a400cc003e00040601000b0037001900370083
:1022b4002800370037003700460037005500370044
:1022c4006400370073003700820037009100370044
:1022d400a0003700af0037001e0290000400a200e7
:1022e40004f0a7000402ea000402e9004f22de0021
:1022f400044278000482fb006102620026728000be
:10230400e5ff2f0085026300050272002472880035
:10231400b10037001e0290000400a20004f0a700e0
:102324000402ea000402e9004f22de0004427800bd
:102334000482fb00610262000402420026728000f3
:10234400d5ff2f0085026300050272002472880005
:10235400a10037001e0290000400a20004f0a700b0
:102364000402ea000402e9004f22de00044278007d
:102374000482fb00610262004222dd0026728000ba
:10238400b5ff2f00850263000502720024728800e5
:10239400910037001e0290000400a20004f0a70080
:1023a4000402ea000402e9004f22de00044278003d
:1023b4000482fb00610262004322dd002672800079
:1023c40075ff2f00850263000502720024728800e5
:1023d400810037001e0290000400a20004f0a70050
:1023e4000402ea000402e9004f22de0004427800fd
:1023f4000482fb00610262004422dd002672800038
:10240400f5fe2f0085026300050272002472880025
:10241400710037001e0290000400a20004f0a7001f
:102424000402ea000402e9004f22de0004427800bc
:102434000482fb00610262004522dd0026728000f6
:10244400f5fd2f00850263000502720024728800e6
:10245400610037001e0290000400a20004f0a700ef
:102464000402ea000402e9004f22de00044278007c
:102474000482fb00610262004622dd0026728000b5
:10248400f5fb2f00850263000502720024728800a8
:10249400510037001e0290000400a20004f0a700bf
:1024a4000402ea000402e9004f22de00044278003c
:1024b4000482fb00610262004722dd002672800074
:1024c400f5f72f008502630005027200247288006c
:1024d400410037001e0290000400a20004f0a7008f
:1024e4000402ea000402e9004f22de0004427800fc
:1024f4000482fb006102620004024200a6728000b2
:10250400d5ff2f008502630005027200a4728800c3
:10251400310037001e0290000400a20004f0a7005e
:102524000402ea000402e9004f22de0004427800bb
:102534000482fb00610262004222dd00a672800078
:10254400b5ff2f008502630005027200a4728800a3
:10255400210037001e0290000400a20004f0a7002e
:102564000402ea000402e9004f22de00044278007b
:102574000482fb00610262004322dd00a672800037
:1025840075ff2f008502630005027200a4728800a3
:10259400110037001e0290000400a20004f0a700fe
:1025a4000402ea000402e9004f22de00044278003b
:1025b4000482fb00610262004422dd00a6728000f6
:1025c400f5fe2f008502630005027200a4728800e4
:1025d40001003700000000000080fa00000006003f
:1025e4000000fa0079fe0700004278000482fb0034
:1025f400e40f520072003200e60f52005c00320019
:10260400e30f520080003a00246ea800147080008a
:1026140004427800614262000482fb008400780076
:102624000000eb00cafe0700147080000402d10011
:10263400614262000482fb008400780010002000e4
:10264400c3fe0700147080004222de006142620073
:102654000482fb008400780020002000bcfe0700f8
:10266400147080004322de00614262000482fb0099
:102674008400780030002000b5fe0700147080004c
:102684004422de00614262000482fb008400780080
:1026940040002000aefe0700147080004522de00da
:1026a400614262000482fb00840078005000200034
:1026b400a7fe0700147080004622de00614262001b
:1026c4000482fb008400780060002000a0fe070064
:1026d400147080004722de00614262000482fb0025
:1026e400840078007000200099fe07009470800038
:1026f4004422de00614262000482fb008400780010
:102704008000200092fe0700947080004522de00c5
:10271400614262000482fb00840078009000200083
:102724008bfe0700947080004822de006142620044
:102734000482fb0084007800a000200084fe0700cf
:10274400947080004922de00614262000482fb0032
:1027540084007800b00020007dfe070057fc0700cd
:1027640010002000310c0700246ea9002600370059
:10277400fcfb0700246ea800a3fe070000027800fb
:1027840034ac880034ac8000815821000400780007
:102794007afe070045ac800034ac800085007800e8
:1027a40004007800b1fe0700a0c0b3008a08070047
:1027b400b0c0b30088080700246ea90012003700d7
:1027c400246ea80084ab8000840078000000eb0035
:1027d40082fe070094ab8000840078001000200083
:1027e4007efe0700a4ab8000840078002000200057
:1027f4007afe0700bffc0700100020000b0c070046
:10280400246ea900000000000080fa000000060009
:102814001a00fa00620247000b000900001aeb00dc
:10282400f4002000040f7800090037009e027800ad
:102834006f825200040242008e82e8000482420049
:10284400840078001e0078004cfe07001e0fe8008c
:102854001e027800fa0f5200f4ff36001e029000a8
:102864000400a20004f0a7000402ea000402e90044
:102874004f22de00044278000482fb006102620001
:1028840026728000e5ff2f008502630005027200b6
:10289400247288002e0290000400a20004f0a70015
:1028a4000402ea000402e9004f22de000442780038
:1028b4000482fb006102620004024200267280006e
:1028c400d5ff2f0085026300050272002472880080
:1028d4003e0290000400a20004f0a7000402ea00f3
:1028e4000402e9004f22de00044278000482fb0067
:1028f400610262004222dd0026728000b5ff2f00d3
:102904008502630005027200247288004e02900062
:102914000400a20004f0a7000402ea000402e90093
:102924004f22de00044278000482fb006102620050
:102934004322dd002672800075ff2f0085026300ac
:1029440005027200247288005e0290000400a20056
:1029540004f0a7000402ea000402e9004f22de00aa
:10296400044278000482fb00610262004422dd001c
:1029740026728000f5fe2f008502630005027200b6
:10298400247288006e0290000400a20004f0a700e4
:102994000402ea000402e9004f22de000442780047
:1029a4000482fb00610262004522dd002672800081
:1029b400f5fd2f0085026300050272002472880071
:1029c4007e0290000400a20004f0a7000402ea00c2
:1029d4000402e9004f22de00044278000482fb0076
:1029e400610262004622dd0026728000f5fb2f00a2
:1029f4008502630005027200247288000e0a9000aa
:102a04000400a20004f0a7000402ea000402e900a2
:102a14004f22de00044278000482fb00610262005f
:102a24004722dd0026728000f5f72f00850263003f
:102a340005027200247288001e0a90000400a2009d
:102a440004f0a7000402ea000402e9004f22de00b9
:102a5400044278000482fb00610262000402420026
:102a6400a6728000d5ff2f00850263000502720064
:102a7400a47288002e0a90000400a20004f0a700ab
:102a84000402ea000402e9004f22de000442780056
:102a94000482fb00610262004222dd00a672800013
:102aa400b5ff2f008502630005027200a47288003e
:102ab4003e0a90000400a20004f0a7000402ea0009
:102ac4000402e9004f22de00044278000482fb0085
:102ad400610262004322dd00a672800075ff2f00b0
:102ae4008502630005027200a47288004e0a9000f9
:102af4000400a20004f0a7000402ea000402e900b2
:102b04004f22de00044278000482fb00610262006e
:102b14004422dd00a6728000f5fe2f0085026300ca
:102b240005027200a47288000080fa00000006000a
:102b34000000fa00a400200094ab880024002000c8
:102b4400a4ab8800020807002e08070030ff070026
:102b54007afd0700a2fe0700feff37000000fa001e
:102b640013e1a90011e1a9001061a8001021a90036
:102b740010c1a900840880000440a0000450a000f3
:102b8400840888000002eb00540888000002eb006f
:102b940034088800240020007408880084f52a0082
:102ba40064088800244280000400a0000410a100ee
:102bb4000420a000244288000108a9002108a800dc
:102bc4000080fa0000000600801f7800841f78004f
:102bd4003200f8000020200090018800000000006e
:102be4000000fa000002eb00749e88000002eb0073
:102bf400540888000002eb00340888000108a9008a
:102c04000080fa003200f9004f0278004f0078008b
:102c1400004006000400fa000042eb00044f780074
:102c24000042eb00144798000042eb002447980050
:102c3400270037000042eb003447980019003700a2
:102c44002e4290008482fb003e4290000482fb00ee
:102c5400ea2bb90086027800048242008482e800ec
:102c6400c43e210004824200944278003e42900017
:102c74000482fb000483e800243e21000402430094
:102c84001442780084cf520003003a001e429000a0
:102c94000442e800144798003e4290000442e800d1
:102ca400344798003e429000e74f5200e4ff36005c
:102cb4001e429000e74f520002003e000042eb002b
:102cc400144798002e4290000442e80024479800dc
:102cd4002e4290008482fb00a49d8000848f5200c9
:102ce400d4ff39001e429000e74f52000200360024
:102cf40014c0b300044f78001e42780004407800ea
:102d04000080fa00000006000600fa002007980080
:102d14000002eb00040f78002e029000e10f520035
:102d240028003a00149f8000e90f520025003e005d
:102d3400403e21000b03070000427800e04f5200a0
:102d440020003200b3ff070000427800e04f520039
:102d54001c003a000042eb002447980011003700a1
:102d6400169f80002e4290008402fb002e429000a9
:102d74000402fb008483e800243e21000482430013
:102d840014427800ea33b90005034300e53e21000c
:102d940085024300844a78002e4290000442e800f1
:102da400244798002e429000e74f5200ecff340075
:102db400a49d80000402e800a49d88001400200063
:102dc400040f78001e027800040078000080fa00e6
:102dd400000006000400fa000002eb00a49d880035
:102de4000042eb00044f78001c0037009e4278003c
:102df4000582fb0084024200a43b210004824200bd
:102e04008002eb00050a78000042eb0014479800aa
:102e14000e0037001e4378008682fb001e4290009d
:102e24000482fb00ea2bb900860278008482420007
:102e3400e43e2100848242000042eb00844a780090
:102e44001e4290000442e800144798001e4290007d
:102e5400e74f5200efff36001e4fe8001e42780095
:102e6400e94f5200e1ff3600a4c0b30024479800a4
:102e74000e0037002e4290000402fb008000eb009d
:102e840004007800d5fc07002e4290000402fb00e9
:102e94006a0252008000eb0004007800acfc0700da
:102ea4002e4290000442e80024479800ae4290006d
:102eb400d4c6b30084cf5200eeff34000080fa0081
:102ec400000006000400fa000002eb00040f780082
:102ed4001f0037000002eb001407980018003700a9
:102ee400149f80000402e800ea22b90084027800fa
:102ef4001e02900004824200849e88001e02780014
:102f0400ea22b900840278001e0290000482420082
:102f14008482e800c43e2100048242001442780006
:102f24008482fb00849e8000850078000400780081
:102f3400aafc07001e0290000402e800140798008f
:102f44001e029000e70f5200e5ff36001e0fe80056
:102f5400a49d80009e027800848f5200ddff39001a
:102f64000080fa00000006000200fa000002eb00f4
:102f7400040f7800170037001e027800ea22b90017
:102f84008482e800c43e21000482420004007800e8
:102f9400df010700fa0107000002be00b49d8800ab
:102fa400c59d8800b49d8000c59d8000a2002000be
:102fb400030020000400be00bdf507000002be00af
:102fc40004027800840078001e00780060fc07008a
:102fd4001e0fe800a49d80009e027800848f52009a
:102fe400e5ff39000080fa00000006000200fa0044
:102ff400000f78000002eb00540888000002eb0088
:10300400340888001e02780004427800614262009d
:103014000482fb004f22dd0086088000f5ff2700b4
:103024008502630005027200840888000080fa00ab
:10303400000006000000fa00a49d8000e00f52008a
:1030440025003200c4582100144278000402fb0019
:1030540045062000850f520004003200550620006a
:10306400850f52000b0032001b00370014002000b3
:10307400749e88007701070010002000dbff070022
:1030840054c6b3000002fd008cf5b7000002fd0039
:1030940011003700749e8000e00f52000a003a00cd
:1030a4000000eb00d1ff07000002eb00749e8800d3
:1030b400adff070044c6b3000002fd008cf5b70065
:1030c4000002fd000400370054c6b3000400780079
:1030d4008cf5b70000000000a49e800084007800f6
:1030e400f00020001afc0700749e80008400780021
:1030f4001001200016fc0700a49d800084007800c5
:10310400a000200012fc0700b49e80008400780018
:10311400b00020000efc0700c49e8000413d210049
:103124000400780015fc07000080fa000000060087
:103134000600fa000002eb00240798000042eb00ae
:10314400044f78000002eb00e49e88000002eb00cc
:10315400d49e88000002eb00f49e88000002eb007d
:10316400c49e88000002eb00b49e88000002eb00bd
:10317400049f8800213d2100a0002000fffb0700e0
:10318400949e8000e00f520054003400949e80000e
:10319400ea0f520051003e000042eb001447980031
:1031a400280037001e4290000403fb001e429000da
:1031b4008402fb00ea33b900c43e21000402430048
:1031c400050a78000042eb002447980016003700f7
:1031d4009e4278000582fb006a024200e402470036
:1031e4008500780004007800f0fb07001e4fe8001b
:1031f4001e4290000403fb002e4290008402fb0058
:103204002e02900004427800ea33b900050343001b
:10321400e53e210085024300844a78002e42900056
:103224000442e800244798002e429000e74f5200e1
:10323400e7ff34001ecfe8001e4290000442e8007d
:10324400144798001e4290008402fb00949e800064
:10325400848f5200d3ff3500640247008400780055
:10326400c0002000c5fb0700ae029000040520004a
:10327400848f520002003e002e029000d49e8800eb
:103284006402470084007800d0002000bbfb0700e4
:103294002e029000e90f520002003e002e02900020
:1032a400f49e88006402470084007800e000200057
:1032b400b2fb07002e029000e90f520002003e000c
:1032c4002e029000c49e8800949e8000ea0f520053
:1032d40002003e00949e8000a49d88000080fa00b5
:1032e400000006000000fa00a49d8000040078009d
:1032f4000080fa00000006000200fa00004f780087
:103304009e42780061c262000482fb006102620096
:103314000402420026738000d5ff2f00850263005b
:1033240005027200247388000080fa000000060081
:103334000000fa001473800061026200e00f520082
:1033440002003a00140020000700370014738000c4
:1033540061026200e00f5200020032000002eb0042
:103364000100370000003700040078000080fa00f4
:10337400000006000200fa000042eb00044f78004f
:1033840010c0b300dcff0700602220000100200011
:103394000b0907000040eb00d7ff070020032000c3
:1033a400010020000609070044c6b3001447980032
:1033b4000c003700deff070000027800e10f520026
:1033c40005003a008002200001002000fc080700ec
:1033d40014c0b300044f78001e4290000442e90078
:1033e400144798001e429000e04f5200f1ff3a004b
:1033f400a000200001002000f10807001e42780010
:10340400044078000080fa00000006000200fa0080
:10341400004f780010c0b300b7ff07001e427800c9
:10342400e04f520009003200f000200001002000ab
:10343400e30807000040eb00afff07006004200032
:1034440001002000de0807000800370060042000a7
:1034540001002000da0807000040eb00a6ff070087
:10346400e001200001002000d50807000080fa00d8
:10347400000006000200fa000042eb00044f78004e
:1034840010c0b3009cff0700a00020000100200032
:10349400cb0807000040eb0097ff0700d000200096
:1034a40001002000c6080700a1ff07000002780001
:1034b400e00f520002003a0014c0b300044f780039
:1034c4006004200001002000bd0807001e427800af
:1034d400044078000080fa00000006000200fa00b0
:1034e4000042eb00044f780084c0b30014479800f6
:1034f4000d0037009e4278000582fb000402d100d3
:10350400044f7800dbff070000427800e04f5200d0
:103514000200320004c8b3001e4f72001e42900025
:103524000442e900144798001e429000e04f520004
:10353400f0ff3a001e427800044078000080fa0050
:10354400000006000400fa002047980084c0b3007d
:10355400044f7800090037002e4290006142620057
:1035640004407800a9ff07002e4290000482fb006b
:103574000402d100244798001e4fe9001e4278003f
:10358400e04f5200f4ff3a000080fa000000060009
:103594000400fa002047980031479800be4290008a
:1035a4002e42900004c26a00344798000042eb00a7
:1035b400044f7800130037003e4290000482fb0061
:1035c4006102620004427800e04f520008003200b9
:1035d4003e4290000482fb000402d1008442780041
:1035e400c4c8b30004c26a0034479800040037001a
:1035f4003e4290000482fb000402d100344798004c
:103604001e4fe8001e427800e74f5200eaff3600e2
:103614003e429000044078000080fa00000006005a
:103624000000fa0053ff070000427800e04f520008
:1036340002003a000042eb0003003700c0ccb300a4
:10364400c0ff070014c0b300044078000080fa00f3
:10365400000006000000fa0046ff07000042780060
:10366400e04f520008003200c0ccb300b5ff0700a1
:1036740040c4b300b3ff07000040eb001eff070087
:1036840014c0b300010037000042eb00044078008e
:103694000080fa00000006000400fa00881f780089
:1036a4001007980033ff070000427800e04f5200f3
:1036b40002003a000042eb001100370030c3b300af
:1036c400a0ff07000042eb00044f78000800370019
:1036d4009e4278000582fb009e0290000484420012
:1036e4007eff070000427800044c78001e4fe8007b
:1036f4001e427800e74f5200f5ff360014c0b300b5
:10370400044078004f0478000080fa0000000600ae
:103714000400fa001007980016ff07000042780022
:10372400e04f520002003a000042eb001100370063
:1037340050c5b30083ff07000042eb00044f78003c
:10374400080037009e4278000582fb009e0290002c
:1037540004824200144278000440780079ff070094
:103764001e4fe8001e427800e74f5200f5ff360076
:1037740014c0b300044078000080fa000000060082
:103784001200fa000042eb00044f78000042eb0004
:10379400144798000042eb00044f98006022b800e0
:1037a4001407980025079800e0cbb30065ff0700d5
:1037b4000042eb00644798001000370047ff070001
:1037c40000427800044f98006e4290000482fb008f
:1037d400690242008e4a900005777a006e4290009a
:1037e400e84f520002003a001e529000044f780045
:1037f4006e4290000442e800644798006e429000d4
:10380400e84f5200edff36000042eb007447980089
:103814000c0037007e4290000482fb0069024200e3
:103824006e427a009e4090000440780058ff0700e2
:1038340000427800144798007e4290000442e80059
:10384400744798007e429000e74f5200f1ff360023
:103854001e4290009e4f52003d003a002e4a9000b6
:103864000482fb00c822dd001e4a90000482fb0093
:1038740005027200cfa2de00140798002507980005
:103884001e039000ae039000f47c2000050020008d
:10389400840f5300858f5b0013003c00ae02900040
:1038a4001427200084abb9001e029000e022b90066
:1038b400040343009e02900014272000042ab80049
:1038c4000503430086027800a200200003002000c4
:1038d4000400be0076f307000002be00140798003f
:1038e400250798001a0037001e039000ae039000cd
:1038f40014002000f5ff2f000602420087824a00d0
:103904001407980025079800ae029000846d2d00de
:1039140084abb9001e029000e022b9000403430006
:103924009e029000846d2d00042ab8000503430014
:1039340086027800f2362000030020000400be0056
:103944005bf307000002be001407980025079800e7
:103954001e029000ae0290000400be000080fa0037
:10396400000006000400fa00881f78001007980081
:1039740080fe070000427800e04f5200120032003f
:1039840030c3b300effe07000042eb00044f7800a1
:10399400080037009e4278000582fb009e029000da
:1039a40004844200cdfe070000427800044c7800f5
:1039b4001e4fe8001e427800e74f5200f5ff360024
:1039c40014c0b300010037000042eb00044078004b
:1039d4004f0478000080fa00000006000000fa009e
:1039e40024582100144278000482fb00550620006c
:1039f400850f52005f00320065062000850f5200db
:103a04002100320045062000850f520086003a004e
:103a140025ac8000840c2000848f520002003a0000
:103a240010c0b300c5f5070025ac8000940c20003d
:103a3400848f520002003a0010c0b30045f607001c
:103a440025ac8000a40c2000848f520002003a00b0
:103a540010c0b30098f607003458210014427800cf
:103a64000482fb0004007800fbf307001000200030
:103a7400ebf3070064c6b3000002fd0082f5b70053
:103a84000002fd006e003700245421001442780027
:103a9400e04f5200690032000042eb00040078005d
:103aa40042f5b7000000eb00ddf3070024ac800012
:103ab400950c2000850f520010003200a50c200048
:103ac400850f520017003200850c2000850f52002c
:103ad4001e003a00adf507000002780024aa880011
:103ae40024aa8000840078003000200098f90700a0
:103af400940c200024ac88001400370028f607003a
:103b04000002780024aa880024aa80008400780097
:103b1400400020008ef90700a40c200024ac88008b
:103b24000a00370077f607000002780024aa88000c
:103b340024aa8000840078005000200084f9070043
:103b4400840c200024ac88000000000024aa80001b
:103b5400e10f42000200320014002000f4a98800a2
:103b640054c6b3000002fd0082f5b7000002fd0058
:103b74003300370034aa8000b50c2000850f5200b2
:103b840007003200c50c2000850f52000d003200e2
:103b9400a50c2000850f5200130032001d003700d1
:103ba40044aa80008400780010c0b30082f50700a6
:103bb40000027800f4a988000002eb0034aa88000f
:103bc4001400370044aa80008400780010c0b300b9
:103bd400fef5070000027800f4a988000002eb005b
:103be40034aa88000b00370005aa800044aa80008c
:103bf400050178008400780010c0b3004cf607007b
:103c040000027800f4a988000002eb0034aa8800be
:103c14000000000044c6b3000002fd0082f5b700b6
:103c24000002fd000600370044c6b3000002fd0098
:103c340082f5b7000002fd0001003700000000001b
:103c44000080fa00000006000000fa00dff8070018
:103c5400004278000482fb00e40f5200810032002d
:103c6400e60f520017003200e30f52008d003a00b5
:103c7400246ea800200020008802070000027800bb
:103c8400e4a9880055ff0700f4a9800084007800a7
:103c94000000eb002ef90700e4a9800084007800fe
:103ca400200020002af9070004f707001000200074
:103cb400de060700246ea9000002eb00f4a98800c8
:103cc40078003700a7f60700246ea8004ef9070015
:103cd40000027800b4a9880050f9070000027800b7
:103ce400c4a98800b4a980006123b8000082eb0055
:103cf4008082eb000602420087824a00e600200030
:103d040007002000860f5200878f5a0048003e00ab
:103d1400040601000e003700470037004600370054
:103d240045003700440037004300370042003700a5
:103d34000f00370013003700170037001f0037004b
:103d44003d003700220037002900370030003700db
:103d5400a15321001000200008f90700d4a9800015
:103d640084007800100020001b0207003b0037008d
:103d7400b40c200034aa8800c4a9800044aa880096
:103d840036003700c40c200034aa8800c4a980007f
:103d940044aa880031003700c4a98000e10f520012
:103da40003003200c4a98000e00f520024003a004e
:103db400c4a9800004aa880028003700d40c20007d
:103dc40034aa8800c4a9800044aa880023003700cc
:103dd400c4a98000e10f52001b003a0010c0b300d8
:103de4008bf4070000027800f4a988001b00370058
:103df400c4a98000e10f520015003a0010c0b300be
:103e04009cf4070000027800f4a98800130037002e
:103e1400c4a98000e10f52000f003a0010c0b300a3
:103e2400adf4070000027800f4a988000b00370005
:103e34000000000009003700000000000700370000
:103e440000000000050037000000000003003700f8
:103e5400000000000100370000000000246ea900eb
:103e640010003700246ea80074ab80008400780032
:103e74000000eb00d9f8070094ab800084007800c0
:103e840010002000d5f80700a4ab8000840078005f
:103e940020002000d1f8070016f70700246ea900bf
:103ea400000000000080fa00000006000000fa0094
:103eb400b400200094ab880024002000a4ab880048
:103ec400a0ccb300e2f807009cf80700c503070084
:103ed4000af3070010c0b3004df407000002780095
:103ee400e00f520003003200f4a980000402e8004d
:103ef400f4a9880010c0b3005ef407000002780043
:103f0400e00f520003003200f4a980000402e8002c
:103f1400f4a9880010c0b3006ff407000002780011
:103f2400e00f520003003200f4a980000402e8000c
:103f3400f4a98800f4a980008400780060002000bf
:103f440083f8070040ff0700feff37000000fa0077
:103f54001ef80700004278000482fb00e40f5200c0
:103f640014013200e60f520078003200e30f5200d1
:103f740022013a00246ea80010002000c7010700a7
:103f840000027800f4a68800f4a68000840078007b
:103f9400100020006ef8070020002000bf01070079
:103fa4000002780004a7880004a780008400780039
:103fb4002000200066f8070030002000b701070049
:103fc4000002780014a7880014a7800084007800f9
:103fd400300020005ef8070040002000af01070019
:103fe4000002780024a7880024a7800084007800b9
:103ff4004000200056f8070050002000a7010700e9
:104004000002780034a7880034a780008400780078
:10401400500020004ef80700600020009f010700b8
:104024000002780044a7880044a780008400780038
:104034006000200046f80700700020009701070088
:104044000002780054a7880054a7800084007800f8
:10405400700020003ef80700800020008f01070058
:104064000002780064a7880064a7800084007800b8
:104074008000200036f80700900020008701070028
:104084000002780074a7880074a780008400780078
:10409400900020002ef80700a00020007f010700f8
:1040a4000002780084a7880084a780008400780038
:1040b400a000200026f80700b000200077010700c8
:1040c4000002780094a7880094a7800084007800f8
:1040d400b00020001ef80700c00020006f01070098
:1040e40000027800a4a78800a4a7800084007800b8
:1040f400c000200016f80700d00020006701070068
:1041040000027800b4a78800b4a780008400780077
:10411400d00020000ef80700e00020005f01070037
:1041240000027800c4a78800c4a780008400780037
:10413400e000200006f80700e0f50700100020006a
:10414400ba050700246ea900ac00370085f5070006
:10415400246ea8002cf807000002780094a98800b7
:1041640094a98000415321000400780003f807005b
:1041740094a980006123b8000082eb008082eb00e8
:104184000602420087824a00d60020000700200071
:10419400860f5200878f5a007f003e0004060100fc
:1041a4000d003700140037001b00370022003700d1
:1041b4002900370030003700370037003e00370051
:1041c400450037004c003700530037005a003700d1
:1041d4006100370068003700e14d21001000200025
:1041e400e6f70700f4a680008400780010002000a1
:1041f400f900070069003700014e2100200020006b
:10420400def7070004a78000840078002000200067
:10421400f100070061003700214e2100300020002a
:10422400d6f7070014a7800084007800300020002f
:10423400e900070059003700414e210040002000ea
:10424400cef7070024a780008400780040002000f7
:10425400e100070051003700614e210050002000aa
:10426400c6f7070034a780008400780050002000bf
:10427400d900070049003700814e2100600020006a
:10428400bef7070044a78000840078006000200087
:10429400d100070041003700a14e2100700020002a
:1042a400b6f7070054a7800084007800700020004f
:1042b400c900070039003700c14e210080002000ea
:1042c400aef7070064a78000840078008000200017
:1042d400c100070031003700e14e210090002000aa
:1042e400a6f7070074a780008400780090002000df
:1042f400b900070029003700014f2100a000200069
:104304009ef7070084a7800084007800a0002000a6
:10431400b100070021003700214f2100b000200028
:1043240096f7070094a7800084007800b00020006e
:10433400a900070019003700414f2100c0002000e8
:104344008ef70700a4a7800084007800c000200036
:10435400a100070011003700614f2100d0002000a8
:1043640086f70700b4a7800084007800d0002000fe
:104374009900070009003700814f2100e000200068
:104384007ef70700c4a7800084007800e0002000c6
:10439400910007000100370000000000a0c0b30036
:1043a4008d010700b0c0b3008b010700246ea90083
:1043b40012003700246ea80044ab8000840078000b
:1043c4000000eb0085f7070094ab800084007800c0
:1043d4001000200081f70700a4ab8000840078005f
:1043e400200020007df70700c2f507001000200020
:1043f4000e050700246ea900000000000080fa00ea
:10440400000006000000fa000080fa000000060028
:104414000000fa00a400200094ab880024002000cf
:10442400a4ab8800ca010700f6010700f5ff0700e6
:1044340042f70700c5fe0700feff37000000fa0040
:1044440041e2a9000128a9000148a9004382a9006a
:104454004362a9004342a8004322a9004302a900e1
:1044640042c2a90041a2a900041280000480a10054
:104474000490a10004a0a1000412880040c2a90075
:10448400141280000420a1000430a1000440a00004
:1044940014128800141280000400a1000410a1006a
:1044a4001412880045e2a9004402a90042a2a8000f
:1044b40045a2a8004422a90041e2a80041e2a800c4
:1044c4000002eb00441288000080fa00000006009d
:1044d4000400fa001007980065eea90010002000ff
:1044e40001002000b604070041e2a8004412800045
:1044f400040f78001e02900044128800000000009f
:104504000412800061026200e00f5200fcff3200de
:1045140040c2a90044128000140798001000200033
:1045240001002000a604070065eea8000080fa0040
:10453400000006000200fa000002eb00040f7800fd
:1045440065eea900051280000404200004826200c4
:10455400e00f52000300320044128000040f780080
:1045640040c2a9000002eb004412880000000000d1
:104574000412800061026200e00f5200fcff32006e
:1045840044128000040f780040c2a90065eea80020
:104594001e027800040078000080fa000000060083
:1045a4000400fa00100798001e009000c8ff0700de
:1045b400100020000100200081040700ddff070037
:1045c40000027800040f78001e02780004007800ce
:1045d4000080fa00000006000c00fa004007980072
:1045e400510798000002eb00040f78000002eb0072
:1045f400240798000002eb0034079800de029000c4
:10460400f40f200004826200340798005e029000d8
:104614004822de00240798000002eb0014079800eb
:10462400190037000002eb00040f78001e0290000e
:10463400e00f520002003a003e029000040f78009e
:104644001e029000e10f520002003a002e02900078
:10465400040f78004e0290000402420084027800a5
:104664001e029000048242000402e9004822dd0098
:104674001e0f42001e00780095ff07001e029000e6
:104684000402e800140798001e029000e10f520093
:10469400e4ff36000080fa00000006001000fa0073
:1046a400700798000002eb00340798000002eb004a
:1046b400440798000002eb00540798000002eb0046
:1046c400040f78000002eb00140798000002eb00ce
:1046d400640798000002eb002407980021003700cb
:1046e40004002800340798007e029000040242006f
:1046f400840278002e029000048242000402e90041
:10470400440798004e0290004822dd0054079800a8
:10471400be0290005e0290000482420034079800ba
:104724002e029000e00f520004003a003e00900078
:104734009bff070000027800040f78002e0290000f
:10474400e10f520004003a003e00900094ff07007d
:1047540000027800140798002e0290000402e8007a
:10476400240798002e029000e10f5200dcff36006f
:10477400f40f20009e0262001e0290004822dd0019
:1047840004824200640798006e02900004007800de
:104794000080fa00000006000000fa00a1e2a9006f
:1047a4000b48a9002b68a900a382a900a362a90051
:1047b400a342a900a322a800a302a800a2c2a900a0
:1047c400a1a2a900041580000480a1000490a10006
:1047d40004a0a10004158800a0c2a900141580003b
:1047e4000420a1000430a1000440a0001415880096
:1047f400141580000400a1000410a1001415880001
:10480400a5e2a900a402a900a2a2a800a1e2a8000e
:104814000080fa00000006000400fa002047980017
:104824002e4290000482fb004415880040062000bc
:1048340001002000e203070044158000044f7800c3
:10484400a0c2a9000080fa00000006000600fa00d9
:104854000002eb00040f78000042eb0024479800ac
:104864000002eb00240798000515800004042000d2
:1048740004826200e00f52000300320044158000fd
:1048840024079800a0c2a9000002eb004415880088
:10489400000000000415800061026200e00f520075
:1048a400fcff3200a0c2a9004415800024479800f0
:1048b4002e429000044078000080fa0000000600b8
:1048c4000800fa0040479800310798000002eb0006
:1048d40014079800350ea90060c0b300ceff07008e
:1048e400350ea8004001200001002000b403070099
:1048f400350ea90020c0b300c7ff07003e02900098
:104904004822de000442780004407800c2ff070019
:104914003e0290000442780004407800beff070085
:104924000002eb00040f7800200037004e42900094
:10493400ea4f520008003a003e0290000402d100ff
:104944001e0242008e82e800850078000400780090
:104954000af607000b0037004e429000eb4f52005e
:1049640008003a003e0290000410b1000402d10095
:104974001e0242008e82e800850078000400780060
:104984000af607001e0290004822de000442780066
:1049940004407800a0ff07001e0290000442780043
:1049a400044078009cff07001e0fe8001e027800f8
:1049b400ff0f5200ddff36005000200001002000f0
:1049c4007f030700350ea800a0002000970307000e
:1049d4000080fa00000006000400fa002047980056
:1049e4000002eb00040f78002e429000eb4f5200bf
:1049f40002003a0004102000040f78009e007800a2
:104a04002e409000aeff0700040420001e0f420059
:104a14009e0078002e409000a9ff070004042000a7
:104a24001e0f42009e0078002e409000a4ff070055
:104a3400040420001e0f42009e0078002e409000c7
:104a44009fff07000080fa00000006000400fa003f
:104a540010079800350ea90060c0b3006eff070070
:104a6400350ea80040012000010020005403070077
:104a7400350ea90020c0b30067ff07001e02900096
:104a84004822de00044278000440780062ff0700f8
:104a94001e02900004427800044078005eff070084
:104aa4000042eb00044f7800030037000040eb00a5
:104ab40059ff07001e4fe800f4c3b3009e4278007c
:104ac40084cf5200f9ff360050002000010020007e
:104ad4003b030700350ea800a00020005303070085
:104ae4000080fa00000006000600fa000002eb0055
:104af400040f78006022b800140798002507980076
:104b04000a0037001e007800d0ff070004042000cc
:104b14001e0f42001e029000ae029000610242008d
:104b2400e0824a0014079800250798001e039000ad
:104b3400ae039000f47c200005002000840f530095
:104b4400858f5b00efff36000080fa00000006004e
:104b54000600fa000042eb00244798000042eb00f4
:104b6400344798000002eb0024079800350ea90092
:104b740030c0b30028ff07002e0290004822de0058
:104b8400044278000440780023ff07002e029000be
:104b940004427800044078001fff07000002eb0085
:104ba400040f78001000370028ff07000042780047
:104bb4003447980025ff07000042780024479800f6
:104bc4003e4290000482fb00c822dd002e42900089
:104bd4000482fb0005027200840078001e00780045
:104be4005bf507001e0fe800c40720009e02780052
:104bf400848f5200ecff3600350ea8000080fa00c6
:104c0400000006000600fa000042eb00244798006a
:104c14000042eb0034479800041020002407980059
:104c2400350ea90030c0b300fbfe07002e02900031
:104c34004822de000442780004407800f6fe0700b3
:104c44002e0290000442780004407800f2fe07002f
:104c54000002eb00040f780010003700fbfe070091
:104c64000042780034479800f8fe070000427800bc
:104c7400244798003e4290000482fb00c822dd00d5
:104c84002e4290000482fb0005027200840078002a
:104c94001e00780051f507001e0fe800c40720002d
:104ca4009e027800848f5200ecff3600350ea80077
:104cb4000080fa00000006000400fa00008fbe0025
:104cc400d44280000400a1000410a0000420a0002d
:104cd400d44288003de1a9000688a9000002eb0047
:104ce400a40988003c21a9003cc1a900e409800072
:104cf4000440a1000450a100e40988003a61a9001d
:104d04001e02be0006202c0017002000860f520051
:104d1400878f5a00080032000680200077002000a8
:104d2400860f5200878f5a0006003a0004fa2000ca
:104d3400c40988000500370004e22400c40988007f
:104d44000200370004e22400c40988002688a80071
:104d54000080fa00000006000000fa0024428000ef
:104d640004c0a10004d0a00004e0a00024428800f4
:104d74000168a9002168a80021e2a8001408200005
:104d840044118800041180000480a1000490a10053
:104d940004118800041180000410a1000420a10063
:104da4000411880020a2a9002062a8002002a90002
:104db40023a2a90023e2a90023c2a9002342a80038
:104dc400141180000460a1000470a1001411880073
:104dd40000202c0011002000b7ff07000080fa001b
:104de400000006000000fa00744280000480a00065
:104df4000490a10004a0a1007442880003c8a90083
:104e040023c8a80064182000c411880031e2a80057
:104e1400841180000480a1000490a1008411880002
:104e2400841180000410a1000420a10084118800d2
:104e340030a2a9003062a9003002a90033a2a9005f
:104e440033e2a90033c2a9003342a80094118000c0
:104e54000460a1000470a100941188000080fa008d
:104e6400000006000200fa00004f78009e4278001d
:104e74000582fb00a4118800000000009511800049
:104e84000410200004826200e00f5200fbff320095
:104e94000080fa00000006000200fa00000f78000b
:104ea400050037001e027800144278001e0fe80047
:104eb40004407800ebff07001e02780014427800db
:104ec400e04f5200f7ff3a000080fa0000000600ad
:104ed4000000fa00d0c0b300e2ff0700a0c0b30096
:104ee400e0ff07000080fa00000006000200fa005c
:104ef400004f78009e4278000582fb002411880050
:104f040000000000151180000410200004826200db
:104f1400e00f5200fbff32000080fa0000000600a0
:104f2400801f7800849fbe00861f78003200f8003e
:104f34000020200090018800000000000000fa001a
:104f4400058080003411800004427800260021008e
:104f540006834200044b78000502e80004808800c0
:104f64000168a9000445210014427800e04f520072
:104f740009003a000002eb00a40988000688a90091
:104f840014c0b3000002fd0050f4b7000002fd009d
:104f94003de1a800020037000002eb00a4098800ec
:104fa4000080fa003200f9004f0378004f02be007f
:104fb4004f00780000400600801f7800849fbe00e8
:104fc400861f78003200f80000202000900188003d
:104fd400000000000000fa00144d21001442780083
:104fe4000483fb00b41180000442780015452100bd
:104ff40085024300844a7800144d2100144278004d
:105004000442e80004007800d1f4b70003c8a90002
:105014000080fa003200f9004f0378004f02be000e
:105024004f00780000400600801f7800841f78003d
:105034003200f800002020009001880000000000e9
:105044000000fa003de1a9000042eb0004007800f2
:1050540050f4b7000002eb00a409880014c0b300a8
:1050640004007800b2f3b7000688a9000080fa00b3
:105074003200f9004f0278004f007800004006002b
:105084000000fa00d1f30700004278000482fb001c
:10509400e40f520098003200e60f5200090032007b
:1050a400e30f5200a4003a00e2f70700246ea800c0
:1050b40002f2070010002000dc010700246ea900a2
:1050c4009d003700a7f10700246ea8004ef40700e6
:1050d40000027800f4ab8800f4ab80000158210092
:1050e4000400780025f40700f4ab80006123b800c5
:1050f40044ff2f00f5ff2f000602420087824a007a
:10510400c601200007002000860f5200878f5a0036
:1051140064003e00040601001c0037002200370032
:1051240028003700610037002c0037005f0037008b
:105134005e0037005d0037005c0037005b0037001d
:105144005a0037005900370058003700570037001d
:10515400560037005500370054003700530037001d
:10516400270037002c003700500037004f0037006d
:105174004e0037003c003700400037004b0037003a
:105184004a003700490037004400370005ac80006e
:10519400f4042000848f520046003e0004ac8000da
:1051a400d49e88004e00370005ac800084022000a5
:1051b400848f520041003e0004ac8000f49e8800bd
:1051c4004700370004ac8000e90f52003d003e0068
:1051d40004ac8000c49e88004100370004ac800009
:1051e400e10f52000300320004ac8000e00f5200d3
:1051f40036003a0004ac8000049f88003800370071
:1052040004ac8000e90f520032003e0004ac800080
:10521400149f88003200370004ac8000040078003a
:10522400b9f607000002780084007800000220002c
:10523400c7f307002bf80700000278008400780009
:10524400a0002000c2f307001ef707008000eb0057
:10525400e0012000bef307008000eb00f001200015
:10526400bbf307001e00370004ac8000e10f5200be
:105274001a003a00d7f6070019003700a158210098
:1052840040022000bdf3070054ac80008400780085
:1052940040022000d0fc07001100370035f8070059
:1052a4000f003700000000000d0037000000000070
:1052b4000b00370000000000090037000000000068
:1052c4000700370000000000050037000000000060
:1052d4000300370000000000010037000000000058
:1052e400a0c0b300bcfd0700b0c0b300bafd070006
:1052f400246ea90010003700246ea80054ab80006f
:10530400840078000000eb00b4f3070094ab800045
:105314008400780010002000b0f30700a4ab8000e4
:105324008400780020002000acf30700f1f10700ae
:10533400246ea900000000000080fa0000000600ae
:105344000000fa00049f8000e10f520020003a00a0
:10535400c49e8000c13d21000400780087f307004b
:10536400e59e800044062000110009008482d800d4
:105374000002780084027800d49e8000848f52005a
:105384000400390064cea900244ea9000002eb00f9
:10539400b49e8800e59e80004406200011000900a8
:1053a4008482d8000002780084027800d69e8000af
:1053b400f49e800004025300848f520004003100e4
:1053c40064cea800244ea80014002000b49e8800d7
:1053d400049f8000e00f520004003a0064cea9004c
:1053e400244ea9000002eb00b49e88000080fa005d
:1053f400000006000000fa00a400200094ab88001e
:1054040024002000a4ab8800d1fd0700fdfd0700a7
:10541400d2f5070046f7070090ccb3008cf30700e1
:1054240046f3070016ff0700c5ff0700fdff37001e
:105434000000fa0004002300243a88000002eb0074
:10544400443a88000002eb00743a8800e402200029
:10545400343a88004420a90044c0a90044e0a900cb
:105464004480a9003600200084072000a5092000fc
:1054740037742000844b7800854b7800864b780085
:105484001600200064042000750520002774200005
:10549400844b7800854b7800864b78000000000030
:1054a400143a800061026200e00f5200fcff3a00ef
:1054b4000080fa00000006000000fa000002eb0081
:1054c400747088000002eb00f47088000002eb00a6
:1054d400747188000002eb00f47188000002eb0094
:1054e400747288000002eb00747388000082eb0081
:1054f400047088000082eb0064708800108ea8009d
:1055040010aea8001c8ea8001caea800110ea800a6
:10551400110ea8001d0ea8001d2ea800400ea90003
:10552400402ea900404ea900406ea900408ea9005b
:1055340040aea90040cea90040eea900502ea9001b
:10554400504ea900506ea900508ea900100ea9005b
:10555400410ea90010cea90010eea900202ea9002a
:10556400204ea900206ea900208ea900600ea8007c
:10557400602ea90060cea90061cea90061aea90089
:10558400618ea80061eea90030cea90030eea9001a
:10559400310ea900312ea800412ea800500ea900fa
:1055a400118ea800518ea90051aea900153a8000b1
:1055b400f4fb2f00048362006404200075052000be
:1055c40027742000844b7800854b7800864b780044
:1055d4007534800004fc2f00048262000400a000e3
:1055e400743488002536800004f82f008482620019
:1055f400940520000502720024368800b53480002a
:10560400f40f2c0084826200043020000502720032
:10561400b43488003536800004f82f008482620098
:10562400c40220000502720034368800453680002a
:1056340004f82f0084826200c4072000050272006f
:1056440044368800f534800004fc2f000482620094
:105654006400b300f434880045368000f40f280059
:105664008482620004e02700050272004436880048
:10567400e5348000f40f2c00848262000450200082
:1056840005027200e4348800d536800004f82f0047
:10569400848262009404200005027200d4368800db
:1056a4003534800004fc2f00848262000402200050
:1056b4000502720034348800d5368000f40f2800c7
:1056c400848262000460240005027200d4368800db
:1056d40035348000f40f2c008482620004f0210031
:1056e4000502720034348800153a80000404200056
:1056f400040378000503730064042000750520008a
:1057040027742000844b7800854b7800864b780002
:105714000080fa00000006000000fa0044ff0700c1
:1057240065ff07001a000700248ea800140ea800c5
:10573400450ea900350ea80065eea8003ffb070042
:1057440015fc0700a400200054ab8800b40020001e
:1057540044ab8800c400200074ab8800d40020004f
:1057640084ab8800e400200064ab88000080fa0069
:10577400000006000000fa00e7ff0700cbf907006d
:105784000002eb00040078000080fa00000006002c
:105794000000fa000002eb008409880024032000c2
:1057a400b409880004002800d40988000668a90008
:1057b4002668a9003be1a8000080fa00000006006a
:1057c4000800fa0020079800310798006022b8000a
:1057d400048fbe000d0037003be1a800000000006c
:1057e4003440800068026200e00f5200fcff320087
:1057f4000668a9000002eb00840988001400200058
:10580400050020001e0f42005e974a002e02900001
:10581400be0290001e03be00840f5300858f5b0000
:10582400edff39000080fa00000006000800fa00cd
:10583400300798000002eb00040f78001b003700cb
:105844006022b80014079800250798000f0037005d
:105854003be1a800000000003440800068026200c0
:10586400e00f5200fcff32000668a9000002eb00c2
:10587400840988001e029000ae029000610242007a
:10588400e0824a0014079800250798001e03900040
:10589400ae039000743e200005002000840f5300e6
:1058a400858f5b00eaff36001e0fe8003e02900081
:1058b4009e027800848f5200e1ff39000080fa00d4
:0458c40000000600da
:020000040000fa
:1058c8008a1500000200000082000000aaaa000059
:1058d8007e1500000400000080000000de140000b7
:1058e800580000008000000036150000320000005b
:1058f8008000000082150000040000008200000003
:105908006414c800000000008615000004000000b0
:1059180080000000b41300009c000000800000001c
:105928008c150000020000008200000064000000e6
:10593800761500000800000080000000001000003c
:10594800b4030000800000008e1500000200000073
:1059580082000000f7c90000501400008e0000000b
:1059680080000000681500000e00000080000000a4
:04597800000000002b
:020000040000fa
:0200000401f009
:04000800cfffff0027
:020000040000fa
:0200000401f009
:04000c00fbffff00f7
:020000040000fa
:0200000401f009
:04001000beffff0030
:020000040000fa
:0200000401f009
:040014007fffff006b
:020000040000fa
:0200000401f009
:04001800ffffff00e7
:020000040000fa
:0200000401f009
:04001c00dfffff0003
:020000040000fa
:0200000401f009
:04002000cfffff000f
:00000001FF
