:020000040000fa
:080000000002040000000000f2
:020000040000fa
:10000800e2020000e2020000e2020000e202000058
:10001800e2020000e2020000e2020000e202000048
:10002800e2020000e2020000e2020000e202000038
:10003800e2020000e2020000e2020000e202000028
:10004800e2020000e2020000e2020000e20c00000e
:10005800e2020000e2020000e2020000e202000008
:10006800e2020000e2020000e2020000e2020000f8
:10007800e2020000e2020000e2020000e2020000e8
:10008800e2020000e2020000e2020000e2020000d8
:10009800e2020000e2020000940d0000e20200000b
:1000a800e2020000e2020000e2020000e2020000b8
:1000b800e2020000e2020000e2020000e2020000a8
:1000c800e2020000e2020000e2020000e202000098
:1000d800e2020000e2020000e2020000e202000088
:1000e800e2020000e2020000e2020000e202000078
:1000f800e2020000e2020000e2020000e202000068
:10010800e2020000e2020000e2020000e202000057
:10011800e2020000e2020000e2020000e202000047
:10012800e2020000e2020000e2020000e202000037
:10013800e2020000e2020000e2020000e202000027
:10014800e2020000e2020000e2020000e202000017
:10015800e2020000e2020000e2020000e202000007
:10016800e2020000e2020000e2020000e2020000f7
:10017800e2020000e2020000e2020000e2020000e7
:10018800e2020000e2020000e2020000e2020000d7
:10019800e2020000e2020000e2020000e2020000c7
:1001a800e2020000e2020000e2020000e2020000b7
:1001b800e2020000e2020000e2020000e2020000a7
:1001c800e2020000e2020000e2020000e202000097
:1001d800e2020000e2020000e2020000e202000087
:1001e800e2020000e2020000e2020000e202000077
:1001f800e2020000e2020000e2020000e202000067
:10020800e2020000e2020000e2020000e202000056
:10021800e2020000e2020000e2020000e202000046
:10022800e2020000e2020000e2020000e202000036
:10023800e2020000e2020000e2020000e202000026
:10024800e2020000e2020000e2020000e202000016
:10025800e2020000e2020000e2020000e202000006
:020000040000fa
:100400004f3b21000eff27000e0188000000000076
:10041000000020000000e000020032000001200087
:10042000200288000c00070040202100010020006d
:100430000f000700000020000000e0000200320072
:100440000000020000000000241002000000000074
:100450000040da000000fe00600220000000e00022
:1004600002003200002020009001880000000600f9
:10047000a1028800800078000000eb001a0037001d
:10048000e280400054a0b4009101ba00e280400034
:1004900054a0b4009102ba00e280400054a0b4001d
:1004a0000002eb00472bde00f507b200a601880032
:1004b000602ce10008003a000049eb000201e8006e
:1004c000020039003420ec0002f0a0008301e900b2
:1004d000f9ff3e00040037006128e100010032000e
:1004e0000082eb00040007001101ba000200e000e6
:1004f000e3ff3a000000060004d0a300e20f490029
:100500001c003900810278003549ba000201e80078
:10051000020039003420ec0002f0a0008301e90061
:100520000f0032002549ba000201e800020039003c
:100530003420ec0002f0a0008301e9000800320042
:100540000400e0000600320015c9ba000201e8000c
:10055000020039003420ec0002f0a0008301e90021
:100560008180e80054a0b4000300e000e2ff3a00fc
:10057000000006009102ba00055978008301e900e5
:10058000f7ff3200c82ade00055978008301e90030
:10059000f3ff32000400e000f1ff320011d9ba008d
:1005a000eeff370038110400000000008c1004003a
:1005b00000000000ac10040000000000c4100400a3
:0c05c000000000000040da000000fe0017
:020000040000fa
:1005cc002f000000310000006833000030300000c4
:1005dc0030310000520000002f3100006832000062
:1005ec003030000030300000520000006831000054
:1005fc003030000030300000520000003f5200004c
:0c060c000041000000520000000000004f
:020000040000fa
:100618000200fa00004f78001e427800e14f5200b5
:1006280002003a002168a800010037002168a900eb
:100638000080fa00000006000200fa00004f78006f
:100648001e427800e34f52000c003a000000eb0015
:100658008300070000427800e04f52000400320097
:1006680010c0b300da06070000027800e48d8800a5
:10067800a00020007e040700242ea9001e42780056
:10068800e44f520010003a00242ea800143b210029
:10069800144278000482fb00b4958800343b2100a2
:1006a800144278000482fb00c4958800243b210092
:1006b800144278000482fb00d4958800a000200032
:1006c8006b040700242ea9001e427800e64f520052
:1006d80033003a00b48d80006123b8000082eb003b
:1006e8008082eb000602420087824a00b6002000a2
:1006f80007002000860f5200878f5a0023003e0013
:1007080004060100230037000a00370021003700e3
:10071800200037001f0037001e0037001d0037007b
:100728001c0037001b0037000c0037000f00370093
:1007380012003700058e800084bb2000848f520091
:1007480016003e0085132100048e80008400780086
:10075800100020000500010011003700c408210026
:1007680010002000040001000d003700c40a210019
:10077800100020000400010009003700440c21008b
:1007880010002000040001000500370000000000f0
:1007980003003700000000000100370000000000df
:1007a8000080fa00000006000200fa000042eb0098
:1007b800044f78000f0037009e4278000582fb0046
:1007c80084024200c41b2100048242008002eb0024
:1007d800050a78009e4278000582fb0084024200e8
:1007e800642b2100048242008002eb00050a780095
:1007f8001e4fe800b4c7b3009e42780084cf520071
:10080800edff36000080fa00000006000200fa0042
:100818000002eb00040f780005003700c402210035
:100828009e0242000042eb00844a78001e0fe80056
:10083800d40720009e027800848f5200f7ff34000e
:100848000042eb00040078002af0b7000042eb00f9
:10085800040078002bf0b7000080fa0000000600c2
:100868000600fa00200798000042eb00044f7800c9
:10087800b48d8000140798000a0037009e0290008b
:100888002e029000848f520003003a0014c0b30077
:10089800044f7800070037001e0290000402e800a9
:1008a80014079800c48580009e029000848f52002f
:1008b800f2ff36001e427800044078000080fa00fb
:1008c800000006000200fa00004f7800a402210090
:1008d800144278000442e800040078002af0b700c7
:1008e800a4022100144278008482fb00c402210083
:1008f800048242001e4a78000080fa0000000600c8
:100908000200fa00b502210095427800a4022100f5
:100918001442780084cf52000e003100b402210046
:10092800144278000442e8000002fd002bf0b700f2
:100938000002fd00b4022100144278008482fb000a
:10094800c40221000482420014427800044f780057
:100958000200370084c7b300044f7800a5022100c5
:1009680095427800b40221001442780084cf5200e6
:100978000b003a00a502210095427800e4c7b300b5
:1009880084cf5200060036000042eb0004007800d5
:100998002af0b7000042eb00040078002bf0b70003
:1009a8001e427800044078000080fa00000006002b
:1009b8000a00fa0030079800410798000082eb000f
:1009c800040f78000002eb0014079800200037009d
:1009d8001e029000be029000048242001442780079
:1009e8000482fb001e0f6a00840020002407980080
:1009f800110037001e02780061026200044278008c
:100a0800e04f5200060032001e0278000402d100b6
:100a1800040f780014002a001e0f6a000300370034
:100a28001e0278000402d100040f78002e02900004
:100a38000402e900240798002e029000e00f5200fb
:100a4800ecff3a001e0290000402e8001407980028
:100a58009e0290004e029000848f5200dcff390005
:100a68001e027800c822dd004822de00048f7200d2
:100a78001e027800040078000080fa0000000600da
:100a88000000fa00143b21001442780004007800aa
:100a9800baf0b70064c0b30004007800bbf0b70038
:100aa800a48580004822de00044278000400780013
:100ab800bcf0b700a48580000442780004007800e8
:100ac800bdf0b700d48d80004822de0004427800d3
:100ad80004007800bef0b700d48d8000044278008e
:100ae80004007800bff0b70061002000a00b2100cf
:100af800afff070000027800a48d880023c8a90072
:100b0800450ea800143b21001442780004407800e8
:100b18009d03070060c0b3009b030700a485800005
:100b28004822de000442780004407800960307005b
:100b3800a4858000044278000440780092030700ee
:100b4800d48d80004822de000442780004407800fa
:100b58008d030700d48d800004427800044078009b
:100b680089030700a48d80004822de000442780033
:100b78000440780084030700a48d800004427800b4
:100b88000440780080030700450ea90023c8a80088
:100b98000080fa00000006000400fa00b48d80000e
:100ba800c48d8800143b2100144278000002fd0027
:100bb800baf0b7000002fd0034c0b3000002fd0027
:100bc800bbf0b7000002fd00c48580000442780035
:100bd800044242000002fd00bcf0b7000002fd0024
:100be80034c0b300044f78000042eb00144798006b
:100bf8001f0037001e4278000483fb00b48d80007c
:100c080084024200c41b21000482420014027800be
:100c18004822de0004427800a50b2100850243002b
:100c2800844a78001e4fe8001e4278000483fb00c7
:100c3800b48d800084024200c41b2100048242005b
:100c48001402780004427800a50b210085024300b5
:100c5800844a78001e4fe800b48d80000402e80042
:100c6800b48d88001e4290000442e80014479800a2
:100c78001e4290008482fb00c4858000848f52004d
:100c8800dcff3900c4858000040242006302420090
:100c980084007800a00b210045ff070000027800bf
:100ca800a48d8800450ea800143b2100144278004a
:100cb800044078003403070030c0b3003203070053
:100cc800c485800004427800044242000440780051
:100cd8002d0307000042eb00244798001700370057
:100ce800c48d800084024200c41b2100048242009b
:100cf800140278004822de0004427800044078009c
:100d080021030700c48d800084024200c41b210017
:100d180004824200140278000442780004407800fb
:100d280019030700c48d80000402e800c48d880000
:100d38002e4290000442e800244798002e4290007a
:100d48008482fb00c4858000848f5200e4ff390050
:100d5800a48d80004822de00044278000440780018
:100d680009030700a48d800004427800044078003d
:100d780005030700450ea9000080fa0000000600e0
:100d88000400fa00b48d8000c48d8800143b210053
:100d9800144278000002fd00baf0b7000002fd001e
:100da80044c0b3000002fd00bbf0b7000002fd0024
:100db800c485800004427800044242000002fd001d
:100dc800bcf0b7000002fd0034c0b300044f780047
:100dd8000042eb00144798001f0037001e427800bd
:100de8000483fb00b48d800084024200642b210040
:100df80004824200140278004822de00044278008f
:100e0800a50b210085024300844a78001e4fe800a4
:100e18001e4278000483fb00b48d800084024200e7
:100e2800642b2100048242001402780004427800f6
:100e3800a50b210085024300844a78001e4fe80074
:100e4800b48d80000402e800b48d88001e42900032
:100e58000442e800144798001e4290008482fb0078
:100e6800c4858000848f5200dcff3900c48580006f
:100e7800040242006302420084007800a00b2100b3
:100e8800cbfe070000027800a48d8800450ea8005c
:100e9800143b21001442780004407800ba0207008d
:100ea80040c0b300b8020700c4858000044278003f
:100eb8000442420004407800b30207000042eb00fd
:100ec8002447980017003700c48d80008402420030
:100ed800642b210004824200140278004822de00bc
:100ee8000442780004407800a7020700c48d8000ff
:100ef80084024200642b210004824200140278001c
:100f080004427800044078009f020700c48d8000e6
:100f18000402e800c48d88002e4290000442e800d4
:100f2800244798002e4290008482fb00c4858000ec
:100f3800848f5200e4ff3900a48d80004822de002f
:100f480004427800044078008f020700a48d8000d6
:100f580004427800044078008b020700450ea9007f
:100f68000080fa00000006000200fa00004f780036
:100f7800143b21001442780004007800baf0b7004e
:100f8800250b21009542780004c8b30004c2720002
:100f980004007800bbf0b70014c0b3000400780068
:100fa800bcf0b70031002000a00b210080fe070034
:100fb80000027800a48d8800450ea800143b21008b
:100fc80014427800044078006f020700250b2100c6
:100fd8009542780004c8b30004c272000440780047
:100fe800690207001e40780067020700a48d800090
:100ff8004822de00044278000440780062020700bc
:10100800a48d800004427800044078005e02070046
:10101800450ea9000080fa00000006000200fa0050
:10102800004f7800143b2100144278000400780037
:10103800baf0b700a48580004822de000442780098
:1010480004007800bcf0b700a48580000442780052
:1010580004007800bdf0b70061002000a00b21005b
:1010680053fe070000027800a48d8800a58d80003b
:10107800b4858000848f520007003a001e40780033
:10108800b3f0b700a4c0b3000002fd00b0f3b7008e
:101098000002fd0003003700a4c0b300040078007c
:1010a800b0f3b7000042eb0004007800b1f0b700dd
:1010b8000080fa00000006000000fa001001370066
:1010c8000ffe0700004278000002fd00b2f0b700f2
:1010d8000002fd00043b2100144278000482fb005a
:1010e8006123b90064ff2f00f5ff2f0006024200bc
:1010f80087824a003600200007002000860f520031
:10110800878f5a00f8003e000406010003003700ec
:101118000d003700520037005d003700250b210015
:1011280095427800143b21001442780084cf520085
:10113800f2003a00b4c0b3000002fd00b0f3b700fb
:101148000002fd00ee003700240b21001442780055
:101158000482fb00e40f52002a003200e60f52001e
:1011680013003200e30f520037003a0014c0b300f6
:101178000002fd00acf0b7000002fd000002eb0029
:10118800c48588000002eb00d48d88000042eb0083
:101198000002fd00aff0b7000002fd00c4c0b300bc
:1011a8000002fd00b0f3b7000002fd002b0037007d
:1011b80014c0b3000002fd00acf0b7000002fd004f
:1011c80014c0b3000002fd00aef0b7000002fd003d
:1011d8000002eb00c48588000002eb00d48d880073
:1011e8000042eb000002fd00aff0b7000002fd0076
:1011f800c4c0b3000002fd00b0f3b7000002fd0058
:101208001600370014c0b3000002fd00acf0b700b0
:101218000002fd000002eb00c48588000002eb001c
:10122800d48d880014c0b3000002fd00aff0b700f1
:101238000002fd00c4c0b3000002fd00b0f3b70017
:101248000002fd0005003700a4c0b3000002fd0045
:10125800b0f3b7000002fd00a9003700a80037006e
:10126800240b2100144278000482fb00b485880016
:10127800b48580004822dd00b4858800d4c0b3005e
:101288000002fd00b0f3b7000002fd009c0037002b
:10129800240b2100144278008482fb00b48580006e
:1012a80005027200b4858800c40a2100144278003f
:1012b800e04f52001a003200b4858000a4858800ef
:1012c8000042eb000002fd00acf0b7000002fd0098
:1012d800e40a210014427800e04f52000500320071
:1012e8000042eb000002fd00b0f0b7000002fd0074
:1012f8000400370014c0b3000002fd00b0f0b700ce
:101308000002fd00c4c0b3000002fd00b0f3b70046
:101318000002fd000002eb00b48588007800370069
:10132800e40a210014427800e04f52000f00320016
:10133800b4858000d48d88000042eb000002fd00d7
:10134800aef0b7000002fd0064c0b3000002fd006b
:10135800b1f0b7000002fd00c4c0b3000002fd00f8
:10136800b0f3b7000002fd0065003700040b210050
:1013780014427800e04f52001e003200b58580000c
:10138800c4072000848f520011003e00b4858000fd
:10139800c4858800f40a210014427800e04f520006
:1013a80002003a0034c0b3000100370044c0b30063
:1013b8000002fd00b1f0b7000002fd00c4c0b30098
:1013c8000002fd00b0f3b7000002fd000400370082
:1013d800a4c0b3000002fd00b0f3b7000002fd0096
:1013e8000042eb000002fd00b0f0b7000002fd0073
:1013f80043003700140b2100144278000482fb00dc
:10140800e40f520014003200e60f520003003200cd
:10141800e30f52001f0032002d00370064c0b300f4
:1014280004007800bbf0b700d48d80004822de00ad
:101438000442780004007800bef0b700d48d800024
:101448000442780004007800bff0b70060c0b30021
:10145800f2fe07002300370044c0b3000400780000
:10146800bbf0b700c48580004822de000442780043
:1014780004007800bef0b700c485800004427800fc
:1014880004007800bff0b70040c0b300e3fe0700d7
:101498001400370034c0b30004007800bbf0b70074
:1014a800c48580004822de000442780004007800e9
:1014b800bef0b700c48580000442780004007800bc
:1014c800bff0b70030c0b300d4fe070005003700f6
:1014d800a4c0b3000002fd00b0f3b7000002fd0095
:1014e8000700370006003700a4c0b3000002fd0063
:1014f800b0f3b7000002fd00010037000000000053
:10150800b502210095427800a40221001442780017
:1015180084cf5200eafe39000080fa00000006007d
:101528000000fa00e4fe0700a4858000b48d88005e
:10153800340b210014427800e34f52000c003a00ab
:10154800244ea80030c0b3003bfc070092fd070002
:101558000042eb000002fd00b3f0b7000002fd00fe
:10156800aafc0700a0002000c1000700244ea90023
:10157800340b210014427800e64f520012003a0062
:10158800244ea800b48d8000d58d8000040342004d
:10159800c41b210004024300050a780060c0b300a0
:1015a80025fc070036fd07000042eb000002fd00a5
:1015b800b3f0b7000002fd0094fc0700a000200073
:1015c800ab000700244ea900340b21001442780018
:1015d800e44f52000c003a00244ea80040c0b3006b
:1015e80015fc0700e6fd07000042eb000002fd00c5
:1015f800b3f0b7000002fd0084fc0700a000200043
:101608009b000700244ea9000080fa000000060095
:101618000000fa0004002300243a88000002eb00ce
:10162800443a88000002eb00743a8800e402200083
:10163800343a88004420a90044c0a90044e0a90025
:101648004480a9003600200084072000a509200056
:1016580037742000844b7800854b7800864b7800df
:10166800160020006404200075052000277420005f
:10167800844b7800854b7800864b7800000000008a
:10168800143a800061026200e00f5200fcff3a0049
:101698000080fa00000006000000fa000002eb00db
:1016a800747088000002eb00f47088000002eb0000
:1016b800747188000002eb00f47188000002eb00ee
:1016c800747288000002eb0074738800100ea90081
:1016d80010cea90010eea900202ea900204ea900c6
:1016e800206ea900208ea900602ea900600ea80017
:1016f80061cea90061aea900618ea80061eea900c3
:1017080030cea900310ea80010aea900412ea800c5
:10171800500ea900118ea800518ea90051aea90043
:10172800410ea900153a8000f4fb2f0004836200e3
:10173800640420007505200027742000844b78007d
:10174800854b7800864b78007534800004fc2f00a8
:10175800048262000400a0007434880025368000ea
:1017680004f82f00848262009405200005027200ac
:1017780024368800b5348000f40f2c00848262007f
:101788000430200005027200b43488003536800029
:1017980004f82f0084826200c4022000050272004f
:1017a80034368800153a80000404200004037800c9
:1017b80005037300640420007505200027742000c9
:1017c800844b7800854b7800864b78000080fa00bf
:1017d800000006000000fa000002eb0084098800ff
:1017e80024032000b409880004002800d4098800d4
:1017f8000668a9002668a9003be1a8000080fa0055
:10180800000006000800fa00200798003107980039
:101818006022b800048fbe000d0037003be1a8002d
:10182800000000003440800068026200e00f5200af
:10183800fcff32000668a9000002eb00840988005a
:1018480014002000050020001e0f42005e974a0089
:101858002e029000be0290001e03be00840f5300ab
:10186800858f5b00edff39000080fa00000006005c
:101878000800fa00300798000002eb00040f780017
:101888001b0037006022b80014079800250798004d
:101898000f0037003be1a800000000003440800042
:1018a80068026200e00f5200fcff32000668a900df
:1018b8000002eb00840988001e029000ae0290002e
:1018c80061024200e0824a00140798002507980048
:1018d8001e039000ae039000743e20000500200017
:1018e800840f5300858f5b00eaff36001e0fe80067
:1018f8003e0290009e027800848f5200e1ff39007a
:101908000080fa00000006000000fa00244280006f
:1019180004c0a00004d0a00004e0a0002442880075
:101928000168a9002168a800040220004411880069
:1019380021e2a800041180000480a1000490a10005
:1019480004118800041180000410a1000420a100e3
:101958000411880020a2a9002062a8002002a90082
:1019680023a2a90023e2a90023c2a9002342a800b8
:10197800141180000460a1000470a10014118800f3
:101988000080fa00000006000200fa00004f78000c
:101998009e4278000582fb002411880000000000a8
:1019a800151180000410200004826200e00f52002c
:1019b800fbff32000080fa00000006003600f80045
:1019c800809fbe00829fbe00849fbe00869fbe008f
:1019d8003200f8000020200090018800000000007c
:1019e8000000fa00341180000442780004407800b6
:1019f800b4fb07000168a9000080fa003200f90072
:101a08004f03be004f02be004f01be004f00be0094
:101a18003600f900004006000000fa007442800019
:101a28000480a1000490a00004a0a00074428800d3
:101a380003c8a90023c8a80064182000c41188009e
:101a480031e2a800841180000480a1000490a10064
:101a580084118800841180000410a1000420a100d2
:101a68008411880030a2a9003062a9003002a900c0
:101a780033a2a90033e2a90033c2a9003342a80067
:101a8800941180000460a1000470a10094118800e2
:101a98000080fa00000006000200fa00004f7800fb
:101aa8009e4278000582fb00a41188000000000017
:101ab800951180000410200004826200e00f52009b
:101ac800fbff32000080fa00000006000200fa0066
:101ad800000f7800050037001e02780014427800d5
:101ae8001e0fe80004407800ebff07001e02780094
:101af80014427800e04f5200f7ff3a000080fa00e5
:101b0800000006000000fa00d0c0b300e2ff0700a2
:101b1800a0c0b300e0ff07000080fa000000060044
:101b2800801f7800849fbe00861f78003200f8006e
:101b38000020200090018800000000000000fa004a
:101b4800e4012100144278000483fb00b4118000f2
:101b5800044278000500210085024300844a780089
:101b6800e4012100144278000482fb00ea024200ea
:101b7800e4012100144278000483fb0004002100e2
:101b880004024300144278000483fb00858242006b
:101b9800642b210004824200060a7800e401210037
:101ba800144278000442e800040078001ef0b700f0
:101bb80003c8a9000080fa003200f9004f0378003a
:101bc8004f02be004f007800004006000000fa00f7
:101bd80061e2a9000408a9000428a9006382a900f9
:101be8006362a9006342a9006322a8006302a900f6
:101bf80062c2a90061a2a900041380000480a100a8
:101c08000490a10004a0a1000413880060c2a900e8
:101c1800141380000420a1000430a0000440a00098
:101c280014138800141380000400a1000410a000fd
:101c38001413880065e2a9006402a90062a2a80042
:101c480061e2a8000080fa00000006000400fa0023
:101c5800204798000042eb00044f780060c2a900ba
:101c68002e4290000482fb0044138800000000000c
:101c78000413800061026200e00f5200fcff320092
:101c880044138000044f78000080fa00000006002a
:101c98000400fa000002eb00040f780000c2eb0019
:101ca8002447980060c2a9000002eb004413880092
:101cb800050037001e0fe800240320009e0278006c
:101cc800848f520005003e00041380006102620008
:101cd800e00f5200f7ff320001003700000000005b
:101ce8000413800061026200e00f5200030032001a
:101cf80060c2a90044138000244798002e42900037
:101d0800044078000080fa00000006000000fa0095
:101d1800a1e2a9000b48a9002b68a900a382a90089
:101d2800a362a900a342a900a322a800a302a800b5
:101d3800a2c2a900a1a2a900041580000480a100e4
:101d48000490a10004a0a10004158800a0c2a90065
:101d5800141580000420a1000430a1000440a00054
:101d680014158800141580000400a1000410a100b7
:101d780014158800a5e2a900a402a900a2a2a8003f
:101d8800a1e2a8000080fa00000006000400fa00a2
:101d9800204798002e4290000482fb0044158800da
:101da800000000000415800061026200e00f52008c
:101db800fcff320044158000044f7800a0c2a9003f
:101dc8000080fa00000006000600fa000002eb009e
:101dd800040f780000c2eb00244798000002eb00d3
:101de800240798000515800004042000048262007e
:101df800e00f5200030032004415800024079800c9
:101e0800a0c2a9000002eb004415880000000000f1
:101e18000415800061026200e00f5200fcff3200ee
:101e2800a0c2a90044158000244798002e429000c3
:101e3800044078000080fa00000006000400fa0060
:101e48001007980014aea90060c0b300cfff0700c8
:101e580014aea800400120000100200069fe070020
:101e680014aea90020c0b300c8ff07001e029000ee
:101e78004822de000442780004407800c3ff0700cf
:101e88001e0290000442780004407800bfff07005b
:101e98000042eb00044f78001a0037001e42780019
:101ea8008482fb001e0290000402d10004824200da
:101eb80084024200c41b21000482420014027800fc
:101ec8004822de000442780004407800afff070093
:101ed8001e4278008482fb001e0290000402d1009a
:101ee8000482420084024200c41b21000482420092
:101ef800140278000442780004407800a3ff070029
:101f08001e4fe8001e427800ff4f5200e3ff3600e4
:101f180050002000010020003afe070014aea8007f
:101f28008000200052fe07000080fa000000060032
:101f38000200fa000002eb00040f78001e0078008f
:101f4800beff0700040420001e0f42001e00780098
:101f5800baff0700040420001e0f42001e0078008c
:101f6800b6ff0700040420001e0f42001e00780080
:101f7800b2ff07000080fa00000006000600fa0021
:101f88000042eb00144798000042eb0024479800f9
:101f98000002eb002407980014aea90030c0b3007b
:101fa8007aff07002e0290004822de0004427800e3
:101fb8000440780075ff07002e0290000442780064
:101fc8000440780071ff07000042eb00044f7800de
:101fd800140037007cff070000427800244798006f
:101fe80079ff070000427800144798001e427800e5
:101ff8008482fb002e4290000482fb004823dd000f
:102008001e4290000482fb0006027200040378005e
:1020180085824200c41b210004824200060a78001f
:102028001e4fe800b4c7b3009e42780084cf520028
:10203800e8ff360014aea8000080fa000000060091
:102048000000fa0072fd070093fd0700248ea80027
:10205800140ea800450ea90014aea80065eea8004d
:10206800dafe070029ff0700dafd070026fe070051
:1020780069fe0700ccf90700c3e8a80028fd07009f
:10208800feff37000200fa00004f780004cdb300cd
:102098001e424200044078000080fa00000006005a
:1020a8000200fa00004f780005c3b3001ec24200c8
:1020b800044078000080fa00000006000200fa00e0
:1020c8000042eb000002fd001ef0b7000002fd0018
:1020d8000042eb00044f7800080037001e02fb00a6
:1020e8006a02420084024200642b210004824200fa
:1020f8008002eb00050a78001e4fe8001e427800b7
:10210800fd4f5200f5ff34000080fa000000060081
:102118000200fa00004f7800e8ff070055aea8005b
:10212800602e280069fe0700802e280067fe070041
:10213800a02e280065fe070072fe070055aea90014
:1021480040062000cafd07000080fa0000000600d3
:102158000200fa00004f7800d8ff070055aea8002b
:10216800202f280059fe070066fe070055aea9007b
:10217800603b2000befd07000080fa00000006005a
:102188000200fa00004f7800ccff070055aea80007
:10219800602e28004dfe07001e407800c0ff070093
:1021a800004278000482fb00040078003afe070031
:1021b800c02f280045fe070052fe070055aea900b3
:1021c800603b2000aafd07000080fa00000006001e
:1021d8000600fa00404798000002eb00040f780060
:1021e8000082eb0014079800b4ff070055aea80062
:1021f800602e280035fe07004e409000a8ff07001b
:10220800004278000482fb000400780022fe0700e8
:10221800403028002dfe07003afe070055aea90001
:10222800050037001e0fe80004352c009e027800d8
:10223800848f520005003e00d596800004062000d9
:10224800848f5200f7ff3a000100370000000000b9
:1022580054968000140798001e029000040078002d
:102268000080fa00000006000c00fa00004f9800f9
:1022780051079800de02900084bb2000848f520032
:102288005c003e008dff0700de029000843e2000c7
:10229800110009008482d80000027800040f780039
:1022a8009e027800843e200084aab900de029000d5
:1022b8008482520044062000110009008482d8005c
:1022c80000027800140798009e027800843e2000df
:1022d80084aab900de029000848252001e03900096
:1022e8004406200084b2b90084825200a400200071
:1022f800110009008482d8000002780024079800a1
:102308009e027800843e200084aab900de02900074
:10231800848252001e0390004406200084b2b90053
:10232800848252002e029000ea22b90004825200f0
:102338003407980055aea800602e2800e3fd07007a
:102348000e48900056ff0700004278000482fb0008
:1023580004007800d0fd070070302800dbfd07007e
:102368001e02780004427800044078004cff070001
:10237800004278000482fb0004007800c6fd0700d4
:102388001e029000044278000440780044ff0700d1
:10239800004278000482fb0004007800befd0700bc
:1023a8002e02900004427800044078003cff0700a9
:1023b800004278000482fb0004007800b6fd0700a4
:1023c8003e029000044278000440780034ff070081
:1023d800004278000482fb0004007800aefd07008c
:1023e80090302800b9fd0700c6fd070055aea900ca
:1023f80001003700000000000080fa00000006001d
:020000040000fa
:1024080000100000b003000080000000b0130000be
:1024180004000000820000000ac80a00c80000008a
:0424280000000000b0
:020000040000fa
:0200000401f009
:04000800cfffff0027
:020000040000fa
:0200000401f009
:04000c00fbffff00f7
:020000040000fa
:0200000401f009
:04001000beffff0030
:020000040000fa
:0200000401f009
:040014007fffff006b
:020000040000fa
:0200000401f009
:04001800ffffff00e7
:020000040000fa
:0200000401f009
:04001c00dfffff0003
:020000040000fa
:0200000401f009
:04002000cfffff000f
:00000001FF
