:1000000039EF00F0080E016E020E006E002EFED7D2
:100010008A9C939C020E006E002EFED705368A98AD
:10002000D8B09388D8A09398938C81ACFED7012E3A
:10003000EBD7020E006E002EFED78A9C939C000028
:100040009388020E006E002EFED7020E006E002E68
:10005000FED7938C81ACFED7016A020E006E002E93
:10006000FED781B801808A9C939C8A9893985EEF12
:1000700000F0F86AD09EEA6AE96A000E7E6EC190CE
:10008000C192C194C1967F6E6B6A6D6A949A93888F
:10009000938C9388020E006E002EFED7938C020E76
:1000A000006E002EFED78A989398020E006E002EE6
:1000B000FED78A9C939C810E056EA4D7939800006E
:1000C000938C81ACFED7020E006E002EFED700D0BE
:1000D00000009388020E006E002EFED7828A270E43
:1000E000006E002EFED700D0829A3B0E006E002ECE
:0800F000FED700D0CED70300BB
:020000040030CA
:0E00000020F2181E0088890003C003E00340B0
:00000001FF
;PIC18F14K50
;CRC=E594  CREATED="16-èþë-12 13:46"
