:0400000058EF09F0BC
:08000800046ED8CF05F0E0CF33
:1000100006F00001E9CF0CF0EACF07F0E1CF08F0DD
:10002000E2CF09F0D9CF0AF0DACF0BF0F3CF12F01C
:10003000F4CF13F0FACF14F000C00EF001C00FF0AF
:1000400002C010F003C011F0F2A82AEF00F0F2B2E3
:10005000F4EF00F09DAA30EF00F09EBACFEF01F070
:100060000EC000F00FC001F010C002F011C003F08C
:100070000CC0E9FF07C0EAFF078E08C0E1FF09C016
:10008000E2FF0AC0D9FF0BC0DAFF12C0F3FF13C0B2
:10009000F4FF14C0FAFF045006C0E0FF05C0D8FF0B
:1000A0001000C8E7ECE5F0E8F2E5EBFC20ECE0E35B
:1000B0002E00E8EDE4F3EAF6E8E82ECFCE20763223
:1000C0002E33000020D3D1D2C0CDCEC2CAC020CDA5
:1000D000D3CBDF20000042780000202042790000CE
:1000E00020202020427A00002020C3F12E00080E9C
:1000F000016E00D000D08B96949600D000D0000006
:10010000CC378B98D8B09488D8A09498948682A63F
:10011000FED7012EEED700D000D08B96949600002B
:10012000948800D000D0000000D000D00000948659
:1001300082A6FED7016A00D000D0000082B80180FC
:100140008B9694968B9894981200080ECB6F00C0F3
:10015000CCF0948800D000D00000948682A6FED710
:1001600082B8D88082A8D890013600D000D094966A
:100170008B96CB2FEED7948800D000D000008B98C0
:10018000CC51D8A494980000948682A6FED700D0C3
:1001900000D08B96949600D000D000008B98949855
:1001A0001200948800D000D0948600D000D00000C7
:1001B0008B98949800D000D08B9694963C0ECC6F80
:1001C00096DFCAC0CCF093DFCBC0CCF090DF949820
:1001D0000000948682A6FED700D000D000D0000098
:1001E000948800D000D01200948800D000D094866B
:1001F00000D000D000008B98949800D000D08B964F
:1002000094963C0ECC6F73DF030ECC6F70DF949826
:100210000000948682A6FED700D000D000D0000057
:10022000948800D000D0948800D000D0948600D06C
:1002300000D000008B98949800D000D08B969496B4
:100240003D0ECC6F54DF010E006E7FDF4A6A01C0A5
:1002500049F0010E006E79DF01C04BF0CA6BCA5144
:100260004B10316E49C032F0010E006E6EDF4D6AE8
:1002700001C04CF0010E006E68DF01C04EF0CA6B89
:10028000CA514E10336E4CC034F0010E006E5DDF6B
:10029000506A01C04FF0010E006E57DF01C051F0EF
:1002A000CA6BCA515110356E4FC036F09498000099
:1002B000948682A6FED700D000D000D0000094889B
:1002C00000D000D031C000F032C001F0026A036AF1
:1002D00032AE02D00206030600506F270150702391
:1002E000025071230350722333C000F034C001F078
:1002F000026A036A34AE02D0020603060050732776
:1003000001507423025075230350762335C000F04A
:1003100036C001F0026A036A36AE02D00206030656
:1003200000507727015078230250792303507A2315
:100330006A2B6A510A0826E11A806A6B72C040F083
:1003400071C03FF070C03EF06FC03DF076C044F029
:1003500075C043F074C042F073C041F07AC048F0F9
:1003600079C047F078C046F077C045F0726B716B8A
:10037000706B6F6B766B756B746B736B7A6B796B81
:10038000786B776B20C0CAF0E00ECB6F0ADF21C01C
:10039000CAF0CB6B06DFF292F29230EF00F09EAA29
:1003A000FED7AECF1EF01E507A0805E11A961A98B5
:1003B0001A9A1A841A829E9A30EF00F020D7F2E53A
:1003C000EDE8E520CFC7D32E2E2E000020202020E0
:1003D00020204F4B2100D2E8EF3A000033202D209F
:1003E00041782E0031202D2041782E004E3A000019
:1003F0006B783D006B793D006B7A3D00202020CE6C
:10040000F8E8E1EAE0210000EA6AAB0EE96EEF509D
:100410000EE0030E016E006A002EFED7012EFBD700
:100420003C0E006E002EFED700D0EF2EF2D7120049
:10043000070EC25F0BE3EA6AC20EE96ED890EF3294
:10044000EF5004E001D000D0EF2EFDD71200C03BEA
:10045000F00EC0178A98C0C017F08B9A17B88B8A15
:100460008B9417BA8B848B9217BC8B828B9017BEA0
:100470008B80020EC16FF90EC26FDADFC12FFBD77E
:100480008A8600D000D000008A96290E006E002EC9
:10049000FED7000012008A9ACF0E006E002EFED703
:1004A00000D000008A88AC39AD6F0F0EAD17ADC01B
:1004B000C0F0CDDFACC0C0F0CADF12008A968A9AC5
:1004C000140EAB6FA1DF030EC06FC1DF200E006EF4
:1004D000002EFED700D00000030EC06FB8DF200E44
:1004E000006E002EFED700D00000030EC06FAFDFFD
:1004F000200E006E002EFED700D00000020EC06F4E
:10050000A6DF200E006E002EFED700D000002A0EBF
:10051000AC6FC1DF080EAC6FBEDF010EAC6FBBDF8E
:10052000060EAC6FB8DF0F0EAC6FB5DF14EF0AF03C
:100530008A9A020EBF6FF90EC26F7ADFBF2FFBD708
:100540008A8A8A88BE39BF6F0F0EBF17BFC0C0F03E
:100550007EDFBEC0C0F07BDFB1EF02F0BDC0BEF0F9
:10056000E7D71200ACC0BDF0F9DFC1EF02F009001F
:10057000F5520CE0F6CFAAF0F7CFABF0F5CFACF028
:10058000F1D7AAC0F6FFABC0F7FFF1D71200AA510E
:100590008009AB6FAC6F7FDF1200010EAC6F7BDFA9
:1005A000A60E006E002EFED700001200A96BA20E50
:1005B000F66E000EF76EDBDF400EAA6FE8DFB20EBC
:1005C000F66E000EF76ED3DF040EAA6FFA0EAB6F55
:1005D0001BDFAA2FFBD7E1DF16EF0AF0B46BB56B78
:1005E000B66BB3C0B5F0B2C0B6F0948800D000D0FE
:1005F000948600D000D000008B98949800D000D052
:100600008B9694962CC0B7F0166AF2BE168EF29EA8
:100610002CC0CCF06CDD16BEF28E166AF2BE168EC1
:10062000F29EB5C0CCF063DD16BEF28E166AF2BE45
:10063000168EF29EB6C0CCF05ADD16BEF28E9488AD
:1006400000D000D0948600D000D0000082A6FED753
:100650008B98949800D000D08B9694962C500109DA
:10066000B76F166AF2BE168EF29ECC6F40DD16BED4
:10067000F28E010E006E166AF2BE168EF29E65DDD7
:1006800016BEF28E01C0B4F0166AF2BE168EF29E4D
:10069000CC692DDD16BEF28E94980000948682A659
:1006A000FED700D000D000D00000948800D000D049
:1006B000036A9C518B0FE96E000E0320EA6EB4C0F2
:1006C000EFFF9C2BB4C001F01200ACC0AFF0ABC088
:1006D000AEF0B06B040EB16FB151B05D15E2AAC0BF
:1006E000B3F0A9C0B2F07ADF01C0ADF0AEC0E9FF4F
:1006F000AFC0EAFFADC0EFFFAE2BD8B4AF2BA92B34
:10070000D8B4AA2BB02BE8D71200B36BA9C0B2F0B3
:1007100065DF01C0AAF0A92BB36BA9C0B2F05EDF00
:1007200001C0ABF0AAC0ADF0AC6BAB51AC13ACC028
:1007300001F0ADC002F063EF0AF0AE69AD69AB51F4
:10074000AB07000A2CE0AAC003F0A951A92BD8B42A
:10075000AA2BE96E03C0EAFFEF50AE19AC6FAC39BB
:10076000006E0F0E00160050AC1BADC0B0F0AF6BAA
:10077000000E036AAF1B0350B01BAC39006E00368D
:10078000E00E00160050036AAF1B0350B01B036A53
:10079000AC51AF19AD6F0350B019AE6FD0D7ADC02B
:1007A00001F0AEC002F06EEF0AF0A951AB03F3CF37
:1007B00001F0F4CF00F0AC03F3500026AA51AB03D4
:1007C000F3500020026EBEEF0AF0D8B203D0EA6AFE
:1007D000C40EE96E006A016A026A036AC46BC56BE3
:1007E000C66BC76BC351C211C111C0112CE0200EE2
:1007F000C86FD890BC37BD37BE37BF37C437C53791
:10080000C637C737C351C75D08E1C251C65D05E1B0
:10081000C151C55D02E1C051C45D0FE3C051C45F69
:10082000C151D8A0C13DC55FC251D8A0C23DC65F6D
:10083000C351D8A0C33DC75FD88000360136023609
:100840000336C82FD6D7C4C0EFFFC5C0ECFFC6C063
:10085000ECFFC7C0ECFF1200C46BC56B010EC66F86
:10086000DA6AD96AC96BBC0EC86FEA6AC00EE96E53
:10087000C9C0E2FFC8C0E1FFC6C0C7F0D890E550CC
:10088000EE02F350C423F450C523C72FF7D7C4C0DA
:10089000DEFFC5C0C4F0C56BD8B0C52BC82BD8B41B
:1008A000C92BC62BC6510508E0E11200D892B2C090
:1008B000BFF0B1C0BEF0B0C0BDF0AFC0BCF0C36B04
:1008C000C26B270EC16F100EC06F7FDF03C0B7F081
:1008D00002C0B6F001C0B5F000C0B4F0B7C0BFF0C0
:1008E000B6C0BEF0B5C0BDF0B4C0BCF0C36BC26B47
:1008F000270EC16F100EC06FAFDF03C0BBF002C088
:10090000BAF001C0B9F000C0B8F0B351040805E274
:10091000300EB425BC6FBD6F21DEB851AF5FB95149
:10092000B05BBA51B15BBB51B25BD892B2C0BFF001
:10093000B1C0BEF0B0C0BDF0AFC0BCF0C36BC26B05
:10094000030EC16FE80EC06F40DF03C0B7F002C0F6
:10095000B6F001C0B5F000C0B4F0B7C0BFF0B6C08B
:10096000BEF0B5C0BDF0B4C0BCF0C36BC26B030E2B
:10097000C16FE80EC06F70DF03C0BBF002C0BAF0F9
:1009800001C0B9F000C0B8F0B351030808E2300E5E
:10099000B425BC6FBD6FE2DD2E0EBD6FDFDDB8513B
:1009A000AF5FB951B05BBA51B15BBB51B25BD8928A
:1009B000B2C0BFF0B1C0BEF0B0C0BDF0AFC0BCF0BF
:1009C000C36BC26BC16B640EC06FFFDE03C0B7F0B8
:1009D00002C0B6F001C0B5F000C0B4F0B7C0BFF0BF
:1009E000B6C0BEF0B5C0BDF0B4C0BCF0C36BC26B46
:1009F000C16B640EC06F30DF03C0BBF002C0BAF041
:100A000001C0B9F000C0B8F0B351020805E2300EE1
:100A1000B425BC6FBD6FA2DDB851AF5FB951B05BFB
:100A2000BA51B15BBB51B25BD892B2C0BFF0B1C09A
:100A3000BEF0B0C0BDF0AFC0BCF0C36BC26BC16B49
:100A40000A0EC06FC2DE03C0B7F002C0B6F001C02C
:100A5000B5F000C0B4F0B7C0BFF0B6C0BEF0B5C0CE
:100A6000BDF0B4C0BCF0C36BC26BC16B0A0EC06FEB
:100A7000F3DE03C0BBF002C0BAF001C0B9F000C0A1
:100A8000B8F0B351010805E2300EB425BC6FBD6F5C
:100A900065DDB851AF5FB951B05BBA51B15BBB51C5
:100AA000B25BB351000800E21200A951D8B471D072
:100AB000006EAD51D8B46DD0002604E3810E00263F
:100AC00068E204D07F0E005E64E363E0AAC0B1F088
:100AD000AE51B11BAA8FAE8FAC51B003F4CFB3F0BF
:100AE000AB51AF03F4CF03F0F3CFB2F0B003F35048
:100AF000B327F450B223000E0322AC51AF03F350DE
:100B0000B327F450B223000E026A03220222AA5134
:100B1000B003F350B227F4500322000E0222AA5170
:100B2000AF03F3500326F4500222000E016A0122A3
:100B3000AC51AE03F350B227F4500322000E022250
:100B40000122AB51AE03F3500326F4500222000EF3
:100B50000122AA51AE03F3500226F4500122002ACA
:100B600001BE05D0B2370336023601360006000E4C
:100B7000B2AF0AD0032A02220122015005E102503D
:100B800003E1035001E1002AB1BF018EB1AF019E24
:100B900004D0006A016A026A036A1200A951B60809
:100BA000A96F036AAAC0ADF0AA8FD890AA33AB335D
:100BB000AC330332023201320032A92FF6D7ADAF87
:100BC0000BD0001E011E021E031E002AD8B4012AEB
:100BD000D8B4022AD8B4032A12002B0EAE6FACAFE1
:100BE00007D0AB1FAC1FAB2BD8B4AC2B2D0EAE6F08
:100BF000AEC0BDF0B3DCB26BB16BACC0B0F0ABC09B
:100C0000AFF0ADC0B3F052DE1200D8B203D0EA6A42
:100C1000B10EE96EAC51B019800BB66FACAF0BD012
:100C2000A91FAA1FAB1FAC1FA92BD8B4AA2BD8B4DD
:100C3000AB2BD8B4AC2BB0AF0BD0AD1FAE1FAF1FDA
:100C4000B01FAD2BD8B4AE2BD8B4AF2BD8B4B02BCB
:100C5000006A016A026A036AB16BB26BB36BB46B70
:100C6000B051AF11AE11AD112CE0200EB56FD89080
:100C7000A937AA37AB37AC37B137B237B337B43748
:100C8000B051B45D08E1AF51B35D05E1AE51B25D65
:100C900002E1AD51B15D0FE3AD51B15FAE51D8A0EE
:100CA000AE3DB25FAF51D8A0AF3DB35FB051D8A059
:100CB000B03DB45FD8800036013602360336B52F1A
:100CC000D6D7B6AF0BD0001E011E021E031E002A8F
:100CD000D8B4012AD8B4022AD8B4032AB1C0EFFF8D
:100CE000B2C0ECFFB3C0ECFFB4C0ECFF1200B60E14
:100CF000006E036A026A016AAD91ACAF0CD0AD819F
:100D0000A91FAA1FAB1FAC1FA92B05E1AA2B03E14A
:100D1000AB2BD8B4AC2BA951AA11AB11AC1102E189
:100D2000006A0FD0D89001BE09D0A937AA37AB37D7
:100D3000AC37033602360136002EF4D7019EADB132
:100D4000018E1200E950AD6FACAF0DD0AD07AD8B89
:100D5000A91FAA1FAB1FAC1FA92BD8B4AA2BD8B4AC
:100D6000AB2BD8B4AC2B3B0EB46F9A0EB36FCA0E3C
:100D7000B26FB16B0A0EAF6FD882EA6AA90EE96E44
:100D8000ACC0BFF0ABC0BEF0AAC0BDF0A9C0BCF003
:100D9000B4C0C3F0B3C0C2F0B2C0C1F0B1C0C0F0C3
:100DA00014DD015000520FE1AF51010A0CE0AD51CA
:100DB0000CE00F0BAF5D01E027E2ADBF25D0ADBD6C
:100DC00004D0200E1CD0200EAD17ADAB0AD0AD9BC9
:100DD00000C0ADF02D0E9EA8FED7AD6EADC000F0E8
:100DE000AD6B300EADAB0BD0AD9B00C0ADF02D0E9A
:100DF0009EA8FED7AD6EADC000F0AD6B300E0026E4
:100E000000509EA8FED7AD6ED892B4C0BFF0B3C05C
:100E1000BEF0B2C0BDF0B1C0BCF0C36BC26BC16B61
:100E20000A0EC06FD2DC03C0B4F002C0B3F001C040
:100E3000B2F000C0B1F0AF2F9FD712008E0E006E3F
:100E4000A951005EAAC002F0ABC001F0028E0052B0
:100E500009E0D890025202E1015204E0023201326C
:100E6000002EF7D7AAAF05D0011E021E012AD8B462
:100E7000022A12001AA420D0CDEC02F0AA6BC7EC13
:100E800002F0C40EF66E000EF76EB7EC02F032C040
:100E900038F031C037F034C03AF033C039F036C0E2
:100EA0003CF035C03BF0040EA96FFA0EAB6F04ECBA
:100EB00002F0A92FFAD71A94D89248C0ACF047C0D4
:100EC000ABF046C0AAF045C0A9F0B06BAF6BAE6BFB
:100ED0000A0EAD6F9ADE03C0ACF002C0ABF001C0E9
:100EE000AAF000C0A9F03BC000F03CC001F0026ACB
:100EF000036A3CAE02D0020603060050A95D456EAF
:100F00000150AA59466E0250AB59476E0350AC5976
:100F1000486ED89244C0ACF043C0ABF042C0AAF0D7
:100F200041C0A9F0B06BAF6BAE6B0A0EAD6F6DDE5A
:100F300003C0ACF002C0ABF001C0AAF000C0A9F041
:100F400039C000F03AC001F0026A036A3AAE02D03A
:100F5000020603060050A95D416E0150AA59426E77
:100F60000250AB59436E0350AC59446ED89240C006
:100F7000ACF03FC0ABF03EC0AAF03DC0A9F0B06BF2
:100F8000AF6BAE6B0A0EAD6F40DE03C0ACF002C0BB
:100F9000ABF001C0AAF000C0A9F037C000F038C023
:100FA00001F0026A036A38AE02D00206030600505E
:100FB000A95D3D6E0150AA593E6E0250AB593F6E7D
:100FC0000350AC59406E40C0ACF03FC0ABF03EC0E7
:100FD000AAF03DC0A9F08BDE03C0ACF002C0ABF0BC
:100FE00001C0AAF000C0A9F09A0EB06F990EAF6FC1
:100FF000010EAE6F770EAD6F58DD03C055F002C025
:1010000054F001C053F000C052F055C0ACF054C0D1
:10101000ABF053C0AAF052C0A9F061C0B0F060C0FC
:10102000AFF05FC0AEF05EC0ADF03FDD03C055F085
:1010300002C054F001C053F000C052F044C0ACF004
:1010400043C0ABF042C0AAF041C0A9F050DE03C0DB
:10105000ACF002C0ABF001C0AAF000C0A9F09A0E3B
:10106000B06F990EAF6F010EAE6F770EAD6F1DDDD5
:1010700003C059F002C058F001C057F000C056F04C
:1010800059C0ACF058C0ABF057C0AAF056C0A9F098
:1010900065C0B0F064C0AFF063C0AEF062C0ADF048
:1010A00004DD03C059F002C058F001C057F000C081
:1010B00056F048C0ACF047C0ABF046C0AAF045C0FF
:1010C000A9F015DE03C0ACF002C0ABF001C0AAF07D
:1010D00000C0A9F09A0EB06F990EAF6F010EAE6FFF
:1010E000770EAD6FE2DC03C05DF002C05CF001C0C2
:1010F0005BF000C05AF05DC0ACF05CC0ABF05BC010
:10110000AAF05AC0A9F069C0B0F068C0AFF067C0DB
:10111000AEF066C0ADF0C9DC03C05DF002C05CF0AB
:1011200001C05BF000C05AF0780E9EA8FED7AD6EED
:10113000450EE96E48C0ACF047C0ABF046C0AAF01F
:1011400045C0A9F0FFDD0A0E9EA8FED7AD6E790E50
:101150009EA8FED7AD6E450EE96E44C0ACF043C00C
:10116000ABF042C0AAF041C0A9F0ECDD0A0E9EA887
:10117000FED7AD6E7A0E9EA8FED7AD6E450EE96E17
:1011800040C0ACF03FC0ABF03EC0AAF03DC0A9F0FB
:10119000D9DD0A0E9EA8FED7AD6EAA6BC7EC02F091
:1011A000D60EF66E000EF76EB7EC02F05DC0ACF036
:1011B0005CC0ABF05BC0AAF05AC0A9F0B06BAF6BDB
:1011C0007A0EAE6F880EAD6F70DC03C0ACF002C05B
:1011D000ABF001C0AAF000C0A9F030DE02C0AAF056
:1011E00001C0A9F002C0ACF001C0ABF0040EAD6FBD
:1011F000F4DCDA0EF66E000EF76EB7EC02F059C0B2
:10120000ACF058C0ABF057C0AAF056C0A9F0B06B14
:10121000AF6B7A0EAE6F880EAD6F47DC03C0ACF0DB
:1012200002C0ABF001C0AAF000C0A9F007DE02C006
:10123000AAF001C0A9F002C0ACF001C0ABF0040EEE
:10124000AD6FCBDC400EAA6FC7EC02F0E00EF66E7D
:10125000000EF76EB7EC02F055C0ACF054C0ABF026
:1012600053C0AAF052C0A9F0B06BAF6B7A0EAE6F4C
:10127000880EAD6F1ADC03C0ACF002C0ABF001C049
:10128000AAF000C0A9F0DADD02C0AAF001C0A9F0FE
:1012900002C0ACF001C0ABF0040EAD6F9EDCE80EF6
:1012A000F66E000EF76EB7EC02F01A9086EF0BF0B8
:1012B000F86AD09E078EA796400EAF6EA60EAC6E53
:1012C000900EAB6E1A901A921B6A1A941A961A987C
:1012D0001A9A1A8C1C6A1D6A1E6A1F6A010E206EF9
:1012E000020E216E030E226E040E236E050E246E76
:1012F000060E256E070E266E080E276E090E286E46
:10130000100E296E110E2A6E120E2B6EA00E2C6E70
:10131000326A316A346A336A366A356A386A376AD9
:101320003A6A396A3C6A3B6A406A3F6A3E6A3D6A89
:10133000446A436A426A416A486A476A466A456A39
:101340004A6A496A4B6A4D6A4C6A4E6A506A4F6AE9
:10135000516A556A546A536A526A596A586A576A96
:10136000566A5D6A5C6A5B6A5A6A616B606B5F6A47
:101370007F0E5E6E656B646B636B626F696B686B2F
:10138000676B666F6A6B6E6B6D6B6C6B6B6B9B6B7D
:101390009C6B0F015C51800B5C6F000E5D6FC19602
:1013A000C198C19A5E6B5F6B06D003001700000006
:1013B00020407B000000000EF86E130EF76EAA0EA0
:1013C000F66E0900F550006E000A13E00900F550B2
:1013D000016EE8BE05D00F0BEA6E0900F5CFE9FFFC
:1013E00001BC090001AC0900F5CFEEFF004EE9D7C2
:1013F000F9D7F86A0001A26BA16BA66BA56BA86B6D
:10140000A76B938093969398939A949094929494C4
:10141000949A94869488949C948EF18C9D8AF288F8
:10142000C00EF2125EEF02F0D6EF02F0400EAA6F8D
:10143000C7EC02F0BC0EF66E030EF76EB7EC02F0CE
:10144000A2C0B3F0A1C0B2F0EEEC02F09E6B01C0FE
:101450009DF0A12BD8B4A22BA2C0B3F0A1C0B2F0D2
:10146000EEEC02F0A06B01C09FF0A12BD8B4A22B30
:10147000A2C0AAF0A1C0A9F0AC6B5E0EAB6F65EC88
:1014800003F0040EA127000EA223A2C0AAF0A1C05F
:10149000A9F0AC6B620EAB6F65EC03F0040EA127F4
:1014A000000EA223A2C0AAF0A1C0A9F0AC6B660EE8
:1014B000AB6F65EC03F0040EA127000EA223A1C0C0
:1014C000A9F085EF03F002C0A6F001C0A5F0AA6B59
:1014D0008B0EA96F0E0EAB6F9DEF03F002C0A8F04C
:1014E00001C0A7F0100EAA6FC7EC02F0A751A55DCE
:1014F000D8A4F6D0A851A65DD8A4F2D0CC0EF66E32
:10150000030EF76EB7EC02F0040EA96FFA0EAB6F84
:1015100004EC02F0A92FFAD7CDEC02F0100EAA6F5E
:10152000C7EC02F0D60EF66E030EF76EB7EC02F0C3
:101530009D511E0809E19E5307E1DC0EF66E030E75
:10154000F76EB7EC02F006D0E40EF66E030EF76EFF
:10155000B7EC02F0400EAA6FC7EC02F0EC0EF66E8C
:10156000030EF76EB7EC02F0A0C0AAF09FC0A9F07E
:10157000030EAC6FE80EAB6FD5EF03F002C0AAF01C
:1015800001C0A9F0B26BB16B02C0B0F001C0AFF006
:10159000040EB36F56EC04F0080EA96FFA0EAB6F91
:1015A00004EC02F0A92FFAD7CDEC02F0AA6BC7EC3D
:1015B00002F0F00EF66E030EF76EB7EC02F061C0AB
:1015C000ACF060C0ABF05FC0AAF05EC0A9F0B06B39
:1015D000AF6B7A0EAE6F880EAD6F55EC05F003C0A1
:1015E000ACF002C0ABF001C0AAF000C0A9F0CEEC94
:1015F00005F001C0AAF000C0A9F001C0ACF000C025
:10160000ABF0050EAD6FEDEC05F0400EAA6FC7EC28
:1016100002F0F40EF66E030EF76EB7EC02F065C042
:10162000ACF064C0ABF063C0AAF062C0A9F0B06BCC
:10163000AF6B7A0EAE6F880EAD6F55EC05F003C040
:10164000ACF002C0ABF001C0AAF000C0A9F0CEEC33
:1016500005F001C0AAF000C0A9F001C0ACF000C0C4
:10166000ABF0050EAD6FEDEC05F0100EAA6FC7ECF8
:1016700002F0F80EF66E030EF76EB7EC02F069C0DA
:10168000ACF068C0ABF067C0AAF066C0A9F0B06B60
:10169000AF6B7A0EAE6F880EAD6F55EC05F003C0E0
:1016A000ACF002C0ABF001C0AAF000C0A9F0CEECD3
:1016B00005F001C0AAF000C0A9F001C0ACF000C064
:1016C000ABF0050EAD6FEDEC05F00C0EA96FFA0E48
:1016D000AB6F04EC02F0A92FFAD7CDEC02F013D0D7
:1016E000FC0EF66E030EF76EB7EC02F0616B606BEA
:1016F0005F6A7F0E5E6E656B646B636B626F696BB6
:10170000686B676B666F1AB03AEF07F080B601D06E
:061710001A84F9D7030062
:020000040030CA
:0E00000015C3787C008991000FC00FE00F40FF
:00000001FF
;PIC18F25K80
;CRC=0CBD  CREATED="29-дек-16 12:37"
