:040000001AEF0CF0F7
:08000800046ED8CF05F0E0CF33
:1000100006F00001E9CF0CF0EACF07F0E1CF08F0DD
:10002000E2CF09F0D9CF0AF0DACF0BF0F3CF12F01C
:10003000F4CF13F0FACF14F000C00EF001C00FF0AF
:1000400002C010F003C011F0F2AA2AEF00F0F2B4DF
:10005000E6EF01F0F2A830EF00F0F2B2FFEF00F0AF
:100060009DAA36EF00F09EBAD7EF01F00EC000F067
:100070000FC001F010C002F011C003F00CC0E9FF86
:1000800007C0EAFF078E08C0E1FF09C0E2FF0AC00F
:10009000D9FF0BC0DAFF12C0F3FF13C0F4FF14C086
:1000A000FAFF045006C0E0FF05C0D8FF1000202072
:1000B00020C8E7ECE5F0E8F2E5EBFC00202020ECBE
:1000C000E0E3EDE8F2EDEEE9000020E8EDE4F3EA2C
:1000D000F6E8E82E2056322E332000002020202083
:1000E000202020202020202020202020000020D39D
:1000F000F1F2E0EDEEE2EAE020EDF3EBFF200000AC
:100100004278203D200020C3F12E20004279203D7E
:10011000200020C3F12E2000427A203D200020C381
:10012000F12E200020D7F2E5EDE8E520CFC7D32E51
:100130002E2E0000080E016E00008B969496000093
:10014000CC378B98D8B09488D8A09498948682A6FF
:10015000FED7012EF1D700008B969496000094886C
:1001600000000000948682A6FED7016A000082B8D3
:1001700001808B9694968B9894981200080ECB6F02
:1001800000C0CCF094880000948682A6FED782B886
:10019000D88082A8D8900136000094968B96CB2FF9
:1001A000F1D7948800008B98CC51D8A49498000083
:1001B000948682A6FED700008B96949600008B98BA
:1001C0009498120094880000948600008B9894986C
:1001D00000008B9694963C0ECC6FACDFCAC0CCF07E
:1001E000A9DFCBC0CCF0A6DF94980000948682A64D
:1001F000FED7000000D000009488000012001AA66C
:1002000003D01A961A88CBD09488000094860000F8
:100210008B98949800008B9694963C0ECC6F8ADF56
:10022000030ECC6F87DF94980000948682A6FED7D9
:10023000000000D00000948800009488000094869C
:1002400000008B98949800008B9694963D0ECC6F8E
:1002500071DF010E006E92DF476A01C046F0010EA9
:10026000006E8CDF01C048F0CA6BCA5148102E6E78
:1002700046C02FF0010E006E81DF4A6A01C049F0CE
:10028000010E006E7BDF01C04BF0CA6BCA514B10F0
:10029000306E49C031F0010E006E70DF4D6A01C052
:1002A0004CF0010E006E6ADF01C04EF0CA6BCA51FD
:1002B0004E10326E4CC033F094980000948682A6A3
:1002C000FED7000000D00000948800002EC000F08F
:1002D0002FC001F0026A036A2FAE02D002060306A5
:1002E00000509A2701509B2302509C2303509D23CA
:1002F00030C000F031C001F0026A036A31AE02D0B2
:100300000206030600509E2701509F230250A0239F
:100310000350A12332C000F033C001F0026A036A27
:1003200033AE02D0020603060050A2270150A323D9
:100330000250A4230350A5238D2B8D510A0826E1DA
:100340001A808D6B9DC03DF09CC03CF09BC03BF083
:100350009AC03AF0A1C041F0A0C040F09FC03FF069
:100360009EC03EF0A5C045F0A4C044F0A3C043F039
:10037000A2C042F09D6B9C6B9B6B9A6BA16BA06BB8
:100380009F6B9E6BA56BA46BA36BA26B21C0CAF085
:10039000E00ECB6F17DF22C0CAF0CB6B13DFD90E94
:1003A000D76EDA0ED66EF292F29236EF00F09EAA77
:1003B000FED7AECF1FF01F507A0805E11A9C1A9E97
:1003C0001C901A8A1A829E9A36EF00F0D90ED76EC8
:1003D000DA0ED66EF2941A86F29436EF00F02020F0
:1003E00020202020204F4B212020202020200000F2
:1003F0002020D2E8EF20E4E0F2F7E8EAE03A20201B
:10040000000020202033202D20EEF1E5E2EEE9204F
:100410002020000020202031202D20EEF1E5E2EE0A
:10042000E92020200000C4E0F2F7E8EA204E3A205C
:100430000000CAEEFDF4F4E8F6E8E5EDF2FB3A0060
:100440004B78203D20004B79203D20004B7A203D09
:10045000200020202020CEF8E8E1EAE02E2E202007
:1004600020200000CDE520EAE0EBE8E1F0EEE2E05C
:10047000ED0020202020C4C0D2D7C8CA20202020D0
:100480002000202020202020CDC52020202020203A
:100490002000202020CFCEC4CACBDED7C5CD21205E
:1004A000200020202020202020202020202020206C
:1004B000200078202D2031303030300A00002020FC
:1004C00020202020204F4B21202020202020000011
:1004D0002020D2E8EF20E4E0F2F7E8EAE03A20203A
:1004E000000020202033202D20EEF1E5E2EEE9206F
:1004F0002020000020202031202D20EEF1E5E2EE2A
:10050000E92020200000C4E0F2F7E8EA204E3A207B
:100510000000CAEEFDF4F4E8F6E8E5EDF2FB3A007F
:100520004B78203D20004B79203D20004B7A203D28
:10053000200020202020CEF8E8E1EAE02E2E202026
:1005400020200000CDE520EAE0EBE8E1F0EEE2E07B
:10055000ED00EA6AAB0EE96EEF500EE0030E016E9D
:10056000006A002EFED7012EFBD73C0E006E002E37
:10057000FED700D0EF2EF2D71200070EC25F0BE3BA
:10058000EA6AC20EE96ED890EF32EF5004E001D073
:1005900000D0EF2EFDD71200C03BF00EC0178A9896
:1005A000C0C017F08B9A17B88B8A8B9417BA8B84BC
:1005B0008B9217BC8B828B9017BE8B80020EC16F03
:1005C000F90EC26FDADFC12FFBD78A8600D000D0C8
:1005D00000008A96290E006E002EFED70000120041
:1005E0008A9ACF0E006E002EFED700D000008A88B7
:1005F000AC39AD6F0F0EAD17ADC0C0F0CDDFACC0E4
:10060000C0F0CADF12008A968A9A140EAB6FA1DF7F
:10061000030EC06FC1DF200E006E002EFED700D08B
:100620000000030EC06FB8DF200E006E002EFED754
:1006300000D00000030EC06FAFDF200E006E002E52
:10064000FED700D00000020EC06FA6DF200E006EA5
:10065000002EFED700D000002A0EAC6FC1DF080EBE
:10066000AC6FBEDF010EAC6FBBDF060EAC6FB8DF48
:100670000F0EAC6FB5DFDEEF0CF08A9A020EBF6F83
:10068000F90EC26F7ADFBF2FFBD78A8A8A88BE39FC
:10069000BF6F0F0EBF17BFC0C0F07EDFBEC0C0F07F
:1006A0007BDF56EF03F0BDC0BEF0E7D71200ACC051
:1006B000BDF0F9DF66EF03F00900F5520CE0F6CF6C
:1006C000AAF0F7CFABF0F5CFACF0F1D7AAC0F6FFA8
:1006D000ABC0F7FFF1D71200AA518009AB6FAC6F26
:1006E0007FDF1200010EAC6F7BDFA60E006E002EC6
:1006F000FED700001200A96BAE0EF66E000EF76E6C
:10070000DBDF400EAA6FE8DFBC0EF66E000EF76E60
:10071000D3DF100EAA6FE0DFCA0EF66E000EF76E82
:10072000CBDF500EAA6FD8DFDC0EF66E000EF76E30
:10073000C3DF040EAA6FFA0EAB6F0BDFAA2FFBD735
:10074000D1DFE0EF0CF0B56BB66BB76BB4C0B6F0B1
:10075000B3C0B7F094880000948600008B989498FA
:1007600000008B9694962DC0B8F0166AF2BE168ED5
:10077000F29E2DC0CCF0DEDC16BEF28E166AF2BE02
:10078000168EF29EB6C0CCF0D5DC16BEF28E166A7E
:10079000F2BE168EF29EB7C0CCF0CCDC16BEF28E46
:1007A000948800009486000082A6FED78B989498C7
:1007B00000008B9694962D500109B86F166AF2BE10
:1007C000168EF29ECC6FB6DC16BEF28E010E006E57
:1007D000166AF2BE168EF29ED1DC16BEF28E01C0F3
:1007E000B5F0166AF2BE168EF29ECC69A3DC16BE78
:1007F000F28E94980000948682A6FED7000000D066
:10080000000094880000036A8851770FE96E000E9B
:100810000320EA6EB5C0EFFF882BB5C001F01200CF
:10082000ADC0B0F0ACC0AFF0B16B040EB26FB2515E
:10083000B15D15E2ABC0B4F0AAC0B3F084DF01C073
:10084000AEF0AFC0E9FFB0C0EAFFAEC0EFFFAF2B24
:10085000D8B4B02BAA2BD8B4AB2BB12BE8D712004D
:10086000B46BAAC0B3F06FDF01C0ABF0AA2BB46BBE
:10087000AAC0B3F068DF01C0ACF0ABC0AEF0AD6BA6
:10088000AC51AD13ADC001F0AEC002F0C7EF04F043
:10089000AF69AE69AC51AC07000A2CE0ABC003F005
:1008A000AA51AA2BD8B4AB2BE96E03C0EAFFEF50D4
:1008B000AF19AD6FAD39006E0F0E00160050AD1BB5
:1008C000AEC0B1F0B06B000E036AB01B0350B11B99
:1008D000AD39006E0036E00E00160050036AB01B02
:1008E0000350B11B036AAD51B019AE6F0350B1197B
:1008F000AF6FD0D7AEC001F0AFC002F0D1EF04F0BF
:10090000A991F0DE400EAA6FE7DE240EF66E010E0E
:10091000F76ED2DE93C0B4F092C0B3F014DF8F6BE9
:1009200001C08EF0922BD8B4932B93C0B4F092C038
:10093000B3F009DF916B01C090F0922BD8B4932BE8
:1009400093C0ABF092C0AAF0AD6B5B0EAC6F68DFEA
:10095000040E9227000E932393C0ABF092C0AAF02E
:10096000AD6B5F0EAC6F5CDF040E9227000E93231D
:1009700093C0ABF092C0AAF0AD6B630EAC6F50DFCA
:10098000040E9227000E932392C0AAF069D702C0EA
:1009900097F001C096F0AB6B770EAA6F0E0EAC6F9E
:1009A00077D702C099F001C098F0886B936B926B77
:1009B0009851965D04E19951975D01E1A981000E7E
:1009C000A9B1010E016E1200D8B203D0EA6AC40EBA
:1009D000E96E006A016A026A036AC46BC56BC66B82
:1009E000C76BC351C211C111C0112CE0200EC86FDA
:1009F000D890BC37BD37BE37BF37C437C537C637C9
:100A0000C737C351C75D08E1C251C65D05E1C15199
:100A1000C55D02E1C051C45D0FE3C051C45FC15167
:100A2000D8A0C13DC55FC251D8A0C23DC65FC35169
:100A3000D8A0C33DC75FD8800036013602360336E2
:100A4000C82FD6D7C4C0EFFFC5C0ECFFC6C0ECFFAF
:100A5000C7C0ECFF1200C46BC56B010EC66FDA6A2B
:100A6000D96AC96BBC0EC86FEA6AC00EE96EC9C00C
:100A7000E2FFC8C0E1FFC6C0C7F0D890E550EE0263
:100A8000F350C423F450C523C72FF7D7C4C0DEFFEB
:100A9000C5C0C4F0C56BD8B0C52BC82BD8B4C92B02
:100AA000C62BC6510508E0E11200D892ACC0BFF0D9
:100AB000ABC0BEF0AAC0BDF0A9C0BCF0C36BC26B96
:100AC000270EC16F100EC06F7FDF03C0B1F002C0F0
:100AD000B0F001C0AFF000C0AEF0B1C0BFF0B0C028
:100AE000BEF0AFC0BDF0AEC0BCF0C36BC26B270E92
:100AF000C16F100EC06FAFDF03C0B5F002C0B4F01D
:100B000001C0B3F000C0B2F0AD51040805E2300EF0
:100B1000AE25B66FBD6FC7DDB251A95FB351AA5BF9
:100B2000B451AB5BB551AC5BD892ACC0BFF0ABC0BD
:100B3000BEF0AAC0BDF0A9C0BCF0C36BC26B030E6F
:100B4000C16FE80EC06F40DF03C0B1F002C0B0F06B
:100B500001C0AFF000C0AEF0B1C0BFF0B0C0BEF099
:100B6000AFC0BDF0AEC0BCF0C36BC26B030EC16FB3
:100B7000E80EC06F70DF03C0B5F002C0B4F001C072
:100B8000B3F000C0B2F0AD51030805E2300EAE255F
:100B9000B66FBD6F88DDB251A95FB351AA5BB45186
:100BA000AB5BB551AC5BD892ACC0BFF0ABC0BEF094
:100BB000AAC0BDF0A9C0BCF0C36BC26BC16B640E10
:100BC000C06F02DF03C0B1F002C0B0F001C0AFF0EF
:100BD00000C0AEF0B1C0BFF0B0C0BEF0AFC0BDF05D
:100BE000AEC0BCF0C36BC26BC16B640EC06F33DFB1
:100BF00003C0B5F002C0B4F001C0B3F000C0B2F061
:100C0000AD51020805E2300EAE25B66FBD6F4BDD6B
:100C1000B251A95FB351AA5BB451AB5BB551AC5BA8
:100C2000D892ACC0BFF0ABC0BEF0AAC0BDF0A9C0A6
:100C3000BCF0C36BC26BC16B0A0EC06FC5DE03C0D4
:100C4000B1F002C0B0F001C0AFF000C0AEF0B1C072
:100C5000BFF0B0C0BEF0AFC0BDF0AEC0BCF0C36B63
:100C6000C26BC16B0A0EC06FF6DE03C0B5F002C0E6
:100C7000B4F001C0B3F000C0B2F0AD51010805E21C
:100C8000300EAE25B66FBD6F0EDDB251A95FB35108
:100C9000AA5BB451AB5BB551AC5BAD51000805E24A
:100CA000300EA925B66FBD6FFEDC1200A951D8B475
:100CB00071D0006EAD51D8B46DD0002604E3810E22
:100CC000002668E204D07F0E005E64E363E0AAC001
:100CD000B1F0AE51B11BAA8FAE8FAC51B003F4CFBF
:100CE000B3F0AB51AF03F4CF03F0F3CFB2F0B003E6
:100CF000F350B327F450B223000E0322AC51AF03DC
:100D0000F350B327F450B223000E026A03220222EA
:100D1000AA51B003F350B227F4500322000E02226E
:100D2000AA51AF03F3500326F4500222000E016AC9
:100D30000122AC51AE03F350B227F4500322000E4F
:100D400002220122AB51AE03F3500326F4500222DB
:100D5000000E0122AA51AE03F3500226F4500122E4
:100D6000002A01BE05D0B23703360236013600062E
:100D7000000EB2AF0AD0032A02220122015005E17F
:100D8000025003E1035001E1002AB1BF018EB1AF6F
:100D9000019E04D0006A016A026A036A1200A95126
:100DA000B608A96F036AAAC0ADF0AA8FD890AA337B
:100DB000AB33AC330332023201320032A92FF6D703
:100DC000ADAF0BD0001E011E021E031E002AD8B4B8
:100DD000012AD8B4022AD8B4032A1200D892B2C089
:100DE000BFF0B1C0BEF0B0C0BDF0AFC0BCF0C36BCF
:100DF000C26B270EC16F100EC06FE6DD03C0B7F0E7
:100E000002C0B6F001C0B5F000C0B4F0B7C0BFF08A
:100E1000B6C0BEF0B5C0BDF0B4C0BCF0C36BC26B11
:100E2000270EC16F100EC06F16DE03C0BBF002C0EC
:100E3000BAF001C0B9F000C0B8F0B351040805E23F
:100E4000300EB425BC6FBD6F2EDCB851AF5FB95109
:100E5000B05BBA51B15BBB51B25BD892B2C0BFF0CC
:100E6000B1C0BEF0B0C0BDF0AFC0BCF0C36BC26BD0
:100E7000030EC16FE80EC06FA7DD03C0B7F002C05C
:100E8000B6F001C0B5F000C0B4F0B7C0BFF0B6C056
:100E9000BEF0B5C0BDF0B4C0BCF0C36BC26B030EF6
:100EA000C16FE80EC06FD7DD03C0BBF002C0BAF05F
:100EB00001C0B9F000C0B8F0B35103080AE2300E27
:100EC000B425BC6FBD6F53EC03F02E0EBD6F53EC19
:100ED00003F0B851AF5FB951B05BBA51B15BBB51D0
:100EE000B25BD892B2C0BFF0B1C0BEF0B0C0BDF02E
:100EF000AFC0BCF0C36BC26BC16B640EC06F64DD6E
:100F000003C0B7F002C0B6F001C0B5F000C0B4F045
:100F1000B7C0BFF0B6C0BEF0B5C0BDF0B4C0BCF045
:100F2000C36BC26BC16B640EC06F95DD03C0BBF0B9
:100F300002C0BAF001C0B9F000C0B8F0B351020865
:100F400006E2300EB425BC6FBD6F53EC03F0B85110
:100F5000AF5FB951B05BBA51B15BBB51B25BD892D4
:100F6000B2C0BFF0B1C0BEF0B0C0BDF0AFC0BCF009
:100F7000C36BC26BC16B0A0EC06F26DD03C0B7F036
:100F800002C0B6F001C0B5F000C0B4F0B7C0BFF009
:100F9000B6C0BEF0B5C0BDF0B4C0BCF0C36BC26B90
:100FA000C16B0A0EC06F57DD03C0BBF002C0BAF0C0
:100FB00001C0B9F000C0B8F0B351010806E2300E2C
:100FC000B425BC6FBD6F53EC03F0B851AF5FB9519E
:100FD000B05BBA51B15BBB51B25BB351000806E2E2
:100FE000300EAF25BC6FBD6F53EC03F010EF08F06F
:100FF0002B0EAE6FACAF07D0AB1FAC1FAB2BD8B472
:10100000AC2B2D0EAE6FAEC0BDF053EC03F0B26B47
:10101000B16BACC0B0F0ABC0AFF0ADC0B3F0DED6DA
:101020001200166AF2BE168EF29E20C0CAF0180E8A
:10103000CB6FE2EC00F016BEF28E166AF2BE168E90
:10104000F29E21C0CAF0E00ECB6FE2EC00F016BEBB
:10105000F28E166AF2BE168EF29E22C0CAF0CB6BDA
:10106000E2EC00F016BEF28E1200D8B203D0EA6AAB
:10107000B10EE96EAC51B019800BB66FACAF0BD0AE
:10108000A91FAA1FAB1FAC1FA92BD8B4AA2BD8B479
:10109000AB2BD8B4AC2BB0AF0BD0AD1FAE1FAF1F76
:1010A000B01FAD2BD8B4AE2BD8B4AF2BD8B4B02B67
:1010B000006A016A026A036AB16BB26BB36BB46B0C
:1010C000B051AF11AE11AD112CE0200EB56FD8901C
:1010D000A937AA37AB37AC37B137B237B337B437E4
:1010E000B051B45D08E1AF51B35D05E1AE51B25D01
:1010F00002E1AD51B15D0FE3AD51B15FAE51D8A08A
:10110000AE3DB25FAF51D8A0AF3DB35FB051D8A0F4
:10111000B03DB45FD8800036013602360336B52FB5
:10112000D6D7B6AF0BD0001E011E021E031E002A2A
:10113000D8B4012AD8B4022AD8B4032AB1C0EFFF28
:10114000B2C0ECFFB3C0ECFFB4C0ECFF1200B60EAF
:10115000006E036A026A016AAD91ACAF0CD0AD813A
:10116000A91FAA1FAB1FAC1FA92B05E1AA2B03E1E6
:10117000AB2BD8B4AC2BA951AA11AB11AC1102E125
:10118000006A0FD0D89001BE09D0A937AA37AB3773
:10119000AC37033602360136002EF4D7019EADB1CE
:1011A000018E1200E950B16FB0AF0DD0B107B18B15
:1011B000AD1FAE1FAF1FB01FAD2BD8B4AE2BD8B430
:1011C000AF2BD8B4B02B3B0EB86F9A0EB76FCA0EC8
:1011D000B66FB56B0A0EB36FD882EA6AAD0EE96ED0
:1011E000B0C0BFF0AFC0BEF0AEC0BDF0ADC0BCF08F
:1011F000B8C0C3F0B7C0C2F0B6C0C1F0B5C0C0F04F
:10120000E4EC04F0015000520FE1B351010A0CE08C
:10121000B1510CE00F0BB35D01E027E2B1BF25D067
:10122000B1BD04D0200E1CD0200EB117B1AB0AD036
:10123000B19B00C0B1F02D0E9EA8FED7AD6EB1C01F
:1012400000F0B16B300EB1AB0BD0B19B00C0B1F070
:101250002D0E9EA8FED7AD6EB1C000F0B16B300E62
:10126000002600509EA8FED7AD6ED892B8C0BFF041
:10127000B7C0BEF0B6C0BDF0B5C0BCF0C36BC26BAA
:10128000C16B0A0EC06FE4EC04F003C0B8F002C0FA
:10129000B7F001C0B6F000C0B5F0B32F9DD7120073
:1012A0008E0E006EA951005EAAC002F0ABC001F024
:1012B000028E005209E0D890025202E1015204E08D
:1012C00002320132002EF7D7AAAF05D0011E021E4E
:1012D000012AD8B4022A12001AAA20D072EC03F014
:1012E000AA6B6CEC03F0EE0EF66E000EF76E5CEC83
:1012F00003F02FC035F02EC034F031C037F030C0CD
:1013000036F033C039F032C038F0040EA96FFA0E4F
:10131000AB6FA9EC02F0A92FFAD71A9AD89245C060
:10132000ACF044C0ABF043C0AAF042C0A9F0B06B2F
:10133000AF6BAE6B0A0EAD6F98DE03C0ACF002C0AF
:10134000ABF001C0AAF000C0A9F038C000F039C06D
:1013500001F0026A036A39AE02D0020603060050A9
:10136000A95D426E0150AA59436E0250AB59446EBA
:101370000350AC59456ED89241C0ACF040C0ABF0C0
:101380003FC0AAF03EC0A9F0B06BAF6BAE6B0A0EC7
:10139000AD6F6BDE03C0ACF002C0ABF001C0AAF0D1
:1013A00000C0A9F036C000F037C001F0026A036A3D
:1013B00037AE02D0020603060050A95D3E6E015012
:1013C000AA593F6E0250AB59406E0350AC59416E62
:1013D000D8923DC0ACF03CC0ABF03BC0AAF03AC0E4
:1013E000A9F0B06BAF6BAE6B0A0EAD6F3EDE03C003
:1013F000ACF002C0ABF001C0AAF000C0A9F034C04C
:1014000000F035C001F0026A036A35AE02D0020670
:1014100003060050A95D3A6E0150AA593B6E025076
:10142000AB593C6E0350AC593D6E3DC0ACF03CC076
:10143000ABF03BC0AAF03AC0A9F089DE03C0ACF023
:1014400002C0ABF001C0AAF000C0A9F09A0EB06FC4
:10145000990EAF6F010EAE6F770EAD6F27DC03C034
:1014600052F002C051F001C050F000C04FF052C025
:10147000ACF051C0ABF050C0AAF04FC0A9F05EC0B4
:10148000B0F05DC0AFF05CC0AEF05BC0ADF00EDCA4
:1014900003C052F002C051F001C050F000C04FF044
:1014A00041C0ACF040C0ABF03FC0AAF03EC0A9F0D4
:1014B0004EDE03C0ACF002C0ABF001C0AAF000C029
:1014C000A9F09A0EB06F990EAF6F010EAE6F770E46
:1014D000AD6F56EC06F003C056F002C055F001C0E7
:1014E00054F000C053F056C0ACF055C0ABF054C03F
:1014F000AAF053C0A9F062C0B0F061C0AFF060C004
:10150000AEF05FC0ADF056EC06F003C056F002C07E
:1015100055F001C054F000C053F045C0ACF044C0D9
:10152000ABF043C0AAF042C0A9F011DE03C0ACF09A
:1015300002C0ABF001C0AAF000C0A9F09A0EB06FD3
:10154000990EAF6F010EAE6F770EAD6F56EC06F0D1
:1015500003C05AF002C059F001C058F000C057F063
:101560005AC0ACF059C0ABF058C0AAF057C0A9F0AF
:1015700066C0B0F065C0AFF064C0AEF063C0ADF05F
:1015800056EC06F003C05AF002C059F001C058F002
:1015900000C057F05AC0ACF059C0ABF058C0AAF028
:1015A00057C0A9F0B06BAF6B7A0EAE6F880EAD6FFF
:1015B00056EC06F003C0ACF002C0ABF001C0AAF0DC
:1015C00000C0A9F0CFEC06F003C0ACF002C0ABF055
:1015D00001C0AAF000C0A9F0780E9EA8FED7AD6E9B
:1015E000450EE96EACC0B0F0ABC0AFF0AAC0AEF033
:1015F000A9C0ADF0D7DD0A0E9EA8FED7AD6E56C0CD
:10160000ACF055C0ABF054C0AAF053C0A9F0B06B19
:10161000AF6B7A0EAE6F880EAD6F56EC06F003C05E
:10162000ACF002C0ABF001C0AAF000C0A9F0CFEC52
:1016300006F003C0ACF002C0ABF001C0AAF000C0DD
:10164000A9F0790E9EA8FED7AD6E450EE96EACC02E
:10165000B0F0ABC0AFF0AAC0AEF0A9C0ADF0A2DD53
:101660000A0E9EA8FED7AD6E52C0ACF051C0ABF0D2
:1016700050C0AAF04FC0A9F0B06BAF6B7A0EAE6F3E
:10168000880EAD6F56EC06F003C0ACF002C0ABF0B4
:1016900001C0AAF000C0A9F0CFEC06F003C0ACF086
:1016A00002C0ABF001C0AAF000C0A9F07A0E9EA85B
:1016B000FED7AD6E450EE96EACC0B0F0ABC0AFF07A
:1016C000AAC0AEF0A9C0ADF06DDD0A0E9EA8FED78F
:1016D000AD6EAA6B6CEC03F0000EF66E010EF76EA9
:1016E0005CEC03F05AC0ACF059C0ABF058C0AAF0A3
:1016F00057C0A9F0B06BAF6B7A0EAE6F880EAD6FAE
:1017000056EC06F003C0ACF002C0ABF001C0AAF08A
:1017100000C0A9F0C5DD02C0AAF001C0A9F002C056
:10172000ACF001C0ABF0040EAD6F62DC060EF66EDD
:10173000010EF76E5CEC03F0400EAA6F6CEC03F048
:101740000C0EF66E010EF76E5CEC03F056C0ACF0BA
:1017500055C0ABF054C0AAF053C0A9F0B06BAF6B4A
:101760007A0EAE6F880EAD6F56EC06F003C0ACF08B
:1017700002C0ABF001C0AAF000C0A9F091DD02C028
:10178000AAF001C0A9F002C0ACF001C0ABF0040E99
:10179000AD6F2EDC120EF66E010EF76E5CEC03F0F0
:1017A000100EAA6F6CEC03F0180EF66E010EF76EB9
:1017B0005CEC03F052C0ACF051C0ABF050C0AAF0EA
:1017C0004FC0A9F0B06BAF6B7A0EAE6F880EAD6FE5
:1017D00056EC06F003C0ACF002C0ABF001C0AAF0BA
:1017E00000C0A9F05DDD02C0AAF001C0A9F002C0EE
:1017F000ACF001C0ABF0040EAD6FF8EC07F01E0EBC
:10180000F66E010EF76E5CEC03F01A9019EF0EF015
:101810000900F5520DE0F6CFA9F0F7CFAAF0F55088
:101820009EA8FED7AD6EA9C0F6FFAAC0F7FFF0D7FD
:1018300047EF0EF0F86AD09E078EA796400EAF6E67
:10184000A60EAC6E900EAB6E1A901A921A941A965F
:101850001A981B6A1A9A1A9C1A9E1C901C821D6A5E
:101860001E6A1F6A206A010E216E020E226E030E8E
:10187000236E040E246E050E256E060E266E070ED0
:10188000276E080E286E090E296E100E2A6E110E94
:101890002B6E120E2C6EA00E2D6E2F6A2E6A316AE0
:1018A000306A336A326A356A346A376A366A396A44
:1018B000386A3D6A3C6A3B6A3A6A416A406A3F6AF2
:1018C0003E6A456A446A436A426A476A466A486AA7
:1018D0004A6A496A4B6A4D6A4C6A4E6A526A516A50
:1018E000506A4F6A566A556A546A536A5A6A596A04
:1018F000586A576A5E6A5D6A5C6A7F0E5B6E626BED
:10190000616B606B5F6E666B656B646B636F876B3F
:10191000886B8D6B936B926B976B966B996B986BD7
:101920000F015C51800B5C6F000E5D6FC196C1981A
:10193000C19A5E6B5F6B06D0030017000000204069
:1019400067000000000EF86E190EF76E380EF66E86
:101950000900F550006E000A13E00900F550016E11
:10196000E8BE05D00F0BEA6E0900F5CFE9FF01BC18
:10197000090001AC0900F5CFEEFF004EE9D7F9D719
:10198000F86A0001A6919380939293969398939A04
:10199000949094929494949A94869488949C948E1F
:1019A000F18C9D8AF288860ED56ED90ED76EDA0E2E
:1019B000D66EC00EF2128A8203EF03F07BEF03F0C3
:1019C000A76BA75109080EE380EC04F0A69101B0C3
:1019D000A681A6A101D006D0640EAB6FA9EC02F0DF
:1019E000A72BEFD7100EAA6F6CEC03F0A6A1F1D0D5
:1019F000DE0EF66E030EF76E5CEC03F0040EA96FBC
:101A0000FA0EAB6FA9EC02F0A92FFAD772EC03F033
:101A1000AA6B6CEC03F0F00EF66E030EF76E5CEC46
:101A200003F0400EAA6F6CEC03F08E511E0809E122
:101A30008F5307E1020EF66E040EF76E5CEC03F0B6
:101A400006D0140EF66E040EF76E5CEC03F0500E2A
:101A5000AA6F6CEC03F0260EF66E040EF76E5CECCB
:101A600003F0AC6BAB6B91C0AAF090C0A9F0030E71
:101A7000AD6F55EC05F0080EA96FFA0EAB6FA9EC2F
:101A800002F0A92FFAD772EC03F0AA6B6CEC03F00A
:101A9000320EF66E040EF76E5CEC03F0400EAA6F89
:101AA0006CEC03F0400EF66E040EF76E5CEC03F087
:101AB0005EC0ACF05DC0ABF05CC0AAF05BC0A9F04A
:101AC000B06BAF6B7A0EAE6F880EAD6F56EC06F052
:101AD00003C0ACF002C0ABF001C0AAF000C0A9F096
:101AE000CFEC06F001C0AAF000C0A9F001C0ACF034
:101AF00000C0ABF0050EAD6FF8EC07F0100EAA6F4A
:101B00006CEC03F0460EF66E040EF76E5CEC03F020
:101B100062C0ACF061C0ABF060C0AAF05FC0A9F0D9
:101B2000B06BAF6B7A0EAE6F880EAD6F56EC06F0F1
:101B300003C0ACF002C0ABF001C0AAF000C0A9F035
:101B4000CFEC06F001C0AAF000C0A9F001C0ACF0D3
:101B500000C0ABF0050EAD6FF8EC07F0500EAA6FA9
:101B60006CEC03F04C0EF66E040EF76E5CEC03F0BA
:101B700066C0ACF065C0ABF064C0AAF063C0A9F069
:101B8000B06BAF6B7A0EAE6F880EAD6F56EC06F091
:101B900003C0ACF002C0ABF001C0AAF000C0A9F0D5
:101BA000CFEC06F001C0AAF000C0A9F001C0ACF073
:101BB00000C0ABF0050EAD6FF8EC07F0080EA96F92
:101BC000FA0EAB6FA9EC02F0A92FFAD772EC03F072
:101BD00025D0520EF66E040EF76E5CEC03F0040E88
:101BE000A96FFA0EAB6FA9EC02F0A92FFAD75E6AC3
:101BF0005D6A5C6A7F0E5B6E626B616B606B5F6ED1
:101C0000666B656B646B636F500EAA6F6CEC03F0D0
:101C1000640EF66E040EF76E5CEC03F011EC08F047
:101C2000640EAB6FA9EC02F0F28A1AA002D06CEF3E
:101C300009F01AA62CD0AA6B6CEC03F0720EF66EAB
:101C4000040EF76E5CEC03F0400EAA6F6CEC03F030
:101C5000820EF66E040EF76E5CEC03F0100EAA6FA7
:101C60006CEC03F0920EF66E040EF76E5CEC03F073
:101C7000500EAA6F6CEC03F0A20EF66E040EF76E17
:101C80005CEC03F0B20EF66E040EF76EC1D51AA826
:101C900042D11A96F29A020EA96F960EAB6FA9EC7A
:101CA00002F0A92FFAD7A86BA85109080EE380EC1F
:101CB00004F0A69101B0A681A6A101D006D0640EC1
:101CC000AB6FA9EC02F0A82BEFD7100EAA6F6CEC4B
:101CD00003F0A6A1F1D0BE0EF66E040EF76E5CEC1A
:101CE00003F0040EA96FFA0EAB6FA9EC02F0A92F56
:101CF000FAD772EC03F0AA6B6CEC03F0D00EF66E20
:101D0000040EF76E5CEC03F0400EAA6F6CEC03F06F
:101D10008E511E0809E18F5307E1E20EF66E040EA4
:101D2000F76E5CEC03F006D0F40EF66E040EF76E60
:101D30005CEC03F0500EAA6F6CEC03F0060EF66E2E
:101D4000050EF76E5CEC03F0AC6BAB6B91C0AAF0C8
:101D500090C0A9F0030EAD6F55EC05F0080EA96F09
:101D6000FA0EAB6FA9EC02F0A92FFAD772EC03F0D0
:101D7000AA6B6CEC03F0120EF66E050EF76E5CECBF
:101D800003F0400EAA6F6CEC03F0200EF66E050E09
:101D9000F76E5CEC03F05EC0ACF05DC0ABF05CC015
:101DA000AAF05BC0A9F0B06BAF6B7A0EAE6F880E75
:101DB000AD6F56EC06F003C0ACF002C0ABF001C052
:101DC000AAF000C0A9F0CFEC06F001C0AAF000C054
:101DD000A9F001C0ACF000C0ABF0050EAD6FF8EC9F
:101DE00007F0100EAA6F6CEC03F0260EF66E050ECF
:101DF000F76E5CEC03F062C0ACF061C0ABF060C0A9
:101E0000AAF05FC0A9F0B06BAF6B7A0EAE6F880E10
:101E1000AD6F56EC06F003C0ACF002C0ABF001C0F1
:101E2000AAF000C0A9F0CFEC06F001C0AAF000C0F3
:101E3000A9F001C0ACF000C0ABF0050EAD6FF8EC3E
:101E400007F0500EAA6F6CEC03F02C0EF66E050E28
:101E5000F76E5CEC03F066C0ACF065C0ABF064C03C
:101E6000AAF063C0A9F0B06BAF6B7A0EAE6F880EAC
:101E7000AD6F56EC06F003C0ACF002C0ABF001C091
:101E8000AAF000C0A9F0CFEC06F001C0AAF000C093
:101E9000A9F001C0ACF000C0ABF0050EAD6FF8ECDE
:101EA00007F0080EA96FFA0EAB6FA9EC02F0A92F8C
:101EB000FAD772EC03F025D0320EF66E050EF76EEF
:101EC0005CEC03F0040EA96FFA0EAB6FA9EC02F004
:101ED000A92FFAD75E6A5D6A5C6A7F0E5B6E626BE1
:101EE000616B606B5F6E666B656B646B636F500EEE
:101EF000AA6F6CEC03F0440EF66E050EF76E5CEC08
:101F000003F01A9811EC08F011EC08F0640EAB6FB6
:101F1000A9EC02F0F28A80B601D01A8A86D60300B4
:020000040030CA
:0E00000015C3787C008991000FC00FE00F40FF
:00000001FF
;PIC18F25K80
;CRC=0EA1  CREATED="29-дек-16 14:32"
