:020000040800F2
:1000000008100020A9090008CD090008D10900083E
:10001000D5090008D9090008DD0900080000000022
:10002000000000000000000000000000E1090008DE
:10003000E509000800000000E9090008ED090008D2
:10004000F1090008F5090008F9090008000000009E
:1000500000000000FD0900081B060008050A000852
:10006000090A0008000000000D0A0008110A000833
:10007000150A000800000000190A00081D0A0008FF
:10008000E1050008250A000800000000290A000810
:100090002D0A000800000000000000000000000021
:1000A000000000000000000000000000310A00080D
:1000B000350A0008390A00083D0A0008410A00080C
:1000C000DFF88002006850F00400DFF87812086062
:1000D000DFF8BC03006850F00070DFF8B41308606C
:1000E0000020DFF8B01308600020DFF890120860ED
:1000F0000020DFF8981208604FF6FF70DFF89012CA
:1001000008600020DFF88C1208600020DFF88812F9
:1001100008600120DFF87C1308607047B0F1807F31
:1001200001D301200FE00021DFF870221160DFF819
:100130008C120860DFF80C02006850F00100DFF854
:10014000041208600020704738B50400002509E05B
:10015000DFF86C02FFF7E2FFDFF8E8010068C00398
:10016000FAD56D1CA542F3D331BD0021DFF80C2276
:1001700011604F21484380B2DFF8001209688842BD
:10018000F9D27047002006E00021DFF83822C0B223
:1001900042F82010401CC0B27D28F5DB7047DFF824
:1001A000EC120978491CDFF8E4221170DFF8D8124C
:1001B000DFF8D822127812F00F0250547047032053
:1001C000DFF83C150860DFF83C0500684007FAD509
:1001D0004FF48270DFF830150860DFF828050068FA
:1001E0008007FAD54FF48B70DFF8201508605FF0B8
:1001F000FF30DFF81C1508600020DFF8941208605B
:1002000070474FF6D570DFF80C1508600020DFF856
:10021000081508604FF6FF70DFF8001508605FF002
:10022000FF30DFF8FC1408604FF6FE70DFF8F414BE
:1002300008600220DFF8F01408604FF6FF70DFF866
:10024000EC1408605FF0FF30DFF8E41408604FF64C
:10025000FF70DFF8E01408600020DFF8DC140860AD
:100260004FF6FF70DFF8D41408605FF0FF30DFF85E
:10027000D01408602820DFF8CC1408600020DFF8D4
:10028000C81408604FF6FF70DFF8C01408605FF014
:10029000FF30DFF8BC1408600020DFF8B8140860F5
:1002A0004FF6FF70DFF8B01408600020DFF8AC14E0
:1002B00008604FF6FF70DFF8A81408605FF0FF30A9
:1002C000DFF8A01408604FF6B770DFF89C140860E0
:1002D000AA20DFF8981408604FF6FF70DFF890143A
:1002E00008605FF0FF30DFF88C14086070474FF44F
:1002F0008060DFF88414086048F21000DFF87C1496
:1003000008600620DFF8781408600020DFF8741415
:1003100008603120DFF87014086040F28F10DFF8B9
:100320006C1408602020DFF86814086058480068E2
:1003300050F08060564908600020DFF858140860CB
:100340007047000010E000E0DFF8C403006850F4DC
:100350008070DFF8BC1308605FF08070DFF838143D
:1003600008608F20DFF8341408600420DFF83014B0
:1003700008600220DFF82C140860704700800740F6
:1003800080B2DFF824140860704700000480074042
:1003900008800740588007405480074018E000E07C
:1003A000DFF86C03006850F40030DFF86413086075
:1003B00043F20800DFF8F4130860704714E000E02F
:1003C0007F3801000810002010B50400DFF8E003BA
:1003D000006850F08000DFF8D81308600A20FFF7AB
:1003E000C4FEE4B2002C03D0022C0FD007D314E0DB
:1003F0004FF440400321DFF8BC2311700FE04FF4AD
:1004000044400621DFF8AC23117008E04FF44C4063
:100410000C21DFF8A023117001E04FF44C4080B2B2
:10042000FFF7AEFF0A20FFF7A0FEDFF884030068A5
:1004300030F08000DFF87813086010BD10B50400BC
:10044000DFF87403006850F00100DFF86C130860F7
:10045000DFF86403006850F00200DFF85C13086006
:10046000DFF85403006850F00400DFF84C13086014
:100470000120FFF769FE2000C0B2FFF7A5FF0120B1
:10048000FFF762FE10BD0000FC1100201D120020CD
:10049000240002400C80074080B5DFF8200300688C
:1004A000C043DFF8181308600A20FFF75EFEDFF88C
:1004B0000C030068C043DFF8041308600A20FFF74C
:1004C00054FEDFF8FC02006850F00800DFF8F0127C
:1004D0000860DFF8EC02006830F02000DFF8E0127E
:1004E0000860DFF8D8020068C043DFF8D012086067
:1004F000DFF8D0020088FFF738FEDFF8C00200689E
:10050000C043DFF8B8120860DFF8B402006850F0AA
:100510002000DFF8AC12086001BD00007C480068D4
:1005200050F480007A4908607F48006850F42050F9
:100530007D4908607D48006850F060007B49086094
:100540007B48006850F47050794908607048006832
:1005500050F040006E4908609B489C4908600220AA
:100560009B4908602E209B49086060209A490860DA
:1005700010209A49086040F201309949086070479C
:10058000984909688906FBD4C0B29749086070474A
:100590003EB505000024002D03D56D422D20FFF748
:1005A000EFFF002D10D13020FFF7EAFF37BD0A2002
:1005B00095FBF0F100FB115030306946E4B2605415
:1005C000641C0A2095FBF0F5002DF0D1E4B2002C5C
:1005D000ECD0641E6846E4B2205CFFF7D1FFF5E77B
:1005E00080B56C480068800610D5634800684008F4
:1005F000400061490860002078490860FFF74CFF1F
:1006000010207649086001207849087000205D4973
:10061000086000205F49086001BD80B5724800682D
:10062000C0B2FFF7BCFD10207149086001BD80B564
:10063000FFF7C5FDFFF744FDFFF7E3FDFFF76EFF92
:100640001020FFF781FEFFF752FE01BDF8B5002034
:10065000FFF7EDFFFFF796FD66480078FFF7EEFE27
:10066000FFF79EFE0020554908605548006850F08D
:100670000800534908605248006850F02000504973
:1006800008606420FFF771FD7FF040040025142608
:100690001DE05620FFF774FF2000FFF779FF0A20C6
:1006A000FFF76EFF36B23000FFF74EFD7F1C642F60
:1006B000EFDB5620FFF764FF2000FFF769FF0A20F9
:1006C000FFF75EFF36B23000FFF73EFD6D1CA81E3F
:1006D000582800D20B34B5F165003B2801D24FF405
:1006E0006774B5F1BF00592800D20B3CB5F58C7F7B
:1006F000DFDD7FF0400400250027D8E70000000080
:100700000800024000000240040002400C000240C9
:100710001C00024004800A4008800A400C800A4005
:1007200018800A4004000B4008000B400C000B40EE
:1007300018000B4004800B4008800B400C800B40DD
:1007400018800B4004000C4008000C400C000C40CA
:1007500018000C4014000C4004800C4008800C4031
:100760000C800C4018800C4004800E4008800E4025
:100770000C800E4018800E400C00084020000840FD
:1007800060000840000008400400084008000840DD
:1007900058000840540008402C000240000004406B
:1007A0001000044004000440080004400080084099
:1007B00000000B400700002000800C4000800B4030
:1007C00000000C400400002004000001280002404A
:1007D00024000340280003402C000340380003405D
:1007E0003000034018000340000003401C120020AA
:1007F0004400034006000020244909682349096891
:10080000C90700D5400821490968490705D520498D
:100810000968C1F30321491C48431C490968090AB6
:1008200011F00301002903D002290CD001D30BE001
:100830000AE016490968C1F30311491CB0FBF1F045
:100840001449086000E0FFE7704780B5124813497B
:1008500008600E48006800200C4908600C480068D9
:1008600000200B4908600E48006800200C49086011
:100870000C48006800200B4908600B480068002005
:1008800009490860FFF7B8FF01BD00000C000240F5
:100890000400024000000020100000081C0002407C
:1008A00008000240100002401400024019E050F815
:1008B000041BCB0744BFA9F101035918121F0023E1
:1008C000042A41F8043BF9D25FEA827C0B4604D546
:1008D0004FF0000CA1F800C09B1CD10744BF0021C1
:1008E000197050F8042B002AE1D1704710B450F869
:1008F000041B79B10268436812180830DC0744BF52
:10090000A9F10104E31852F8044B43F8044B091F02
:10091000F9D1ECE710BC704710B50749794418319C
:10092000064C7C44163404E00A68081D51188847B8
:100930000146A142F8D110BD0800000028000000C7
:100940006DFFFFFF180200000810002000000000EB
:100950009DFFFFFF080000006C0000000000002069
:100960000000000000F00BF8002801D0FFF7D4FFD2
:100970000020C046C046FFF769FE00F002F80120E3
:10098000704700F001B800000746384600F002F852
:10099000FBE7000080B5C046C046024A110018209F
:1009A000ABBEFBE726000200014880470148004734
:1009B0004B080008B9090008C046C046C046C046FA
:1009C000FFF7D0FF00127A001E00020CFFF7FEBFF7
:1009D000FFF7FEBFFFF7FEBFFFF7FEBFFFF7FEBF4B
:1009E000FFF7FEBFFFF7FEBFFFF7FEBFFFF7FEBF3B
:1009F000FFF7FEBFFFF7FEBFFFF7FEBFFFF7FEBF2B
:100A0000FFF70BBEFFF7FEBFFFF7FEBFFFF7FEBF0E
:100A1000FFF7FEBFFFF7FEBFFFF7FEBFFFF7FEBF0A
:100A2000FFF7DEBDFFF7FEBFFFF7FEBFFFF7FEBF1C
:100A3000FFF7FEBFFFF7FEBFFFF7FEBFFFF7FEBFEA
:040A4000FFF7FEBFFF
:04000005080009B92D
:00000001FF
