:1000000000308A006B280000FF00030E8301A1006E
:100010007F08A0000A08A8008A01A00E0408A20018
:100020007708A3007808A4007908A5007A08A6003C
:100030007B08A700831383120B1E20288B184328EC
:100040008C308400001C26280C1845288C30840035
:10005000801C2C288C1847288B1E30280B19492807
:10006000220884002308F7002408F8002508F90076
:100070002608FA002708FB0028088A00210E8300C2
:10008000FF0E7F0E09008A1157288A114B288A110A
:100090004F288A1153280C100C108A1130288C100C
:1000A0008C108A1130280B110B118A113028861CF4
:1000B0005F2806123A080319BB03BA036328061621
:1000C000BA0A0319BB0A5330F700F70B65288B10E7
:1000D0008B108A113028840183131F308305203050
:1000E00083169900A63098009030831298008316EA
:1000F0001F129F121B0880399B0007309C0083123F
:10010000A9012A10AA10AB01AD01AE01AF01B001E7
:10011000B101B201B301B401B501B601B701B80133
:10012000B901BA01BB0183161F129F121B08803947
:100130009B0083121F109412831606118614061258
:100140000130831294000030831694000108C739EF
:10015000083881009530831290000030F80006388E
:100160009200593083169200831290010B16831669
:100170000117C03083128B0483160614861486116F
:100180000612831286108611BB1FD028BB010930CE
:10019000BA0086155330F700F70BCC288611E128FA
:1001A000BB1BE128BB08031DD9283A08093C0318EA
:1001B000E128BB01BA0186155330F700F70BDE28A2
:0601C0008611C428630053
:04400E002A3FFC3F0A
:00000001FF
;PIC16F88
